{
	"data": {
		"bytecode": {
			"linkReferences": {},
			"object": "608060405260098054600162ffff0160a01b03191676010000000000000000000000000000000000000000dead1790556000600a819055600b55601e805460ff199081166001908117909255620493e0601f556027805490911690911790556401a13b8600602855603c602c553480156200007957600080fd5b5060405180604001604052806004815260200163151154d560e21b815250604051806040016040528060068152602001654652454e4e4160d01b8152508160039081620000c7919062000b99565b506004620000d6828262000b99565b5050506000620000eb620008a860201b60201c565b600580546001600160a01b0319166001600160a01b038316908117909155604051919250906000907f8be0079c531659141344cd1fd0a4f28419497f9722a3daafe3b4186f6b6457e0908290a350600f805473aec4d52511fcc14f970a1de9053b497bb4fb07146001600160a01b031991821681179092556010805482169092179091556007805473e9e7cea3dedca5984780bafc599bd69add087d569216919091179055600060178190556014819055600460188190556015819055601982905560168290556001601a81905560138190556002601b819055601c819055601d8490557310ed43c718714eb63d5aa57b78b54704e256024e936200021b939192620002079291839190620008ac602090811b6200311d17901c565b620008ac60201b6200311d1790919060201c565b600d819055506200024d601c546200020760155462000207601654601354620008ac60201b6200311d1790919060201c565b600c81905550308173e9e7cea3dedca5984780bafc599bd69add087d56604051620002789062000ae7565b6001600160a01b0393841681529183166020830152909116604082015260a060608201819052600b908201526a212aa9a22a2920a1a5a2a960a91b60c082015260e0608082018190526009908201526823a12a2920a1a5a2a960b91b61010082015261012001604051809103906000f080158015620002fb573d6000803e3d6000fd5b50600e80546001600160a01b039283166001600160a01b0319918216179091556006805492841692909116821790556040805163c45a015560e01b8152905163c45a0155916004808201926020929091908290030181865afa15801562000366573d6000803e3d6000fd5b505050506040513d601f19601f820116820180604052508101906200038c919062000c65565b6001600160a01b031663c9c6539630600660009054906101000a90046001600160a01b03166001600160a01b031663ad5c46486040518163ffffffff1660e01b8152600401602060405180830381865afa158015620003ef573d6000803e3d6000fd5b505050506040513d601f19601f8201168201806040525081019062000415919062000c65565b6040516001600160e01b031960e085901b1681526001600160a01b039283166004820152911660248201526044016020604051808303816000875af115801562000463573d6000803e3d6000fd5b505050506040513d601f19601f8201168201806040525081019062000489919062000c65565b600880546001600160a01b0319166001600160a01b03929092169182179055620004b59060016200091a565b600e5460405163031e79db60e41b81526001600160a01b0390911660048201819052906331e79db090602401600060405180830381600087803b158015620004fc57600080fd5b505af115801562000511573d6000803e3d6000fd5b5050600e5460405163031e79db60e41b81523060048201526001600160a01b0390911692506331e79db09150602401600060405180830381600087803b1580156200055b57600080fd5b505af115801562000570573d6000803e3d6000fd5b5050600e5460095460405163031e79db60e41b81526001600160a01b039182166004820152911692506331e79db09150602401600060405180830381600087803b158015620005be57600080fd5b505af1158015620005d3573d6000803e3d6000fd5b5050600e54604051634e7b827f60e01b8152600060048201526001600160a01b039091169250634e7b827f9150602401602060405180830381865afa15801562000621573d6000803e3d6000fd5b505050506040513d601f19601f8201168201806040525081019062000647919062000c90565b50600e5460405163031e79db60e41b81526001600160a01b038381166004830152909116906331e79db090602401600060405180830381600087803b1580156200069057600080fd5b505af1158015620006a5573d6000803e3d6000fd5b5050600e54600f5460405163031e79db60e41b81526001600160a01b039182166004820152911692506331e79db09150602401600060405180830381600087803b158015620006f357600080fd5b505af115801562000708573d6000803e3d6000fd5b5050600e546001600160a01b031691506331e79db09050620007326005546001600160a01b031690565b6040516001600160e01b031960e084901b1681526001600160a01b039091166004820152602401600060405180830381600087803b1580156200077457600080fd5b505af115801562000789573d6000803e3d6000fd5b50503060009081526020805260408082208054600160ff199182168117909255600e546001600160a01b0390811685528385208054831684179055600f5481168552838520805483168417905560105416845282842080548216831790553384529190922080549091169091179055506a084595161401484a0000009050620008256200081e6005546001600160a01b031690565b82620009e6565b6200083260198262000cb4565b601155620008436107d08262000cb4565b6012556001602660006200085f6005546001600160a01b031690565b6001600160a01b0316815260208082019290925260409081016000908120805494151560ff1995861617905530815260269092529020805490911660011790555062000cfe9050565b3390565b600080620008bb838562000cd7565b905083811015620009135760405162461bcd60e51b815260206004820152601b60248201527f536166654d6174683a206164646974696f6e206f766572666c6f77000000000060448201526064015b60405180910390fd5b9392505050565b6001600160a01b0382166000908152602260205260409020805460ff19168215801591909117909155620009aa57600e5460405163031e79db60e41b81526001600160a01b038481166004830152909116906331e79db090602401600060405180830381600087803b1580156200099057600080fd5b505af1158015620009a5573d6000803e3d6000fd5b505050505b604051811515906001600160a01b038416907fffa9187bf1f18bf477bd0ea1bcbb64e93b6a98132473929edfce215cd9b16fab90600090a35050565b6001600160a01b03821662000a3e5760405162461bcd60e51b815260206004820152601f60248201527f45524332303a206d696e7420746f20746865207a65726f20616464726573730060448201526064016200090a565b62000a5a81600254620008ac60201b6200311d1790919060201c565b6002556001600160a01b0382166000908152602081815260409091205462000a8d9183906200311d620008ac821b17901c565b6001600160a01b038316600081815260208181526040808320949094559251848152919290917fddf252ad1be2c89b69c2b068fc378daa952ba7f163c4a11628f55a4df523b3ef910160405180910390a35050565b505050565b6130e78062005d0583390190565b634e487b7160e01b600052604160045260246000fd5b600181811c9082168062000b2057607f821691505b60208210810362000b4157634e487b7160e01b600052602260045260246000fd5b50919050565b601f82111562000ae257600081815260208120601f850160051c8101602086101562000b705750805b601f850160051c820191505b8181101562000b915782815560010162000b7c565b505050505050565b81516001600160401b0381111562000bb55762000bb562000af5565b62000bcd8162000bc6845462000b0b565b8462000b47565b602080601f83116001811462000c05576000841562000bec5750858301515b600019600386901b1c1916600185901b17855562000b91565b600085815260208120601f198616915b8281101562000c365788860151825594840194600190910190840162000c15565b508582101562000c555787850151600019600388901b60f8161c191681555b5050505050600190811b01905550565b60006020828403121562000c7857600080fd5b81516001600160a01b03811681146200091357600080fd5b60006020828403121562000ca357600080fd5b815180151581146200091357600080fd5b60008262000cd257634e487b7160e01b600052601260045260246000fd5b500490565b6000821982111562000cf957634e487b7160e01b600052601160045260246000fd5b500190565b614ff78062000d0e6000396000f3fe6080604052600436106104fb5760003560e01c8063837ae2d01161028c578063ad56c13c1161015a578063e2f45605116100cc578063f5d3c79a11610085578063f5d3c79a14610fd2578063f637434214610ff2578063f8b45b0514611008578063f9f92be41461101e578063fc6b151c1461103e578063fe575a871461105e57600080fd5b8063e2f4560514610f24578063e7841ec014610f3a578063f11a24d314610f4f578063f1c0ddff14610f65578063f27fd25414610f92578063f2fde38b14610fb257600080fd5b8063bb4c9f0b1161011e578063bb4c9f0b14610e48578063bb8d513114610e68578063d07a091c14610e7e578063d5e3725114610e9e578063d8032ed314610ebe578063dd62ed3e14610ede57600080fd5b8063ad56c13c14610d6b578063b494298814610dc2578063b62496f514610dd8578063b74e3b1114610e08578063ba079d4914610e2857600080fd5b80639c1b8af5116101fe578063a457c2d7116101b7578063a457c2d714610c7d578063a694fc3a14610c9d578063a8b9d24014610cbd578063a9059cbb14610cdd578063aa4704f314610cfd578063acb2ad6f14610d5557600080fd5b80639c1b8af514610bdb5780639c3372ea14610bf15780639c3b4fdc14610c115780639cefc1da14610c275780639ec1037e14610c47578063a0d82dc514610c6757600080fd5b80638ca2923a116102505780638ca2923a14610b3c5780638da5cb5b14610b525780638ea5220f14610b7057806395451c2914610b9057806395d89b4114610ba65780639a7a23d614610bbb57600080fd5b8063837ae2d014610aa75780638577a6d514610ac7578063868730c714610ae7578063871c128d14610b075780638a8c523c14610b2757600080fd5b80634a62bb65116103c9578063679ca6e91161033b57806372d8edf4116102f457806372d8edf4146109e457806375829def14610a0457806375f0a87414610a2457806377a3b60914610a445780637d32f34214610a5a5780637fdde05c14610a8757600080fd5b8063679ca6e91461092f5780636843cd841461094f5780636d48467b1461096f578063700bb1911461098f57806370a08231146109af578063715018a6146109cf57600080fd5b80635124f8741161038d5780635124f8741461088e5780635a84c5eb146108a45780635c234bb6146108c45780635ebf4db9146108da5780635eee4bae146108fa57806364b0f6531461091a57600080fd5b80634a62bb65146107ec5780634a74bb02146108065780634ada218b146108205780634e71d92d146108415780634fbee1931461085657600080fd5b80632307b4411161046d5780633599bb17116104265780633599bb171461072957806339509351146107495780633f407b841461076957806340ffdd801461077f578063435c89e41461079f57806349bd5a5e146107cc57600080fd5b80632307b4411461068357806323b872dd146106a357806325cd3598146106c35780632c1f5216146106d857806330bb4cff146106f8578063313ce5671461070d57600080fd5b8063095ea7b3116104bf578063095ea7b3146105c85780630ef35b7e146105f85780631694505e1461061857806318160ddd146106385780631d7b1fb4146106575780631fa705311461066d57600080fd5b806303fd2a451461050757806305ca5f081461054457806306fdde031461056657806308dfe8a51461058857806309231602146105a857600080fd5b3661050257005b600080fd5b34801561051357600080fd5b50600954610527906001600160a01b031681565b6040516001600160a01b0390911681526020015b60405180910390f35b34801561055057600080fd5b5061056461055f3660046147a8565b61108e565b005b34801561057257600080fd5b5061057b61115f565b60405161053b91906147c1565b34801561059457600080fd5b506105646105a3366004614839565b6111f1565b3480156105b457600080fd5b506105646105c33660046147a8565b611278565b3480156105d457600080fd5b506105e86105e3366004614872565b611307565b604051901515815260200161053b565b34801561060457600080fd5b5061056461061336600461489e565b61131e565b34801561062457600080fd5b50600654610527906001600160a01b031681565b34801561064457600080fd5b506002545b60405190815260200161053b565b34801561066357600080fd5b50610649602c5481565b34801561067957600080fd5b50610649600b5481565b34801561068f57600080fd5b5061056461069e366004614996565b611403565b3480156106af57600080fd5b506105e86106be366004614a58565b6115d4565b3480156106cf57600080fd5b5061052761163d565b3480156106e457600080fd5b50600e54610527906001600160a01b031681565b34801561070457600080fd5b506106496116b0565b34801561071957600080fd5b506040516012815260200161053b565b34801561073557600080fd5b50610564610744366004614a99565b61171e565b34801561075557600080fd5b506105e8610764366004614872565b6117ab565b34801561077557600080fd5b50610649600a5481565b34801561078b57600080fd5b5061056461079a366004614a99565b6117e1565b3480156107ab57600080fd5b506106496107ba3660046147a8565b60256020526000908152604090205481565b3480156107d857600080fd5b50600854610527906001600160a01b031681565b3480156107f857600080fd5b506027546105e89060ff1681565b34801561081257600080fd5b50601e546105e89060ff1681565b34801561082c57600080fd5b506009546105e890600160b01b900460ff1681565b34801561084d57600080fd5b5061056461183c565b34801561086257600080fd5b506105e8610871366004614ab6565b6001600160a01b0316600090815260208052604090205460ff1690565b34801561089a57600080fd5b5061064960185481565b3480156108b057600080fd5b506105646108bf3660046147a8565b6118b4565b3480156108d057600080fd5b5061064960175481565b3480156108e657600080fd5b506105646108f53660046147a8565b61190f565b34801561090657600080fd5b506105646109153660046147a8565b61196a565b34801561092657600080fd5b506106496119ac565b34801561093b57600080fd5b5061056461094a366004614a99565b6119f6565b34801561095b57600080fd5b5061064961096a366004614ab6565b611a33565b34801561097b57600080fd5b506105e861098a366004614ab6565b611aa3565b34801561099b57600080fd5b506105646109aa3660046147a8565b611b13565b3480156109bb57600080fd5b506106496109ca366004614ab6565b611be5565b3480156109db57600080fd5b50610564611c00565b3480156109f057600080fd5b506105646109ff366004614ab6565b611c74565b348015610a1057600080fd5b50610564610a1f366004614ab6565b611cd0565b348015610a3057600080fd5b50600f54610527906001600160a01b031681565b348015610a5057600080fd5b50610649601a5481565b348015610a6657600080fd5b50610649610a75366004614ab6565b60246020526000908152604090205481565b348015610a9357600080fd5b50610564610aa2366004614839565b611d84565b348015610ab357600080fd5b50610564610ac2366004614ad3565b611dd9565b348015610ad357600080fd5b50610564610ae23660046147a8565b611f83565b348015610af357600080fd5b50610564610b02366004614a99565b61203a565b348015610b1357600080fd5b50610564610b223660046147a8565b612072565b348015610b3357600080fd5b506105646120ee565b348015610b4857600080fd5b5061064960145481565b348015610b5e57600080fd5b506005546001600160a01b0316610527565b348015610b7c57600080fd5b50601054610527906001600160a01b031681565b348015610b9c57600080fd5b5061064960155481565b348015610bb257600080fd5b5061057b612171565b348015610bc757600080fd5b50610564610bd6366004614839565b612180565b348015610be757600080fd5b50610649601f5481565b348015610bfd57600080fd5b50610564610c0c366004614a99565b6121b8565b348015610c1d57600080fd5b50610649601b5481565b348015610c3357600080fd5b50610564610c42366004614a99565b612214565b348015610c5357600080fd5b50610564610c62366004614ab6565b6122aa565b348015610c7357600080fd5b50610649601c5481565b348015610c8957600080fd5b506105e8610c98366004614872565b612381565b348015610ca957600080fd5b50610564610cb83660046147a8565b6123d0565b348015610cc957600080fd5b50610649610cd8366004614ab6565b6125f3565b348015610ce957600080fd5b506105e8610cf8366004614872565b612626565b348015610d0957600080fd5b50610d40610d18366004614ab6565b6001600160a01b03166000908152602460209081526040808320546023909252909120549091565b6040805192835260208301919091520161053b565b348015610d6157600080fd5b50610649601d5481565b348015610d7757600080fd5b50610d8b610d86366004614ab6565b612633565b604080516001600160a01b0390971687526020870195909552938501929092526060840152608083015260a082015260c00161053b565b348015610dce57600080fd5b50610649602b5481565b348015610de457600080fd5b506105e8610df3366004614ab6565b60226020526000908152604090205460ff1681565b348015610e1457600080fd5b50610564610e233660046147a8565b6126c3565b348015610e3457600080fd5b506105e8610e43366004614ab6565b612753565b348015610e5457600080fd5b50610564610e63366004614996565b612786565b348015610e7457600080fd5b5061064960135481565b348015610e8a57600080fd5b50610564610e99366004614ab6565b612c33565b348015610eaa57600080fd5b50610564610eb9366004614a99565b612d29565b348015610eca57600080fd5b50610564610ed9366004614ab6565b612dab565b348015610eea57600080fd5b50610649610ef9366004614b3b565b6001600160a01b03918216600090815260016020908152604080832093909416825291909152205490565b348015610f3057600080fd5b5061064960125481565b348015610f4657600080fd5b50610649612e6e565b348015610f5b57600080fd5b5061064960195481565b348015610f7157600080fd5b50610649610f80366004614ab6565b60236020526000908152604090205481565b348015610f9e57600080fd5b50610d8b610fad3660046147a8565b612eb8565b348015610fbe57600080fd5b50610564610fcd366004614ab6565b612ef6565b348015610fde57600080fd5b50610564610fed366004614a99565b612fe1565b348015610ffe57600080fd5b5061064960165481565b34801561101457600080fd5b5061064960115481565b34801561102a57600080fd5b50610564611039366004614ab6565b613019565b34801561104a57600080fd5b506105646110593660046147a8565b613067565b34801561106a57600080fd5b506105e8611079366004614ab6565b60216020526000908152604090205460ff1681565b6005546001600160a01b031633146110c15760405162461bcd60e51b81526004016110b890614b69565b60405180910390fd5b6110d381670de0b6b3a7640000614bb4565b905060006110ee600a54600b5461311d90919063ffffffff16565b905060006111118261110b600b548661318390919063ffffffff16565b90613205565b9050600061112e8361110b600a548761318390919063ffffffff16565b905061113984613247565b600b546111469083613657565b600b55600a546111569082613657565b600a5550505050565b60606003805461116e90614bd3565b80601f016020809104026020016040519081016040528092919081815260200182805461119a90614bd3565b80156111e75780601f106111bc576101008083540402835291602001916111e7565b820191906000526020600020905b8154815290600101906020018083116111ca57829003601f168201915b5050505050905090565b6005546001600160a01b0316331461121b5760405162461bcd60e51b81526004016110b890614b69565b6001600160a01b03821660008181526020808052604091829020805460ff191685151590811790915591519182527f9d8f7706ea1113d1a167b526eca956215946dd36cc7df39eb16180222d8b5df7910160405180910390a25050565b6005546001600160a01b031633146112a25760405162461bcd60e51b81526004016110b890614b69565b60058110156112f35760405162461bcd60e51b815260206004820152601860248201527f63616e206e65766572206265207365742062656c6f772035000000000000000060448201526064016110b8565b61130181633b9aca00614bb4565b60285550565b6000611314338484613699565b5060015b92915050565b6005546001600160a01b031633146113485760405162461bcd60e51b81526004016110b890614b69565b60008281526025602052604090205481900361136357600080fd5b60648111156113b45760405162461bcd60e51b815260206004820152601e60248201527f5374616b696e6720626f6e75732063616e27742065786365656420313030000060448201526064016110b8565b60008281526025602090815260409182902083905581518481529081018390527f065c0eec5c5d031ee25323575d53db5536226ab058b74d8bdb03c517dd4f605d910160405180910390a15050565b6005546001600160a01b0316331461142d5760405162461bcd60e51b81526004016110b890614b69565b805182511461147e5760405162461bcd60e51b815260206004820152601e60248201527f417272617973206d757374206265207468652073616d65206c656e677468000060448201526064016110b8565b60c8825111156114db5760405162461bcd60e51b815260206004820152602260248201527f57616c6c657473206c697374206c656e677468206d757374206265203c3d2032604482015261030360f41b60648201526084016110b8565b60005b82518110156115cf5760008382815181106114fb576114fb614c0d565b60200260200101519050600083838151811061151957611519614c0d565b6020026020010151670de0b6b3a76400006115349190614bb4565b90506115413383836137be565b600e546001600160a01b031663e30443bc8361155c81611be5565b6040516001600160e01b031960e085901b1681526001600160a01b0390921660048301526024820152604401600060405180830381600087803b1580156115a257600080fd5b505af11580156115b6573d6000803e3d6000fd5b50505050505080806115c790614c23565b9150506114de565b505050565b60006115e18484846138c7565b611633843361162e85604051806060016040528060288152602001614f75602891396001600160a01b038a1660009081526001602090815260408083203384529091529020549190614377565b613699565b5060019392505050565b600e54604080516304b9a6b360e31b815290516000926001600160a01b0316916325cd35989160048083019260209291908290030181865afa158015611687573d6000803e3d6000fd5b505050506040513d601f19601f820116820180604052508101906116ab9190614c3c565b905090565b600e54604080516342d359d760e11b815290516000926001600160a01b0316916385a6b3ae9160048083019260209291908290030181865afa1580156116fa573d6000803e3d6000fd5b505050506040513d601f19601f820116820180604052508101906116ab9190614c59565b6005546001600160a01b031633146117485760405162461bcd60e51b81526004016110b890614b69565b600e54604051633599bb1760e01b815282151560048201526001600160a01b0390911690633599bb17906024015b600060405180830381600087803b15801561179057600080fd5b505af11580156117a4573d6000803e3d6000fd5b5050505050565b3360008181526001602090815260408083206001600160a01b0387168452909152812054909161131491859061162e908661311d565b6005546001600160a01b0316331461180b5760405162461bcd60e51b81526004016110b890614b69565b600e546040516281ffbb60e71b815282151560048201526001600160a01b03909116906340ffdd8090602401611776565b600e5460405163bc4c4b3760e01b8152336004820152600060248201526001600160a01b039091169063bc4c4b37906044016020604051808303816000875af115801561188d573d6000803e3d6000fd5b505050506040513d601f19601f820116820180604052508101906118b19190614c72565b50565b6005546001600160a01b031633146118de5760405162461bcd60e51b81526004016110b890614b69565b600e54604051635a84c5eb60e01b8152600481018390526001600160a01b0390911690635a84c5eb90602401611776565b6005546001600160a01b031633146119395760405162461bcd60e51b81526004016110b890614b69565b600e54604051635ebf4db960e01b8152600481018390526001600160a01b0390911690635ebf4db990602401611776565b6005546001600160a01b031633146119945760405162461bcd60e51b81526004016110b890614b69565b6119a681670de0b6b3a7640000614bb4565b60125550565b600e54604080516304ddf6ef60e11b815290516000926001600160a01b0316916309bbedde9160048083019260209291908290030181865afa1580156116fa573d6000803e3d6000fd5b6005546001600160a01b03163314611a205760405162461bcd60e51b81526004016110b890614b69565b6027805460ff1916911515919091179055565b600e546040516370a0823160e01b81526001600160a01b03838116600483015260009216906370a08231906024015b602060405180830381865afa158015611a7f573d6000803e3d6000fd5b505050506040513d601f19601f820116820180604052508101906113189190614c59565b600e54604051636d48467b60e01b81526001600160a01b0383811660048301526000921690636d48467b906024015b602060405180830381865afa158015611aef573d6000803e3d6000fd5b505050506040513d601f19601f820116820180604052508101906113189190614c72565b600e546040516001624d3b8760e01b0319815260048101839052600091829182916001600160a01b03169063ffb2c479906024016060604051808303816000875af1158015611b66573d6000803e3d6000fd5b505050506040513d601f19601f82011682018060405250810190611b8a9190614c8f565b604080518481526020810184905290810182905260608101889052929550909350915032906000907fc864333d6121033635ab41b29ae52f10a22cf4438c3e4f1c4c68518feb2f8a989060800160405180910390a350505050565b6001600160a01b031660009081526020819052604090205490565b6005546001600160a01b03163314611c2a5760405162461bcd60e51b81526004016110b890614b69565b6005546040516000916001600160a01b0316907f8be0079c531659141344cd1fd0a4f28419497f9722a3daafe3b4186f6b6457e0908390a3600580546001600160a01b0319169055565b6005546001600160a01b03163314611c9e5760405162461bcd60e51b81526004016110b890614b69565b600e5460405163031e79db60e41b81526001600160a01b038381166004830152909116906331e79db090602401611776565b6005546001600160a01b03163314611cfa5760405162461bcd60e51b81526004016110b890614b69565b600e5460405163031e79db60e41b81526001600160a01b038381166004830152909116906331e79db090602401600060405180830381600087803b158015611d4157600080fd5b505af1158015611d55573d6000803e3d6000fd5b5050506001600160a01b03821660009081526020805260409020805460ff19166001179055506118b181612ef6565b6005546001600160a01b03163314611dae5760405162461bcd60e51b81526004016110b890614b69565b6001600160a01b03919091166000908152602660205260409020805460ff1916911515919091179055565b6005546001600160a01b03163314611e035760405162461bcd60e51b81526004016110b890614b69565b60178a905560188890556019869055601a8490556014899055601587905560168590556013839055601b829055601c819055611e4b81611e458981878a61311d565b9061311d565b600c81905550611e74601b54611e45601854611e45601954601a5461311d90919063ffffffff16565b600d55600c54600f10801590611e8d5750600f600d5411155b611eea5760405162461bcd60e51b815260206004820152602860248201527f746f74616c20666565732063616e6e6f7420657863656564203135252073656c6044820152676c206f722062757960c01b60648201526084016110b8565b601454601554601654601354601754601854601954601a54601b54601c54604080519a8b5260208b0199909952978901969096526060880194909452608087019290925260a086015260c085015260e08401526101008301526101208201527f07cec4532bdb36ce729ae72905c09f7bfbf8682c2cc2f1999f745188d9975122906101400160405180910390a150505050505050505050565b6005546001600160a01b03163314611fad5760405162461bcd60e51b81526004016110b890614b69565b6005811115611ffe5760405162461bcd60e51b815260206004820152601d60248201527f7472616e73666572206665652063616e6e6f742065786365656420352500000060448201526064016110b8565b601d8190556040518181527f6fbeac6c79c640ca4f5f47271bd7a36c7eb83076224c65a3b3378c8844720343906020015b60405180910390a150565b600e54604051638bc1d63960e01b815233600482015282151560248201526001600160a01b0390911690638bc1d63990604401611776565b6005546001600160a01b0316331461209c5760405162461bcd60e51b81526004016110b890614b69565b62030d4081101580156120b25750620f42408111155b6120bb57600080fd5b601f5460405182907f40d7e40e79af4e8e5a9b3c57030d8ea93f13d669c06d448c4d631d4ae7d23db790600090a3601f55565b6005546001600160a01b031633146121185760405162461bcd60e51b81526004016110b890614b69565b600954600160b01b900460ff161561212f57600080fd5b6009805460ff60b01b1916600160b01b17905543602b556040517f799663458a5ef2936f7fa0c99b3336c69c25890f82974f04e811e5bb359186c790600090a1565b60606004805461116e90614bd3565b6005546001600160a01b031633146121aa5760405162461bcd60e51b81526004016110b890614b69565b6121b482826143b1565b5050565b6005546001600160a01b031633146121e25760405162461bcd60e51b81526004016110b890614b69565b600e54604051634e19b97560e11b815282151560048201526001600160a01b0390911690639c3372ea90602401611776565b6005546001600160a01b0316331461223e5760405162461bcd60e51b81526004016110b890614b69565b801515600960159054906101000a900460ff1615150361225d57600080fd5b60098054821515600160a81b0260ff60a81b199091161790556040517f0d240c24014ec8c204fc1bdcc286f7d01fd2ab6a07c558a9b2d3f12904323a879061202f90831515815260200190565b6005546001600160a01b031633146122d45760405162461bcd60e51b81526004016110b890614b69565b600e54604051630928847160e01b81526001600160a01b03838116600483015290911690630928847190602401600060405180830381600087803b15801561231b57600080fd5b505af115801561232f573d6000803e3d6000fd5b5050600e546001600160a01b0316915063e30443bc9050826123508161447a565b6040516001600160e01b031960e085901b1681526001600160a01b0390921660048301526024820152604401611776565b6000611314338461162e85604051806060016040528060258152602001614f9d602591393360009081526001602090815260408083206001600160a01b038d1684529091529020549190614377565b600954600160a81b900460ff166124225760405162461bcd60e51b815260206004820152601660248201527514dd185ada5b99c81a5cc81b9bdd08195b98589b195960521b60448201526064016110b8565b600081815260256020526040812054900361247f5760405162461bcd60e51b815260206004820152601860248201527f496e76616c6964207374616b696e67206475726174696f6e000000000000000060448201526064016110b8565b612489428261311d565b33600090815260246020526040902054106124f25760405162461bcd60e51b8152602060048201526024808201527f616c7265616479207374616b656420666f722061206c6f6e67657220647572616044820152633a34b7b760e11b60648201526084016110b8565b60008181526025602090815260408083205433845260239092529091205561251a428261311d565b33600081815260246020526040902091909155600e546001600160a01b03169063e30443bc906125498161447a565b6040516001600160e01b031960e085901b1681526001600160a01b0390921660048301526024820152604401600060405180830381600087803b15801561258f57600080fd5b505af11580156125a3573d6000803e3d6000fd5b505050506125ae3390565b6001600160a01b03167f13dd201d7da4f9b31a9064a09abc1a6ce420dacd837a77abafaec5bd9d28d2c8826040516125e891815260200190565b60405180910390a250565b600e546040516302a2e74960e61b81526001600160a01b038381166004830152600092169063a8b9d24090602401611a62565b60006113143384846138c7565b600e5460405163fbcbc0f160e01b81526001600160a01b038381166004830152600092839283928392839283929091169063fbcbc0f1906024015b60c060405180830381865afa15801561268b573d6000803e3d6000fd5b505050506040513d601f19601f820116820180604052508101906126af9190614cbd565b949c939b5091995097509550909350915050565b6005546001600160a01b031633146126ed5760405162461bcd60e51b81526004016110b890614b69565b61012c81111561274e5760405162461bcd60e51b815260206004820152602660248201527f636f6f6c646f776e2074696d65722063616e6e6f74206578636565642035206d604482015265696e7574657360d01b60648201526084016110b8565b602c55565b600e5460405163ba079d4960e01b81526001600160a01b038381166004830152600092169063ba079d4990602401611ad2565b6005546001600160a01b031633146127b05760405162461bcd60e51b81526004016110b890614b69565b80518251146128155760405162461bcd60e51b815260206004820152602b60248201527f436f6e7472696275746f727320616e642062616c616e636573206d757374206260448201526a652073616d652073697a6560a81b60648201526084016110b8565b60c8825111156128765760405162461bcd60e51b815260206004820152602660248201527f436f6e7472696275746f72206c697374206c656e677468206d7573742062652060448201526503c3d203230360d41b60648201526084016110b8565b6000805b82518160ff1610156128c9576128b5838260ff168151811061289e5761289e614c0d565b60200260200101518361311d90919063ffffffff16565b9150806128c181614d10565b91505061287a565b50806128d433611be5565b10156129375760405162461bcd60e51b815260206004820152602c60248201527f4163636f756e742062616c616e6365206d757374206265203e3d2073756d206f60448201526b033103130b630b731b2b997160a51b60648201526084016110b8565b3360009081526001602090815260408083203084529091529020548111156129b95760405162461bcd60e51b815260206004820152602f60248201527f436f6e747261637420616c6c6f77616e6365206d757374206265203e3d20737560448201526e0369037b3103130b630b731b2b9971608d1b60648201526084016110b8565b60008060005b85518160ff161015612c2b57858160ff16815181106129e0576129e0614c0d565b6020026020010151925060006001600160a01b0316836001600160a01b031614158015612a18575061dead6001600160a01b03841614155b612a645760405162461bcd60e51b815260206004820181905260248201527f43616e6e6f742061697264726f7020746f20612064656164206164647265737360448201526064016110b8565b612a6d83611be5565b9150306001600160a01b03166323b872dd3385888560ff1681518110612a9557612a95614c0d565b60209081029190910101516040516001600160e01b031960e086901b1681526001600160a01b03938416600482015292909116602483015260448201526064016020604051808303816000875af1158015612af4573d6000803e3d6000fd5b505050506040513d601f19601f82011682018060405250810190612b189190614c72565b50848160ff1681518110612b2e57612b2e614c0d565b602002602001015182612b419190614d2f565b612b4a84611be5565b14612bb05760405162461bcd60e51b815260206004820152603060248201527f436f6e7472696275746f72206d75737420726563696576652066756c6c20626160448201526f06c616e6365206f662061697264726f760841b60648201526084016110b8565b7f8c32c568416fcf97be35ce5b27844cfddcd63a67a1a602c3595ba5dac38f303a83868360ff1681518110612be757612be7614c0d565b6020026020010151604051612c119291906001600160a01b03929092168252602082015260400190565b60405180910390a180612c2381614d10565b9150506129bf565b505050505050565b6005546001600160a01b03163314612c5d5760405162461bcd60e51b81526004016110b890614b69565b6001600160a01b0381811660008181526026602090815260408083208054600160ff1991821681179092559280529281902080549092169092179055600e54905163031e79db60e41b81526004810192909252909116906331e79db090602401600060405180830381600087803b158015612cd757600080fd5b505af1158015612ceb573d6000803e3d6000fd5b50506040516001600160a01b03841681527f85d097e432d8e396fa72c83ebd34196326e1cf1694ef910cd53554b2ee7597c59250602001905061202f565b6005546001600160a01b03163314612d535760405162461bcd60e51b81526004016110b890614b69565b601e5481151560ff909116151503612d6a57600080fd5b601e805460ff19168215159081179091556040519081527fff5917043f8453af413305b2dbd1ed9748a37df481beb71ba4b9b212a07b9bef9060200161202f565b6005546001600160a01b03163314612dd55760405162461bcd60e51b81526004016110b890614b69565b600e5460405163d8032ed360e01b81526001600160a01b0383811660048301529091169063d8032ed390602401600060405180830381600087803b158015612e1c57600080fd5b505af1158015612e30573d6000803e3d6000fd5b50506040516001600160a01b03841681527f7597aa09105646b4cc4486748aecd1d7c5dbcbb7bbe2863c3fc27e613b64432d9250602001905061202f565b600e546040805163039e107b60e61b815290516000926001600160a01b03169163e7841ec09160048083019260209291908290030181865afa1580156116fa573d6000803e3d6000fd5b600e54604051635183d6fd60e01b815260048101839052600091829182918291829182916001600160a01b0390911690635183d6fd9060240161266e565b6005546001600160a01b03163314612f205760405162461bcd60e51b81526004016110b890614b69565b6001600160a01b038116612f855760405162461bcd60e51b815260206004820152602660248201527f4f776e61626c653a206e6577206f776e657220697320746865207a65726f206160448201526564647265737360d01b60648201526084016110b8565b6005546040516001600160a01b038084169216907f8be0079c531659141344cd1fd0a4f28419497f9722a3daafe3b4186f6b6457e090600090a3600580546001600160a01b0319166001600160a01b0392909216919091179055565b600e54604051632c8be28160e21b815233600482015282151560248201526001600160a01b039091169063b22f8a0490604401611776565b6005546001600160a01b031633146130435760405162461bcd60e51b81526004016110b890614b69565b6001600160a01b03166000908152602160205260409020805460ff19166001179055565b6005546001600160a01b031633146130915760405162461bcd60e51b81526004016110b890614b69565b6130a381670de0b6b3a7640000614bb4565b90506107d06002546130b59190614d47565b8110156131185760405162461bcd60e51b815260206004820152602b60248201527f6d61782077616c6c65742063616e6e6f742062652073657420746f206c65737360448201526a207468616e20302e30352560a81b60648201526084016110b8565b601155565b60008061312a8385614d2f565b90508381101561317c5760405162461bcd60e51b815260206004820152601b60248201527f536166654d6174683a206164646974696f6e206f766572666c6f77000000000060448201526064016110b8565b9392505050565b60008260000361319557506000611318565b60006131a18385614bb4565b9050826131ae8583614d47565b1461317c5760405162461bcd60e51b815260206004820152602160248201527f536166654d6174683a206d756c7469706c69636174696f6e206f766572666c6f6044820152607760f81b60648201526084016110b8565b600061317c83836040518060400160405280601a81526020017f536166654d6174683a206469766973696f6e206279207a65726f0000000000008152506144d3565b806000036132525750565b61325b81614501565b6000613274600a54600b5461311d90919063ffffffff16565b601a549091506001908190819060009081908190156132d5576132d2601b54601854601a546132a39190614d2f565b6132ad9190614d2f565b61110b601a546132cc8b61110b600b544761318390919063ffffffff16565b90613183565b91505b6013541561331f5761331c601c546015546013546132f39190614d2f565b6132fd9190614d2f565b61110b6013546132cc8b61110b600a544761318390919063ffffffff16565b90505b613329828261311d565b9250821561338957600e546040516001600160a01b03909116908490600081818185875af1925050503d806000811461337e576040519150601f19603f3d011682016040523d82523d6000602084013e613383565b606091505b50909650505b60006133a2601b5460185461311d90919063ffffffff16565b601c546015546133b19161311d565b6133bb9190614d2f565b9050600081156133d2576133cf4783613205565b90505b6000816133ec60155460185461311d90919063ffffffff16565b6133f69190614bb4565b9050600082613412601c54601b5461311d90919063ffffffff16565b61341c9190614bb4565b9050811561347c57600f546040516001600160a01b03909116908390600081818185875af1925050503d8060008114613471576040519150601f19603f3d011682016040523d82523d6000602084013e613476565b606091505b50909950505b80156135ea576040805160028082526060820183526000926020830190803683375050600654604080516315ab88c960e31b815290519394506001600160a01b039091169263ad5c4648925060048083019260209291908290030181865afa1580156134ec573d6000803e3d6000fd5b505050506040513d601f19601f820116820180604052508101906135109190614c3c565b8160008151811061352357613523614c0d565b6001600160a01b03928316602091820292909201015260075482519116908290600190811061355457613554614c0d565b6001600160a01b039283166020918202929092010152600654601054604051637ff36ab560e01b815291831692637ff36ab59286926135a0926000928892909116904290600401614dad565b60006040518083038185885af11580156135be573d6000803e3d6000fd5b50505050506040513d6000823e601f3d908101601f191682016040526135e79190810190614de2565b50505b7f8e09ec88c0d24c22e3a9b8555c029afcc4a7c609daabf6d7849e814c2d14efd0876136168385614d2f565b8c801561362057508b5b801561362957508a5b60408051938452602084019290925215159082015260600160405180910390a1505050505050505050505050565b600061317c83836040518060400160405280601e81526020017f536166654d6174683a207375627472616374696f6e206f766572666c6f770000815250614377565b6001600160a01b0383166136fb5760405162461bcd60e51b8152602060048201526024808201527f45524332303a20617070726f76652066726f6d20746865207a65726f206164646044820152637265737360e01b60648201526084016110b8565b6001600160a01b03821661375c5760405162461bcd60e51b815260206004820152602260248201527f45524332303a20617070726f766520746f20746865207a65726f206164647265604482015261737360f01b60648201526084016110b8565b6001600160a01b0383811660008181526001602090815260408083209487168084529482529182902085905590518481527f8c5be1e5ebec7d5bd14f71427d1e84f3dd0314c0f7b2291e5b200ac8c7c3b92591015b60405180910390a3505050565b6001600160a01b0383166137e45760405162461bcd60e51b81526004016110b890614e73565b6001600160a01b03821661380a5760405162461bcd60e51b81526004016110b890614eb8565b61384781604051806060016040528060268152602001614f4f602691396001600160a01b0386166000908152602081905260409020549190614377565b6001600160a01b038085166000908152602081905260408082209390935590841681522054613876908261311d565b6001600160a01b038381166000818152602081815260409182902094909455518481529092918616917fddf252ad1be2c89b69c2b068fc378daa952ba7f163c4a11628f55a4df523b3ef91016137b1565b6001600160a01b03831660009081526021602052604090205460ff16156139285760405162461bcd60e51b815260206004820152601560248201527414d95b99195c881a5cc8189b1858dadb1a5cdd1959605a1b60448201526064016110b8565b6001600160a01b03821660009081526021602052604090205460ff16156139915760405162461bcd60e51b815260206004820152601860248201527f526563697069656e7420697320626c61636b6c6973746564000000000000000060448201526064016110b8565b6001600160a01b0383166139b75760405162461bcd60e51b81526004016110b890614e73565b6001600160a01b0382166139dd5760405162461bcd60e51b81526004016110b890614eb8565b6001600160a01b038316600090815260266020526040812054819081908190819060ff16613a5e57600954600160b01b900460ff16613a5e5760405162461bcd60e51b815260206004820181905260248201527f54726164696e6720686173206e6f7420796574206265656e20656e61626c656460448201526064016110b8565b85600003613a7c57613a72888860006137be565b5050505050505050565b600954600160a01b900460ff16158015613aae57506001600160a01b038816600090815260208052604090205460ff16155b8015613ad257506001600160a01b038716600090815260208052604090205460ff16155b1561426e576001600160a01b0380881660009081526022602052604080822054928b16825290205460ff918216911680158015613b0d575081155b15613c53576000613b2e606461110b601d548c61318390919063ffffffff16565b9050613b3a8982613657565b9850613b478b30836137be565b613b528b8b8b6137be565b600e546001600160a01b031663e30443bc8c613b6d8161447a565b6040516001600160e01b031960e085901b1681526001600160a01b0390921660048301526024820152604401600060405180830381600087803b158015613bb357600080fd5b505af1158015613bc7573d6000803e3d6000fd5b5050600e546001600160a01b0316915063e30443bc90508b613be88161447a565b6040516001600160e01b031960e085901b1681526001600160a01b0390921660048301526024820152604401600060405180830381600087803b158015613c2e57600080fd5b505af1158015613c42573d6000803e3d6000fd5b505050505050505050505050505050565b80158015613c6a5750600954600160a81b900460ff165b15613d21576001600160a01b038a16600090815260246020526040902054421015613cd75760405162461bcd60e51b815260206004820152601d60248201527f546f6b656e7320617265207374616b656420616e64206c6f636b65642100000060448201526064016110b8565b6001600160a01b038a1660009081526024602052604090205415613d1c576001600160a01b038a16600090815260246020908152604080832083905560239091528120555b613f7a565b8115613dca57601354601454601554601654601c54602754949b509299509097509550935060ff1615613d1c57602c54326000908152602a6020526040902054613d6b9190614d2f565b421015613db35760405162461bcd60e51b8152602060048201526016602482015275636f6f6c646f776e20706572696f642061637469766560501b60448201526064016110b8565b326000908152602a60205260409020429055613f7a565b8015613f7a57601a54601754601854601954601b54602754949b509299509097509550935060ff1615613f0357602b54613e05906002614d2f565b4311613e485760405162461bcd60e51b8152602060048201526012602482015271796f75207368616c6c206e6f74207061737360701b60448201526064016110b8565b6028543a1115613e9a5760405162461bcd60e51b815260206004820152601860248201527f4761732070726963652065786365656473206c696d69742e000000000000000060448201526064016110b8565b32600090815260296020526040902054439003613ef05760405162461bcd60e51b8152602060048201526014602482015273546f6f206d616e7920545820696e20626c6f636b60601b60448201526064016110b8565b3260009081526029602052604090204390555b6000613f0e8a611be5565b601154909150613f1e8a83614d2f565b1115613f785760405162461bcd60e51b8152602060048201526024808201527f45786365656473206d6178696d756d2077616c6c657420746f6b656e20616d6f6044820152633ab73a1760e11b60648201526084016110b8565b505b6000613f9b84613f8a8888614d2f565b613f949190614d2f565b899061311d565b90506000613fa830611be5565b60125490915081108015908190613fd857506001600160a01b038d1660009081526022602052604090205460ff16155b156140f1576009805460ff60a01b1916600160a01b179055601e5460ff1680156140025750600087115b801561401057506000600d54115b156140c257600061402e600a54600b5461311d90919063ffffffff16565b9050600061404b8261110b600b548761318390919063ffffffff16565b905060006140688361110b600a548861318390919063ffffffff16565b90506000614085600d5461110b8d8661318390919063ffffffff16565b905060006140a2600c5461110b8e8661318390919063ffffffff16565b905060006140b0828461311d565b90506140bb81614653565b5050505050505b60006140cd30611be5565b90506140d881613247565b506000600b819055600a556009805460ff60a01b191690555b6000614102606461110b8e87613183565b905060008a156141555760646141188e8d613183565b6141229190614d47565b90506141448f600960009054906101000a90046001600160a01b0316836137be565b6002546141519082613657565b6002555b6141696141628284614d2f565b8e90613657565b9c50861561418657600a5461417e908361311d565b600a55614197565b600b54614193908361311d565b600b555b6141a28f30846137be565b601f54600e546040516001624d3b8760e01b03198152600481018390526001600160a01b039091169063ffb2c479906024016060604051808303816000875af192505050801561420f575060408051601f3d908101601f1916820190925261420c91810190614c8f565b60015b156142655760408051848152602081018490529081018290526060810185905232906001907fc864333d6121033635ab41b29ae52f10a22cf4438c3e4f1c4c68518feb2f8a989060800160405180910390a35050505b50505050505050505b6142798888886137be565b600e546001600160a01b031663e30443bc896142948161447a565b6040516001600160e01b031960e085901b1681526001600160a01b0390921660048301526024820152604401600060405180830381600087803b1580156142da57600080fd5b505af11580156142ee573d6000803e3d6000fd5b5050600e546001600160a01b0316915063e30443bc90508861430f8161447a565b6040516001600160e01b031960e085901b1681526001600160a01b0390921660048301526024820152604401600060405180830381600087803b15801561435557600080fd5b505af1158015614369573d6000803e3d6000fd5b505050505050505050505050565b6000818484111561439b5760405162461bcd60e51b81526004016110b891906147c1565b5060006143a88486614efb565b95945050505050565b6001600160a01b0382166000908152602260205260409020805460ff1916821580159190911790915561443e57600e5460405163031e79db60e41b81526001600160a01b038481166004830152909116906331e79db090602401600060405180830381600087803b15801561442557600080fd5b505af1158015614439573d6000803e3d6000fd5b505050505b604051811515906001600160a01b038416907fffa9187bf1f18bf477bd0ea1bcbb64e93b6a98132473929edfce215cd9b16fab90600090a35050565b600954600090600160a81b900460ff1661449c5761449782611be5565b611318565b6001600160a01b0382166000908152602360205260409020546113189060649061110b906144ca908361311d565b6132cc86611be5565b600081836144f45760405162461bcd60e51b81526004016110b891906147c1565b5060006143a88486614d47565b604080516002808252606082018352600092602083019080368337019050509050308160008151811061453657614536614c0d565b6001600160a01b03928316602091820292909201810191909152600654604080516315ab88c960e31b81529051919093169263ad5c46489260048083019391928290030181865afa15801561458f573d6000803e3d6000fd5b505050506040513d601f19601f820116820180604052508101906145b39190614c3c565b816001815181106145c6576145c6614c0d565b6001600160a01b0392831660209182029290920101526006546145ec9130911684613699565b60065460405163791ac94760e01b81526001600160a01b039091169063791ac94790614625908590600090869030904290600401614f12565b600060405180830381600087803b15801561463f57600080fd5b505af1158015612c2b573d6000803e3d6000fd5b6000614660826002613205565b9050600061466e8383613657565b90504761467a83614501565b60006146864783613657565b905061469283826146da565b60408051858152602081018390529081018490527f17bbfb9a6069321b6ded73bd96327c9e6b7212a5cd51ff219cd61370acafb5619060600160405180910390a15050505050565b6006546146f29030906001600160a01b031684613699565b6006546001600160a01b031663f305d71982308560008061471b6005546001600160a01b031690565b60405160e088901b6001600160e01b03191681526001600160a01b03958616600482015260248101949094526044840192909252606483015290911660848201524260a482015260c40160606040518083038185885af1158015614783573d6000803e3d6000fd5b50505050506040513d601f19601f820116820180604052508101906117a49190614c8f565b6000602082840312156147ba57600080fd5b5035919050565b600060208083528351808285015260005b818110156147ee578581018301518582016040015282016147d2565b81811115614800576000604083870101525b50601f01601f1916929092016040019392505050565b6001600160a01b03811681146118b157600080fd5b80151581146118b157600080fd5b6000806040838503121561484c57600080fd5b823561485781614816565b915060208301356148678161482b565b809150509250929050565b6000806040838503121561488557600080fd5b823561489081614816565b946020939093013593505050565b600080604083850312156148b157600080fd5b50508035926020909101359150565b634e487b7160e01b600052604160045260246000fd5b604051601f8201601f1916810167ffffffffffffffff811182821017156148ff576148ff6148c0565b604052919050565b600067ffffffffffffffff821115614921576149216148c0565b5060051b60200190565b600082601f83011261493c57600080fd5b8135602061495161494c83614907565b6148d6565b82815260059290921b8401810191818101908684111561497057600080fd5b8286015b8481101561498b5780358352918301918301614974565b509695505050505050565b600080604083850312156149a957600080fd5b823567ffffffffffffffff808211156149c157600080fd5b818501915085601f8301126149d557600080fd5b813560206149e561494c83614907565b82815260059290921b84018101918181019089841115614a0457600080fd5b948201945b83861015614a2b578535614a1c81614816565b82529482019490820190614a09565b96505086013592505080821115614a4157600080fd5b50614a4e8582860161492b565b9150509250929050565b600080600060608486031215614a6d57600080fd5b8335614a7881614816565b92506020840135614a8881614816565b929592945050506040919091013590565b600060208284031215614aab57600080fd5b813561317c8161482b565b600060208284031215614ac857600080fd5b813561317c81614816565b6000806000806000806000806000806101408b8d031215614af357600080fd5b505088359a60208a01359a5060408a013599606081013599506080810135985060a0810135975060c0810135965060e081013595506101008101359450610120013592509050565b60008060408385031215614b4e57600080fd5b8235614b5981614816565b9150602083013561486781614816565b6020808252818101527f4f776e61626c653a2063616c6c6572206973206e6f7420746865206f776e6572604082015260600190565b634e487b7160e01b600052601160045260246000fd5b6000816000190483118215151615614bce57614bce614b9e565b500290565b600181811c90821680614be757607f821691505b602082108103614c0757634e487b7160e01b600052602260045260246000fd5b50919050565b634e487b7160e01b600052603260045260246000fd5b600060018201614c3557614c35614b9e565b5060010190565b600060208284031215614c4e57600080fd5b815161317c81614816565b600060208284031215614c6b57600080fd5b5051919050565b600060208284031215614c8457600080fd5b815161317c8161482b565b600080600060608486031215614ca457600080fd5b8351925060208401519150604084015190509250925092565b60008060008060008060c08789031215614cd657600080fd5b8651614ce181614816565b6020880151604089015160608a015160808b015160a0909b0151939c929b509099909850965090945092505050565b600060ff821660ff8103614d2657614d26614b9e565b60010192915050565b60008219821115614d4257614d42614b9e565b500190565b600082614d6457634e487b7160e01b600052601260045260246000fd5b500490565b600081518084526020808501945080840160005b83811015614da25781516001600160a01b031687529582019590820190600101614d7d565b509495945050505050565b848152608060208201526000614dc66080830186614d69565b6001600160a01b03949094166040830152506060015292915050565b60006020808385031215614df557600080fd5b825167ffffffffffffffff811115614e0c57600080fd5b8301601f81018513614e1d57600080fd5b8051614e2b61494c82614907565b81815260059190911b82018301908381019087831115614e4a57600080fd5b928401925b82841015614e6857835182529284019290840190614e4f565b979650505050505050565b60208082526025908201527f45524332303a207472616e736665722066726f6d20746865207a65726f206164604082015264647265737360d81b606082015260800190565b60208082526023908201527f45524332303a207472616e7366657220746f20746865207a65726f206164647260408201526265737360e81b606082015260800190565b600082821015614f0d57614f0d614b9e565b500390565b85815284602082015260a060408201526000614f3160a0830186614d69565b6001600160a01b039490941660608301525060800152939250505056fe45524332303a207472616e7366657220616d6f756e7420657863656564732062616c616e636545524332303a207472616e7366657220616d6f756e74206578636565647320616c6c6f77616e636545524332303a2064656372656173656420616c6c6f77616e63652062656c6f77207a65726fa26469706673582212204a00f81123cd860533d98b732dd3e2c83e3fbc2bf5f81417cddb1ea15184405764736f6c634300080f003360806040526012805460ff60b01b191690553480156200001e57600080fd5b50604051620030e7380380620030e7833981016040819052620000419162000241565b8181818160036200005383826200037b565b5060046200006282826200037b565b50505050506000620000796200015760201b60201c565b600980546001600160a01b0319166001600160a01b038316908117909155604051919250906000907f8be0079c531659141344cd1fd0a4f28419497f9722a3daafe3b4186f6b6457e0908290a3506013620000d583826200037b565b506014620000e482826200037b565b505060128054601680546001600160a01b03199081166001600160a01b039889161790915568056bc75e2d6310000060188190556019556015805490911695871695909517909455600160a01b929094166001600160a81b0319909316929092171760ff60a81b19169091555062000447565b3390565b6001600160a01b03811681146200017157600080fd5b50565b634e487b7160e01b600052604160045260246000fd5b600082601f8301126200019c57600080fd5b81516001600160401b0380821115620001b957620001b962000174565b604051601f8301601f19908116603f01168101908282118183101715620001e457620001e462000174565b816040528381526020925086838588010111156200020157600080fd5b600091505b8382101562000225578582018301518183018401529082019062000206565b83821115620002375760008385830101525b9695505050505050565b600080600080600060a086880312156200025a57600080fd5b855162000267816200015b565b60208701519095506200027a816200015b565b60408701519094506200028d816200015b565b60608701519093506001600160401b0380821115620002ab57600080fd5b620002b989838a016200018a565b93506080880151915080821115620002d057600080fd5b50620002df888289016200018a565b9150509295509295909350565b600181811c908216806200030157607f821691505b6020821081036200032257634e487b7160e01b600052602260045260246000fd5b50919050565b601f8211156200037657600081815260208120601f850160051c81016020861015620003515750805b601f850160051c820191505b8181101562000372578281556001016200035d565b5050505b505050565b81516001600160401b0381111562000397576200039762000174565b620003af81620003a88454620002ec565b8462000328565b602080601f831160018114620003e75760008415620003ce5750858301515b600019600386901b1c1916600185901b17855562000372565b600085815260208120601f198616915b828110156200041857888601518255948401946001909101908401620003f7565b5085821015620004375787850151600019600388901b60f8161c191681555b5050505050600190811b01905550565b612c9080620004576000396000f3fe60806040526004361061031e5760003560e01c80636d48467b116101ab578063a66a9d1c116100f7578063d8032ed311610095578063e7841ec01161006f578063e7841ec0146109ed578063f2fde38b14610a02578063fbcbc0f114610a22578063ffb2c47914610a4257600080fd5b8063d8032ed314610967578063dd62ed3e14610987578063e30443bc146109cd57600080fd5b8063aafd847a116100d1578063aafd847a146108d1578063b22f8a0414610907578063ba079d4914610927578063bc4c4b371461094757600080fd5b8063a66a9d1c14610871578063a8b9d24014610891578063a9059cbb146108b157600080fd5b80638da5cb5b116101645780639c3372ea1161013e5780639c3372ea146107ef5780639eec101e1461080f578063a423406914610830578063a457c2d71461085157600080fd5b80638da5cb5b1461079c57806391b89fba146107ba57806395d89b41146107da57600080fd5b80636d48467b146106db57806370a08231146106fb578063715018a61461073157806374c13fda1461074657806385a6b3ae146107665780638bc1d6391461077c57600080fd5b8063313ce5671161026a5780634e7b827f116102235780635ebf4db9116101fd5780635ebf4db91461065657806365b8dbc0146106765780636a474002146106965780636b69163b146106ab57600080fd5b80634e7b827f146105af5780635183d6fd146105df5780635a84c5eb1461063657600080fd5b8063313ce567146104f257806331e79db01461050e5780633599bb171461052e578063395093511461054e57806340ffdd801461056e578063418089041461058e57600080fd5b806318160ddd116102d757806323b872dd116102b157806323b872dd1461047e57806325cd35981461049e57806327ce0147146104bc5780633009a609146104dc57600080fd5b806318160ddd1461040c5780631d4ff89a14610421578063226cfa3d1461045157600080fd5b806303c833021461033257806306fdde031461033a5780630928847114610365578063095ea7b31461038557806309bbedde146103b55780631694505e146103d457600080fd5b3661032d5761032b610a7d565b005b600080fd5b61032b610a7d565b34801561034657600080fd5b5061034f610b10565b60405161035c91906127c3565b60405180910390f35b34801561037157600080fd5b5061032b610380366004612830565b610ba2565b34801561039157600080fd5b506103a56103a036600461284d565b610bf6565b604051901515815260200161035c565b3480156103c157600080fd5b50600a545b60405190815260200161035c565b3480156103e057600080fd5b506015546103f4906001600160a01b031681565b6040516001600160a01b03909116815260200161035c565b34801561041857600080fd5b506002546103c6565b34801561042d57600080fd5b506103a561043c366004612830565b60116020526000908152604090205460ff1681565b34801561045d57600080fd5b506103c661046c366004612830565b60176020526000908152604090205481565b34801561048a57600080fd5b506103a5610499366004612879565b610c0d565b3480156104aa57600080fd5b506012546001600160a01b03166103f4565b3480156104c857600080fd5b506103c66104d7366004612830565b610c76565b3480156104e857600080fd5b506103c6600e5481565b3480156104fe57600080fd5b506040516012815260200161035c565b34801561051a57600080fd5b5061032b610529366004612830565b610cd2565b34801561053a57600080fd5b5061032b6105493660046128c8565b610d6c565b34801561055a57600080fd5b506103a561056936600461284d565b610e0d565b34801561057a57600080fd5b5061032b6105893660046128c8565b610e43565b34801561059a57600080fd5b506012546103a590600160a81b900460ff1681565b3480156105bb57600080fd5b506103a56105ca366004612830565b600f6020526000908152604090205460ff1681565b3480156105eb57600080fd5b506105ff6105fa3660046128e5565b610ed9565b604080516001600160a01b0390971687526020870195909552938501929092526060840152608083015260a082015260c00161035c565b34801561064257600080fd5b5061032b6106513660046128e5565b610f39565b34801561066257600080fd5b5061032b6106713660046128e5565b610f7b565b34801561068257600080fd5b5061032b610691366004612830565b610fbd565b3480156106a257600080fd5b5061032b611009565b3480156106b757600080fd5b506103a56106c6366004612830565b60106020526000908152604090205460ff1681565b3480156106e757600080fd5b506103a56106f6366004612830565b6110af565b34801561070757600080fd5b506103c6610716366004612830565b6001600160a01b031660009081526020819052604090205490565b34801561073d57600080fd5b5061032b6110fb565b34801561075257600080fd5b506012546103f4906001600160a01b031681565b34801561077257600080fd5b506103c660085481565b34801561078857600080fd5b5061032b6107973660046128fe565b61116f565b3480156107a857600080fd5b506009546001600160a01b03166103f4565b3480156107c657600080fd5b506103c66107d5366004612830565b6111c4565b3480156107e657600080fd5b5061034f6111cf565b3480156107fb57600080fd5b5061032b61080a3660046128c8565b6111de565b34801561081b57600080fd5b506012546103a590600160a01b900460ff1681565b34801561083c57600080fd5b506012546103a590600160b01b900460ff1681565b34801561085d57600080fd5b506103a561086c36600461284d565b611274565b34801561087d57600080fd5b506016546103f4906001600160a01b031681565b34801561089d57600080fd5b506103c66108ac366004612830565b6112c3565b3480156108bd57600080fd5b506103a56108cc36600461284d565b6112ef565b3480156108dd57600080fd5b506103c66108ec366004612830565b6001600160a01b031660009081526007602052604090205490565b34801561091357600080fd5b5061032b6109223660046128fe565b6112fc565b34801561093357600080fd5b506103a5610942366004612830565b611351565b34801561095357600080fd5b506103a56109623660046128fe565b61139d565b34801561097357600080fd5b5061032b610982366004612830565b61151e565b34801561099357600080fd5b506103c66109a2366004612937565b6001600160a01b03918216600090815260016020908152604080832093909416825291909152205490565b3480156109d957600080fd5b5061032b6109e836600461284d565b61156a565b3480156109f957600080fd5b50600e546103c6565b348015610a0e57600080fd5b5061032b610a1d366004612830565b611602565b348015610a2e57600080fd5b506105ff610a3d366004612830565b6116ed565b348015610a4e57600080fd5b50610a62610a5d3660046128e5565b61179c565b6040805193845260208401929092529082015260600161035c565b6000610a8860025490565b11610a9257600080fd5b3415610b0e57610ac5610aa460025490565b610ab234600160801b6118c2565b610abc919061297b565b6005549061194b565b60055560405134815233907fa493a9229478c3fcd73f66d2cdeb7f94fd0f341da924d1054236d784541165119060200160405180910390a2600854610b0a903461194b565b6008555b565b606060138054610b1f9061299d565b80601f0160208091040260200160405190810160405280929190818152602001828054610b4b9061299d565b8015610b985780601f10610b6d57610100808354040283529160200191610b98565b820191906000526020600020905b815481529060010190602001808311610b7b57829003601f168201915b5050505050905090565b6009546001600160a01b03163314610bd55760405162461bcd60e51b8152600401610bcc906129d7565b60405180910390fd5b6001600160a01b03166000908152600f60205260409020805460ff19169055565b6000610c033384846119aa565b5060015b92915050565b6000610c1a848484611ace565b610c6c8433610c6785604051806060016040528060288152602001612c0e602891396001600160a01b038a1660009081526001602090815260408083203384529091529020549190611b31565b6119aa565b5060019392505050565b6001600160a01b03811660009081526006602090815260408083205491839052822054600554600160801b92610cc892610cc392610cbd91610cb891906118c2565b611b6b565b90611b7b565b611bb9565b610c07919061297b565b6009546001600160a01b03163314610cfc5760405162461bcd60e51b8152600401610bcc906129d7565b6001600160a01b0381166000908152600f60205260408120805460ff19166001179055610d2a908290611bcc565b610d35600a82611c2b565b6040516001600160a01b038216907fa878b31040b2e6d0a9a3d3361209db3908ba62014b0dca52adbaee451d128b2590600090a250565b6009546001600160a01b03163314610d965760405162461bcd60e51b8152600401610bcc906129d7565b801515601260169054906101000a900460ff16151503610db557600080fd5b60128054821515600160b01b0260ff60b01b199091161790556040517f3da2593f2c4724acfbd754045321e852cad26f3974834b1890045530f89c21b390610e0290831515815260200190565b60405180910390a150565b3360008181526001602090815260408083206001600160a01b03871684529091528120549091610c03918590610c67908661194b565b6009546001600160a01b03163314610e6d5760405162461bcd60e51b8152600401610bcc906129d7565b801515601260159054906101000a900460ff16151503610e8c57600080fd5b60128054821515600160a81b0260ff60a81b199091161790556040517fc138a28750b971696f46ea59731c471ef1e08e4015404afdb139fd2e87dca1bb90610e0290831515815260200190565b600080600080600080610eeb600a5490565b8710610f0a575060009450600019935083925084915081905080610f30565b6000610f17600a89611d66565b9050610f22816116ed565b965096509650965096509650505b91939550919395565b6009546001600160a01b03163314610f635760405162461bcd60e51b8152600401610bcc906129d7565b610f7581670de0b6b3a7640000612a0c565b60185550565b6009546001600160a01b03163314610fa55760405162461bcd60e51b8152600401610bcc906129d7565b610fb781670de0b6b3a7640000612a0c565b60195550565b6009546001600160a01b03163314610fe75760405162461bcd60e51b8152600401610bcc906129d7565b601580546001600160a01b0319166001600160a01b0392909216919091179055565b60405162461bcd60e51b815260206004820152606960248201527f4652454e4e415f4469766964656e645f547261636b65723a207769746864726160448201527f774469766964656e642064697361626c65642e20557365207468652027636c6160648201527f696d272066756e6374696f6e206f6e20746865206d61696e204652454e4e412060848201526831b7b73a3930b1ba1760b91b60a482015260c401610bcc565b6009546000906001600160a01b031633146110dc5760405162461bcd60e51b8152600401610bcc906129d7565b506001600160a01b031660009081526010602052604090205460ff1690565b6009546001600160a01b031633146111255760405162461bcd60e51b8152600401610bcc906129d7565b6009546040516000916001600160a01b0316907f8be0079c531659141344cd1fd0a4f28419497f9722a3daafe3b4186f6b6457e0908390a3600980546001600160a01b0319169055565b6009546001600160a01b031633146111995760405162461bcd60e51b8152600401610bcc906129d7565b6001600160a01b03919091166000908152601060205260409020805460ff1916911515919091179055565b6000610c07826112c3565b606060148054610b1f9061299d565b6009546001600160a01b031633146112085760405162461bcd60e51b8152600401610bcc906129d7565b801515601260149054906101000a900460ff1615150361122757600080fd5b60128054821515600160a01b0260ff60a01b199091161790556040517f8d34c313963017194ed726d050e868657d0e2d2c6748d13e358cd4b89d4ee7c890610e0290831515815260200190565b6000610c033384610c6785604051806060016040528060258152602001612c36602591393360009081526001602090815260408083206001600160a01b038d1684529091529020549190611b31565b6001600160a01b038116600090815260076020526040812054610c07906112e984610c76565b90611d99565b6000610c03338484611ace565b6009546001600160a01b031633146113265760405162461bcd60e51b8152600401610bcc906129d7565b6001600160a01b03919091166000908152601160205260409020805460ff1916911515919091179055565b6009546000906001600160a01b0316331461137e5760405162461bcd60e51b8152600401610bcc906129d7565b506001600160a01b031660009081526011602052604090205460ff1690565b6009546000906001600160a01b031633146113ca5760405162461bcd60e51b8152600401610bcc906129d7565b601254600160b01b900460ff16156113e457506000610c07565b6001600160a01b03831660009081526011602052604090205460ff1682801561140a5750805b80156114205750601254600160a81b900460ff16155b1561142f576000915050610c07565b6000816114445761143f85611ddb565b61144d565b61144d85612094565b90508015611513576001600160a01b038516600090815260176020526040902042905581156114c157831515856001600160a01b03167ffbd928dd3806a2bdf802f3a28a2cc55205f95dbcd2c3ed313abfca278366f80c836040516114b491815260200190565b60405180910390a3611508565b831515856001600160a01b03167fa2c38e2d2fb7e3e1912d937fd1ca11ed6d51864dee4cfa7a7bf02becd7acf092836040516114ff91815260200190565b60405180910390a35b600192505050610c07565b506000949350505050565b6009546001600160a01b031633146115485760405162461bcd60e51b8152600401610bcc906129d7565b601280546001600160a01b0319166001600160a01b0392909216919091179055565b6009546001600160a01b031633146115945760405162461bcd60e51b8152600401610bcc906129d7565b6001600160a01b0382166000908152600f602052604090205460ff166115d4576019548110156115d8576115c9600a83611c2b565b6115d4826000611bcc565b5050565b6115e28282611bcc565b60185481106115f7576115d4600a8383612407565b6115d4600a83611c2b565b6009546001600160a01b0316331461162c5760405162461bcd60e51b8152600401610bcc906129d7565b6001600160a01b0381166116915760405162461bcd60e51b815260206004820152602660248201527f4f776e61626c653a206e6577206f776e657220697320746865207a65726f206160448201526564647265737360d01b6064820152608401610bcc565b6009546040516001600160a01b038084169216907f8be0079c531659141344cd1fd0a4f28419497f9722a3daafe3b4186f6b6457e090600090a3600980546001600160a01b0319166001600160a01b0392909216919091179055565b806000808080806116ff600a876124b0565b945060001993506000851261176157600e5485111561172d57600e546117269086906124fb565b9350611761565b600e54600a5460009110611742576000611751565b600e54600a5461175191611d99565b905061175d8682611b7b565b9450505b61176a866112c3565b925061177586610c76565b6001600160a01b038716600090815260176020526040902054969895975093959294915050565b600a54600090819081908015806117bc5750601254600160b01b900460ff165b156117d2575050600e54600092508291506118bb565b600e546000805a90506000805b89841080156117ed57508582105b156118aa57846117fc81612a2b565b95505085851061180b57600094505b6000600a600001868154811061182357611823612a44565b60009182526020808320909101546001600160a01b0316808352601090915260409091205490915060ff166118705761185d81600161139d565b15611870578161186c81612a2b565b9250505b8261187a81612a2b565b93505060005a9050808511156118a15761189e6118978683611d99565b879061194b565b95505b93506117df9050565b600e85905590975095509193505050505b9193909250565b6000826000036118d457506000610c07565b60006118e08385612a0c565b9050826118ed858361297b565b146119445760405162461bcd60e51b815260206004820152602160248201527f536166654d6174683a206d756c7469706c69636174696f6e206f766572666c6f6044820152607760f81b6064820152608401610bcc565b9392505050565b6000806119588385612a5a565b9050838110156119445760405162461bcd60e51b815260206004820152601b60248201527f536166654d6174683a206164646974696f6e206f766572666c6f7700000000006044820152606401610bcc565b6001600160a01b038316611a0c5760405162461bcd60e51b8152602060048201526024808201527f45524332303a20617070726f76652066726f6d20746865207a65726f206164646044820152637265737360e01b6064820152608401610bcc565b6001600160a01b038216611a6d5760405162461bcd60e51b815260206004820152602260248201527f45524332303a20617070726f766520746f20746865207a65726f206164647265604482015261737360f01b6064820152608401610bcc565b6001600160a01b0383811660008181526001602090815260408083209487168084529482529182902085905590518481527f8c5be1e5ebec7d5bd14f71427d1e84f3dd0314c0f7b2291e5b200ac8c7c3b925910160405180910390a3505050565b60405162461bcd60e51b815260206004820152602d60248201527f4652454e4e415f4469766964656e645f547261636b65723a204e6f207472616e60448201526c1cd9995c9cc8185b1b1bddd959609a1b6064820152608401610bcc565b505050565b60008184841115611b555760405162461bcd60e51b8152600401610bcc91906127c3565b506000611b628486612a72565b95945050505050565b60008181811215610c0757600080fd5b600080611b888385612a89565b905060008312158015611b9b5750838112155b80611bb05750600083128015611bb057508381125b61194457600080fd5b600080821215611bc857600080fd5b5090565b6001600160a01b03821660009081526020819052604090205480821115611c0b576000611bf98383611d99565b9050611c058482612538565b50505050565b80821015611b2c576000611c1f8284611d99565b9050611c05848261259c565b6001600160a01b038116600090815260038301602052604090205460ff16611c51575050565b6001600160a01b03811660009081526003830160209081526040808320805460ff1916905560018086018352818420849055600286019092528220548454909291611c9b91612a72565b90506000846000018281548110611cb457611cb4612a44565b60009182526020808320909101546001600160a01b03908116808452600289019092526040808420879055908716835282209190915585549091508190869085908110611d0357611d03612a44565b600091825260209091200180546001600160a01b0319166001600160a01b03929092169190911790558454859080611d3d57611d3d612aca565b600082815260209020810160001990810180546001600160a01b03191690550190555050505050565b6000826000018281548110611d7d57611d7d612a44565b6000918252602090912001546001600160a01b03169392505050565b600061194483836040518060400160405280601e81526020017f536166654d6174683a207375627472616374696f6e206f766572666c6f770000815250611b31565b600080611de7836112c3565b9050801561208b576001600160a01b038316600090815260076020526040902054611e12908261194b565b6001600160a01b03808516600090815260076020526040812092909255601254169081611e97576040516001600160a01b03861690610bb89085906000818181858888f193505050503d8060008114611e87576040519150601f19603f3d011682016040523d82523d6000602084013e611e8c565b606091505b505080915050611ff1565b6040805160028082526060820183526000926020830190803683375050601554604080516315ab88c960e31b815290519394506001600160a01b039091169263ad5c4648925060048083019260209291908290030181865afa158015611f01573d6000803e3d6000fd5b505050506040513d601f19601f82011682018060405250810190611f259190612ae0565b81600081518110611f3857611f38612a44565b60200260200101906001600160a01b031690816001600160a01b0316815250508281600181518110611f6c57611f6c612a44565b6001600160a01b03928316602091820292909201015260155460405163b6f9de9560e01b815291169063b6f9de95908690611fb29060009086908c904290600401612b41565b6000604051808303818588803b158015611fcb57600080fd5b505af193505050508015611fdd575060015b611fea5760009150611fef565b600191505b505b8061203f576001600160a01b0385166000908152600760205260409020546120199084611d99565b6001600160a01b0390951660009081526007602052604081209590955550929392505050565b846001600160a01b03167fee503bee2bb6a87e57bc57db795f98137327401a0e7b7ce42e37926cc1a9ca4d8460405161207a91815260200190565b60405180910390a250909392505050565b50600092915050565b6000806120a0836112c3565b9050801561208b576001600160a01b0383166000908152600760205260408120546120cb908361194b565b6001600160a01b03851660009081526007602052604080822092909255815160028082526060820190935290918160200160208202803683375050601554604080516315ab88c960e31b815290519394506001600160a01b039091169263ad5c4648925060048083019260209291908290030181865afa158015612153573d6000803e3d6000fd5b505050506040513d601f19601f820116820180604052508101906121779190612ae0565b8160008151811061218a5761218a612a44565b6001600160a01b0392831660209182029290920101526016548251911690829060019081106121bb576121bb612a44565b6001600160a01b0392831660209182029290920101526016546040516370a0823160e01b815230600482015260009291909116906370a0823190602401602060405180830381865afa158015612215573d6000803e3d6000fd5b505050506040513d601f19601f820116820180604052508101906122399190612b76565b60155460405163b6f9de9560e01b81529192506001600160a01b03169063b6f9de9590869061227390600090879030904290600401612b41565b6000604051808303818588803b15801561228c57600080fd5b505af19350505050801561229e575060015b6122ab57600092506123ae565b6016546040516370a0823160e01b815230600482015260009161231e9184916001600160a01b0316906370a0823190602401602060405180830381865afa1580156122fa573d6000803e3d6000fd5b505050506040513d601f19601f820116820180604052508101906112e99190612b76565b905080156123a75760165460405163a9059cbb60e01b81526001600160a01b03898116600483015260248201849052600196509091169063a9059cbb906044016020604051808303816000875af115801561237d573d6000803e3d6000fd5b505050506040513d601f19601f820116820180604052508101906123a19190612b8f565b506123ac565b600093505b505b826123fd576001600160a01b0386166000908152600760205260409020546123d69085611d99565b6001600160a01b039096166000908152600760205260408120969096555093949350505050565b5091949350505050565b6001600160a01b038216600090815260038401602052604090205460ff161561244c576001600160a01b03821660009081526001840160205260409020819055505050565b6001600160a01b03821660008181526003850160209081526040808320805460ff19166001908117909155878101835281842086905587546002890184529184208290558101875586835291200180546001600160a01b0319169091179055505050565b6001600160a01b038116600090815260038301602052604081205460ff166124db5750600019610c07565b506001600160a01b03166000908152600291909101602052604090205490565b6000806125088385612bac565b90506000831215801561251b5750838113155b80611bb05750600083128015611bb0575083811361194457600080fd5b61254282826125e0565b61257c61255d610cb8836005546118c290919063ffffffff16565b6001600160a01b038416600090815260066020526040902054906124fb565b6001600160a01b0390921660009081526006602052604090209190915550565b6125a682826126bf565b61257c6125c1610cb8836005546118c290919063ffffffff16565b6001600160a01b03841660009081526006602052604090205490611b7b565b6001600160a01b0382166126365760405162461bcd60e51b815260206004820152601f60248201527f45524332303a206d696e7420746f20746865207a65726f2061646472657373006044820152606401610bcc565b600254612643908261194b565b6002556001600160a01b038216600090815260208190526040902054612669908261194b565b6001600160a01b038316600081815260208181526040808320949094559251848152919290917fddf252ad1be2c89b69c2b068fc378daa952ba7f163c4a11628f55a4df523b3ef91015b60405180910390a35050565b6001600160a01b03821661271f5760405162461bcd60e51b815260206004820152602160248201527f45524332303a206275726e2066726f6d20746865207a65726f206164647265736044820152607360f81b6064820152608401610bcc565b61275c81604051806060016040528060228152602001612bec602291396001600160a01b0385166000908152602081905260409020549190611b31565b6001600160a01b0383166000908152602081905260409020556002546127829082611d99565b6002556040518181526000906001600160a01b038416907fddf252ad1be2c89b69c2b068fc378daa952ba7f163c4a11628f55a4df523b3ef906020016126b3565b600060208083528351808285015260005b818110156127f0578581018301518582016040015282016127d4565b81811115612802576000604083870101525b50601f01601f1916929092016040019392505050565b6001600160a01b038116811461282d57600080fd5b50565b60006020828403121561284257600080fd5b813561194481612818565b6000806040838503121561286057600080fd5b823561286b81612818565b946020939093013593505050565b60008060006060848603121561288e57600080fd5b833561289981612818565b925060208401356128a981612818565b929592945050506040919091013590565b801515811461282d57600080fd5b6000602082840312156128da57600080fd5b8135611944816128ba565b6000602082840312156128f757600080fd5b5035919050565b6000806040838503121561291157600080fd5b823561291c81612818565b9150602083013561292c816128ba565b809150509250929050565b6000806040838503121561294a57600080fd5b823561295581612818565b9150602083013561292c81612818565b634e487b7160e01b600052601160045260246000fd5b60008261299857634e487b7160e01b600052601260045260246000fd5b500490565b600181811c908216806129b157607f821691505b6020821081036129d157634e487b7160e01b600052602260045260246000fd5b50919050565b6020808252818101527f4f776e61626c653a2063616c6c6572206973206e6f7420746865206f776e6572604082015260600190565b6000816000190483118215151615612a2657612a26612965565b500290565b600060018201612a3d57612a3d612965565b5060010190565b634e487b7160e01b600052603260045260246000fd5b60008219821115612a6d57612a6d612965565b500190565b600082821015612a8457612a84612965565b500390565b600080821280156001600160ff1b0384900385131615612aab57612aab612965565b600160ff1b8390038412811615612ac457612ac4612965565b50500190565b634e487b7160e01b600052603160045260246000fd5b600060208284031215612af257600080fd5b815161194481612818565b600081518084526020808501945080840160005b83811015612b365781516001600160a01b031687529582019590820190600101612b11565b509495945050505050565b848152608060208201526000612b5a6080830186612afd565b6001600160a01b03949094166040830152506060015292915050565b600060208284031215612b8857600080fd5b5051919050565b600060208284031215612ba157600080fd5b8151611944816128ba565b60008083128015600160ff1b850184121615612bca57612bca612965565b6001600160ff1b0384018313811615612be557612be5612965565b5050039056fe45524332303a206275726e20616d6f756e7420657863656564732062616c616e636545524332303a207472616e7366657220616d6f756e74206578636565647320616c6c6f77616e636545524332303a2064656372656173656420616c6c6f77616e63652062656c6f77207a65726fa264697066735822122023bcf391a27380ce94855d80b53a597a88c6e3ed9f60749ea89970915a4e126064736f6c634300080f0033",
			"opcodes": "PUSH1 0x80 PUSH1 0x40 MSTORE PUSH1 0x9 DUP1 SLOAD PUSH1 0x1 PUSH3 0xFFFF01 PUSH1 0xA0 SHL SUB NOT AND PUSH23 0x10000000000000000000000000000000000000000DEAD OR SWAP1 SSTORE PUSH1 0x0 PUSH1 0xA DUP2 SWAP1 SSTORE PUSH1 0xB SSTORE PUSH1 0x1E DUP1 SLOAD PUSH1 0xFF NOT SWAP1 DUP2 AND PUSH1 0x1 SWAP1 DUP2 OR SWAP1 SWAP3 SSTORE PUSH3 0x493E0 PUSH1 0x1F SSTORE PUSH1 0x27 DUP1 SLOAD SWAP1 SWAP2 AND SWAP1 SWAP2 OR SWAP1 SSTORE PUSH5 0x1A13B8600 PUSH1 0x28 SSTORE PUSH1 0x3C PUSH1 0x2C SSTORE CALLVALUE DUP1 ISZERO PUSH3 0x79 JUMPI PUSH1 0x0 DUP1 REVERT JUMPDEST POP PUSH1 0x40 MLOAD DUP1 PUSH1 0x40 ADD PUSH1 0x40 MSTORE DUP1 PUSH1 0x4 DUP2 MSTORE PUSH1 0x20 ADD PUSH4 0x151154D5 PUSH1 0xE2 SHL DUP2 MSTORE POP PUSH1 0x40 MLOAD DUP1 PUSH1 0x40 ADD PUSH1 0x40 MSTORE DUP1 PUSH1 0x6 DUP2 MSTORE PUSH1 0x20 ADD PUSH6 0x4652454E4E41 PUSH1 0xD0 SHL DUP2 MSTORE POP DUP2 PUSH1 0x3 SWAP1 DUP2 PUSH3 0xC7 SWAP2 SWAP1 PUSH3 0xB99 JUMP JUMPDEST POP PUSH1 0x4 PUSH3 0xD6 DUP3 DUP3 PUSH3 0xB99 JUMP JUMPDEST POP POP POP PUSH1 0x0 PUSH3 0xEB PUSH3 0x8A8 PUSH1 0x20 SHL PUSH1 0x20 SHR JUMP JUMPDEST PUSH1 0x5 DUP1 SLOAD PUSH1 0x1 PUSH1 0x1 PUSH1 0xA0 SHL SUB NOT AND PUSH1 0x1 PUSH1 0x1 PUSH1 0xA0 SHL SUB DUP4 AND SWAP1 DUP2 OR SWAP1 SWAP2 SSTORE PUSH1 0x40 MLOAD SWAP2 SWAP3 POP SWAP1 PUSH1 0x0 SWAP1 PUSH32 0x8BE0079C531659141344CD1FD0A4F28419497F9722A3DAAFE3B4186F6B6457E0 SWAP1 DUP3 SWAP1 LOG3 POP PUSH1 0xF DUP1 SLOAD PUSH20 0xAEC4D52511FCC14F970A1DE9053B497BB4FB0714 PUSH1 0x1 PUSH1 0x1 PUSH1 0xA0 SHL SUB NOT SWAP2 DUP3 AND DUP2 OR SWAP1 SWAP3 SSTORE PUSH1 0x10 DUP1 SLOAD DUP3 AND SWAP1 SWAP3 OR SWAP1 SWAP2 SSTORE PUSH1 0x7 DUP1 SLOAD PUSH20 0xE9E7CEA3DEDCA5984780BAFC599BD69ADD087D56 SWAP3 AND SWAP2 SWAP1 SWAP2 OR SWAP1 SSTORE PUSH1 0x0 PUSH1 0x17 DUP2 SWAP1 SSTORE PUSH1 0x14 DUP2 SWAP1 SSTORE PUSH1 0x4 PUSH1 0x18 DUP2 SWAP1 SSTORE PUSH1 0x15 DUP2 SWAP1 SSTORE PUSH1 0x19 DUP3 SWAP1 SSTORE PUSH1 0x16 DUP3 SWAP1 SSTORE PUSH1 0x1 PUSH1 0x1A DUP2 SWAP1 SSTORE PUSH1 0x13 DUP2 SWAP1 SSTORE PUSH1 0x2 PUSH1 0x1B DUP2 SWAP1 SSTORE PUSH1 0x1C DUP2 SWAP1 SSTORE PUSH1 0x1D DUP5 SWAP1 SSTORE PUSH20 0x10ED43C718714EB63D5AA57B78B54704E256024E SWAP4 PUSH3 0x21B SWAP4 SWAP2 SWAP3 PUSH3 0x207 SWAP3 SWAP2 DUP4 SWAP2 SWAP1 PUSH3 0x8AC PUSH1 0x20 SWAP1 DUP2 SHL PUSH3 0x311D OR SWAP1 SHR JUMP JUMPDEST PUSH3 0x8AC PUSH1 0x20 SHL PUSH3 0x311D OR SWAP1 SWAP2 SWAP1 PUSH1 0x20 SHR JUMP JUMPDEST PUSH1 0xD DUP2 SWAP1 SSTORE POP PUSH3 0x24D PUSH1 0x1C SLOAD PUSH3 0x207 PUSH1 0x15 SLOAD PUSH3 0x207 PUSH1 0x16 SLOAD PUSH1 0x13 SLOAD PUSH3 0x8AC PUSH1 0x20 SHL PUSH3 0x311D OR SWAP1 SWAP2 SWAP1 PUSH1 0x20 SHR JUMP JUMPDEST PUSH1 0xC DUP2 SWAP1 SSTORE POP ADDRESS DUP2 PUSH20 0xE9E7CEA3DEDCA5984780BAFC599BD69ADD087D56 PUSH1 0x40 MLOAD PUSH3 0x278 SWAP1 PUSH3 0xAE7 JUMP JUMPDEST PUSH1 0x1 PUSH1 0x1 PUSH1 0xA0 SHL SUB SWAP4 DUP5 AND DUP2 MSTORE SWAP2 DUP4 AND PUSH1 0x20 DUP4 ADD MSTORE SWAP1 SWAP2 AND PUSH1 0x40 DUP3 ADD MSTORE PUSH1 0xA0 PUSH1 0x60 DUP3 ADD DUP2 SWAP1 MSTORE PUSH1 0xB SWAP1 DUP3 ADD MSTORE PUSH11 0x212AA9A22A2920A1A5A2A9 PUSH1 0xA9 SHL PUSH1 0xC0 DUP3 ADD MSTORE PUSH1 0xE0 PUSH1 0x80 DUP3 ADD DUP2 SWAP1 MSTORE PUSH1 0x9 SWAP1 DUP3 ADD MSTORE PUSH9 0x23A12A2920A1A5A2A9 PUSH1 0xB9 SHL PUSH2 0x100 DUP3 ADD MSTORE PUSH2 0x120 ADD PUSH1 0x40 MLOAD DUP1 SWAP2 SUB SWAP1 PUSH1 0x0 CREATE DUP1 ISZERO DUP1 ISZERO PUSH3 0x2FB JUMPI RETURNDATASIZE PUSH1 0x0 DUP1 RETURNDATACOPY RETURNDATASIZE PUSH1 0x0 REVERT JUMPDEST POP PUSH1 0xE DUP1 SLOAD PUSH1 0x1 PUSH1 0x1 PUSH1 0xA0 SHL SUB SWAP3 DUP4 AND PUSH1 0x1 PUSH1 0x1 PUSH1 0xA0 SHL SUB NOT SWAP2 DUP3 AND OR SWAP1 SWAP2 SSTORE PUSH1 0x6 DUP1 SLOAD SWAP3 DUP5 AND SWAP3 SWAP1 SWAP2 AND DUP3 OR SWAP1 SSTORE PUSH1 0x40 DUP1 MLOAD PUSH4 0xC45A0155 PUSH1 0xE0 SHL DUP2 MSTORE SWAP1 MLOAD PUSH4 0xC45A0155 SWAP2 PUSH1 0x4 DUP1 DUP3 ADD SWAP3 PUSH1 0x20 SWAP3 SWAP1 SWAP2 SWAP1 DUP3 SWAP1 SUB ADD DUP2 DUP7 GAS STATICCALL ISZERO DUP1 ISZERO PUSH3 0x366 JUMPI RETURNDATASIZE PUSH1 0x0 DUP1 RETURNDATACOPY RETURNDATASIZE PUSH1 0x0 REVERT JUMPDEST POP POP POP POP PUSH1 0x40 MLOAD RETURNDATASIZE PUSH1 0x1F NOT PUSH1 0x1F DUP3 ADD AND DUP3 ADD DUP1 PUSH1 0x40 MSTORE POP DUP2 ADD SWAP1 PUSH3 0x38C SWAP2 SWAP1 PUSH3 0xC65 JUMP JUMPDEST PUSH1 0x1 PUSH1 0x1 PUSH1 0xA0 SHL SUB AND PUSH4 0xC9C65396 ADDRESS PUSH1 0x6 PUSH1 0x0 SWAP1 SLOAD SWAP1 PUSH2 0x100 EXP SWAP1 DIV PUSH1 0x1 PUSH1 0x1 PUSH1 0xA0 SHL SUB AND PUSH1 0x1 PUSH1 0x1 PUSH1 0xA0 SHL SUB AND PUSH4 0xAD5C4648 PUSH1 0x40 MLOAD DUP2 PUSH4 0xFFFFFFFF AND PUSH1 0xE0 SHL DUP2 MSTORE PUSH1 0x4 ADD PUSH1 0x20 PUSH1 0x40 MLOAD DUP1 DUP4 SUB DUP2 DUP7 GAS STATICCALL ISZERO DUP1 ISZERO PUSH3 0x3EF JUMPI RETURNDATASIZE PUSH1 0x0 DUP1 RETURNDATACOPY RETURNDATASIZE PUSH1 0x0 REVERT JUMPDEST POP POP POP POP PUSH1 0x40 MLOAD RETURNDATASIZE PUSH1 0x1F NOT PUSH1 0x1F DUP3 ADD AND DUP3 ADD DUP1 PUSH1 0x40 MSTORE POP DUP2 ADD SWAP1 PUSH3 0x415 SWAP2 SWAP1 PUSH3 0xC65 JUMP JUMPDEST PUSH1 0x40 MLOAD PUSH1 0x1 PUSH1 0x1 PUSH1 0xE0 SHL SUB NOT PUSH1 0xE0 DUP6 SWAP1 SHL AND DUP2 MSTORE PUSH1 0x1 PUSH1 0x1 PUSH1 0xA0 SHL SUB SWAP3 DUP4 AND PUSH1 0x4 DUP3 ADD MSTORE SWAP2 AND PUSH1 0x24 DUP3 ADD MSTORE PUSH1 0x44 ADD PUSH1 0x20 PUSH1 0x40 MLOAD DUP1 DUP4 SUB DUP2 PUSH1 0x0 DUP8 GAS CALL ISZERO DUP1 ISZERO PUSH3 0x463 JUMPI RETURNDATASIZE PUSH1 0x0 DUP1 RETURNDATACOPY RETURNDATASIZE PUSH1 0x0 REVERT JUMPDEST POP POP POP POP PUSH1 0x40 MLOAD RETURNDATASIZE PUSH1 0x1F NOT PUSH1 0x1F DUP3 ADD AND DUP3 ADD DUP1 PUSH1 0x40 MSTORE POP DUP2 ADD SWAP1 PUSH3 0x489 SWAP2 SWAP1 PUSH3 0xC65 JUMP JUMPDEST PUSH1 0x8 DUP1 SLOAD PUSH1 0x1 PUSH1 0x1 PUSH1 0xA0 SHL SUB NOT AND PUSH1 0x1 PUSH1 0x1 PUSH1 0xA0 SHL SUB SWAP3 SWAP1 SWAP3 AND SWAP2 DUP3 OR SWAP1 SSTORE PUSH3 0x4B5 SWAP1 PUSH1 0x1 PUSH3 0x91A JUMP JUMPDEST PUSH1 0xE SLOAD PUSH1 0x40 MLOAD PUSH4 0x31E79DB PUSH1 0xE4 SHL DUP2 MSTORE PUSH1 0x1 PUSH1 0x1 PUSH1 0xA0 SHL SUB SWAP1 SWAP2 AND PUSH1 0x4 DUP3 ADD DUP2 SWAP1 MSTORE SWAP1 PUSH4 0x31E79DB0 SWAP1 PUSH1 0x24 ADD PUSH1 0x0 PUSH1 0x40 MLOAD DUP1 DUP4 SUB DUP2 PUSH1 0x0 DUP8 DUP1 EXTCODESIZE ISZERO DUP1 ISZERO PUSH3 0x4FC JUMPI PUSH1 0x0 DUP1 REVERT JUMPDEST POP GAS CALL ISZERO DUP1 ISZERO PUSH3 0x511 JUMPI RETURNDATASIZE PUSH1 0x0 DUP1 RETURNDATACOPY RETURNDATASIZE PUSH1 0x0 REVERT JUMPDEST POP POP PUSH1 0xE SLOAD PUSH1 0x40 MLOAD PUSH4 0x31E79DB PUSH1 0xE4 SHL DUP2 MSTORE ADDRESS PUSH1 0x4 DUP3 ADD MSTORE PUSH1 0x1 PUSH1 0x1 PUSH1 0xA0 SHL SUB SWAP1 SWAP2 AND SWAP3 POP PUSH4 0x31E79DB0 SWAP2 POP PUSH1 0x24 ADD PUSH1 0x0 PUSH1 0x40 MLOAD DUP1 DUP4 SUB DUP2 PUSH1 0x0 DUP8 DUP1 EXTCODESIZE ISZERO DUP1 ISZERO PUSH3 0x55B JUMPI PUSH1 0x0 DUP1 REVERT JUMPDEST POP GAS CALL ISZERO DUP1 ISZERO PUSH3 0x570 JUMPI RETURNDATASIZE PUSH1 0x0 DUP1 RETURNDATACOPY RETURNDATASIZE PUSH1 0x0 REVERT JUMPDEST POP POP PUSH1 0xE SLOAD PUSH1 0x9 SLOAD PUSH1 0x40 MLOAD PUSH4 0x31E79DB PUSH1 0xE4 SHL DUP2 MSTORE PUSH1 0x1 PUSH1 0x1 PUSH1 0xA0 SHL SUB SWAP2 DUP3 AND PUSH1 0x4 DUP3 ADD MSTORE SWAP2 AND SWAP3 POP PUSH4 0x31E79DB0 SWAP2 POP PUSH1 0x24 ADD PUSH1 0x0 PUSH1 0x40 MLOAD DUP1 DUP4 SUB DUP2 PUSH1 0x0 DUP8 DUP1 EXTCODESIZE ISZERO DUP1 ISZERO PUSH3 0x5BE JUMPI PUSH1 0x0 DUP1 REVERT JUMPDEST POP GAS CALL ISZERO DUP1 ISZERO PUSH3 0x5D3 JUMPI RETURNDATASIZE PUSH1 0x0 DUP1 RETURNDATACOPY RETURNDATASIZE PUSH1 0x0 REVERT JUMPDEST POP POP PUSH1 0xE SLOAD PUSH1 0x40 MLOAD PUSH4 0x4E7B827F PUSH1 0xE0 SHL DUP2 MSTORE PUSH1 0x0 PUSH1 0x4 DUP3 ADD MSTORE PUSH1 0x1 PUSH1 0x1 PUSH1 0xA0 SHL SUB SWAP1 SWAP2 AND SWAP3 POP PUSH4 0x4E7B827F SWAP2 POP PUSH1 0x24 ADD PUSH1 0x20 PUSH1 0x40 MLOAD DUP1 DUP4 SUB DUP2 DUP7 GAS STATICCALL ISZERO DUP1 ISZERO PUSH3 0x621 JUMPI RETURNDATASIZE PUSH1 0x0 DUP1 RETURNDATACOPY RETURNDATASIZE PUSH1 0x0 REVERT JUMPDEST POP POP POP POP PUSH1 0x40 MLOAD RETURNDATASIZE PUSH1 0x1F NOT PUSH1 0x1F DUP3 ADD AND DUP3 ADD DUP1 PUSH1 0x40 MSTORE POP DUP2 ADD SWAP1 PUSH3 0x647 SWAP2 SWAP1 PUSH3 0xC90 JUMP JUMPDEST POP PUSH1 0xE SLOAD PUSH1 0x40 MLOAD PUSH4 0x31E79DB PUSH1 0xE4 SHL DUP2 MSTORE PUSH1 0x1 PUSH1 0x1 PUSH1 0xA0 SHL SUB DUP4 DUP2 AND PUSH1 0x4 DUP4 ADD MSTORE SWAP1 SWAP2 AND SWAP1 PUSH4 0x31E79DB0 SWAP1 PUSH1 0x24 ADD PUSH1 0x0 PUSH1 0x40 MLOAD DUP1 DUP4 SUB DUP2 PUSH1 0x0 DUP8 DUP1 EXTCODESIZE ISZERO DUP1 ISZERO PUSH3 0x690 JUMPI PUSH1 0x0 DUP1 REVERT JUMPDEST POP GAS CALL ISZERO DUP1 ISZERO PUSH3 0x6A5 JUMPI RETURNDATASIZE PUSH1 0x0 DUP1 RETURNDATACOPY RETURNDATASIZE PUSH1 0x0 REVERT JUMPDEST POP POP PUSH1 0xE SLOAD PUSH1 0xF SLOAD PUSH1 0x40 MLOAD PUSH4 0x31E79DB PUSH1 0xE4 SHL DUP2 MSTORE PUSH1 0x1 PUSH1 0x1 PUSH1 0xA0 SHL SUB SWAP2 DUP3 AND PUSH1 0x4 DUP3 ADD MSTORE SWAP2 AND SWAP3 POP PUSH4 0x31E79DB0 SWAP2 POP PUSH1 0x24 ADD PUSH1 0x0 PUSH1 0x40 MLOAD DUP1 DUP4 SUB DUP2 PUSH1 0x0 DUP8 DUP1 EXTCODESIZE ISZERO DUP1 ISZERO PUSH3 0x6F3 JUMPI PUSH1 0x0 DUP1 REVERT JUMPDEST POP GAS CALL ISZERO DUP1 ISZERO PUSH3 0x708 JUMPI RETURNDATASIZE PUSH1 0x0 DUP1 RETURNDATACOPY RETURNDATASIZE PUSH1 0x0 REVERT JUMPDEST POP POP PUSH1 0xE SLOAD PUSH1 0x1 PUSH1 0x1 PUSH1 0xA0 SHL SUB AND SWAP2 POP PUSH4 0x31E79DB0 SWAP1 POP PUSH3 0x732 PUSH1 0x5 SLOAD PUSH1 0x1 PUSH1 0x1 PUSH1 0xA0 SHL SUB AND SWAP1 JUMP JUMPDEST PUSH1 0x40 MLOAD PUSH1 0x1 PUSH1 0x1 PUSH1 0xE0 SHL SUB NOT PUSH1 0xE0 DUP5 SWAP1 SHL AND DUP2 MSTORE PUSH1 0x1 PUSH1 0x1 PUSH1 0xA0 SHL SUB SWAP1 SWAP2 AND PUSH1 0x4 DUP3 ADD MSTORE PUSH1 0x24 ADD PUSH1 0x0 PUSH1 0x40 MLOAD DUP1 DUP4 SUB DUP2 PUSH1 0x0 DUP8 DUP1 EXTCODESIZE ISZERO DUP1 ISZERO PUSH3 0x774 JUMPI PUSH1 0x0 DUP1 REVERT JUMPDEST POP GAS CALL ISZERO DUP1 ISZERO PUSH3 0x789 JUMPI RETURNDATASIZE PUSH1 0x0 DUP1 RETURNDATACOPY RETURNDATASIZE PUSH1 0x0 REVERT JUMPDEST POP POP ADDRESS PUSH1 0x0 SWAP1 DUP2 MSTORE PUSH1 0x20 DUP1 MSTORE PUSH1 0x40 DUP1 DUP3 KECCAK256 DUP1 SLOAD PUSH1 0x1 PUSH1 0xFF NOT SWAP2 DUP3 AND DUP2 OR SWAP1 SWAP3 SSTORE PUSH1 0xE SLOAD PUSH1 0x1 PUSH1 0x1 PUSH1 0xA0 SHL SUB SWAP1 DUP2 AND DUP6 MSTORE DUP4 DUP6 KECCAK256 DUP1 SLOAD DUP4 AND DUP5 OR SWAP1 SSTORE PUSH1 0xF SLOAD DUP2 AND DUP6 MSTORE DUP4 DUP6 KECCAK256 DUP1 SLOAD DUP4 AND DUP5 OR SWAP1 SSTORE PUSH1 0x10 SLOAD AND DUP5 MSTORE DUP3 DUP5 KECCAK256 DUP1 SLOAD DUP3 AND DUP4 OR SWAP1 SSTORE CALLER DUP5 MSTORE SWAP2 SWAP1 SWAP3 KECCAK256 DUP1 SLOAD SWAP1 SWAP2 AND SWAP1 SWAP2 OR SWAP1 SSTORE POP PUSH11 0x84595161401484A000000 SWAP1 POP PUSH3 0x825 PUSH3 0x81E PUSH1 0x5 SLOAD PUSH1 0x1 PUSH1 0x1 PUSH1 0xA0 SHL SUB AND SWAP1 JUMP JUMPDEST DUP3 PUSH3 0x9E6 JUMP JUMPDEST PUSH3 0x832 PUSH1 0x19 DUP3 PUSH3 0xCB4 JUMP JUMPDEST PUSH1 0x11 SSTORE PUSH3 0x843 PUSH2 0x7D0 DUP3 PUSH3 0xCB4 JUMP JUMPDEST PUSH1 0x12 SSTORE PUSH1 0x1 PUSH1 0x26 PUSH1 0x0 PUSH3 0x85F PUSH1 0x5 SLOAD PUSH1 0x1 PUSH1 0x1 PUSH1 0xA0 SHL SUB AND SWAP1 JUMP JUMPDEST PUSH1 0x1 PUSH1 0x1 PUSH1 0xA0 SHL SUB AND DUP2 MSTORE PUSH1 0x20 DUP1 DUP3 ADD SWAP3 SWAP1 SWAP3 MSTORE PUSH1 0x40 SWAP1 DUP2 ADD PUSH1 0x0 SWAP1 DUP2 KECCAK256 DUP1 SLOAD SWAP5 ISZERO ISZERO PUSH1 0xFF NOT SWAP6 DUP7 AND OR SWAP1 SSTORE ADDRESS DUP2 MSTORE PUSH1 0x26 SWAP1 SWAP3 MSTORE SWAP1 KECCAK256 DUP1 SLOAD SWAP1 SWAP2 AND PUSH1 0x1 OR SWAP1 SSTORE POP PUSH3 0xCFE SWAP1 POP JUMP JUMPDEST CALLER SWAP1 JUMP JUMPDEST PUSH1 0x0 DUP1 PUSH3 0x8BB DUP4 DUP6 PUSH3 0xCD7 JUMP JUMPDEST SWAP1 POP DUP4 DUP2 LT ISZERO PUSH3 0x913 JUMPI PUSH1 0x40 MLOAD PUSH3 0x461BCD PUSH1 0xE5 SHL DUP2 MSTORE PUSH1 0x20 PUSH1 0x4 DUP3 ADD MSTORE PUSH1 0x1B PUSH1 0x24 DUP3 ADD MSTORE PUSH32 0x536166654D6174683A206164646974696F6E206F766572666C6F770000000000 PUSH1 0x44 DUP3 ADD MSTORE PUSH1 0x64 ADD JUMPDEST PUSH1 0x40 MLOAD DUP1 SWAP2 SUB SWAP1 REVERT JUMPDEST SWAP4 SWAP3 POP POP POP JUMP JUMPDEST PUSH1 0x1 PUSH1 0x1 PUSH1 0xA0 SHL SUB DUP3 AND PUSH1 0x0 SWAP1 DUP2 MSTORE PUSH1 0x22 PUSH1 0x20 MSTORE PUSH1 0x40 SWAP1 KECCAK256 DUP1 SLOAD PUSH1 0xFF NOT AND DUP3 ISZERO DUP1 ISZERO SWAP2 SWAP1 SWAP2 OR SWAP1 SWAP2 SSTORE PUSH3 0x9AA JUMPI PUSH1 0xE SLOAD PUSH1 0x40 MLOAD PUSH4 0x31E79DB PUSH1 0xE4 SHL DUP2 MSTORE PUSH1 0x1 PUSH1 0x1 PUSH1 0xA0 SHL SUB DUP5 DUP2 AND PUSH1 0x4 DUP4 ADD MSTORE SWAP1 SWAP2 AND SWAP1 PUSH4 0x31E79DB0 SWAP1 PUSH1 0x24 ADD PUSH1 0x0 PUSH1 0x40 MLOAD DUP1 DUP4 SUB DUP2 PUSH1 0x0 DUP8 DUP1 EXTCODESIZE ISZERO DUP1 ISZERO PUSH3 0x990 JUMPI PUSH1 0x0 DUP1 REVERT JUMPDEST POP GAS CALL ISZERO DUP1 ISZERO PUSH3 0x9A5 JUMPI RETURNDATASIZE PUSH1 0x0 DUP1 RETURNDATACOPY RETURNDATASIZE PUSH1 0x0 REVERT JUMPDEST POP POP POP POP JUMPDEST PUSH1 0x40 MLOAD DUP2 ISZERO ISZERO SWAP1 PUSH1 0x1 PUSH1 0x1 PUSH1 0xA0 SHL SUB DUP5 AND SWAP1 PUSH32 0xFFA9187BF1F18BF477BD0EA1BCBB64E93B6A98132473929EDFCE215CD9B16FAB SWAP1 PUSH1 0x0 SWAP1 LOG3 POP POP JUMP JUMPDEST PUSH1 0x1 PUSH1 0x1 PUSH1 0xA0 SHL SUB DUP3 AND PUSH3 0xA3E JUMPI PUSH1 0x40 MLOAD PUSH3 0x461BCD PUSH1 0xE5 SHL DUP2 MSTORE PUSH1 0x20 PUSH1 0x4 DUP3 ADD MSTORE PUSH1 0x1F PUSH1 0x24 DUP3 ADD MSTORE PUSH32 0x45524332303A206D696E7420746F20746865207A65726F206164647265737300 PUSH1 0x44 DUP3 ADD MSTORE PUSH1 0x64 ADD PUSH3 0x90A JUMP JUMPDEST PUSH3 0xA5A DUP2 PUSH1 0x2 SLOAD PUSH3 0x8AC PUSH1 0x20 SHL PUSH3 0x311D OR SWAP1 SWAP2 SWAP1 PUSH1 0x20 SHR JUMP JUMPDEST PUSH1 0x2 SSTORE PUSH1 0x1 PUSH1 0x1 PUSH1 0xA0 SHL SUB DUP3 AND PUSH1 0x0 SWAP1 DUP2 MSTORE PUSH1 0x20 DUP2 DUP2 MSTORE PUSH1 0x40 SWAP1 SWAP2 KECCAK256 SLOAD PUSH3 0xA8D SWAP2 DUP4 SWAP1 PUSH3 0x311D PUSH3 0x8AC DUP3 SHL OR SWAP1 SHR JUMP JUMPDEST PUSH1 0x1 PUSH1 0x1 PUSH1 0xA0 SHL SUB DUP4 AND PUSH1 0x0 DUP2 DUP2 MSTORE PUSH1 0x20 DUP2 DUP2 MSTORE PUSH1 0x40 DUP1 DUP4 KECCAK256 SWAP5 SWAP1 SWAP5 SSTORE SWAP3 MLOAD DUP5 DUP2 MSTORE SWAP2 SWAP3 SWAP1 SWAP2 PUSH32 0xDDF252AD1BE2C89B69C2B068FC378DAA952BA7F163C4A11628F55A4DF523B3EF SWAP2 ADD PUSH1 0x40 MLOAD DUP1 SWAP2 SUB SWAP1 LOG3 POP POP JUMP JUMPDEST POP POP POP JUMP JUMPDEST PUSH2 0x30E7 DUP1 PUSH3 0x5D05 DUP4 CODECOPY ADD SWAP1 JUMP JUMPDEST PUSH4 0x4E487B71 PUSH1 0xE0 SHL PUSH1 0x0 MSTORE PUSH1 0x41 PUSH1 0x4 MSTORE PUSH1 0x24 PUSH1 0x0 REVERT JUMPDEST PUSH1 0x1 DUP2 DUP2 SHR SWAP1 DUP3 AND DUP1 PUSH3 0xB20 JUMPI PUSH1 0x7F DUP3 AND SWAP2 POP JUMPDEST PUSH1 0x20 DUP3 LT DUP2 SUB PUSH3 0xB41 JUMPI PUSH4 0x4E487B71 PUSH1 0xE0 SHL PUSH1 0x0 MSTORE PUSH1 0x22 PUSH1 0x4 MSTORE PUSH1 0x24 PUSH1 0x0 REVERT JUMPDEST POP SWAP2 SWAP1 POP JUMP JUMPDEST PUSH1 0x1F DUP3 GT ISZERO PUSH3 0xAE2 JUMPI PUSH1 0x0 DUP2 DUP2 MSTORE PUSH1 0x20 DUP2 KECCAK256 PUSH1 0x1F DUP6 ADD PUSH1 0x5 SHR DUP2 ADD PUSH1 0x20 DUP7 LT ISZERO PUSH3 0xB70 JUMPI POP DUP1 JUMPDEST PUSH1 0x1F DUP6 ADD PUSH1 0x5 SHR DUP3 ADD SWAP2 POP JUMPDEST DUP2 DUP2 LT ISZERO PUSH3 0xB91 JUMPI DUP3 DUP2 SSTORE PUSH1 0x1 ADD PUSH3 0xB7C JUMP JUMPDEST POP POP POP POP POP POP JUMP JUMPDEST DUP2 MLOAD PUSH1 0x1 PUSH1 0x1 PUSH1 0x40 SHL SUB DUP2 GT ISZERO PUSH3 0xBB5 JUMPI PUSH3 0xBB5 PUSH3 0xAF5 JUMP JUMPDEST PUSH3 0xBCD DUP2 PUSH3 0xBC6 DUP5 SLOAD PUSH3 0xB0B JUMP JUMPDEST DUP5 PUSH3 0xB47 JUMP JUMPDEST PUSH1 0x20 DUP1 PUSH1 0x1F DUP4 GT PUSH1 0x1 DUP2 EQ PUSH3 0xC05 JUMPI PUSH1 0x0 DUP5 ISZERO PUSH3 0xBEC JUMPI POP DUP6 DUP4 ADD MLOAD JUMPDEST PUSH1 0x0 NOT PUSH1 0x3 DUP7 SWAP1 SHL SHR NOT AND PUSH1 0x1 DUP6 SWAP1 SHL OR DUP6 SSTORE PUSH3 0xB91 JUMP JUMPDEST PUSH1 0x0 DUP6 DUP2 MSTORE PUSH1 0x20 DUP2 KECCAK256 PUSH1 0x1F NOT DUP7 AND SWAP2 JUMPDEST DUP3 DUP2 LT ISZERO PUSH3 0xC36 JUMPI DUP9 DUP7 ADD MLOAD DUP3 SSTORE SWAP5 DUP5 ADD SWAP5 PUSH1 0x1 SWAP1 SWAP2 ADD SWAP1 DUP5 ADD PUSH3 0xC15 JUMP JUMPDEST POP DUP6 DUP3 LT ISZERO PUSH3 0xC55 JUMPI DUP8 DUP6 ADD MLOAD PUSH1 0x0 NOT PUSH1 0x3 DUP9 SWAP1 SHL PUSH1 0xF8 AND SHR NOT AND DUP2 SSTORE JUMPDEST POP POP POP POP POP PUSH1 0x1 SWAP1 DUP2 SHL ADD SWAP1 SSTORE POP JUMP JUMPDEST PUSH1 0x0 PUSH1 0x20 DUP3 DUP5 SUB SLT ISZERO PUSH3 0xC78 JUMPI PUSH1 0x0 DUP1 REVERT JUMPDEST DUP2 MLOAD PUSH1 0x1 PUSH1 0x1 PUSH1 0xA0 SHL SUB DUP2 AND DUP2 EQ PUSH3 0x913 JUMPI PUSH1 0x0 DUP1 REVERT JUMPDEST PUSH1 0x0 PUSH1 0x20 DUP3 DUP5 SUB SLT ISZERO PUSH3 0xCA3 JUMPI PUSH1 0x0 DUP1 REVERT JUMPDEST DUP2 MLOAD DUP1 ISZERO ISZERO DUP2 EQ PUSH3 0x913 JUMPI PUSH1 0x0 DUP1 REVERT JUMPDEST PUSH1 0x0 DUP3 PUSH3 0xCD2 JUMPI PUSH4 0x4E487B71 PUSH1 0xE0 SHL PUSH1 0x0 MSTORE PUSH1 0x12 PUSH1 0x4 MSTORE PUSH1 0x24 PUSH1 0x0 REVERT JUMPDEST POP DIV SWAP1 JUMP JUMPDEST PUSH1 0x0 DUP3 NOT DUP3 GT ISZERO PUSH3 0xCF9 JUMPI PUSH4 0x4E487B71 PUSH1 0xE0 SHL PUSH1 0x0 MSTORE PUSH1 0x11 PUSH1 0x4 MSTORE PUSH1 0x24 PUSH1 0x0 REVERT JUMPDEST POP ADD SWAP1 JUMP JUMPDEST PUSH2 0x4FF7 DUP1 PUSH3 0xD0E PUSH1 0x0 CODECOPY PUSH1 0x0 RETURN INVALID PUSH1 0x80 PUSH1 0x40 MSTORE PUSH1 0x4 CALLDATASIZE LT PUSH2 0x4FB JUMPI PUSH1 0x0 CALLDATALOAD PUSH1 0xE0 SHR DUP1 PUSH4 0x837AE2D0 GT PUSH2 0x28C JUMPI DUP1 PUSH4 0xAD56C13C GT PUSH2 0x15A JUMPI DUP1 PUSH4 0xE2F45605 GT PUSH2 0xCC JUMPI DUP1 PUSH4 0xF5D3C79A GT PUSH2 0x85 JUMPI DUP1 PUSH4 0xF5D3C79A EQ PUSH2 0xFD2 JUMPI DUP1 PUSH4 0xF6374342 EQ PUSH2 0xFF2 JUMPI DUP1 PUSH4 0xF8B45B05 EQ PUSH2 0x1008 JUMPI DUP1 PUSH4 0xF9F92BE4 EQ PUSH2 0x101E JUMPI DUP1 PUSH4 0xFC6B151C EQ PUSH2 0x103E JUMPI DUP1 PUSH4 0xFE575A87 EQ PUSH2 0x105E JUMPI PUSH1 0x0 DUP1 REVERT JUMPDEST DUP1 PUSH4 0xE2F45605 EQ PUSH2 0xF24 JUMPI DUP1 PUSH4 0xE7841EC0 EQ PUSH2 0xF3A JUMPI DUP1 PUSH4 0xF11A24D3 EQ PUSH2 0xF4F JUMPI DUP1 PUSH4 0xF1C0DDFF EQ PUSH2 0xF65 JUMPI DUP1 PUSH4 0xF27FD254 EQ PUSH2 0xF92 JUMPI DUP1 PUSH4 0xF2FDE38B EQ PUSH2 0xFB2 JUMPI PUSH1 0x0 DUP1 REVERT JUMPDEST DUP1 PUSH4 0xBB4C9F0B GT PUSH2 0x11E JUMPI DUP1 PUSH4 0xBB4C9F0B EQ PUSH2 0xE48 JUMPI DUP1 PUSH4 0xBB8D5131 EQ PUSH2 0xE68 JUMPI DUP1 PUSH4 0xD07A091C EQ PUSH2 0xE7E JUMPI DUP1 PUSH4 0xD5E37251 EQ PUSH2 0xE9E JUMPI DUP1 PUSH4 0xD8032ED3 EQ PUSH2 0xEBE JUMPI DUP1 PUSH4 0xDD62ED3E EQ PUSH2 0xEDE JUMPI PUSH1 0x0 DUP1 REVERT JUMPDEST DUP1 PUSH4 0xAD56C13C EQ PUSH2 0xD6B JUMPI DUP1 PUSH4 0xB4942988 EQ PUSH2 0xDC2 JUMPI DUP1 PUSH4 0xB62496F5 EQ PUSH2 0xDD8 JUMPI DUP1 PUSH4 0xB74E3B11 EQ PUSH2 0xE08 JUMPI DUP1 PUSH4 0xBA079D49 EQ PUSH2 0xE28 JUMPI PUSH1 0x0 DUP1 REVERT JUMPDEST DUP1 PUSH4 0x9C1B8AF5 GT PUSH2 0x1FE JUMPI DUP1 PUSH4 0xA457C2D7 GT PUSH2 0x1B7 JUMPI DUP1 PUSH4 0xA457C2D7 EQ PUSH2 0xC7D JUMPI DUP1 PUSH4 0xA694FC3A EQ PUSH2 0xC9D JUMPI DUP1 PUSH4 0xA8B9D240 EQ PUSH2 0xCBD JUMPI DUP1 PUSH4 0xA9059CBB EQ PUSH2 0xCDD JUMPI DUP1 PUSH4 0xAA4704F3 EQ PUSH2 0xCFD JUMPI DUP1 PUSH4 0xACB2AD6F EQ PUSH2 0xD55 JUMPI PUSH1 0x0 DUP1 REVERT JUMPDEST DUP1 PUSH4 0x9C1B8AF5 EQ PUSH2 0xBDB JUMPI DUP1 PUSH4 0x9C3372EA EQ PUSH2 0xBF1 JUMPI DUP1 PUSH4 0x9C3B4FDC EQ PUSH2 0xC11 JUMPI DUP1 PUSH4 0x9CEFC1DA EQ PUSH2 0xC27 JUMPI DUP1 PUSH4 0x9EC1037E EQ PUSH2 0xC47 JUMPI DUP1 PUSH4 0xA0D82DC5 EQ PUSH2 0xC67 JUMPI PUSH1 0x0 DUP1 REVERT JUMPDEST DUP1 PUSH4 0x8CA2923A GT PUSH2 0x250 JUMPI DUP1 PUSH4 0x8CA2923A EQ PUSH2 0xB3C JUMPI DUP1 PUSH4 0x8DA5CB5B EQ PUSH2 0xB52 JUMPI DUP1 PUSH4 0x8EA5220F EQ PUSH2 0xB70 JUMPI DUP1 PUSH4 0x95451C29 EQ PUSH2 0xB90 JUMPI DUP1 PUSH4 0x95D89B41 EQ PUSH2 0xBA6 JUMPI DUP1 PUSH4 0x9A7A23D6 EQ PUSH2 0xBBB JUMPI PUSH1 0x0 DUP1 REVERT JUMPDEST DUP1 PUSH4 0x837AE2D0 EQ PUSH2 0xAA7 JUMPI DUP1 PUSH4 0x8577A6D5 EQ PUSH2 0xAC7 JUMPI DUP1 PUSH4 0x868730C7 EQ PUSH2 0xAE7 JUMPI DUP1 PUSH4 0x871C128D EQ PUSH2 0xB07 JUMPI DUP1 PUSH4 0x8A8C523C EQ PUSH2 0xB27 JUMPI PUSH1 0x0 DUP1 REVERT JUMPDEST DUP1 PUSH4 0x4A62BB65 GT PUSH2 0x3C9 JUMPI DUP1 PUSH4 0x679CA6E9 GT PUSH2 0x33B JUMPI DUP1 PUSH4 0x72D8EDF4 GT PUSH2 0x2F4 JUMPI DUP1 PUSH4 0x72D8EDF4 EQ PUSH2 0x9E4 JUMPI DUP1 PUSH4 0x75829DEF EQ PUSH2 0xA04 JUMPI DUP1 PUSH4 0x75F0A874 EQ PUSH2 0xA24 JUMPI DUP1 PUSH4 0x77A3B609 EQ PUSH2 0xA44 JUMPI DUP1 PUSH4 0x7D32F342 EQ PUSH2 0xA5A JUMPI DUP1 PUSH4 0x7FDDE05C EQ PUSH2 0xA87 JUMPI PUSH1 0x0 DUP1 REVERT JUMPDEST DUP1 PUSH4 0x679CA6E9 EQ PUSH2 0x92F JUMPI DUP1 PUSH4 0x6843CD84 EQ PUSH2 0x94F JUMPI DUP1 PUSH4 0x6D48467B EQ PUSH2 0x96F JUMPI DUP1 PUSH4 0x700BB191 EQ PUSH2 0x98F JUMPI DUP1 PUSH4 0x70A08231 EQ PUSH2 0x9AF JUMPI DUP1 PUSH4 0x715018A6 EQ PUSH2 0x9CF JUMPI PUSH1 0x0 DUP1 REVERT JUMPDEST DUP1 PUSH4 0x5124F874 GT PUSH2 0x38D JUMPI DUP1 PUSH4 0x5124F874 EQ PUSH2 0x88E JUMPI DUP1 PUSH4 0x5A84C5EB EQ PUSH2 0x8A4 JUMPI DUP1 PUSH4 0x5C234BB6 EQ PUSH2 0x8C4 JUMPI DUP1 PUSH4 0x5EBF4DB9 EQ PUSH2 0x8DA JUMPI DUP1 PUSH4 0x5EEE4BAE EQ PUSH2 0x8FA JUMPI DUP1 PUSH4 0x64B0F653 EQ PUSH2 0x91A JUMPI PUSH1 0x0 DUP1 REVERT JUMPDEST DUP1 PUSH4 0x4A62BB65 EQ PUSH2 0x7EC JUMPI DUP1 PUSH4 0x4A74BB02 EQ PUSH2 0x806 JUMPI DUP1 PUSH4 0x4ADA218B EQ PUSH2 0x820 JUMPI DUP1 PUSH4 0x4E71D92D EQ PUSH2 0x841 JUMPI DUP1 PUSH4 0x4FBEE193 EQ PUSH2 0x856 JUMPI PUSH1 0x0 DUP1 REVERT JUMPDEST DUP1 PUSH4 0x2307B441 GT PUSH2 0x46D JUMPI DUP1 PUSH4 0x3599BB17 GT PUSH2 0x426 JUMPI DUP1 PUSH4 0x3599BB17 EQ PUSH2 0x729 JUMPI DUP1 PUSH4 0x39509351 EQ PUSH2 0x749 JUMPI DUP1 PUSH4 0x3F407B84 EQ PUSH2 0x769 JUMPI DUP1 PUSH4 0x40FFDD80 EQ PUSH2 0x77F JUMPI DUP1 PUSH4 0x435C89E4 EQ PUSH2 0x79F JUMPI DUP1 PUSH4 0x49BD5A5E EQ PUSH2 0x7CC JUMPI PUSH1 0x0 DUP1 REVERT JUMPDEST DUP1 PUSH4 0x2307B441 EQ PUSH2 0x683 JUMPI DUP1 PUSH4 0x23B872DD EQ PUSH2 0x6A3 JUMPI DUP1 PUSH4 0x25CD3598 EQ PUSH2 0x6C3 JUMPI DUP1 PUSH4 0x2C1F5216 EQ PUSH2 0x6D8 JUMPI DUP1 PUSH4 0x30BB4CFF EQ PUSH2 0x6F8 JUMPI DUP1 PUSH4 0x313CE567 EQ PUSH2 0x70D JUMPI PUSH1 0x0 DUP1 REVERT JUMPDEST DUP1 PUSH4 0x95EA7B3 GT PUSH2 0x4BF JUMPI DUP1 PUSH4 0x95EA7B3 EQ PUSH2 0x5C8 JUMPI DUP1 PUSH4 0xEF35B7E EQ PUSH2 0x5F8 JUMPI DUP1 PUSH4 0x1694505E EQ PUSH2 0x618 JUMPI DUP1 PUSH4 0x18160DDD EQ PUSH2 0x638 JUMPI DUP1 PUSH4 0x1D7B1FB4 EQ PUSH2 0x657 JUMPI DUP1 PUSH4 0x1FA70531 EQ PUSH2 0x66D JUMPI PUSH1 0x0 DUP1 REVERT JUMPDEST DUP1 PUSH4 0x3FD2A45 EQ PUSH2 0x507 JUMPI DUP1 PUSH4 0x5CA5F08 EQ PUSH2 0x544 JUMPI DUP1 PUSH4 0x6FDDE03 EQ PUSH2 0x566 JUMPI DUP1 PUSH4 0x8DFE8A5 EQ PUSH2 0x588 JUMPI DUP1 PUSH4 0x9231602 EQ PUSH2 0x5A8 JUMPI PUSH1 0x0 DUP1 REVERT JUMPDEST CALLDATASIZE PUSH2 0x502 JUMPI STOP JUMPDEST PUSH1 0x0 DUP1 REVERT JUMPDEST CALLVALUE DUP1 ISZERO PUSH2 0x513 JUMPI PUSH1 0x0 DUP1 REVERT JUMPDEST POP PUSH1 0x9 SLOAD PUSH2 0x527 SWAP1 PUSH1 0x1 PUSH1 0x1 PUSH1 0xA0 SHL SUB AND DUP2 JUMP JUMPDEST PUSH1 0x40 MLOAD PUSH1 0x1 PUSH1 0x1 PUSH1 0xA0 SHL SUB SWAP1 SWAP2 AND DUP2 MSTORE PUSH1 0x20 ADD JUMPDEST PUSH1 0x40 MLOAD DUP1 SWAP2 SUB SWAP1 RETURN JUMPDEST CALLVALUE DUP1 ISZERO PUSH2 0x550 JUMPI PUSH1 0x0 DUP1 REVERT JUMPDEST POP PUSH2 0x564 PUSH2 0x55F CALLDATASIZE PUSH1 0x4 PUSH2 0x47A8 JUMP JUMPDEST PUSH2 0x108E JUMP JUMPDEST STOP JUMPDEST CALLVALUE DUP1 ISZERO PUSH2 0x572 JUMPI PUSH1 0x0 DUP1 REVERT JUMPDEST POP PUSH2 0x57B PUSH2 0x115F JUMP JUMPDEST PUSH1 0x40 MLOAD PUSH2 0x53B SWAP2 SWAP1 PUSH2 0x47C1 JUMP JUMPDEST CALLVALUE DUP1 ISZERO PUSH2 0x594 JUMPI PUSH1 0x0 DUP1 REVERT JUMPDEST POP PUSH2 0x564 PUSH2 0x5A3 CALLDATASIZE PUSH1 0x4 PUSH2 0x4839 JUMP JUMPDEST PUSH2 0x11F1 JUMP JUMPDEST CALLVALUE DUP1 ISZERO PUSH2 0x5B4 JUMPI PUSH1 0x0 DUP1 REVERT JUMPDEST POP PUSH2 0x564 PUSH2 0x5C3 CALLDATASIZE PUSH1 0x4 PUSH2 0x47A8 JUMP JUMPDEST PUSH2 0x1278 JUMP JUMPDEST CALLVALUE DUP1 ISZERO PUSH2 0x5D4 JUMPI PUSH1 0x0 DUP1 REVERT JUMPDEST POP PUSH2 0x5E8 PUSH2 0x5E3 CALLDATASIZE PUSH1 0x4 PUSH2 0x4872 JUMP JUMPDEST PUSH2 0x1307 JUMP JUMPDEST PUSH1 0x40 MLOAD SWAP1 ISZERO ISZERO DUP2 MSTORE PUSH1 0x20 ADD PUSH2 0x53B JUMP JUMPDEST CALLVALUE DUP1 ISZERO PUSH2 0x604 JUMPI PUSH1 0x0 DUP1 REVERT JUMPDEST POP PUSH2 0x564 PUSH2 0x613 CALLDATASIZE PUSH1 0x4 PUSH2 0x489E JUMP JUMPDEST PUSH2 0x131E JUMP JUMPDEST CALLVALUE DUP1 ISZERO PUSH2 0x624 JUMPI PUSH1 0x0 DUP1 REVERT JUMPDEST POP PUSH1 0x6 SLOAD PUSH2 0x527 SWAP1 PUSH1 0x1 PUSH1 0x1 PUSH1 0xA0 SHL SUB AND DUP2 JUMP JUMPDEST CALLVALUE DUP1 ISZERO PUSH2 0x644 JUMPI PUSH1 0x0 DUP1 REVERT JUMPDEST POP PUSH1 0x2 SLOAD JUMPDEST PUSH1 0x40 MLOAD SWAP1 DUP2 MSTORE PUSH1 0x20 ADD PUSH2 0x53B JUMP JUMPDEST CALLVALUE DUP1 ISZERO PUSH2 0x663 JUMPI PUSH1 0x0 DUP1 REVERT JUMPDEST POP PUSH2 0x649 PUSH1 0x2C SLOAD DUP2 JUMP JUMPDEST CALLVALUE DUP1 ISZERO PUSH2 0x679 JUMPI PUSH1 0x0 DUP1 REVERT JUMPDEST POP PUSH2 0x649 PUSH1 0xB SLOAD DUP2 JUMP JUMPDEST CALLVALUE DUP1 ISZERO PUSH2 0x68F JUMPI PUSH1 0x0 DUP1 REVERT JUMPDEST POP PUSH2 0x564 PUSH2 0x69E CALLDATASIZE PUSH1 0x4 PUSH2 0x4996 JUMP JUMPDEST PUSH2 0x1403 JUMP JUMPDEST CALLVALUE DUP1 ISZERO PUSH2 0x6AF JUMPI PUSH1 0x0 DUP1 REVERT JUMPDEST POP PUSH2 0x5E8 PUSH2 0x6BE CALLDATASIZE PUSH1 0x4 PUSH2 0x4A58 JUMP JUMPDEST PUSH2 0x15D4 JUMP JUMPDEST CALLVALUE DUP1 ISZERO PUSH2 0x6CF JUMPI PUSH1 0x0 DUP1 REVERT JUMPDEST POP PUSH2 0x527 PUSH2 0x163D JUMP JUMPDEST CALLVALUE DUP1 ISZERO PUSH2 0x6E4 JUMPI PUSH1 0x0 DUP1 REVERT JUMPDEST POP PUSH1 0xE SLOAD PUSH2 0x527 SWAP1 PUSH1 0x1 PUSH1 0x1 PUSH1 0xA0 SHL SUB AND DUP2 JUMP JUMPDEST CALLVALUE DUP1 ISZERO PUSH2 0x704 JUMPI PUSH1 0x0 DUP1 REVERT JUMPDEST POP PUSH2 0x649 PUSH2 0x16B0 JUMP JUMPDEST CALLVALUE DUP1 ISZERO PUSH2 0x719 JUMPI PUSH1 0x0 DUP1 REVERT JUMPDEST POP PUSH1 0x40 MLOAD PUSH1 0x12 DUP2 MSTORE PUSH1 0x20 ADD PUSH2 0x53B JUMP JUMPDEST CALLVALUE DUP1 ISZERO PUSH2 0x735 JUMPI PUSH1 0x0 DUP1 REVERT JUMPDEST POP PUSH2 0x564 PUSH2 0x744 CALLDATASIZE PUSH1 0x4 PUSH2 0x4A99 JUMP JUMPDEST PUSH2 0x171E JUMP JUMPDEST CALLVALUE DUP1 ISZERO PUSH2 0x755 JUMPI PUSH1 0x0 DUP1 REVERT JUMPDEST POP PUSH2 0x5E8 PUSH2 0x764 CALLDATASIZE PUSH1 0x4 PUSH2 0x4872 JUMP JUMPDEST PUSH2 0x17AB JUMP JUMPDEST CALLVALUE DUP1 ISZERO PUSH2 0x775 JUMPI PUSH1 0x0 DUP1 REVERT JUMPDEST POP PUSH2 0x649 PUSH1 0xA SLOAD DUP2 JUMP JUMPDEST CALLVALUE DUP1 ISZERO PUSH2 0x78B JUMPI PUSH1 0x0 DUP1 REVERT JUMPDEST POP PUSH2 0x564 PUSH2 0x79A CALLDATASIZE PUSH1 0x4 PUSH2 0x4A99 JUMP JUMPDEST PUSH2 0x17E1 JUMP JUMPDEST CALLVALUE DUP1 ISZERO PUSH2 0x7AB JUMPI PUSH1 0x0 DUP1 REVERT JUMPDEST POP PUSH2 0x649 PUSH2 0x7BA CALLDATASIZE PUSH1 0x4 PUSH2 0x47A8 JUMP JUMPDEST PUSH1 0x25 PUSH1 0x20 MSTORE PUSH1 0x0 SWAP1 DUP2 MSTORE PUSH1 0x40 SWAP1 KECCAK256 SLOAD DUP2 JUMP JUMPDEST CALLVALUE DUP1 ISZERO PUSH2 0x7D8 JUMPI PUSH1 0x0 DUP1 REVERT JUMPDEST POP PUSH1 0x8 SLOAD PUSH2 0x527 SWAP1 PUSH1 0x1 PUSH1 0x1 PUSH1 0xA0 SHL SUB AND DUP2 JUMP JUMPDEST CALLVALUE DUP1 ISZERO PUSH2 0x7F8 JUMPI PUSH1 0x0 DUP1 REVERT JUMPDEST POP PUSH1 0x27 SLOAD PUSH2 0x5E8 SWAP1 PUSH1 0xFF AND DUP2 JUMP JUMPDEST CALLVALUE DUP1 ISZERO PUSH2 0x812 JUMPI PUSH1 0x0 DUP1 REVERT JUMPDEST POP PUSH1 0x1E SLOAD PUSH2 0x5E8 SWAP1 PUSH1 0xFF AND DUP2 JUMP JUMPDEST CALLVALUE DUP1 ISZERO PUSH2 0x82C JUMPI PUSH1 0x0 DUP1 REVERT JUMPDEST POP PUSH1 0x9 SLOAD PUSH2 0x5E8 SWAP1 PUSH1 0x1 PUSH1 0xB0 SHL SWAP1 DIV PUSH1 0xFF AND DUP2 JUMP JUMPDEST CALLVALUE DUP1 ISZERO PUSH2 0x84D JUMPI PUSH1 0x0 DUP1 REVERT JUMPDEST POP PUSH2 0x564 PUSH2 0x183C JUMP JUMPDEST CALLVALUE DUP1 ISZERO PUSH2 0x862 JUMPI PUSH1 0x0 DUP1 REVERT JUMPDEST POP PUSH2 0x5E8 PUSH2 0x871 CALLDATASIZE PUSH1 0x4 PUSH2 0x4AB6 JUMP JUMPDEST PUSH1 0x1 PUSH1 0x1 PUSH1 0xA0 SHL SUB AND PUSH1 0x0 SWAP1 DUP2 MSTORE PUSH1 0x20 DUP1 MSTORE PUSH1 0x40 SWAP1 KECCAK256 SLOAD PUSH1 0xFF AND SWAP1 JUMP JUMPDEST CALLVALUE DUP1 ISZERO PUSH2 0x89A JUMPI PUSH1 0x0 DUP1 REVERT JUMPDEST POP PUSH2 0x649 PUSH1 0x18 SLOAD DUP2 JUMP JUMPDEST CALLVALUE DUP1 ISZERO PUSH2 0x8B0 JUMPI PUSH1 0x0 DUP1 REVERT JUMPDEST POP PUSH2 0x564 PUSH2 0x8BF CALLDATASIZE PUSH1 0x4 PUSH2 0x47A8 JUMP JUMPDEST PUSH2 0x18B4 JUMP JUMPDEST CALLVALUE DUP1 ISZERO PUSH2 0x8D0 JUMPI PUSH1 0x0 DUP1 REVERT JUMPDEST POP PUSH2 0x649 PUSH1 0x17 SLOAD DUP2 JUMP JUMPDEST CALLVALUE DUP1 ISZERO PUSH2 0x8E6 JUMPI PUSH1 0x0 DUP1 REVERT JUMPDEST POP PUSH2 0x564 PUSH2 0x8F5 CALLDATASIZE PUSH1 0x4 PUSH2 0x47A8 JUMP JUMPDEST PUSH2 0x190F JUMP JUMPDEST CALLVALUE DUP1 ISZERO PUSH2 0x906 JUMPI PUSH1 0x0 DUP1 REVERT JUMPDEST POP PUSH2 0x564 PUSH2 0x915 CALLDATASIZE PUSH1 0x4 PUSH2 0x47A8 JUMP JUMPDEST PUSH2 0x196A JUMP JUMPDEST CALLVALUE DUP1 ISZERO PUSH2 0x926 JUMPI PUSH1 0x0 DUP1 REVERT JUMPDEST POP PUSH2 0x649 PUSH2 0x19AC JUMP JUMPDEST CALLVALUE DUP1 ISZERO PUSH2 0x93B JUMPI PUSH1 0x0 DUP1 REVERT JUMPDEST POP PUSH2 0x564 PUSH2 0x94A CALLDATASIZE PUSH1 0x4 PUSH2 0x4A99 JUMP JUMPDEST PUSH2 0x19F6 JUMP JUMPDEST CALLVALUE DUP1 ISZERO PUSH2 0x95B JUMPI PUSH1 0x0 DUP1 REVERT JUMPDEST POP PUSH2 0x649 PUSH2 0x96A CALLDATASIZE PUSH1 0x4 PUSH2 0x4AB6 JUMP JUMPDEST PUSH2 0x1A33 JUMP JUMPDEST CALLVALUE DUP1 ISZERO PUSH2 0x97B JUMPI PUSH1 0x0 DUP1 REVERT JUMPDEST POP PUSH2 0x5E8 PUSH2 0x98A CALLDATASIZE PUSH1 0x4 PUSH2 0x4AB6 JUMP JUMPDEST PUSH2 0x1AA3 JUMP JUMPDEST CALLVALUE DUP1 ISZERO PUSH2 0x99B JUMPI PUSH1 0x0 DUP1 REVERT JUMPDEST POP PUSH2 0x564 PUSH2 0x9AA CALLDATASIZE PUSH1 0x4 PUSH2 0x47A8 JUMP JUMPDEST PUSH2 0x1B13 JUMP JUMPDEST CALLVALUE DUP1 ISZERO PUSH2 0x9BB JUMPI PUSH1 0x0 DUP1 REVERT JUMPDEST POP PUSH2 0x649 PUSH2 0x9CA CALLDATASIZE PUSH1 0x4 PUSH2 0x4AB6 JUMP JUMPDEST PUSH2 0x1BE5 JUMP JUMPDEST CALLVALUE DUP1 ISZERO PUSH2 0x9DB JUMPI PUSH1 0x0 DUP1 REVERT JUMPDEST POP PUSH2 0x564 PUSH2 0x1C00 JUMP JUMPDEST CALLVALUE DUP1 ISZERO PUSH2 0x9F0 JUMPI PUSH1 0x0 DUP1 REVERT JUMPDEST POP PUSH2 0x564 PUSH2 0x9FF CALLDATASIZE PUSH1 0x4 PUSH2 0x4AB6 JUMP JUMPDEST PUSH2 0x1C74 JUMP JUMPDEST CALLVALUE DUP1 ISZERO PUSH2 0xA10 JUMPI PUSH1 0x0 DUP1 REVERT JUMPDEST POP PUSH2 0x564 PUSH2 0xA1F CALLDATASIZE PUSH1 0x4 PUSH2 0x4AB6 JUMP JUMPDEST PUSH2 0x1CD0 JUMP JUMPDEST CALLVALUE DUP1 ISZERO PUSH2 0xA30 JUMPI PUSH1 0x0 DUP1 REVERT JUMPDEST POP PUSH1 0xF SLOAD PUSH2 0x527 SWAP1 PUSH1 0x1 PUSH1 0x1 PUSH1 0xA0 SHL SUB AND DUP2 JUMP JUMPDEST CALLVALUE DUP1 ISZERO PUSH2 0xA50 JUMPI PUSH1 0x0 DUP1 REVERT JUMPDEST POP PUSH2 0x649 PUSH1 0x1A SLOAD DUP2 JUMP JUMPDEST CALLVALUE DUP1 ISZERO PUSH2 0xA66 JUMPI PUSH1 0x0 DUP1 REVERT JUMPDEST POP PUSH2 0x649 PUSH2 0xA75 CALLDATASIZE PUSH1 0x4 PUSH2 0x4AB6 JUMP JUMPDEST PUSH1 0x24 PUSH1 0x20 MSTORE PUSH1 0x0 SWAP1 DUP2 MSTORE PUSH1 0x40 SWAP1 KECCAK256 SLOAD DUP2 JUMP JUMPDEST CALLVALUE DUP1 ISZERO PUSH2 0xA93 JUMPI PUSH1 0x0 DUP1 REVERT JUMPDEST POP PUSH2 0x564 PUSH2 0xAA2 CALLDATASIZE PUSH1 0x4 PUSH2 0x4839 JUMP JUMPDEST PUSH2 0x1D84 JUMP JUMPDEST CALLVALUE DUP1 ISZERO PUSH2 0xAB3 JUMPI PUSH1 0x0 DUP1 REVERT JUMPDEST POP PUSH2 0x564 PUSH2 0xAC2 CALLDATASIZE PUSH1 0x4 PUSH2 0x4AD3 JUMP JUMPDEST PUSH2 0x1DD9 JUMP JUMPDEST CALLVALUE DUP1 ISZERO PUSH2 0xAD3 JUMPI PUSH1 0x0 DUP1 REVERT JUMPDEST POP PUSH2 0x564 PUSH2 0xAE2 CALLDATASIZE PUSH1 0x4 PUSH2 0x47A8 JUMP JUMPDEST PUSH2 0x1F83 JUMP JUMPDEST CALLVALUE DUP1 ISZERO PUSH2 0xAF3 JUMPI PUSH1 0x0 DUP1 REVERT JUMPDEST POP PUSH2 0x564 PUSH2 0xB02 CALLDATASIZE PUSH1 0x4 PUSH2 0x4A99 JUMP JUMPDEST PUSH2 0x203A JUMP JUMPDEST CALLVALUE DUP1 ISZERO PUSH2 0xB13 JUMPI PUSH1 0x0 DUP1 REVERT JUMPDEST POP PUSH2 0x564 PUSH2 0xB22 CALLDATASIZE PUSH1 0x4 PUSH2 0x47A8 JUMP JUMPDEST PUSH2 0x2072 JUMP JUMPDEST CALLVALUE DUP1 ISZERO PUSH2 0xB33 JUMPI PUSH1 0x0 DUP1 REVERT JUMPDEST POP PUSH2 0x564 PUSH2 0x20EE JUMP JUMPDEST CALLVALUE DUP1 ISZERO PUSH2 0xB48 JUMPI PUSH1 0x0 DUP1 REVERT JUMPDEST POP PUSH2 0x649 PUSH1 0x14 SLOAD DUP2 JUMP JUMPDEST CALLVALUE DUP1 ISZERO PUSH2 0xB5E JUMPI PUSH1 0x0 DUP1 REVERT JUMPDEST POP PUSH1 0x5 SLOAD PUSH1 0x1 PUSH1 0x1 PUSH1 0xA0 SHL SUB AND PUSH2 0x527 JUMP JUMPDEST CALLVALUE DUP1 ISZERO PUSH2 0xB7C JUMPI PUSH1 0x0 DUP1 REVERT JUMPDEST POP PUSH1 0x10 SLOAD PUSH2 0x527 SWAP1 PUSH1 0x1 PUSH1 0x1 PUSH1 0xA0 SHL SUB AND DUP2 JUMP JUMPDEST CALLVALUE DUP1 ISZERO PUSH2 0xB9C JUMPI PUSH1 0x0 DUP1 REVERT JUMPDEST POP PUSH2 0x649 PUSH1 0x15 SLOAD DUP2 JUMP JUMPDEST CALLVALUE DUP1 ISZERO PUSH2 0xBB2 JUMPI PUSH1 0x0 DUP1 REVERT JUMPDEST POP PUSH2 0x57B PUSH2 0x2171 JUMP JUMPDEST CALLVALUE DUP1 ISZERO PUSH2 0xBC7 JUMPI PUSH1 0x0 DUP1 REVERT JUMPDEST POP PUSH2 0x564 PUSH2 0xBD6 CALLDATASIZE PUSH1 0x4 PUSH2 0x4839 JUMP JUMPDEST PUSH2 0x2180 JUMP JUMPDEST CALLVALUE DUP1 ISZERO PUSH2 0xBE7 JUMPI PUSH1 0x0 DUP1 REVERT JUMPDEST POP PUSH2 0x649 PUSH1 0x1F SLOAD DUP2 JUMP JUMPDEST CALLVALUE DUP1 ISZERO PUSH2 0xBFD JUMPI PUSH1 0x0 DUP1 REVERT JUMPDEST POP PUSH2 0x564 PUSH2 0xC0C CALLDATASIZE PUSH1 0x4 PUSH2 0x4A99 JUMP JUMPDEST PUSH2 0x21B8 JUMP JUMPDEST CALLVALUE DUP1 ISZERO PUSH2 0xC1D JUMPI PUSH1 0x0 DUP1 REVERT JUMPDEST POP PUSH2 0x649 PUSH1 0x1B SLOAD DUP2 JUMP JUMPDEST CALLVALUE DUP1 ISZERO PUSH2 0xC33 JUMPI PUSH1 0x0 DUP1 REVERT JUMPDEST POP PUSH2 0x564 PUSH2 0xC42 CALLDATASIZE PUSH1 0x4 PUSH2 0x4A99 JUMP JUMPDEST PUSH2 0x2214 JUMP JUMPDEST CALLVALUE DUP1 ISZERO PUSH2 0xC53 JUMPI PUSH1 0x0 DUP1 REVERT JUMPDEST POP PUSH2 0x564 PUSH2 0xC62 CALLDATASIZE PUSH1 0x4 PUSH2 0x4AB6 JUMP JUMPDEST PUSH2 0x22AA JUMP JUMPDEST CALLVALUE DUP1 ISZERO PUSH2 0xC73 JUMPI PUSH1 0x0 DUP1 REVERT JUMPDEST POP PUSH2 0x649 PUSH1 0x1C SLOAD DUP2 JUMP JUMPDEST CALLVALUE DUP1 ISZERO PUSH2 0xC89 JUMPI PUSH1 0x0 DUP1 REVERT JUMPDEST POP PUSH2 0x5E8 PUSH2 0xC98 CALLDATASIZE PUSH1 0x4 PUSH2 0x4872 JUMP JUMPDEST PUSH2 0x2381 JUMP JUMPDEST CALLVALUE DUP1 ISZERO PUSH2 0xCA9 JUMPI PUSH1 0x0 DUP1 REVERT JUMPDEST POP PUSH2 0x564 PUSH2 0xCB8 CALLDATASIZE PUSH1 0x4 PUSH2 0x47A8 JUMP JUMPDEST PUSH2 0x23D0 JUMP JUMPDEST CALLVALUE DUP1 ISZERO PUSH2 0xCC9 JUMPI PUSH1 0x0 DUP1 REVERT JUMPDEST POP PUSH2 0x649 PUSH2 0xCD8 CALLDATASIZE PUSH1 0x4 PUSH2 0x4AB6 JUMP JUMPDEST PUSH2 0x25F3 JUMP JUMPDEST CALLVALUE DUP1 ISZERO PUSH2 0xCE9 JUMPI PUSH1 0x0 DUP1 REVERT JUMPDEST POP PUSH2 0x5E8 PUSH2 0xCF8 CALLDATASIZE PUSH1 0x4 PUSH2 0x4872 JUMP JUMPDEST PUSH2 0x2626 JUMP JUMPDEST CALLVALUE DUP1 ISZERO PUSH2 0xD09 JUMPI PUSH1 0x0 DUP1 REVERT JUMPDEST POP PUSH2 0xD40 PUSH2 0xD18 CALLDATASIZE PUSH1 0x4 PUSH2 0x4AB6 JUMP JUMPDEST PUSH1 0x1 PUSH1 0x1 PUSH1 0xA0 SHL SUB AND PUSH1 0x0 SWAP1 DUP2 MSTORE PUSH1 0x24 PUSH1 0x20 SWAP1 DUP2 MSTORE PUSH1 0x40 DUP1 DUP4 KECCAK256 SLOAD PUSH1 0x23 SWAP1 SWAP3 MSTORE SWAP1 SWAP2 KECCAK256 SLOAD SWAP1 SWAP2 JUMP JUMPDEST PUSH1 0x40 DUP1 MLOAD SWAP3 DUP4 MSTORE PUSH1 0x20 DUP4 ADD SWAP2 SWAP1 SWAP2 MSTORE ADD PUSH2 0x53B JUMP JUMPDEST CALLVALUE DUP1 ISZERO PUSH2 0xD61 JUMPI PUSH1 0x0 DUP1 REVERT JUMPDEST POP PUSH2 0x649 PUSH1 0x1D SLOAD DUP2 JUMP JUMPDEST CALLVALUE DUP1 ISZERO PUSH2 0xD77 JUMPI PUSH1 0x0 DUP1 REVERT JUMPDEST POP PUSH2 0xD8B PUSH2 0xD86 CALLDATASIZE PUSH1 0x4 PUSH2 0x4AB6 JUMP JUMPDEST PUSH2 0x2633 JUMP JUMPDEST PUSH1 0x40 DUP1 MLOAD PUSH1 0x1 PUSH1 0x1 PUSH1 0xA0 SHL SUB SWAP1 SWAP8 AND DUP8 MSTORE PUSH1 0x20 DUP8 ADD SWAP6 SWAP1 SWAP6 MSTORE SWAP4 DUP6 ADD SWAP3 SWAP1 SWAP3 MSTORE PUSH1 0x60 DUP5 ADD MSTORE PUSH1 0x80 DUP4 ADD MSTORE PUSH1 0xA0 DUP3 ADD MSTORE PUSH1 0xC0 ADD PUSH2 0x53B JUMP JUMPDEST CALLVALUE DUP1 ISZERO PUSH2 0xDCE JUMPI PUSH1 0x0 DUP1 REVERT JUMPDEST POP PUSH2 0x649 PUSH1 0x2B SLOAD DUP2 JUMP JUMPDEST CALLVALUE DUP1 ISZERO PUSH2 0xDE4 JUMPI PUSH1 0x0 DUP1 REVERT JUMPDEST POP PUSH2 0x5E8 PUSH2 0xDF3 CALLDATASIZE PUSH1 0x4 PUSH2 0x4AB6 JUMP JUMPDEST PUSH1 0x22 PUSH1 0x20 MSTORE PUSH1 0x0 SWAP1 DUP2 MSTORE PUSH1 0x40 SWAP1 KECCAK256 SLOAD PUSH1 0xFF AND DUP2 JUMP JUMPDEST CALLVALUE DUP1 ISZERO PUSH2 0xE14 JUMPI PUSH1 0x0 DUP1 REVERT JUMPDEST POP PUSH2 0x564 PUSH2 0xE23 CALLDATASIZE PUSH1 0x4 PUSH2 0x47A8 JUMP JUMPDEST PUSH2 0x26C3 JUMP JUMPDEST CALLVALUE DUP1 ISZERO PUSH2 0xE34 JUMPI PUSH1 0x0 DUP1 REVERT JUMPDEST POP PUSH2 0x5E8 PUSH2 0xE43 CALLDATASIZE PUSH1 0x4 PUSH2 0x4AB6 JUMP JUMPDEST PUSH2 0x2753 JUMP JUMPDEST CALLVALUE DUP1 ISZERO PUSH2 0xE54 JUMPI PUSH1 0x0 DUP1 REVERT JUMPDEST POP PUSH2 0x564 PUSH2 0xE63 CALLDATASIZE PUSH1 0x4 PUSH2 0x4996 JUMP JUMPDEST PUSH2 0x2786 JUMP JUMPDEST CALLVALUE DUP1 ISZERO PUSH2 0xE74 JUMPI PUSH1 0x0 DUP1 REVERT JUMPDEST POP PUSH2 0x649 PUSH1 0x13 SLOAD DUP2 JUMP JUMPDEST CALLVALUE DUP1 ISZERO PUSH2 0xE8A JUMPI PUSH1 0x0 DUP1 REVERT JUMPDEST POP PUSH2 0x564 PUSH2 0xE99 CALLDATASIZE PUSH1 0x4 PUSH2 0x4AB6 JUMP JUMPDEST PUSH2 0x2C33 JUMP JUMPDEST CALLVALUE DUP1 ISZERO PUSH2 0xEAA JUMPI PUSH1 0x0 DUP1 REVERT JUMPDEST POP PUSH2 0x564 PUSH2 0xEB9 CALLDATASIZE PUSH1 0x4 PUSH2 0x4A99 JUMP JUMPDEST PUSH2 0x2D29 JUMP JUMPDEST CALLVALUE DUP1 ISZERO PUSH2 0xECA JUMPI PUSH1 0x0 DUP1 REVERT JUMPDEST POP PUSH2 0x564 PUSH2 0xED9 CALLDATASIZE PUSH1 0x4 PUSH2 0x4AB6 JUMP JUMPDEST PUSH2 0x2DAB JUMP JUMPDEST CALLVALUE DUP1 ISZERO PUSH2 0xEEA JUMPI PUSH1 0x0 DUP1 REVERT JUMPDEST POP PUSH2 0x649 PUSH2 0xEF9 CALLDATASIZE PUSH1 0x4 PUSH2 0x4B3B JUMP JUMPDEST PUSH1 0x1 PUSH1 0x1 PUSH1 0xA0 SHL SUB SWAP2 DUP3 AND PUSH1 0x0 SWAP1 DUP2 MSTORE PUSH1 0x1 PUSH1 0x20 SWAP1 DUP2 MSTORE PUSH1 0x40 DUP1 DUP4 KECCAK256 SWAP4 SWAP1 SWAP5 AND DUP3 MSTORE SWAP2 SWAP1 SWAP2 MSTORE KECCAK256 SLOAD SWAP1 JUMP JUMPDEST CALLVALUE DUP1 ISZERO PUSH2 0xF30 JUMPI PUSH1 0x0 DUP1 REVERT JUMPDEST POP PUSH2 0x649 PUSH1 0x12 SLOAD DUP2 JUMP JUMPDEST CALLVALUE DUP1 ISZERO PUSH2 0xF46 JUMPI PUSH1 0x0 DUP1 REVERT JUMPDEST POP PUSH2 0x649 PUSH2 0x2E6E JUMP JUMPDEST CALLVALUE DUP1 ISZERO PUSH2 0xF5B JUMPI PUSH1 0x0 DUP1 REVERT JUMPDEST POP PUSH2 0x649 PUSH1 0x19 SLOAD DUP2 JUMP JUMPDEST CALLVALUE DUP1 ISZERO PUSH2 0xF71 JUMPI PUSH1 0x0 DUP1 REVERT JUMPDEST POP PUSH2 0x649 PUSH2 0xF80 CALLDATASIZE PUSH1 0x4 PUSH2 0x4AB6 JUMP JUMPDEST PUSH1 0x23 PUSH1 0x20 MSTORE PUSH1 0x0 SWAP1 DUP2 MSTORE PUSH1 0x40 SWAP1 KECCAK256 SLOAD DUP2 JUMP JUMPDEST CALLVALUE DUP1 ISZERO PUSH2 0xF9E JUMPI PUSH1 0x0 DUP1 REVERT JUMPDEST POP PUSH2 0xD8B PUSH2 0xFAD CALLDATASIZE PUSH1 0x4 PUSH2 0x47A8 JUMP JUMPDEST PUSH2 0x2EB8 JUMP JUMPDEST CALLVALUE DUP1 ISZERO PUSH2 0xFBE JUMPI PUSH1 0x0 DUP1 REVERT JUMPDEST POP PUSH2 0x564 PUSH2 0xFCD CALLDATASIZE PUSH1 0x4 PUSH2 0x4AB6 JUMP JUMPDEST PUSH2 0x2EF6 JUMP JUMPDEST CALLVALUE DUP1 ISZERO PUSH2 0xFDE JUMPI PUSH1 0x0 DUP1 REVERT JUMPDEST POP PUSH2 0x564 PUSH2 0xFED CALLDATASIZE PUSH1 0x4 PUSH2 0x4A99 JUMP JUMPDEST PUSH2 0x2FE1 JUMP JUMPDEST CALLVALUE DUP1 ISZERO PUSH2 0xFFE JUMPI PUSH1 0x0 DUP1 REVERT JUMPDEST POP PUSH2 0x649 PUSH1 0x16 SLOAD DUP2 JUMP JUMPDEST CALLVALUE DUP1 ISZERO PUSH2 0x1014 JUMPI PUSH1 0x0 DUP1 REVERT JUMPDEST POP PUSH2 0x649 PUSH1 0x11 SLOAD DUP2 JUMP JUMPDEST CALLVALUE DUP1 ISZERO PUSH2 0x102A JUMPI PUSH1 0x0 DUP1 REVERT JUMPDEST POP PUSH2 0x564 PUSH2 0x1039 CALLDATASIZE PUSH1 0x4 PUSH2 0x4AB6 JUMP JUMPDEST PUSH2 0x3019 JUMP JUMPDEST CALLVALUE DUP1 ISZERO PUSH2 0x104A JUMPI PUSH1 0x0 DUP1 REVERT JUMPDEST POP PUSH2 0x564 PUSH2 0x1059 CALLDATASIZE PUSH1 0x4 PUSH2 0x47A8 JUMP JUMPDEST PUSH2 0x3067 JUMP JUMPDEST CALLVALUE DUP1 ISZERO PUSH2 0x106A JUMPI PUSH1 0x0 DUP1 REVERT JUMPDEST POP PUSH2 0x5E8 PUSH2 0x1079 CALLDATASIZE PUSH1 0x4 PUSH2 0x4AB6 JUMP JUMPDEST PUSH1 0x21 PUSH1 0x20 MSTORE PUSH1 0x0 SWAP1 DUP2 MSTORE PUSH1 0x40 SWAP1 KECCAK256 SLOAD PUSH1 0xFF AND DUP2 JUMP JUMPDEST PUSH1 0x5 SLOAD PUSH1 0x1 PUSH1 0x1 PUSH1 0xA0 SHL SUB AND CALLER EQ PUSH2 0x10C1 JUMPI PUSH1 0x40 MLOAD PUSH3 0x461BCD PUSH1 0xE5 SHL DUP2 MSTORE PUSH1 0x4 ADD PUSH2 0x10B8 SWAP1 PUSH2 0x4B69 JUMP JUMPDEST PUSH1 0x40 MLOAD DUP1 SWAP2 SUB SWAP1 REVERT JUMPDEST PUSH2 0x10D3 DUP2 PUSH8 0xDE0B6B3A7640000 PUSH2 0x4BB4 JUMP JUMPDEST SWAP1 POP PUSH1 0x0 PUSH2 0x10EE PUSH1 0xA SLOAD PUSH1 0xB SLOAD PUSH2 0x311D SWAP1 SWAP2 SWAP1 PUSH4 0xFFFFFFFF AND JUMP JUMPDEST SWAP1 POP PUSH1 0x0 PUSH2 0x1111 DUP3 PUSH2 0x110B PUSH1 0xB SLOAD DUP7 PUSH2 0x3183 SWAP1 SWAP2 SWAP1 PUSH4 0xFFFFFFFF AND JUMP JUMPDEST SWAP1 PUSH2 0x3205 JUMP JUMPDEST SWAP1 POP PUSH1 0x0 PUSH2 0x112E DUP4 PUSH2 0x110B PUSH1 0xA SLOAD DUP8 PUSH2 0x3183 SWAP1 SWAP2 SWAP1 PUSH4 0xFFFFFFFF AND JUMP JUMPDEST SWAP1 POP PUSH2 0x1139 DUP5 PUSH2 0x3247 JUMP JUMPDEST PUSH1 0xB SLOAD PUSH2 0x1146 SWAP1 DUP4 PUSH2 0x3657 JUMP JUMPDEST PUSH1 0xB SSTORE PUSH1 0xA SLOAD PUSH2 0x1156 SWAP1 DUP3 PUSH2 0x3657 JUMP JUMPDEST PUSH1 0xA SSTORE POP POP POP POP JUMP JUMPDEST PUSH1 0x60 PUSH1 0x3 DUP1 SLOAD PUSH2 0x116E SWAP1 PUSH2 0x4BD3 JUMP JUMPDEST DUP1 PUSH1 0x1F ADD PUSH1 0x20 DUP1 SWAP2 DIV MUL PUSH1 0x20 ADD PUSH1 0x40 MLOAD SWAP1 DUP2 ADD PUSH1 0x40 MSTORE DUP1 SWAP3 SWAP2 SWAP1 DUP2 DUP2 MSTORE PUSH1 0x20 ADD DUP3 DUP1 SLOAD PUSH2 0x119A SWAP1 PUSH2 0x4BD3 JUMP JUMPDEST DUP1 ISZERO PUSH2 0x11E7 JUMPI DUP1 PUSH1 0x1F LT PUSH2 0x11BC JUMPI PUSH2 0x100 DUP1 DUP4 SLOAD DIV MUL DUP4 MSTORE SWAP2 PUSH1 0x20 ADD SWAP2 PUSH2 0x11E7 JUMP JUMPDEST DUP3 ADD SWAP2 SWAP1 PUSH1 0x0 MSTORE PUSH1 0x20 PUSH1 0x0 KECCAK256 SWAP1 JUMPDEST DUP2 SLOAD DUP2 MSTORE SWAP1 PUSH1 0x1 ADD SWAP1 PUSH1 0x20 ADD DUP1 DUP4 GT PUSH2 0x11CA JUMPI DUP3 SWAP1 SUB PUSH1 0x1F AND DUP3 ADD SWAP2 JUMPDEST POP POP POP POP POP SWAP1 POP SWAP1 JUMP JUMPDEST PUSH1 0x5 SLOAD PUSH1 0x1 PUSH1 0x1 PUSH1 0xA0 SHL SUB AND CALLER EQ PUSH2 0x121B JUMPI PUSH1 0x40 MLOAD PUSH3 0x461BCD PUSH1 0xE5 SHL DUP2 MSTORE PUSH1 0x4 ADD PUSH2 0x10B8 SWAP1 PUSH2 0x4B69 JUMP JUMPDEST PUSH1 0x1 PUSH1 0x1 PUSH1 0xA0 SHL SUB DUP3 AND PUSH1 0x0 DUP2 DUP2 MSTORE PUSH1 0x20 DUP1 DUP1 MSTORE PUSH1 0x40 SWAP2 DUP3 SWAP1 KECCAK256 DUP1 SLOAD PUSH1 0xFF NOT AND DUP6 ISZERO ISZERO SWAP1 DUP2 OR SWAP1 SWAP2 SSTORE SWAP2 MLOAD SWAP2 DUP3 MSTORE PUSH32 0x9D8F7706EA1113D1A167B526ECA956215946DD36CC7DF39EB16180222D8B5DF7 SWAP2 ADD PUSH1 0x40 MLOAD DUP1 SWAP2 SUB SWAP1 LOG2 POP POP JUMP JUMPDEST PUSH1 0x5 SLOAD PUSH1 0x1 PUSH1 0x1 PUSH1 0xA0 SHL SUB AND CALLER EQ PUSH2 0x12A2 JUMPI PUSH1 0x40 MLOAD PUSH3 0x461BCD PUSH1 0xE5 SHL DUP2 MSTORE PUSH1 0x4 ADD PUSH2 0x10B8 SWAP1 PUSH2 0x4B69 JUMP JUMPDEST PUSH1 0x5 DUP2 LT ISZERO PUSH2 0x12F3 JUMPI PUSH1 0x40 MLOAD PUSH3 0x461BCD PUSH1 0xE5 SHL DUP2 MSTORE PUSH1 0x20 PUSH1 0x4 DUP3 ADD MSTORE PUSH1 0x18 PUSH1 0x24 DUP3 ADD MSTORE PUSH32 0x63616E206E65766572206265207365742062656C6F7720350000000000000000 PUSH1 0x44 DUP3 ADD MSTORE PUSH1 0x64 ADD PUSH2 0x10B8 JUMP JUMPDEST PUSH2 0x1301 DUP2 PUSH4 0x3B9ACA00 PUSH2 0x4BB4 JUMP JUMPDEST PUSH1 0x28 SSTORE POP JUMP JUMPDEST PUSH1 0x0 PUSH2 0x1314 CALLER DUP5 DUP5 PUSH2 0x3699 JUMP JUMPDEST POP PUSH1 0x1 JUMPDEST SWAP3 SWAP2 POP POP JUMP JUMPDEST PUSH1 0x5 SLOAD PUSH1 0x1 PUSH1 0x1 PUSH1 0xA0 SHL SUB AND CALLER EQ PUSH2 0x1348 JUMPI PUSH1 0x40 MLOAD PUSH3 0x461BCD PUSH1 0xE5 SHL DUP2 MSTORE PUSH1 0x4 ADD PUSH2 0x10B8 SWAP1 PUSH2 0x4B69 JUMP JUMPDEST PUSH1 0x0 DUP3 DUP2 MSTORE PUSH1 0x25 PUSH1 0x20 MSTORE PUSH1 0x40 SWAP1 KECCAK256 SLOAD DUP2 SWAP1 SUB PUSH2 0x1363 JUMPI PUSH1 0x0 DUP1 REVERT JUMPDEST PUSH1 0x64 DUP2 GT ISZERO PUSH2 0x13B4 JUMPI PUSH1 0x40 MLOAD PUSH3 0x461BCD PUSH1 0xE5 SHL DUP2 MSTORE PUSH1 0x20 PUSH1 0x4 DUP3 ADD MSTORE PUSH1 0x1E PUSH1 0x24 DUP3 ADD MSTORE PUSH32 0x5374616B696E6720626F6E75732063616E277420657863656564203130300000 PUSH1 0x44 DUP3 ADD MSTORE PUSH1 0x64 ADD PUSH2 0x10B8 JUMP JUMPDEST PUSH1 0x0 DUP3 DUP2 MSTORE PUSH1 0x25 PUSH1 0x20 SWAP1 DUP2 MSTORE PUSH1 0x40 SWAP2 DUP3 SWAP1 KECCAK256 DUP4 SWAP1 SSTORE DUP2 MLOAD DUP5 DUP2 MSTORE SWAP1 DUP2 ADD DUP4 SWAP1 MSTORE PUSH32 0x65C0EEC5C5D031EE25323575D53DB5536226AB058B74D8BDB03C517DD4F605D SWAP2 ADD PUSH1 0x40 MLOAD DUP1 SWAP2 SUB SWAP1 LOG1 POP POP JUMP JUMPDEST PUSH1 0x5 SLOAD PUSH1 0x1 PUSH1 0x1 PUSH1 0xA0 SHL SUB AND CALLER EQ PUSH2 0x142D JUMPI PUSH1 0x40 MLOAD PUSH3 0x461BCD PUSH1 0xE5 SHL DUP2 MSTORE PUSH1 0x4 ADD PUSH2 0x10B8 SWAP1 PUSH2 0x4B69 JUMP JUMPDEST DUP1 MLOAD DUP3 MLOAD EQ PUSH2 0x147E JUMPI PUSH1 0x40 MLOAD PUSH3 0x461BCD PUSH1 0xE5 SHL DUP2 MSTORE PUSH1 0x20 PUSH1 0x4 DUP3 ADD MSTORE PUSH1 0x1E PUSH1 0x24 DUP3 ADD MSTORE PUSH32 0x417272617973206D757374206265207468652073616D65206C656E6774680000 PUSH1 0x44 DUP3 ADD MSTORE PUSH1 0x64 ADD PUSH2 0x10B8 JUMP JUMPDEST PUSH1 0xC8 DUP3 MLOAD GT ISZERO PUSH2 0x14DB JUMPI PUSH1 0x40 MLOAD PUSH3 0x461BCD PUSH1 0xE5 SHL DUP2 MSTORE PUSH1 0x20 PUSH1 0x4 DUP3 ADD MSTORE PUSH1 0x22 PUSH1 0x24 DUP3 ADD MSTORE PUSH32 0x57616C6C657473206C697374206C656E677468206D757374206265203C3D2032 PUSH1 0x44 DUP3 ADD MSTORE PUSH2 0x303 PUSH1 0xF4 SHL PUSH1 0x64 DUP3 ADD MSTORE PUSH1 0x84 ADD PUSH2 0x10B8 JUMP JUMPDEST PUSH1 0x0 JUMPDEST DUP3 MLOAD DUP2 LT ISZERO PUSH2 0x15CF JUMPI PUSH1 0x0 DUP4 DUP3 DUP2 MLOAD DUP2 LT PUSH2 0x14FB JUMPI PUSH2 0x14FB PUSH2 0x4C0D JUMP JUMPDEST PUSH1 0x20 MUL PUSH1 0x20 ADD ADD MLOAD SWAP1 POP PUSH1 0x0 DUP4 DUP4 DUP2 MLOAD DUP2 LT PUSH2 0x1519 JUMPI PUSH2 0x1519 PUSH2 0x4C0D JUMP JUMPDEST PUSH1 0x20 MUL PUSH1 0x20 ADD ADD MLOAD PUSH8 0xDE0B6B3A7640000 PUSH2 0x1534 SWAP2 SWAP1 PUSH2 0x4BB4 JUMP JUMPDEST SWAP1 POP PUSH2 0x1541 CALLER DUP4 DUP4 PUSH2 0x37BE JUMP JUMPDEST PUSH1 0xE SLOAD PUSH1 0x1 PUSH1 0x1 PUSH1 0xA0 SHL SUB AND PUSH4 0xE30443BC DUP4 PUSH2 0x155C DUP2 PUSH2 0x1BE5 JUMP JUMPDEST PUSH1 0x40 MLOAD PUSH1 0x1 PUSH1 0x1 PUSH1 0xE0 SHL SUB NOT PUSH1 0xE0 DUP6 SWAP1 SHL AND DUP2 MSTORE PUSH1 0x1 PUSH1 0x1 PUSH1 0xA0 SHL SUB SWAP1 SWAP3 AND PUSH1 0x4 DUP4 ADD MSTORE PUSH1 0x24 DUP3 ADD MSTORE PUSH1 0x44 ADD PUSH1 0x0 PUSH1 0x40 MLOAD DUP1 DUP4 SUB DUP2 PUSH1 0x0 DUP8 DUP1 EXTCODESIZE ISZERO DUP1 ISZERO PUSH2 0x15A2 JUMPI PUSH1 0x0 DUP1 REVERT JUMPDEST POP GAS CALL ISZERO DUP1 ISZERO PUSH2 0x15B6 JUMPI RETURNDATASIZE PUSH1 0x0 DUP1 RETURNDATACOPY RETURNDATASIZE PUSH1 0x0 REVERT JUMPDEST POP POP POP POP POP POP DUP1 DUP1 PUSH2 0x15C7 SWAP1 PUSH2 0x4C23 JUMP JUMPDEST SWAP2 POP POP PUSH2 0x14DE JUMP JUMPDEST POP POP POP JUMP JUMPDEST PUSH1 0x0 PUSH2 0x15E1 DUP5 DUP5 DUP5 PUSH2 0x38C7 JUMP JUMPDEST PUSH2 0x1633 DUP5 CALLER PUSH2 0x162E DUP6 PUSH1 0x40 MLOAD DUP1 PUSH1 0x60 ADD PUSH1 0x40 MSTORE DUP1 PUSH1 0x28 DUP2 MSTORE PUSH1 0x20 ADD PUSH2 0x4F75 PUSH1 0x28 SWAP2 CODECOPY PUSH1 0x1 PUSH1 0x1 PUSH1 0xA0 SHL SUB DUP11 AND PUSH1 0x0 SWAP1 DUP2 MSTORE PUSH1 0x1 PUSH1 0x20 SWAP1 DUP2 MSTORE PUSH1 0x40 DUP1 DUP4 KECCAK256 CALLER DUP5 MSTORE SWAP1 SWAP2 MSTORE SWAP1 KECCAK256 SLOAD SWAP2 SWAP1 PUSH2 0x4377 JUMP JUMPDEST PUSH2 0x3699 JUMP JUMPDEST POP PUSH1 0x1 SWAP4 SWAP3 POP POP POP JUMP JUMPDEST PUSH1 0xE SLOAD PUSH1 0x40 DUP1 MLOAD PUSH4 0x4B9A6B3 PUSH1 0xE3 SHL DUP2 MSTORE SWAP1 MLOAD PUSH1 0x0 SWAP3 PUSH1 0x1 PUSH1 0x1 PUSH1 0xA0 SHL SUB AND SWAP2 PUSH4 0x25CD3598 SWAP2 PUSH1 0x4 DUP1 DUP4 ADD SWAP3 PUSH1 0x20 SWAP3 SWAP2 SWAP1 DUP3 SWAP1 SUB ADD DUP2 DUP7 GAS STATICCALL ISZERO DUP1 ISZERO PUSH2 0x1687 JUMPI RETURNDATASIZE PUSH1 0x0 DUP1 RETURNDATACOPY RETURNDATASIZE PUSH1 0x0 REVERT JUMPDEST POP POP POP POP PUSH1 0x40 MLOAD RETURNDATASIZE PUSH1 0x1F NOT PUSH1 0x1F DUP3 ADD AND DUP3 ADD DUP1 PUSH1 0x40 MSTORE POP DUP2 ADD SWAP1 PUSH2 0x16AB SWAP2 SWAP1 PUSH2 0x4C3C JUMP JUMPDEST SWAP1 POP SWAP1 JUMP JUMPDEST PUSH1 0xE SLOAD PUSH1 0x40 DUP1 MLOAD PUSH4 0x42D359D7 PUSH1 0xE1 SHL DUP2 MSTORE SWAP1 MLOAD PUSH1 0x0 SWAP3 PUSH1 0x1 PUSH1 0x1 PUSH1 0xA0 SHL SUB AND SWAP2 PUSH4 0x85A6B3AE SWAP2 PUSH1 0x4 DUP1 DUP4 ADD SWAP3 PUSH1 0x20 SWAP3 SWAP2 SWAP1 DUP3 SWAP1 SUB ADD DUP2 DUP7 GAS STATICCALL ISZERO DUP1 ISZERO PUSH2 0x16FA JUMPI RETURNDATASIZE PUSH1 0x0 DUP1 RETURNDATACOPY RETURNDATASIZE PUSH1 0x0 REVERT JUMPDEST POP POP POP POP PUSH1 0x40 MLOAD RETURNDATASIZE PUSH1 0x1F NOT PUSH1 0x1F DUP3 ADD AND DUP3 ADD DUP1 PUSH1 0x40 MSTORE POP DUP2 ADD SWAP1 PUSH2 0x16AB SWAP2 SWAP1 PUSH2 0x4C59 JUMP JUMPDEST PUSH1 0x5 SLOAD PUSH1 0x1 PUSH1 0x1 PUSH1 0xA0 SHL SUB AND CALLER EQ PUSH2 0x1748 JUMPI PUSH1 0x40 MLOAD PUSH3 0x461BCD PUSH1 0xE5 SHL DUP2 MSTORE PUSH1 0x4 ADD PUSH2 0x10B8 SWAP1 PUSH2 0x4B69 JUMP JUMPDEST PUSH1 0xE SLOAD PUSH1 0x40 MLOAD PUSH4 0x3599BB17 PUSH1 0xE0 SHL DUP2 MSTORE DUP3 ISZERO ISZERO PUSH1 0x4 DUP3 ADD MSTORE PUSH1 0x1 PUSH1 0x1 PUSH1 0xA0 SHL SUB SWAP1 SWAP2 AND SWAP1 PUSH4 0x3599BB17 SWAP1 PUSH1 0x24 ADD JUMPDEST PUSH1 0x0 PUSH1 0x40 MLOAD DUP1 DUP4 SUB DUP2 PUSH1 0x0 DUP8 DUP1 EXTCODESIZE ISZERO DUP1 ISZERO PUSH2 0x1790 JUMPI PUSH1 0x0 DUP1 REVERT JUMPDEST POP GAS CALL ISZERO DUP1 ISZERO PUSH2 0x17A4 JUMPI RETURNDATASIZE PUSH1 0x0 DUP1 RETURNDATACOPY RETURNDATASIZE PUSH1 0x0 REVERT JUMPDEST POP POP POP POP POP JUMP JUMPDEST CALLER PUSH1 0x0 DUP2 DUP2 MSTORE PUSH1 0x1 PUSH1 0x20 SWAP1 DUP2 MSTORE PUSH1 0x40 DUP1 DUP4 KECCAK256 PUSH1 0x1 PUSH1 0x1 PUSH1 0xA0 SHL SUB DUP8 AND DUP5 MSTORE SWAP1 SWAP2 MSTORE DUP2 KECCAK256 SLOAD SWAP1 SWAP2 PUSH2 0x1314 SWAP2 DUP6 SWAP1 PUSH2 0x162E SWAP1 DUP7 PUSH2 0x311D JUMP JUMPDEST PUSH1 0x5 SLOAD PUSH1 0x1 PUSH1 0x1 PUSH1 0xA0 SHL SUB AND CALLER EQ PUSH2 0x180B JUMPI PUSH1 0x40 MLOAD PUSH3 0x461BCD PUSH1 0xE5 SHL DUP2 MSTORE PUSH1 0x4 ADD PUSH2 0x10B8 SWAP1 PUSH2 0x4B69 JUMP JUMPDEST PUSH1 0xE SLOAD PUSH1 0x40 MLOAD PUSH3 0x81FFBB PUSH1 0xE7 SHL DUP2 MSTORE DUP3 ISZERO ISZERO PUSH1 0x4 DUP3 ADD MSTORE PUSH1 0x1 PUSH1 0x1 PUSH1 0xA0 SHL SUB SWAP1 SWAP2 AND SWAP1 PUSH4 0x40FFDD80 SWAP1 PUSH1 0x24 ADD PUSH2 0x1776 JUMP JUMPDEST PUSH1 0xE SLOAD PUSH1 0x40 MLOAD PUSH4 0xBC4C4B37 PUSH1 0xE0 SHL DUP2 MSTORE CALLER PUSH1 0x4 DUP3 ADD MSTORE PUSH1 0x0 PUSH1 0x24 DUP3 ADD MSTORE PUSH1 0x1 PUSH1 0x1 PUSH1 0xA0 SHL SUB SWAP1 SWAP2 AND SWAP1 PUSH4 0xBC4C4B37 SWAP1 PUSH1 0x44 ADD PUSH1 0x20 PUSH1 0x40 MLOAD DUP1 DUP4 SUB DUP2 PUSH1 0x0 DUP8 GAS CALL ISZERO DUP1 ISZERO PUSH2 0x188D JUMPI RETURNDATASIZE PUSH1 0x0 DUP1 RETURNDATACOPY RETURNDATASIZE PUSH1 0x0 REVERT JUMPDEST POP POP POP POP PUSH1 0x40 MLOAD RETURNDATASIZE PUSH1 0x1F NOT PUSH1 0x1F DUP3 ADD AND DUP3 ADD DUP1 PUSH1 0x40 MSTORE POP DUP2 ADD SWAP1 PUSH2 0x18B1 SWAP2 SWAP1 PUSH2 0x4C72 JUMP JUMPDEST POP JUMP JUMPDEST PUSH1 0x5 SLOAD PUSH1 0x1 PUSH1 0x1 PUSH1 0xA0 SHL SUB AND CALLER EQ PUSH2 0x18DE JUMPI PUSH1 0x40 MLOAD PUSH3 0x461BCD PUSH1 0xE5 SHL DUP2 MSTORE PUSH1 0x4 ADD PUSH2 0x10B8 SWAP1 PUSH2 0x4B69 JUMP JUMPDEST PUSH1 0xE SLOAD PUSH1 0x40 MLOAD PUSH4 0x5A84C5EB PUSH1 0xE0 SHL DUP2 MSTORE PUSH1 0x4 DUP2 ADD DUP4 SWAP1 MSTORE PUSH1 0x1 PUSH1 0x1 PUSH1 0xA0 SHL SUB SWAP1 SWAP2 AND SWAP1 PUSH4 0x5A84C5EB SWAP1 PUSH1 0x24 ADD PUSH2 0x1776 JUMP JUMPDEST PUSH1 0x5 SLOAD PUSH1 0x1 PUSH1 0x1 PUSH1 0xA0 SHL SUB AND CALLER EQ PUSH2 0x1939 JUMPI PUSH1 0x40 MLOAD PUSH3 0x461BCD PUSH1 0xE5 SHL DUP2 MSTORE PUSH1 0x4 ADD PUSH2 0x10B8 SWAP1 PUSH2 0x4B69 JUMP JUMPDEST PUSH1 0xE SLOAD PUSH1 0x40 MLOAD PUSH4 0x5EBF4DB9 PUSH1 0xE0 SHL DUP2 MSTORE PUSH1 0x4 DUP2 ADD DUP4 SWAP1 MSTORE PUSH1 0x1 PUSH1 0x1 PUSH1 0xA0 SHL SUB SWAP1 SWAP2 AND SWAP1 PUSH4 0x5EBF4DB9 SWAP1 PUSH1 0x24 ADD PUSH2 0x1776 JUMP JUMPDEST PUSH1 0x5 SLOAD PUSH1 0x1 PUSH1 0x1 PUSH1 0xA0 SHL SUB AND CALLER EQ PUSH2 0x1994 JUMPI PUSH1 0x40 MLOAD PUSH3 0x461BCD PUSH1 0xE5 SHL DUP2 MSTORE PUSH1 0x4 ADD PUSH2 0x10B8 SWAP1 PUSH2 0x4B69 JUMP JUMPDEST PUSH2 0x19A6 DUP2 PUSH8 0xDE0B6B3A7640000 PUSH2 0x4BB4 JUMP JUMPDEST PUSH1 0x12 SSTORE POP JUMP JUMPDEST PUSH1 0xE SLOAD PUSH1 0x40 DUP1 MLOAD PUSH4 0x4DDF6EF PUSH1 0xE1 SHL DUP2 MSTORE SWAP1 MLOAD PUSH1 0x0 SWAP3 PUSH1 0x1 PUSH1 0x1 PUSH1 0xA0 SHL SUB AND SWAP2 PUSH4 0x9BBEDDE SWAP2 PUSH1 0x4 DUP1 DUP4 ADD SWAP3 PUSH1 0x20 SWAP3 SWAP2 SWAP1 DUP3 SWAP1 SUB ADD DUP2 DUP7 GAS STATICCALL ISZERO DUP1 ISZERO PUSH2 0x16FA JUMPI RETURNDATASIZE PUSH1 0x0 DUP1 RETURNDATACOPY RETURNDATASIZE PUSH1 0x0 REVERT JUMPDEST PUSH1 0x5 SLOAD PUSH1 0x1 PUSH1 0x1 PUSH1 0xA0 SHL SUB AND CALLER EQ PUSH2 0x1A20 JUMPI PUSH1 0x40 MLOAD PUSH3 0x461BCD PUSH1 0xE5 SHL DUP2 MSTORE PUSH1 0x4 ADD PUSH2 0x10B8 SWAP1 PUSH2 0x4B69 JUMP JUMPDEST PUSH1 0x27 DUP1 SLOAD PUSH1 0xFF NOT AND SWAP2 ISZERO ISZERO SWAP2 SWAP1 SWAP2 OR SWAP1 SSTORE JUMP JUMPDEST PUSH1 0xE SLOAD PUSH1 0x40 MLOAD PUSH4 0x70A08231 PUSH1 0xE0 SHL DUP2 MSTORE PUSH1 0x1 PUSH1 0x1 PUSH1 0xA0 SHL SUB DUP4 DUP2 AND PUSH1 0x4 DUP4 ADD MSTORE PUSH1 0x0 SWAP3 AND SWAP1 PUSH4 0x70A08231 SWAP1 PUSH1 0x24 ADD JUMPDEST PUSH1 0x20 PUSH1 0x40 MLOAD DUP1 DUP4 SUB DUP2 DUP7 GAS STATICCALL ISZERO DUP1 ISZERO PUSH2 0x1A7F JUMPI RETURNDATASIZE PUSH1 0x0 DUP1 RETURNDATACOPY RETURNDATASIZE PUSH1 0x0 REVERT JUMPDEST POP POP POP POP PUSH1 0x40 MLOAD RETURNDATASIZE PUSH1 0x1F NOT PUSH1 0x1F DUP3 ADD AND DUP3 ADD DUP1 PUSH1 0x40 MSTORE POP DUP2 ADD SWAP1 PUSH2 0x1318 SWAP2 SWAP1 PUSH2 0x4C59 JUMP JUMPDEST PUSH1 0xE SLOAD PUSH1 0x40 MLOAD PUSH4 0x6D48467B PUSH1 0xE0 SHL DUP2 MSTORE PUSH1 0x1 PUSH1 0x1 PUSH1 0xA0 SHL SUB DUP4 DUP2 AND PUSH1 0x4 DUP4 ADD MSTORE PUSH1 0x0 SWAP3 AND SWAP1 PUSH4 0x6D48467B SWAP1 PUSH1 0x24 ADD JUMPDEST PUSH1 0x20 PUSH1 0x40 MLOAD DUP1 DUP4 SUB DUP2 DUP7 GAS STATICCALL ISZERO DUP1 ISZERO PUSH2 0x1AEF JUMPI RETURNDATASIZE PUSH1 0x0 DUP1 RETURNDATACOPY RETURNDATASIZE PUSH1 0x0 REVERT JUMPDEST POP POP POP POP PUSH1 0x40 MLOAD RETURNDATASIZE PUSH1 0x1F NOT PUSH1 0x1F DUP3 ADD AND DUP3 ADD DUP1 PUSH1 0x40 MSTORE POP DUP2 ADD SWAP1 PUSH2 0x1318 SWAP2 SWAP1 PUSH2 0x4C72 JUMP JUMPDEST PUSH1 0xE SLOAD PUSH1 0x40 MLOAD PUSH1 0x1 PUSH3 0x4D3B87 PUSH1 0xE0 SHL SUB NOT DUP2 MSTORE PUSH1 0x4 DUP2 ADD DUP4 SWAP1 MSTORE PUSH1 0x0 SWAP2 DUP3 SWAP2 DUP3 SWAP2 PUSH1 0x1 PUSH1 0x1 PUSH1 0xA0 SHL SUB AND SWAP1 PUSH4 0xFFB2C479 SWAP1 PUSH1 0x24 ADD PUSH1 0x60 PUSH1 0x40 MLOAD DUP1 DUP4 SUB DUP2 PUSH1 0x0 DUP8 GAS CALL ISZERO DUP1 ISZERO PUSH2 0x1B66 JUMPI RETURNDATASIZE PUSH1 0x0 DUP1 RETURNDATACOPY RETURNDATASIZE PUSH1 0x0 REVERT JUMPDEST POP POP POP POP PUSH1 0x40 MLOAD RETURNDATASIZE PUSH1 0x1F NOT PUSH1 0x1F DUP3 ADD AND DUP3 ADD DUP1 PUSH1 0x40 MSTORE POP DUP2 ADD SWAP1 PUSH2 0x1B8A SWAP2 SWAP1 PUSH2 0x4C8F JUMP JUMPDEST PUSH1 0x40 DUP1 MLOAD DUP5 DUP2 MSTORE PUSH1 0x20 DUP2 ADD DUP5 SWAP1 MSTORE SWAP1 DUP2 ADD DUP3 SWAP1 MSTORE PUSH1 0x60 DUP2 ADD DUP9 SWAP1 MSTORE SWAP3 SWAP6 POP SWAP1 SWAP4 POP SWAP2 POP ORIGIN SWAP1 PUSH1 0x0 SWAP1 PUSH32 0xC864333D6121033635AB41B29AE52F10A22CF4438C3E4F1C4C68518FEB2F8A98 SWAP1 PUSH1 0x80 ADD PUSH1 0x40 MLOAD DUP1 SWAP2 SUB SWAP1 LOG3 POP POP POP POP JUMP JUMPDEST PUSH1 0x1 PUSH1 0x1 PUSH1 0xA0 SHL SUB AND PUSH1 0x0 SWAP1 DUP2 MSTORE PUSH1 0x20 DUP2 SWAP1 MSTORE PUSH1 0x40 SWAP1 KECCAK256 SLOAD SWAP1 JUMP JUMPDEST PUSH1 0x5 SLOAD PUSH1 0x1 PUSH1 0x1 PUSH1 0xA0 SHL SUB AND CALLER EQ PUSH2 0x1C2A JUMPI PUSH1 0x40 MLOAD PUSH3 0x461BCD PUSH1 0xE5 SHL DUP2 MSTORE PUSH1 0x4 ADD PUSH2 0x10B8 SWAP1 PUSH2 0x4B69 JUMP JUMPDEST PUSH1 0x5 SLOAD PUSH1 0x40 MLOAD PUSH1 0x0 SWAP2 PUSH1 0x1 PUSH1 0x1 PUSH1 0xA0 SHL SUB AND SWAP1 PUSH32 0x8BE0079C531659141344CD1FD0A4F28419497F9722A3DAAFE3B4186F6B6457E0 SWAP1 DUP4 SWAP1 LOG3 PUSH1 0x5 DUP1 SLOAD PUSH1 0x1 PUSH1 0x1 PUSH1 0xA0 SHL SUB NOT AND SWAP1 SSTORE JUMP JUMPDEST PUSH1 0x5 SLOAD PUSH1 0x1 PUSH1 0x1 PUSH1 0xA0 SHL SUB AND CALLER EQ PUSH2 0x1C9E JUMPI PUSH1 0x40 MLOAD PUSH3 0x461BCD PUSH1 0xE5 SHL DUP2 MSTORE PUSH1 0x4 ADD PUSH2 0x10B8 SWAP1 PUSH2 0x4B69 JUMP JUMPDEST PUSH1 0xE SLOAD PUSH1 0x40 MLOAD PUSH4 0x31E79DB PUSH1 0xE4 SHL DUP2 MSTORE PUSH1 0x1 PUSH1 0x1 PUSH1 0xA0 SHL SUB DUP4 DUP2 AND PUSH1 0x4 DUP4 ADD MSTORE SWAP1 SWAP2 AND SWAP1 PUSH4 0x31E79DB0 SWAP1 PUSH1 0x24 ADD PUSH2 0x1776 JUMP JUMPDEST PUSH1 0x5 SLOAD PUSH1 0x1 PUSH1 0x1 PUSH1 0xA0 SHL SUB AND CALLER EQ PUSH2 0x1CFA JUMPI PUSH1 0x40 MLOAD PUSH3 0x461BCD PUSH1 0xE5 SHL DUP2 MSTORE PUSH1 0x4 ADD PUSH2 0x10B8 SWAP1 PUSH2 0x4B69 JUMP JUMPDEST PUSH1 0xE SLOAD PUSH1 0x40 MLOAD PUSH4 0x31E79DB PUSH1 0xE4 SHL DUP2 MSTORE PUSH1 0x1 PUSH1 0x1 PUSH1 0xA0 SHL SUB DUP4 DUP2 AND PUSH1 0x4 DUP4 ADD MSTORE SWAP1 SWAP2 AND SWAP1 PUSH4 0x31E79DB0 SWAP1 PUSH1 0x24 ADD PUSH1 0x0 PUSH1 0x40 MLOAD DUP1 DUP4 SUB DUP2 PUSH1 0x0 DUP8 DUP1 EXTCODESIZE ISZERO DUP1 ISZERO PUSH2 0x1D41 JUMPI PUSH1 0x0 DUP1 REVERT JUMPDEST POP GAS CALL ISZERO DUP1 ISZERO PUSH2 0x1D55 JUMPI RETURNDATASIZE PUSH1 0x0 DUP1 RETURNDATACOPY RETURNDATASIZE PUSH1 0x0 REVERT JUMPDEST POP POP POP PUSH1 0x1 PUSH1 0x1 PUSH1 0xA0 SHL SUB DUP3 AND PUSH1 0x0 SWAP1 DUP2 MSTORE PUSH1 0x20 DUP1 MSTORE PUSH1 0x40 SWAP1 KECCAK256 DUP1 SLOAD PUSH1 0xFF NOT AND PUSH1 0x1 OR SWAP1 SSTORE POP PUSH2 0x18B1 DUP2 PUSH2 0x2EF6 JUMP JUMPDEST PUSH1 0x5 SLOAD PUSH1 0x1 PUSH1 0x1 PUSH1 0xA0 SHL SUB AND CALLER EQ PUSH2 0x1DAE JUMPI PUSH1 0x40 MLOAD PUSH3 0x461BCD PUSH1 0xE5 SHL DUP2 MSTORE PUSH1 0x4 ADD PUSH2 0x10B8 SWAP1 PUSH2 0x4B69 JUMP JUMPDEST PUSH1 0x1 PUSH1 0x1 PUSH1 0xA0 SHL SUB SWAP2 SWAP1 SWAP2 AND PUSH1 0x0 SWAP1 DUP2 MSTORE PUSH1 0x26 PUSH1 0x20 MSTORE PUSH1 0x40 SWAP1 KECCAK256 DUP1 SLOAD PUSH1 0xFF NOT AND SWAP2 ISZERO ISZERO SWAP2 SWAP1 SWAP2 OR SWAP1 SSTORE JUMP JUMPDEST PUSH1 0x5 SLOAD PUSH1 0x1 PUSH1 0x1 PUSH1 0xA0 SHL SUB AND CALLER EQ PUSH2 0x1E03 JUMPI PUSH1 0x40 MLOAD PUSH3 0x461BCD PUSH1 0xE5 SHL DUP2 MSTORE PUSH1 0x4 ADD PUSH2 0x10B8 SWAP1 PUSH2 0x4B69 JUMP JUMPDEST PUSH1 0x17 DUP11 SWAP1 SSTORE PUSH1 0x18 DUP9 SWAP1 SSTORE PUSH1 0x19 DUP7 SWAP1 SSTORE PUSH1 0x1A DUP5 SWAP1 SSTORE PUSH1 0x14 DUP10 SWAP1 SSTORE PUSH1 0x15 DUP8 SWAP1 SSTORE PUSH1 0x16 DUP6 SWAP1 SSTORE PUSH1 0x13 DUP4 SWAP1 SSTORE PUSH1 0x1B DUP3 SWAP1 SSTORE PUSH1 0x1C DUP2 SWAP1 SSTORE PUSH2 0x1E4B DUP2 PUSH2 0x1E45 DUP10 DUP2 DUP8 DUP11 PUSH2 0x311D JUMP JUMPDEST SWAP1 PUSH2 0x311D JUMP JUMPDEST PUSH1 0xC DUP2 SWAP1 SSTORE POP PUSH2 0x1E74 PUSH1 0x1B SLOAD PUSH2 0x1E45 PUSH1 0x18 SLOAD PUSH2 0x1E45 PUSH1 0x19 SLOAD PUSH1 0x1A SLOAD PUSH2 0x311D SWAP1 SWAP2 SWAP1 PUSH4 0xFFFFFFFF AND JUMP JUMPDEST PUSH1 0xD SSTORE PUSH1 0xC SLOAD PUSH1 0xF LT DUP1 ISZERO SWAP1 PUSH2 0x1E8D JUMPI POP PUSH1 0xF PUSH1 0xD SLOAD GT ISZERO JUMPDEST PUSH2 0x1EEA JUMPI PUSH1 0x40 MLOAD PUSH3 0x461BCD PUSH1 0xE5 SHL DUP2 MSTORE PUSH1 0x20 PUSH1 0x4 DUP3 ADD MSTORE PUSH1 0x28 PUSH1 0x24 DUP3 ADD MSTORE PUSH32 0x746F74616C20666565732063616E6E6F7420657863656564203135252073656C PUSH1 0x44 DUP3 ADD MSTORE PUSH8 0x6C206F7220627579 PUSH1 0xC0 SHL PUSH1 0x64 DUP3 ADD MSTORE PUSH1 0x84 ADD PUSH2 0x10B8 JUMP JUMPDEST PUSH1 0x14 SLOAD PUSH1 0x15 SLOAD PUSH1 0x16 SLOAD PUSH1 0x13 SLOAD PUSH1 0x17 SLOAD PUSH1 0x18 SLOAD PUSH1 0x19 SLOAD PUSH1 0x1A SLOAD PUSH1 0x1B SLOAD PUSH1 0x1C SLOAD PUSH1 0x40 DUP1 MLOAD SWAP11 DUP12 MSTORE PUSH1 0x20 DUP12 ADD SWAP10 SWAP1 SWAP10 MSTORE SWAP8 DUP10 ADD SWAP7 SWAP1 SWAP7 MSTORE PUSH1 0x60 DUP9 ADD SWAP5 SWAP1 SWAP5 MSTORE PUSH1 0x80 DUP8 ADD SWAP3 SWAP1 SWAP3 MSTORE PUSH1 0xA0 DUP7 ADD MSTORE PUSH1 0xC0 DUP6 ADD MSTORE PUSH1 0xE0 DUP5 ADD MSTORE PUSH2 0x100 DUP4 ADD MSTORE PUSH2 0x120 DUP3 ADD MSTORE PUSH32 0x7CEC4532BDB36CE729AE72905C09F7BFBF8682C2CC2F1999F745188D9975122 SWAP1 PUSH2 0x140 ADD PUSH1 0x40 MLOAD DUP1 SWAP2 SUB SWAP1 LOG1 POP POP POP POP POP POP POP POP POP POP JUMP JUMPDEST PUSH1 0x5 SLOAD PUSH1 0x1 PUSH1 0x1 PUSH1 0xA0 SHL SUB AND CALLER EQ PUSH2 0x1FAD JUMPI PUSH1 0x40 MLOAD PUSH3 0x461BCD PUSH1 0xE5 SHL DUP2 MSTORE PUSH1 0x4 ADD PUSH2 0x10B8 SWAP1 PUSH2 0x4B69 JUMP JUMPDEST PUSH1 0x5 DUP2 GT ISZERO PUSH2 0x1FFE JUMPI PUSH1 0x40 MLOAD PUSH3 0x461BCD PUSH1 0xE5 SHL DUP2 MSTORE PUSH1 0x20 PUSH1 0x4 DUP3 ADD MSTORE PUSH1 0x1D PUSH1 0x24 DUP3 ADD MSTORE PUSH32 0x7472616E73666572206665652063616E6E6F7420657863656564203525000000 PUSH1 0x44 DUP3 ADD MSTORE PUSH1 0x64 ADD PUSH2 0x10B8 JUMP JUMPDEST PUSH1 0x1D DUP2 SWAP1 SSTORE PUSH1 0x40 MLOAD DUP2 DUP2 MSTORE PUSH32 0x6FBEAC6C79C640CA4F5F47271BD7A36C7EB83076224C65A3B3378C8844720343 SWAP1 PUSH1 0x20 ADD JUMPDEST PUSH1 0x40 MLOAD DUP1 SWAP2 SUB SWAP1 LOG1 POP JUMP JUMPDEST PUSH1 0xE SLOAD PUSH1 0x40 MLOAD PUSH4 0x8BC1D639 PUSH1 0xE0 SHL DUP2 MSTORE CALLER PUSH1 0x4 DUP3 ADD MSTORE DUP3 ISZERO ISZERO PUSH1 0x24 DUP3 ADD MSTORE PUSH1 0x1 PUSH1 0x1 PUSH1 0xA0 SHL SUB SWAP1 SWAP2 AND SWAP1 PUSH4 0x8BC1D639 SWAP1 PUSH1 0x44 ADD PUSH2 0x1776 JUMP JUMPDEST PUSH1 0x5 SLOAD PUSH1 0x1 PUSH1 0x1 PUSH1 0xA0 SHL SUB AND CALLER EQ PUSH2 0x209C JUMPI PUSH1 0x40 MLOAD PUSH3 0x461BCD PUSH1 0xE5 SHL DUP2 MSTORE PUSH1 0x4 ADD PUSH2 0x10B8 SWAP1 PUSH2 0x4B69 JUMP JUMPDEST PUSH3 0x30D40 DUP2 LT ISZERO DUP1 ISZERO PUSH2 0x20B2 JUMPI POP PUSH3 0xF4240 DUP2 GT ISZERO JUMPDEST PUSH2 0x20BB JUMPI PUSH1 0x0 DUP1 REVERT JUMPDEST PUSH1 0x1F SLOAD PUSH1 0x40 MLOAD DUP3 SWAP1 PUSH32 0x40D7E40E79AF4E8E5A9B3C57030D8EA93F13D669C06D448C4D631D4AE7D23DB7 SWAP1 PUSH1 0x0 SWAP1 LOG3 PUSH1 0x1F SSTORE JUMP JUMPDEST PUSH1 0x5 SLOAD PUSH1 0x1 PUSH1 0x1 PUSH1 0xA0 SHL SUB AND CALLER EQ PUSH2 0x2118 JUMPI PUSH1 0x40 MLOAD PUSH3 0x461BCD PUSH1 0xE5 SHL DUP2 MSTORE PUSH1 0x4 ADD PUSH2 0x10B8 SWAP1 PUSH2 0x4B69 JUMP JUMPDEST PUSH1 0x9 SLOAD PUSH1 0x1 PUSH1 0xB0 SHL SWAP1 DIV PUSH1 0xFF AND ISZERO PUSH2 0x212F JUMPI PUSH1 0x0 DUP1 REVERT JUMPDEST PUSH1 0x9 DUP1 SLOAD PUSH1 0xFF PUSH1 0xB0 SHL NOT AND PUSH1 0x1 PUSH1 0xB0 SHL OR SWAP1 SSTORE NUMBER PUSH1 0x2B SSTORE PUSH1 0x40 MLOAD PUSH32 0x799663458A5EF2936F7FA0C99B3336C69C25890F82974F04E811E5BB359186C7 SWAP1 PUSH1 0x0 SWAP1 LOG1 JUMP JUMPDEST PUSH1 0x60 PUSH1 0x4 DUP1 SLOAD PUSH2 0x116E SWAP1 PUSH2 0x4BD3 JUMP JUMPDEST PUSH1 0x5 SLOAD PUSH1 0x1 PUSH1 0x1 PUSH1 0xA0 SHL SUB AND CALLER EQ PUSH2 0x21AA JUMPI PUSH1 0x40 MLOAD PUSH3 0x461BCD PUSH1 0xE5 SHL DUP2 MSTORE PUSH1 0x4 ADD PUSH2 0x10B8 SWAP1 PUSH2 0x4B69 JUMP JUMPDEST PUSH2 0x21B4 DUP3 DUP3 PUSH2 0x43B1 JUMP JUMPDEST POP POP JUMP JUMPDEST PUSH1 0x5 SLOAD PUSH1 0x1 PUSH1 0x1 PUSH1 0xA0 SHL SUB AND CALLER EQ PUSH2 0x21E2 JUMPI PUSH1 0x40 MLOAD PUSH3 0x461BCD PUSH1 0xE5 SHL DUP2 MSTORE PUSH1 0x4 ADD PUSH2 0x10B8 SWAP1 PUSH2 0x4B69 JUMP JUMPDEST PUSH1 0xE SLOAD PUSH1 0x40 MLOAD PUSH4 0x4E19B975 PUSH1 0xE1 SHL DUP2 MSTORE DUP3 ISZERO ISZERO PUSH1 0x4 DUP3 ADD MSTORE PUSH1 0x1 PUSH1 0x1 PUSH1 0xA0 SHL SUB SWAP1 SWAP2 AND SWAP1 PUSH4 0x9C3372EA SWAP1 PUSH1 0x24 ADD PUSH2 0x1776 JUMP JUMPDEST PUSH1 0x5 SLOAD PUSH1 0x1 PUSH1 0x1 PUSH1 0xA0 SHL SUB AND CALLER EQ PUSH2 0x223E JUMPI PUSH1 0x40 MLOAD PUSH3 0x461BCD PUSH1 0xE5 SHL DUP2 MSTORE PUSH1 0x4 ADD PUSH2 0x10B8 SWAP1 PUSH2 0x4B69 JUMP JUMPDEST DUP1 ISZERO ISZERO PUSH1 0x9 PUSH1 0x15 SWAP1 SLOAD SWAP1 PUSH2 0x100 EXP SWAP1 DIV PUSH1 0xFF AND ISZERO ISZERO SUB PUSH2 0x225D JUMPI PUSH1 0x0 DUP1 REVERT JUMPDEST PUSH1 0x9 DUP1 SLOAD DUP3 ISZERO ISZERO PUSH1 0x1 PUSH1 0xA8 SHL MUL PUSH1 0xFF PUSH1 0xA8 SHL NOT SWAP1 SWAP2 AND OR SWAP1 SSTORE PUSH1 0x40 MLOAD PUSH32 0xD240C24014EC8C204FC1BDCC286F7D01FD2AB6A07C558A9B2D3F12904323A87 SWAP1 PUSH2 0x202F SWAP1 DUP4 ISZERO ISZERO DUP2 MSTORE PUSH1 0x20 ADD SWAP1 JUMP JUMPDEST PUSH1 0x5 SLOAD PUSH1 0x1 PUSH1 0x1 PUSH1 0xA0 SHL SUB AND CALLER EQ PUSH2 0x22D4 JUMPI PUSH1 0x40 MLOAD PUSH3 0x461BCD PUSH1 0xE5 SHL DUP2 MSTORE PUSH1 0x4 ADD PUSH2 0x10B8 SWAP1 PUSH2 0x4B69 JUMP JUMPDEST PUSH1 0xE SLOAD PUSH1 0x40 MLOAD PUSH4 0x9288471 PUSH1 0xE0 SHL DUP2 MSTORE PUSH1 0x1 PUSH1 0x1 PUSH1 0xA0 SHL SUB DUP4 DUP2 AND PUSH1 0x4 DUP4 ADD MSTORE SWAP1 SWAP2 AND SWAP1 PUSH4 0x9288471 SWAP1 PUSH1 0x24 ADD PUSH1 0x0 PUSH1 0x40 MLOAD DUP1 DUP4 SUB DUP2 PUSH1 0x0 DUP8 DUP1 EXTCODESIZE ISZERO DUP1 ISZERO PUSH2 0x231B JUMPI PUSH1 0x0 DUP1 REVERT JUMPDEST POP GAS CALL ISZERO DUP1 ISZERO PUSH2 0x232F JUMPI RETURNDATASIZE PUSH1 0x0 DUP1 RETURNDATACOPY RETURNDATASIZE PUSH1 0x0 REVERT JUMPDEST POP POP PUSH1 0xE SLOAD PUSH1 0x1 PUSH1 0x1 PUSH1 0xA0 SHL SUB AND SWAP2 POP PUSH4 0xE30443BC SWAP1 POP DUP3 PUSH2 0x2350 DUP2 PUSH2 0x447A JUMP JUMPDEST PUSH1 0x40 MLOAD PUSH1 0x1 PUSH1 0x1 PUSH1 0xE0 SHL SUB NOT PUSH1 0xE0 DUP6 SWAP1 SHL AND DUP2 MSTORE PUSH1 0x1 PUSH1 0x1 PUSH1 0xA0 SHL SUB SWAP1 SWAP3 AND PUSH1 0x4 DUP4 ADD MSTORE PUSH1 0x24 DUP3 ADD MSTORE PUSH1 0x44 ADD PUSH2 0x1776 JUMP JUMPDEST PUSH1 0x0 PUSH2 0x1314 CALLER DUP5 PUSH2 0x162E DUP6 PUSH1 0x40 MLOAD DUP1 PUSH1 0x60 ADD PUSH1 0x40 MSTORE DUP1 PUSH1 0x25 DUP2 MSTORE PUSH1 0x20 ADD PUSH2 0x4F9D PUSH1 0x25 SWAP2 CODECOPY CALLER PUSH1 0x0 SWAP1 DUP2 MSTORE PUSH1 0x1 PUSH1 0x20 SWAP1 DUP2 MSTORE PUSH1 0x40 DUP1 DUP4 KECCAK256 PUSH1 0x1 PUSH1 0x1 PUSH1 0xA0 SHL SUB DUP14 AND DUP5 MSTORE SWAP1 SWAP2 MSTORE SWAP1 KECCAK256 SLOAD SWAP2 SWAP1 PUSH2 0x4377 JUMP JUMPDEST PUSH1 0x9 SLOAD PUSH1 0x1 PUSH1 0xA8 SHL SWAP1 DIV PUSH1 0xFF AND PUSH2 0x2422 JUMPI PUSH1 0x40 MLOAD PUSH3 0x461BCD PUSH1 0xE5 SHL DUP2 MSTORE PUSH1 0x20 PUSH1 0x4 DUP3 ADD MSTORE PUSH1 0x16 PUSH1 0x24 DUP3 ADD MSTORE PUSH22 0x14DD185ADA5B99C81A5CC81B9BDD08195B98589B1959 PUSH1 0x52 SHL PUSH1 0x44 DUP3 ADD MSTORE PUSH1 0x64 ADD PUSH2 0x10B8 JUMP JUMPDEST PUSH1 0x0 DUP2 DUP2 MSTORE PUSH1 0x25 PUSH1 0x20 MSTORE PUSH1 0x40 DUP2 KECCAK256 SLOAD SWAP1 SUB PUSH2 0x247F JUMPI PUSH1 0x40 MLOAD PUSH3 0x461BCD PUSH1 0xE5 SHL DUP2 MSTORE PUSH1 0x20 PUSH1 0x4 DUP3 ADD MSTORE PUSH1 0x18 PUSH1 0x24 DUP3 ADD MSTORE PUSH32 0x496E76616C6964207374616B696E67206475726174696F6E0000000000000000 PUSH1 0x44 DUP3 ADD MSTORE PUSH1 0x64 ADD PUSH2 0x10B8 JUMP JUMPDEST PUSH2 0x2489 TIMESTAMP DUP3 PUSH2 0x311D JUMP JUMPDEST CALLER PUSH1 0x0 SWAP1 DUP2 MSTORE PUSH1 0x24 PUSH1 0x20 MSTORE PUSH1 0x40 SWAP1 KECCAK256 SLOAD LT PUSH2 0x24F2 JUMPI PUSH1 0x40 MLOAD PUSH3 0x461BCD PUSH1 0xE5 SHL DUP2 MSTORE PUSH1 0x20 PUSH1 0x4 DUP3 ADD MSTORE PUSH1 0x24 DUP1 DUP3 ADD MSTORE PUSH32 0x616C7265616479207374616B656420666F722061206C6F6E6765722064757261 PUSH1 0x44 DUP3 ADD MSTORE PUSH4 0x3A34B7B7 PUSH1 0xE1 SHL PUSH1 0x64 DUP3 ADD MSTORE PUSH1 0x84 ADD PUSH2 0x10B8 JUMP JUMPDEST PUSH1 0x0 DUP2 DUP2 MSTORE PUSH1 0x25 PUSH1 0x20 SWAP1 DUP2 MSTORE PUSH1 0x40 DUP1 DUP4 KECCAK256 SLOAD CALLER DUP5 MSTORE PUSH1 0x23 SWAP1 SWAP3 MSTORE SWAP1 SWAP2 KECCAK256 SSTORE PUSH2 0x251A TIMESTAMP DUP3 PUSH2 0x311D JUMP JUMPDEST CALLER PUSH1 0x0 DUP2 DUP2 MSTORE PUSH1 0x24 PUSH1 0x20 MSTORE PUSH1 0x40 SWAP1 KECCAK256 SWAP2 SWAP1 SWAP2 SSTORE PUSH1 0xE SLOAD PUSH1 0x1 PUSH1 0x1 PUSH1 0xA0 SHL SUB AND SWAP1 PUSH4 0xE30443BC SWAP1 PUSH2 0x2549 DUP2 PUSH2 0x447A JUMP JUMPDEST PUSH1 0x40 MLOAD PUSH1 0x1 PUSH1 0x1 PUSH1 0xE0 SHL SUB NOT PUSH1 0xE0 DUP6 SWAP1 SHL AND DUP2 MSTORE PUSH1 0x1 PUSH1 0x1 PUSH1 0xA0 SHL SUB SWAP1 SWAP3 AND PUSH1 0x4 DUP4 ADD MSTORE PUSH1 0x24 DUP3 ADD MSTORE PUSH1 0x44 ADD PUSH1 0x0 PUSH1 0x40 MLOAD DUP1 DUP4 SUB DUP2 PUSH1 0x0 DUP8 DUP1 EXTCODESIZE ISZERO DUP1 ISZERO PUSH2 0x258F JUMPI PUSH1 0x0 DUP1 REVERT JUMPDEST POP GAS CALL ISZERO DUP1 ISZERO PUSH2 0x25A3 JUMPI RETURNDATASIZE PUSH1 0x0 DUP1 RETURNDATACOPY RETURNDATASIZE PUSH1 0x0 REVERT JUMPDEST POP POP POP POP PUSH2 0x25AE CALLER SWAP1 JUMP JUMPDEST PUSH1 0x1 PUSH1 0x1 PUSH1 0xA0 SHL SUB AND PUSH32 0x13DD201D7DA4F9B31A9064A09ABC1A6CE420DACD837A77ABAFAEC5BD9D28D2C8 DUP3 PUSH1 0x40 MLOAD PUSH2 0x25E8 SWAP2 DUP2 MSTORE PUSH1 0x20 ADD SWAP1 JUMP JUMPDEST PUSH1 0x40 MLOAD DUP1 SWAP2 SUB SWAP1 LOG2 POP JUMP JUMPDEST PUSH1 0xE SLOAD PUSH1 0x40 MLOAD PUSH4 0x2A2E749 PUSH1 0xE6 SHL DUP2 MSTORE PUSH1 0x1 PUSH1 0x1 PUSH1 0xA0 SHL SUB DUP4 DUP2 AND PUSH1 0x4 DUP4 ADD MSTORE PUSH1 0x0 SWAP3 AND SWAP1 PUSH4 0xA8B9D240 SWAP1 PUSH1 0x24 ADD PUSH2 0x1A62 JUMP JUMPDEST PUSH1 0x0 PUSH2 0x1314 CALLER DUP5 DUP5 PUSH2 0x38C7 JUMP JUMPDEST PUSH1 0xE SLOAD PUSH1 0x40 MLOAD PUSH4 0xFBCBC0F1 PUSH1 0xE0 SHL DUP2 MSTORE PUSH1 0x1 PUSH1 0x1 PUSH1 0xA0 SHL SUB DUP4 DUP2 AND PUSH1 0x4 DUP4 ADD MSTORE PUSH1 0x0 SWAP3 DUP4 SWAP3 DUP4 SWAP3 DUP4 SWAP3 DUP4 SWAP3 DUP4 SWAP3 SWAP1 SWAP2 AND SWAP1 PUSH4 0xFBCBC0F1 SWAP1 PUSH1 0x24 ADD JUMPDEST PUSH1 0xC0 PUSH1 0x40 MLOAD DUP1 DUP4 SUB DUP2 DUP7 GAS STATICCALL ISZERO DUP1 ISZERO PUSH2 0x268B JUMPI RETURNDATASIZE PUSH1 0x0 DUP1 RETURNDATACOPY RETURNDATASIZE PUSH1 0x0 REVERT JUMPDEST POP POP POP POP PUSH1 0x40 MLOAD RETURNDATASIZE PUSH1 0x1F NOT PUSH1 0x1F DUP3 ADD AND DUP3 ADD DUP1 PUSH1 0x40 MSTORE POP DUP2 ADD SWAP1 PUSH2 0x26AF SWAP2 SWAP1 PUSH2 0x4CBD JUMP JUMPDEST SWAP5 SWAP13 SWAP4 SWAP12 POP SWAP2 SWAP10 POP SWAP8 POP SWAP6 POP SWAP1 SWAP4 POP SWAP2 POP POP JUMP JUMPDEST PUSH1 0x5 SLOAD PUSH1 0x1 PUSH1 0x1 PUSH1 0xA0 SHL SUB AND CALLER EQ PUSH2 0x26ED JUMPI PUSH1 0x40 MLOAD PUSH3 0x461BCD PUSH1 0xE5 SHL DUP2 MSTORE PUSH1 0x4 ADD PUSH2 0x10B8 SWAP1 PUSH2 0x4B69 JUMP JUMPDEST PUSH2 0x12C DUP2 GT ISZERO PUSH2 0x274E JUMPI PUSH1 0x40 MLOAD PUSH3 0x461BCD PUSH1 0xE5 SHL DUP2 MSTORE PUSH1 0x20 PUSH1 0x4 DUP3 ADD MSTORE PUSH1 0x26 PUSH1 0x24 DUP3 ADD MSTORE PUSH32 0x636F6F6C646F776E2074696D65722063616E6E6F74206578636565642035206D PUSH1 0x44 DUP3 ADD MSTORE PUSH6 0x696E75746573 PUSH1 0xD0 SHL PUSH1 0x64 DUP3 ADD MSTORE PUSH1 0x84 ADD PUSH2 0x10B8 JUMP JUMPDEST PUSH1 0x2C SSTORE JUMP JUMPDEST PUSH1 0xE SLOAD PUSH1 0x40 MLOAD PUSH4 0xBA079D49 PUSH1 0xE0 SHL DUP2 MSTORE PUSH1 0x1 PUSH1 0x1 PUSH1 0xA0 SHL SUB DUP4 DUP2 AND PUSH1 0x4 DUP4 ADD MSTORE PUSH1 0x0 SWAP3 AND SWAP1 PUSH4 0xBA079D49 SWAP1 PUSH1 0x24 ADD PUSH2 0x1AD2 JUMP JUMPDEST PUSH1 0x5 SLOAD PUSH1 0x1 PUSH1 0x1 PUSH1 0xA0 SHL SUB AND CALLER EQ PUSH2 0x27B0 JUMPI PUSH1 0x40 MLOAD PUSH3 0x461BCD PUSH1 0xE5 SHL DUP2 MSTORE PUSH1 0x4 ADD PUSH2 0x10B8 SWAP1 PUSH2 0x4B69 JUMP JUMPDEST DUP1 MLOAD DUP3 MLOAD EQ PUSH2 0x2815 JUMPI PUSH1 0x40 MLOAD PUSH3 0x461BCD PUSH1 0xE5 SHL DUP2 MSTORE PUSH1 0x20 PUSH1 0x4 DUP3 ADD MSTORE PUSH1 0x2B PUSH1 0x24 DUP3 ADD MSTORE PUSH32 0x436F6E7472696275746F727320616E642062616C616E636573206D7573742062 PUSH1 0x44 DUP3 ADD MSTORE PUSH11 0x652073616D652073697A65 PUSH1 0xA8 SHL PUSH1 0x64 DUP3 ADD MSTORE PUSH1 0x84 ADD PUSH2 0x10B8 JUMP JUMPDEST PUSH1 0xC8 DUP3 MLOAD GT ISZERO PUSH2 0x2876 JUMPI PUSH1 0x40 MLOAD PUSH3 0x461BCD PUSH1 0xE5 SHL DUP2 MSTORE PUSH1 0x20 PUSH1 0x4 DUP3 ADD MSTORE PUSH1 0x26 PUSH1 0x24 DUP3 ADD MSTORE PUSH32 0x436F6E7472696275746F72206C697374206C656E677468206D75737420626520 PUSH1 0x44 DUP3 ADD MSTORE PUSH6 0x3C3D2032303 PUSH1 0xD4 SHL PUSH1 0x64 DUP3 ADD MSTORE PUSH1 0x84 ADD PUSH2 0x10B8 JUMP JUMPDEST PUSH1 0x0 DUP1 JUMPDEST DUP3 MLOAD DUP2 PUSH1 0xFF AND LT ISZERO PUSH2 0x28C9 JUMPI PUSH2 0x28B5 DUP4 DUP3 PUSH1 0xFF AND DUP2 MLOAD DUP2 LT PUSH2 0x289E JUMPI PUSH2 0x289E PUSH2 0x4C0D JUMP JUMPDEST PUSH1 0x20 MUL PUSH1 0x20 ADD ADD MLOAD DUP4 PUSH2 0x311D SWAP1 SWAP2 SWAP1 PUSH4 0xFFFFFFFF AND JUMP JUMPDEST SWAP2 POP DUP1 PUSH2 0x28C1 DUP2 PUSH2 0x4D10 JUMP JUMPDEST SWAP2 POP POP PUSH2 0x287A JUMP JUMPDEST POP DUP1 PUSH2 0x28D4 CALLER PUSH2 0x1BE5 JUMP JUMPDEST LT ISZERO PUSH2 0x2937 JUMPI PUSH1 0x40 MLOAD PUSH3 0x461BCD PUSH1 0xE5 SHL DUP2 MSTORE PUSH1 0x20 PUSH1 0x4 DUP3 ADD MSTORE PUSH1 0x2C PUSH1 0x24 DUP3 ADD MSTORE PUSH32 0x4163636F756E742062616C616E6365206D757374206265203E3D2073756D206F PUSH1 0x44 DUP3 ADD MSTORE PUSH12 0x33103130B630B731B2B9971 PUSH1 0xA5 SHL PUSH1 0x64 DUP3 ADD MSTORE PUSH1 0x84 ADD PUSH2 0x10B8 JUMP JUMPDEST CALLER PUSH1 0x0 SWAP1 DUP2 MSTORE PUSH1 0x1 PUSH1 0x20 SWAP1 DUP2 MSTORE PUSH1 0x40 DUP1 DUP4 KECCAK256 ADDRESS DUP5 MSTORE SWAP1 SWAP2 MSTORE SWAP1 KECCAK256 SLOAD DUP2 GT ISZERO PUSH2 0x29B9 JUMPI PUSH1 0x40 MLOAD PUSH3 0x461BCD PUSH1 0xE5 SHL DUP2 MSTORE PUSH1 0x20 PUSH1 0x4 DUP3 ADD MSTORE PUSH1 0x2F PUSH1 0x24 DUP3 ADD MSTORE PUSH32 0x436F6E747261637420616C6C6F77616E6365206D757374206265203E3D207375 PUSH1 0x44 DUP3 ADD MSTORE PUSH15 0x369037B3103130B630B731B2B9971 PUSH1 0x8D SHL PUSH1 0x64 DUP3 ADD MSTORE PUSH1 0x84 ADD PUSH2 0x10B8 JUMP JUMPDEST PUSH1 0x0 DUP1 PUSH1 0x0 JUMPDEST DUP6 MLOAD DUP2 PUSH1 0xFF AND LT ISZERO PUSH2 0x2C2B JUMPI DUP6 DUP2 PUSH1 0xFF AND DUP2 MLOAD DUP2 LT PUSH2 0x29E0 JUMPI PUSH2 0x29E0 PUSH2 0x4C0D JUMP JUMPDEST PUSH1 0x20 MUL PUSH1 0x20 ADD ADD MLOAD SWAP3 POP PUSH1 0x0 PUSH1 0x1 PUSH1 0x1 PUSH1 0xA0 SHL SUB AND DUP4 PUSH1 0x1 PUSH1 0x1 PUSH1 0xA0 SHL SUB AND EQ ISZERO DUP1 ISZERO PUSH2 0x2A18 JUMPI POP PUSH2 0xDEAD PUSH1 0x1 PUSH1 0x1 PUSH1 0xA0 SHL SUB DUP5 AND EQ ISZERO JUMPDEST PUSH2 0x2A64 JUMPI PUSH1 0x40 MLOAD PUSH3 0x461BCD PUSH1 0xE5 SHL DUP2 MSTORE PUSH1 0x20 PUSH1 0x4 DUP3 ADD DUP2 SWAP1 MSTORE PUSH1 0x24 DUP3 ADD MSTORE PUSH32 0x43616E6E6F742061697264726F7020746F206120646561642061646472657373 PUSH1 0x44 DUP3 ADD MSTORE PUSH1 0x64 ADD PUSH2 0x10B8 JUMP JUMPDEST PUSH2 0x2A6D DUP4 PUSH2 0x1BE5 JUMP JUMPDEST SWAP2 POP ADDRESS PUSH1 0x1 PUSH1 0x1 PUSH1 0xA0 SHL SUB AND PUSH4 0x23B872DD CALLER DUP6 DUP9 DUP6 PUSH1 0xFF AND DUP2 MLOAD DUP2 LT PUSH2 0x2A95 JUMPI PUSH2 0x2A95 PUSH2 0x4C0D JUMP JUMPDEST PUSH1 0x20 SWAP1 DUP2 MUL SWAP2 SWAP1 SWAP2 ADD ADD MLOAD PUSH1 0x40 MLOAD PUSH1 0x1 PUSH1 0x1 PUSH1 0xE0 SHL SUB NOT PUSH1 0xE0 DUP7 SWAP1 SHL AND DUP2 MSTORE PUSH1 0x1 PUSH1 0x1 PUSH1 0xA0 SHL SUB SWAP4 DUP5 AND PUSH1 0x4 DUP3 ADD MSTORE SWAP3 SWAP1 SWAP2 AND PUSH1 0x24 DUP4 ADD MSTORE PUSH1 0x44 DUP3 ADD MSTORE PUSH1 0x64 ADD PUSH1 0x20 PUSH1 0x40 MLOAD DUP1 DUP4 SUB DUP2 PUSH1 0x0 DUP8 GAS CALL ISZERO DUP1 ISZERO PUSH2 0x2AF4 JUMPI RETURNDATASIZE PUSH1 0x0 DUP1 RETURNDATACOPY RETURNDATASIZE PUSH1 0x0 REVERT JUMPDEST POP POP POP POP PUSH1 0x40 MLOAD RETURNDATASIZE PUSH1 0x1F NOT PUSH1 0x1F DUP3 ADD AND DUP3 ADD DUP1 PUSH1 0x40 MSTORE POP DUP2 ADD SWAP1 PUSH2 0x2B18 SWAP2 SWAP1 PUSH2 0x4C72 JUMP JUMPDEST POP DUP5 DUP2 PUSH1 0xFF AND DUP2 MLOAD DUP2 LT PUSH2 0x2B2E JUMPI PUSH2 0x2B2E PUSH2 0x4C0D JUMP JUMPDEST PUSH1 0x20 MUL PUSH1 0x20 ADD ADD MLOAD DUP3 PUSH2 0x2B41 SWAP2 SWAP1 PUSH2 0x4D2F JUMP JUMPDEST PUSH2 0x2B4A DUP5 PUSH2 0x1BE5 JUMP JUMPDEST EQ PUSH2 0x2BB0 JUMPI PUSH1 0x40 MLOAD PUSH3 0x461BCD PUSH1 0xE5 SHL DUP2 MSTORE PUSH1 0x20 PUSH1 0x4 DUP3 ADD MSTORE PUSH1 0x30 PUSH1 0x24 DUP3 ADD MSTORE PUSH32 0x436F6E7472696275746F72206D75737420726563696576652066756C6C206261 PUSH1 0x44 DUP3 ADD MSTORE PUSH16 0x6C616E6365206F662061697264726F7 PUSH1 0x84 SHL PUSH1 0x64 DUP3 ADD MSTORE PUSH1 0x84 ADD PUSH2 0x10B8 JUMP JUMPDEST PUSH32 0x8C32C568416FCF97BE35CE5B27844CFDDCD63A67A1A602C3595BA5DAC38F303A DUP4 DUP7 DUP4 PUSH1 0xFF AND DUP2 MLOAD DUP2 LT PUSH2 0x2BE7 JUMPI PUSH2 0x2BE7 PUSH2 0x4C0D JUMP JUMPDEST PUSH1 0x20 MUL PUSH1 0x20 ADD ADD MLOAD PUSH1 0x40 MLOAD PUSH2 0x2C11 SWAP3 SWAP2 SWAP1 PUSH1 0x1 PUSH1 0x1 PUSH1 0xA0 SHL SUB SWAP3 SWAP1 SWAP3 AND DUP3 MSTORE PUSH1 0x20 DUP3 ADD MSTORE PUSH1 0x40 ADD SWAP1 JUMP JUMPDEST PUSH1 0x40 MLOAD DUP1 SWAP2 SUB SWAP1 LOG1 DUP1 PUSH2 0x2C23 DUP2 PUSH2 0x4D10 JUMP JUMPDEST SWAP2 POP POP PUSH2 0x29BF JUMP JUMPDEST POP POP POP POP POP POP JUMP JUMPDEST PUSH1 0x5 SLOAD PUSH1 0x1 PUSH1 0x1 PUSH1 0xA0 SHL SUB AND CALLER EQ PUSH2 0x2C5D JUMPI PUSH1 0x40 MLOAD PUSH3 0x461BCD PUSH1 0xE5 SHL DUP2 MSTORE PUSH1 0x4 ADD PUSH2 0x10B8 SWAP1 PUSH2 0x4B69 JUMP JUMPDEST PUSH1 0x1 PUSH1 0x1 PUSH1 0xA0 SHL SUB DUP2 DUP2 AND PUSH1 0x0 DUP2 DUP2 MSTORE PUSH1 0x26 PUSH1 0x20 SWAP1 DUP2 MSTORE PUSH1 0x40 DUP1 DUP4 KECCAK256 DUP1 SLOAD PUSH1 0x1 PUSH1 0xFF NOT SWAP2 DUP3 AND DUP2 OR SWAP1 SWAP3 SSTORE SWAP3 DUP1 MSTORE SWAP3 DUP2 SWAP1 KECCAK256 DUP1 SLOAD SWAP1 SWAP3 AND SWAP1 SWAP3 OR SWAP1 SSTORE PUSH1 0xE SLOAD SWAP1 MLOAD PUSH4 0x31E79DB PUSH1 0xE4 SHL DUP2 MSTORE PUSH1 0x4 DUP2 ADD SWAP3 SWAP1 SWAP3 MSTORE SWAP1 SWAP2 AND SWAP1 PUSH4 0x31E79DB0 SWAP1 PUSH1 0x24 ADD PUSH1 0x0 PUSH1 0x40 MLOAD DUP1 DUP4 SUB DUP2 PUSH1 0x0 DUP8 DUP1 EXTCODESIZE ISZERO DUP1 ISZERO PUSH2 0x2CD7 JUMPI PUSH1 0x0 DUP1 REVERT JUMPDEST POP GAS CALL ISZERO DUP1 ISZERO PUSH2 0x2CEB JUMPI RETURNDATASIZE PUSH1 0x0 DUP1 RETURNDATACOPY RETURNDATASIZE PUSH1 0x0 REVERT JUMPDEST POP POP PUSH1 0x40 MLOAD PUSH1 0x1 PUSH1 0x1 PUSH1 0xA0 SHL SUB DUP5 AND DUP2 MSTORE PUSH32 0x85D097E432D8E396FA72C83EBD34196326E1CF1694EF910CD53554B2EE7597C5 SWAP3 POP PUSH1 0x20 ADD SWAP1 POP PUSH2 0x202F JUMP JUMPDEST PUSH1 0x5 SLOAD PUSH1 0x1 PUSH1 0x1 PUSH1 0xA0 SHL SUB AND CALLER EQ PUSH2 0x2D53 JUMPI PUSH1 0x40 MLOAD PUSH3 0x461BCD PUSH1 0xE5 SHL DUP2 MSTORE PUSH1 0x4 ADD PUSH2 0x10B8 SWAP1 PUSH2 0x4B69 JUMP JUMPDEST PUSH1 0x1E SLOAD DUP2 ISZERO ISZERO PUSH1 0xFF SWAP1 SWAP2 AND ISZERO ISZERO SUB PUSH2 0x2D6A JUMPI PUSH1 0x0 DUP1 REVERT JUMPDEST PUSH1 0x1E DUP1 SLOAD PUSH1 0xFF NOT AND DUP3 ISZERO ISZERO SWAP1 DUP2 OR SWAP1 SWAP2 SSTORE PUSH1 0x40 MLOAD SWAP1 DUP2 MSTORE PUSH32 0xFF5917043F8453AF413305B2DBD1ED9748A37DF481BEB71BA4B9B212A07B9BEF SWAP1 PUSH1 0x20 ADD PUSH2 0x202F JUMP JUMPDEST PUSH1 0x5 SLOAD PUSH1 0x1 PUSH1 0x1 PUSH1 0xA0 SHL SUB AND CALLER EQ PUSH2 0x2DD5 JUMPI PUSH1 0x40 MLOAD PUSH3 0x461BCD PUSH1 0xE5 SHL DUP2 MSTORE PUSH1 0x4 ADD PUSH2 0x10B8 SWAP1 PUSH2 0x4B69 JUMP JUMPDEST PUSH1 0xE SLOAD PUSH1 0x40 MLOAD PUSH4 0xD8032ED3 PUSH1 0xE0 SHL DUP2 MSTORE PUSH1 0x1 PUSH1 0x1 PUSH1 0xA0 SHL SUB DUP4 DUP2 AND PUSH1 0x4 DUP4 ADD MSTORE SWAP1 SWAP2 AND SWAP1 PUSH4 0xD8032ED3 SWAP1 PUSH1 0x24 ADD PUSH1 0x0 PUSH1 0x40 MLOAD DUP1 DUP4 SUB DUP2 PUSH1 0x0 DUP8 DUP1 EXTCODESIZE ISZERO DUP1 ISZERO PUSH2 0x2E1C JUMPI PUSH1 0x0 DUP1 REVERT JUMPDEST POP GAS CALL ISZERO DUP1 ISZERO PUSH2 0x2E30 JUMPI RETURNDATASIZE PUSH1 0x0 DUP1 RETURNDATACOPY RETURNDATASIZE PUSH1 0x0 REVERT JUMPDEST POP POP PUSH1 0x40 MLOAD PUSH1 0x1 PUSH1 0x1 PUSH1 0xA0 SHL SUB DUP5 AND DUP2 MSTORE PUSH32 0x7597AA09105646B4CC4486748AECD1D7C5DBCBB7BBE2863C3FC27E613B64432D SWAP3 POP PUSH1 0x20 ADD SWAP1 POP PUSH2 0x202F JUMP JUMPDEST PUSH1 0xE SLOAD PUSH1 0x40 DUP1 MLOAD PUSH4 0x39E107B PUSH1 0xE6 SHL DUP2 MSTORE SWAP1 MLOAD PUSH1 0x0 SWAP3 PUSH1 0x1 PUSH1 0x1 PUSH1 0xA0 SHL SUB AND SWAP2 PUSH4 0xE7841EC0 SWAP2 PUSH1 0x4 DUP1 DUP4 ADD SWAP3 PUSH1 0x20 SWAP3 SWAP2 SWAP1 DUP3 SWAP1 SUB ADD DUP2 DUP7 GAS STATICCALL ISZERO DUP1 ISZERO PUSH2 0x16FA JUMPI RETURNDATASIZE PUSH1 0x0 DUP1 RETURNDATACOPY RETURNDATASIZE PUSH1 0x0 REVERT JUMPDEST PUSH1 0xE SLOAD PUSH1 0x40 MLOAD PUSH4 0x5183D6FD PUSH1 0xE0 SHL DUP2 MSTORE PUSH1 0x4 DUP2 ADD DUP4 SWAP1 MSTORE PUSH1 0x0 SWAP2 DUP3 SWAP2 DUP3 SWAP2 DUP3 SWAP2 DUP3 SWAP2 DUP3 SWAP2 PUSH1 0x1 PUSH1 0x1 PUSH1 0xA0 SHL SUB SWAP1 SWAP2 AND SWAP1 PUSH4 0x5183D6FD SWAP1 PUSH1 0x24 ADD PUSH2 0x266E JUMP JUMPDEST PUSH1 0x5 SLOAD PUSH1 0x1 PUSH1 0x1 PUSH1 0xA0 SHL SUB AND CALLER EQ PUSH2 0x2F20 JUMPI PUSH1 0x40 MLOAD PUSH3 0x461BCD PUSH1 0xE5 SHL DUP2 MSTORE PUSH1 0x4 ADD PUSH2 0x10B8 SWAP1 PUSH2 0x4B69 JUMP JUMPDEST PUSH1 0x1 PUSH1 0x1 PUSH1 0xA0 SHL SUB DUP2 AND PUSH2 0x2F85 JUMPI PUSH1 0x40 MLOAD PUSH3 0x461BCD PUSH1 0xE5 SHL DUP2 MSTORE PUSH1 0x20 PUSH1 0x4 DUP3 ADD MSTORE PUSH1 0x26 PUSH1 0x24 DUP3 ADD MSTORE PUSH32 0x4F776E61626C653A206E6577206F776E657220697320746865207A65726F2061 PUSH1 0x44 DUP3 ADD MSTORE PUSH6 0x646472657373 PUSH1 0xD0 SHL PUSH1 0x64 DUP3 ADD MSTORE PUSH1 0x84 ADD PUSH2 0x10B8 JUMP JUMPDEST PUSH1 0x5 SLOAD PUSH1 0x40 MLOAD PUSH1 0x1 PUSH1 0x1 PUSH1 0xA0 SHL SUB DUP1 DUP5 AND SWAP3 AND SWAP1 PUSH32 0x8BE0079C531659141344CD1FD0A4F28419497F9722A3DAAFE3B4186F6B6457E0 SWAP1 PUSH1 0x0 SWAP1 LOG3 PUSH1 0x5 DUP1 SLOAD PUSH1 0x1 PUSH1 0x1 PUSH1 0xA0 SHL SUB NOT AND PUSH1 0x1 PUSH1 0x1 PUSH1 0xA0 SHL SUB SWAP3 SWAP1 SWAP3 AND SWAP2 SWAP1 SWAP2 OR SWAP1 SSTORE JUMP JUMPDEST PUSH1 0xE SLOAD PUSH1 0x40 MLOAD PUSH4 0x2C8BE281 PUSH1 0xE2 SHL DUP2 MSTORE CALLER PUSH1 0x4 DUP3 ADD MSTORE DUP3 ISZERO ISZERO PUSH1 0x24 DUP3 ADD MSTORE PUSH1 0x1 PUSH1 0x1 PUSH1 0xA0 SHL SUB SWAP1 SWAP2 AND SWAP1 PUSH4 0xB22F8A04 SWAP1 PUSH1 0x44 ADD PUSH2 0x1776 JUMP JUMPDEST PUSH1 0x5 SLOAD PUSH1 0x1 PUSH1 0x1 PUSH1 0xA0 SHL SUB AND CALLER EQ PUSH2 0x3043 JUMPI PUSH1 0x40 MLOAD PUSH3 0x461BCD PUSH1 0xE5 SHL DUP2 MSTORE PUSH1 0x4 ADD PUSH2 0x10B8 SWAP1 PUSH2 0x4B69 JUMP JUMPDEST PUSH1 0x1 PUSH1 0x1 PUSH1 0xA0 SHL SUB AND PUSH1 0x0 SWAP1 DUP2 MSTORE PUSH1 0x21 PUSH1 0x20 MSTORE PUSH1 0x40 SWAP1 KECCAK256 DUP1 SLOAD PUSH1 0xFF NOT AND PUSH1 0x1 OR SWAP1 SSTORE JUMP JUMPDEST PUSH1 0x5 SLOAD PUSH1 0x1 PUSH1 0x1 PUSH1 0xA0 SHL SUB AND CALLER EQ PUSH2 0x3091 JUMPI PUSH1 0x40 MLOAD PUSH3 0x461BCD PUSH1 0xE5 SHL DUP2 MSTORE PUSH1 0x4 ADD PUSH2 0x10B8 SWAP1 PUSH2 0x4B69 JUMP JUMPDEST PUSH2 0x30A3 DUP2 PUSH8 0xDE0B6B3A7640000 PUSH2 0x4BB4 JUMP JUMPDEST SWAP1 POP PUSH2 0x7D0 PUSH1 0x2 SLOAD PUSH2 0x30B5 SWAP2 SWAP1 PUSH2 0x4D47 JUMP JUMPDEST DUP2 LT ISZERO PUSH2 0x3118 JUMPI PUSH1 0x40 MLOAD PUSH3 0x461BCD PUSH1 0xE5 SHL DUP2 MSTORE PUSH1 0x20 PUSH1 0x4 DUP3 ADD MSTORE PUSH1 0x2B PUSH1 0x24 DUP3 ADD MSTORE PUSH32 0x6D61782077616C6C65742063616E6E6F742062652073657420746F206C657373 PUSH1 0x44 DUP3 ADD MSTORE PUSH11 0x207468616E20302E303525 PUSH1 0xA8 SHL PUSH1 0x64 DUP3 ADD MSTORE PUSH1 0x84 ADD PUSH2 0x10B8 JUMP JUMPDEST PUSH1 0x11 SSTORE JUMP JUMPDEST PUSH1 0x0 DUP1 PUSH2 0x312A DUP4 DUP6 PUSH2 0x4D2F JUMP JUMPDEST SWAP1 POP DUP4 DUP2 LT ISZERO PUSH2 0x317C JUMPI PUSH1 0x40 MLOAD PUSH3 0x461BCD PUSH1 0xE5 SHL DUP2 MSTORE PUSH1 0x20 PUSH1 0x4 DUP3 ADD MSTORE PUSH1 0x1B PUSH1 0x24 DUP3 ADD MSTORE PUSH32 0x536166654D6174683A206164646974696F6E206F766572666C6F770000000000 PUSH1 0x44 DUP3 ADD MSTORE PUSH1 0x64 ADD PUSH2 0x10B8 JUMP JUMPDEST SWAP4 SWAP3 POP POP POP JUMP JUMPDEST PUSH1 0x0 DUP3 PUSH1 0x0 SUB PUSH2 0x3195 JUMPI POP PUSH1 0x0 PUSH2 0x1318 JUMP JUMPDEST PUSH1 0x0 PUSH2 0x31A1 DUP4 DUP6 PUSH2 0x4BB4 JUMP JUMPDEST SWAP1 POP DUP3 PUSH2 0x31AE DUP6 DUP4 PUSH2 0x4D47 JUMP JUMPDEST EQ PUSH2 0x317C JUMPI PUSH1 0x40 MLOAD PUSH3 0x461BCD PUSH1 0xE5 SHL DUP2 MSTORE PUSH1 0x20 PUSH1 0x4 DUP3 ADD MSTORE PUSH1 0x21 PUSH1 0x24 DUP3 ADD MSTORE PUSH32 0x536166654D6174683A206D756C7469706C69636174696F6E206F766572666C6F PUSH1 0x44 DUP3 ADD MSTORE PUSH1 0x77 PUSH1 0xF8 SHL PUSH1 0x64 DUP3 ADD MSTORE PUSH1 0x84 ADD PUSH2 0x10B8 JUMP JUMPDEST PUSH1 0x0 PUSH2 0x317C DUP4 DUP4 PUSH1 0x40 MLOAD DUP1 PUSH1 0x40 ADD PUSH1 0x40 MSTORE DUP1 PUSH1 0x1A DUP2 MSTORE PUSH1 0x20 ADD PUSH32 0x536166654D6174683A206469766973696F6E206279207A65726F000000000000 DUP2 MSTORE POP PUSH2 0x44D3 JUMP JUMPDEST DUP1 PUSH1 0x0 SUB PUSH2 0x3252 JUMPI POP JUMP JUMPDEST PUSH2 0x325B DUP2 PUSH2 0x4501 JUMP JUMPDEST PUSH1 0x0 PUSH2 0x3274 PUSH1 0xA SLOAD PUSH1 0xB SLOAD PUSH2 0x311D SWAP1 SWAP2 SWAP1 PUSH4 0xFFFFFFFF AND JUMP JUMPDEST PUSH1 0x1A SLOAD SWAP1 SWAP2 POP PUSH1 0x1 SWAP1 DUP2 SWAP1 DUP2 SWAP1 PUSH1 0x0 SWAP1 DUP2 SWAP1 DUP2 SWAP1 ISZERO PUSH2 0x32D5 JUMPI PUSH2 0x32D2 PUSH1 0x1B SLOAD PUSH1 0x18 SLOAD PUSH1 0x1A SLOAD PUSH2 0x32A3 SWAP2 SWAP1 PUSH2 0x4D2F JUMP JUMPDEST PUSH2 0x32AD SWAP2 SWAP1 PUSH2 0x4D2F JUMP JUMPDEST PUSH2 0x110B PUSH1 0x1A SLOAD PUSH2 0x32CC DUP12 PUSH2 0x110B PUSH1 0xB SLOAD SELFBALANCE PUSH2 0x3183 SWAP1 SWAP2 SWAP1 PUSH4 0xFFFFFFFF AND JUMP JUMPDEST SWAP1 PUSH2 0x3183 JUMP JUMPDEST SWAP2 POP JUMPDEST PUSH1 0x13 SLOAD ISZERO PUSH2 0x331F JUMPI PUSH2 0x331C PUSH1 0x1C SLOAD PUSH1 0x15 SLOAD PUSH1 0x13 SLOAD PUSH2 0x32F3 SWAP2 SWAP1 PUSH2 0x4D2F JUMP JUMPDEST PUSH2 0x32FD SWAP2 SWAP1 PUSH2 0x4D2F JUMP JUMPDEST PUSH2 0x110B PUSH1 0x13 SLOAD PUSH2 0x32CC DUP12 PUSH2 0x110B PUSH1 0xA SLOAD SELFBALANCE PUSH2 0x3183 SWAP1 SWAP2 SWAP1 PUSH4 0xFFFFFFFF AND JUMP JUMPDEST SWAP1 POP JUMPDEST PUSH2 0x3329 DUP3 DUP3 PUSH2 0x311D JUMP JUMPDEST SWAP3 POP DUP3 ISZERO PUSH2 0x3389 JUMPI PUSH1 0xE SLOAD PUSH1 0x40 MLOAD PUSH1 0x1 PUSH1 0x1 PUSH1 0xA0 SHL SUB SWAP1 SWAP2 AND SWAP1 DUP5 SWAP1 PUSH1 0x0 DUP2 DUP2 DUP2 DUP6 DUP8 GAS CALL SWAP3 POP POP POP RETURNDATASIZE DUP1 PUSH1 0x0 DUP2 EQ PUSH2 0x337E JUMPI PUSH1 0x40 MLOAD SWAP2 POP PUSH1 0x1F NOT PUSH1 0x3F RETURNDATASIZE ADD AND DUP3 ADD PUSH1 0x40 MSTORE RETURNDATASIZE DUP3 MSTORE RETURNDATASIZE PUSH1 0x0 PUSH1 0x20 DUP5 ADD RETURNDATACOPY PUSH2 0x3383 JUMP JUMPDEST PUSH1 0x60 SWAP2 POP JUMPDEST POP SWAP1 SWAP7 POP POP JUMPDEST PUSH1 0x0 PUSH2 0x33A2 PUSH1 0x1B SLOAD PUSH1 0x18 SLOAD PUSH2 0x311D SWAP1 SWAP2 SWAP1 PUSH4 0xFFFFFFFF AND JUMP JUMPDEST PUSH1 0x1C SLOAD PUSH1 0x15 SLOAD PUSH2 0x33B1 SWAP2 PUSH2 0x311D JUMP JUMPDEST PUSH2 0x33BB SWAP2 SWAP1 PUSH2 0x4D2F JUMP JUMPDEST SWAP1 POP PUSH1 0x0 DUP2 ISZERO PUSH2 0x33D2 JUMPI PUSH2 0x33CF SELFBALANCE DUP4 PUSH2 0x3205 JUMP JUMPDEST SWAP1 POP JUMPDEST PUSH1 0x0 DUP2 PUSH2 0x33EC PUSH1 0x15 SLOAD PUSH1 0x18 SLOAD PUSH2 0x311D SWAP1 SWAP2 SWAP1 PUSH4 0xFFFFFFFF AND JUMP JUMPDEST PUSH2 0x33F6 SWAP2 SWAP1 PUSH2 0x4BB4 JUMP JUMPDEST SWAP1 POP PUSH1 0x0 DUP3 PUSH2 0x3412 PUSH1 0x1C SLOAD PUSH1 0x1B SLOAD PUSH2 0x311D SWAP1 SWAP2 SWAP1 PUSH4 0xFFFFFFFF AND JUMP JUMPDEST PUSH2 0x341C SWAP2 SWAP1 PUSH2 0x4BB4 JUMP JUMPDEST SWAP1 POP DUP2 ISZERO PUSH2 0x347C JUMPI PUSH1 0xF SLOAD PUSH1 0x40 MLOAD PUSH1 0x1 PUSH1 0x1 PUSH1 0xA0 SHL SUB SWAP1 SWAP2 AND SWAP1 DUP4 SWAP1 PUSH1 0x0 DUP2 DUP2 DUP2 DUP6 DUP8 GAS CALL SWAP3 POP POP POP RETURNDATASIZE DUP1 PUSH1 0x0 DUP2 EQ PUSH2 0x3471 JUMPI PUSH1 0x40 MLOAD SWAP2 POP PUSH1 0x1F NOT PUSH1 0x3F RETURNDATASIZE ADD AND DUP3 ADD PUSH1 0x40 MSTORE RETURNDATASIZE DUP3 MSTORE RETURNDATASIZE PUSH1 0x0 PUSH1 0x20 DUP5 ADD RETURNDATACOPY PUSH2 0x3476 JUMP JUMPDEST PUSH1 0x60 SWAP2 POP JUMPDEST POP SWAP1 SWAP10 POP POP JUMPDEST DUP1 ISZERO PUSH2 0x35EA JUMPI PUSH1 0x40 DUP1 MLOAD PUSH1 0x2 DUP1 DUP3 MSTORE PUSH1 0x60 DUP3 ADD DUP4 MSTORE PUSH1 0x0 SWAP3 PUSH1 0x20 DUP4 ADD SWAP1 DUP1 CALLDATASIZE DUP4 CALLDATACOPY POP POP PUSH1 0x6 SLOAD PUSH1 0x40 DUP1 MLOAD PUSH4 0x15AB88C9 PUSH1 0xE3 SHL DUP2 MSTORE SWAP1 MLOAD SWAP4 SWAP5 POP PUSH1 0x1 PUSH1 0x1 PUSH1 0xA0 SHL SUB SWAP1 SWAP2 AND SWAP3 PUSH4 0xAD5C4648 SWAP3 POP PUSH1 0x4 DUP1 DUP4 ADD SWAP3 PUSH1 0x20 SWAP3 SWAP2 SWAP1 DUP3 SWAP1 SUB ADD DUP2 DUP7 GAS STATICCALL ISZERO DUP1 ISZERO PUSH2 0x34EC JUMPI RETURNDATASIZE PUSH1 0x0 DUP1 RETURNDATACOPY RETURNDATASIZE PUSH1 0x0 REVERT JUMPDEST POP POP POP POP PUSH1 0x40 MLOAD RETURNDATASIZE PUSH1 0x1F NOT PUSH1 0x1F DUP3 ADD AND DUP3 ADD DUP1 PUSH1 0x40 MSTORE POP DUP2 ADD SWAP1 PUSH2 0x3510 SWAP2 SWAP1 PUSH2 0x4C3C JUMP JUMPDEST DUP2 PUSH1 0x0 DUP2 MLOAD DUP2 LT PUSH2 0x3523 JUMPI PUSH2 0x3523 PUSH2 0x4C0D JUMP JUMPDEST PUSH1 0x1 PUSH1 0x1 PUSH1 0xA0 SHL SUB SWAP3 DUP4 AND PUSH1 0x20 SWAP2 DUP3 MUL SWAP3 SWAP1 SWAP3 ADD ADD MSTORE PUSH1 0x7 SLOAD DUP3 MLOAD SWAP2 AND SWAP1 DUP3 SWAP1 PUSH1 0x1 SWAP1 DUP2 LT PUSH2 0x3554 JUMPI PUSH2 0x3554 PUSH2 0x4C0D JUMP JUMPDEST PUSH1 0x1 PUSH1 0x1 PUSH1 0xA0 SHL SUB SWAP3 DUP4 AND PUSH1 0x20 SWAP2 DUP3 MUL SWAP3 SWAP1 SWAP3 ADD ADD MSTORE PUSH1 0x6 SLOAD PUSH1 0x10 SLOAD PUSH1 0x40 MLOAD PUSH4 0x7FF36AB5 PUSH1 0xE0 SHL DUP2 MSTORE SWAP2 DUP4 AND SWAP3 PUSH4 0x7FF36AB5 SWAP3 DUP7 SWAP3 PUSH2 0x35A0 SWAP3 PUSH1 0x0 SWAP3 DUP9 SWAP3 SWAP1 SWAP2 AND SWAP1 TIMESTAMP SWAP1 PUSH1 0x4 ADD PUSH2 0x4DAD JUMP JUMPDEST PUSH1 0x0 PUSH1 0x40 MLOAD DUP1 DUP4 SUB DUP2 DUP6 DUP9 GAS CALL ISZERO DUP1 ISZERO PUSH2 0x35BE JUMPI RETURNDATASIZE PUSH1 0x0 DUP1 RETURNDATACOPY RETURNDATASIZE PUSH1 0x0 REVERT JUMPDEST POP POP POP POP POP PUSH1 0x40 MLOAD RETURNDATASIZE PUSH1 0x0 DUP3 RETURNDATACOPY PUSH1 0x1F RETURNDATASIZE SWAP1 DUP2 ADD PUSH1 0x1F NOT AND DUP3 ADD PUSH1 0x40 MSTORE PUSH2 0x35E7 SWAP2 SWAP1 DUP2 ADD SWAP1 PUSH2 0x4DE2 JUMP JUMPDEST POP POP JUMPDEST PUSH32 0x8E09EC88C0D24C22E3A9B8555C029AFCC4A7C609DAABF6D7849E814C2D14EFD0 DUP8 PUSH2 0x3616 DUP4 DUP6 PUSH2 0x4D2F JUMP JUMPDEST DUP13 DUP1 ISZERO PUSH2 0x3620 JUMPI POP DUP12 JUMPDEST DUP1 ISZERO PUSH2 0x3629 JUMPI POP DUP11 JUMPDEST PUSH1 0x40 DUP1 MLOAD SWAP4 DUP5 MSTORE PUSH1 0x20 DUP5 ADD SWAP3 SWAP1 SWAP3 MSTORE ISZERO ISZERO SWAP1 DUP3 ADD MSTORE PUSH1 0x60 ADD PUSH1 0x40 MLOAD DUP1 SWAP2 SUB SWAP1 LOG1 POP POP POP POP POP POP POP POP POP POP POP POP JUMP JUMPDEST PUSH1 0x0 PUSH2 0x317C DUP4 DUP4 PUSH1 0x40 MLOAD DUP1 PUSH1 0x40 ADD PUSH1 0x40 MSTORE DUP1 PUSH1 0x1E DUP2 MSTORE PUSH1 0x20 ADD PUSH32 0x536166654D6174683A207375627472616374696F6E206F766572666C6F770000 DUP2 MSTORE POP PUSH2 0x4377 JUMP JUMPDEST PUSH1 0x1 PUSH1 0x1 PUSH1 0xA0 SHL SUB DUP4 AND PUSH2 0x36FB JUMPI PUSH1 0x40 MLOAD PUSH3 0x461BCD PUSH1 0xE5 SHL DUP2 MSTORE PUSH1 0x20 PUSH1 0x4 DUP3 ADD MSTORE PUSH1 0x24 DUP1 DUP3 ADD MSTORE PUSH32 0x45524332303A20617070726F76652066726F6D20746865207A65726F20616464 PUSH1 0x44 DUP3 ADD MSTORE PUSH4 0x72657373 PUSH1 0xE0 SHL PUSH1 0x64 DUP3 ADD MSTORE PUSH1 0x84 ADD PUSH2 0x10B8 JUMP JUMPDEST PUSH1 0x1 PUSH1 0x1 PUSH1 0xA0 SHL SUB DUP3 AND PUSH2 0x375C JUMPI PUSH1 0x40 MLOAD PUSH3 0x461BCD PUSH1 0xE5 SHL DUP2 MSTORE PUSH1 0x20 PUSH1 0x4 DUP3 ADD MSTORE PUSH1 0x22 PUSH1 0x24 DUP3 ADD MSTORE PUSH32 0x45524332303A20617070726F766520746F20746865207A65726F206164647265 PUSH1 0x44 DUP3 ADD MSTORE PUSH2 0x7373 PUSH1 0xF0 SHL PUSH1 0x64 DUP3 ADD MSTORE PUSH1 0x84 ADD PUSH2 0x10B8 JUMP JUMPDEST PUSH1 0x1 PUSH1 0x1 PUSH1 0xA0 SHL SUB DUP4 DUP2 AND PUSH1 0x0 DUP2 DUP2 MSTORE PUSH1 0x1 PUSH1 0x20 SWAP1 DUP2 MSTORE PUSH1 0x40 DUP1 DUP4 KECCAK256 SWAP5 DUP8 AND DUP1 DUP5 MSTORE SWAP5 DUP3 MSTORE SWAP2 DUP3 SWAP1 KECCAK256 DUP6 SWAP1 SSTORE SWAP1 MLOAD DUP5 DUP2 MSTORE PUSH32 0x8C5BE1E5EBEC7D5BD14F71427D1E84F3DD0314C0F7B2291E5B200AC8C7C3B925 SWAP2 ADD JUMPDEST PUSH1 0x40 MLOAD DUP1 SWAP2 SUB SWAP1 LOG3 POP POP POP JUMP JUMPDEST PUSH1 0x1 PUSH1 0x1 PUSH1 0xA0 SHL SUB DUP4 AND PUSH2 0x37E4 JUMPI PUSH1 0x40 MLOAD PUSH3 0x461BCD PUSH1 0xE5 SHL DUP2 MSTORE PUSH1 0x4 ADD PUSH2 0x10B8 SWAP1 PUSH2 0x4E73 JUMP JUMPDEST PUSH1 0x1 PUSH1 0x1 PUSH1 0xA0 SHL SUB DUP3 AND PUSH2 0x380A JUMPI PUSH1 0x40 MLOAD PUSH3 0x461BCD PUSH1 0xE5 SHL DUP2 MSTORE PUSH1 0x4 ADD PUSH2 0x10B8 SWAP1 PUSH2 0x4EB8 JUMP JUMPDEST PUSH2 0x3847 DUP2 PUSH1 0x40 MLOAD DUP1 PUSH1 0x60 ADD PUSH1 0x40 MSTORE DUP1 PUSH1 0x26 DUP2 MSTORE PUSH1 0x20 ADD PUSH2 0x4F4F PUSH1 0x26 SWAP2 CODECOPY PUSH1 0x1 PUSH1 0x1 PUSH1 0xA0 SHL SUB DUP7 AND PUSH1 0x0 SWAP1 DUP2 MSTORE PUSH1 0x20 DUP2 SWAP1 MSTORE PUSH1 0x40 SWAP1 KECCAK256 SLOAD SWAP2 SWAP1 PUSH2 0x4377 JUMP JUMPDEST PUSH1 0x1 PUSH1 0x1 PUSH1 0xA0 SHL SUB DUP1 DUP6 AND PUSH1 0x0 SWAP1 DUP2 MSTORE PUSH1 0x20 DUP2 SWAP1 MSTORE PUSH1 0x40 DUP1 DUP3 KECCAK256 SWAP4 SWAP1 SWAP4 SSTORE SWAP1 DUP5 AND DUP2 MSTORE KECCAK256 SLOAD PUSH2 0x3876 SWAP1 DUP3 PUSH2 0x311D JUMP JUMPDEST PUSH1 0x1 PUSH1 0x1 PUSH1 0xA0 SHL SUB DUP4 DUP2 AND PUSH1 0x0 DUP2 DUP2 MSTORE PUSH1 0x20 DUP2 DUP2 MSTORE PUSH1 0x40 SWAP2 DUP3 SWAP1 KECCAK256 SWAP5 SWAP1 SWAP5 SSTORE MLOAD DUP5 DUP2 MSTORE SWAP1 SWAP3 SWAP2 DUP7 AND SWAP2 PUSH32 0xDDF252AD1BE2C89B69C2B068FC378DAA952BA7F163C4A11628F55A4DF523B3EF SWAP2 ADD PUSH2 0x37B1 JUMP JUMPDEST PUSH1 0x1 PUSH1 0x1 PUSH1 0xA0 SHL SUB DUP4 AND PUSH1 0x0 SWAP1 DUP2 MSTORE PUSH1 0x21 PUSH1 0x20 MSTORE PUSH1 0x40 SWAP1 KECCAK256 SLOAD PUSH1 0xFF AND ISZERO PUSH2 0x3928 JUMPI PUSH1 0x40 MLOAD PUSH3 0x461BCD PUSH1 0xE5 SHL DUP2 MSTORE PUSH1 0x20 PUSH1 0x4 DUP3 ADD MSTORE PUSH1 0x15 PUSH1 0x24 DUP3 ADD MSTORE PUSH21 0x14D95B99195C881A5CC8189B1858DADB1A5CDD1959 PUSH1 0x5A SHL PUSH1 0x44 DUP3 ADD MSTORE PUSH1 0x64 ADD PUSH2 0x10B8 JUMP JUMPDEST PUSH1 0x1 PUSH1 0x1 PUSH1 0xA0 SHL SUB DUP3 AND PUSH1 0x0 SWAP1 DUP2 MSTORE PUSH1 0x21 PUSH1 0x20 MSTORE PUSH1 0x40 SWAP1 KECCAK256 SLOAD PUSH1 0xFF AND ISZERO PUSH2 0x3991 JUMPI PUSH1 0x40 MLOAD PUSH3 0x461BCD PUSH1 0xE5 SHL DUP2 MSTORE PUSH1 0x20 PUSH1 0x4 DUP3 ADD MSTORE PUSH1 0x18 PUSH1 0x24 DUP3 ADD MSTORE PUSH32 0x526563697069656E7420697320626C61636B6C69737465640000000000000000 PUSH1 0x44 DUP3 ADD MSTORE PUSH1 0x64 ADD PUSH2 0x10B8 JUMP JUMPDEST PUSH1 0x1 PUSH1 0x1 PUSH1 0xA0 SHL SUB DUP4 AND PUSH2 0x39B7 JUMPI PUSH1 0x40 MLOAD PUSH3 0x461BCD PUSH1 0xE5 SHL DUP2 MSTORE PUSH1 0x4 ADD PUSH2 0x10B8 SWAP1 PUSH2 0x4E73 JUMP JUMPDEST PUSH1 0x1 PUSH1 0x1 PUSH1 0xA0 SHL SUB DUP3 AND PUSH2 0x39DD JUMPI PUSH1 0x40 MLOAD PUSH3 0x461BCD PUSH1 0xE5 SHL DUP2 MSTORE PUSH1 0x4 ADD PUSH2 0x10B8 SWAP1 PUSH2 0x4EB8 JUMP JUMPDEST PUSH1 0x1 PUSH1 0x1 PUSH1 0xA0 SHL SUB DUP4 AND PUSH1 0x0 SWAP1 DUP2 MSTORE PUSH1 0x26 PUSH1 0x20 MSTORE PUSH1 0x40 DUP2 KECCAK256 SLOAD DUP2 SWAP1 DUP2 SWAP1 DUP2 SWAP1 DUP2 SWAP1 PUSH1 0xFF AND PUSH2 0x3A5E JUMPI PUSH1 0x9 SLOAD PUSH1 0x1 PUSH1 0xB0 SHL SWAP1 DIV PUSH1 0xFF AND PUSH2 0x3A5E JUMPI PUSH1 0x40 MLOAD PUSH3 0x461BCD PUSH1 0xE5 SHL DUP2 MSTORE PUSH1 0x20 PUSH1 0x4 DUP3 ADD DUP2 SWAP1 MSTORE PUSH1 0x24 DUP3 ADD MSTORE PUSH32 0x54726164696E6720686173206E6F7420796574206265656E20656E61626C6564 PUSH1 0x44 DUP3 ADD MSTORE PUSH1 0x64 ADD PUSH2 0x10B8 JUMP JUMPDEST DUP6 PUSH1 0x0 SUB PUSH2 0x3A7C JUMPI PUSH2 0x3A72 DUP9 DUP9 PUSH1 0x0 PUSH2 0x37BE JUMP JUMPDEST POP POP POP POP POP POP POP POP JUMP JUMPDEST PUSH1 0x9 SLOAD PUSH1 0x1 PUSH1 0xA0 SHL SWAP1 DIV PUSH1 0xFF AND ISZERO DUP1 ISZERO PUSH2 0x3AAE JUMPI POP PUSH1 0x1 PUSH1 0x1 PUSH1 0xA0 SHL SUB DUP9 AND PUSH1 0x0 SWAP1 DUP2 MSTORE PUSH1 0x20 DUP1 MSTORE PUSH1 0x40 SWAP1 KECCAK256 SLOAD PUSH1 0xFF AND ISZERO JUMPDEST DUP1 ISZERO PUSH2 0x3AD2 JUMPI POP PUSH1 0x1 PUSH1 0x1 PUSH1 0xA0 SHL SUB DUP8 AND PUSH1 0x0 SWAP1 DUP2 MSTORE PUSH1 0x20 DUP1 MSTORE PUSH1 0x40 SWAP1 KECCAK256 SLOAD PUSH1 0xFF AND ISZERO JUMPDEST ISZERO PUSH2 0x426E JUMPI PUSH1 0x1 PUSH1 0x1 PUSH1 0xA0 SHL SUB DUP1 DUP9 AND PUSH1 0x0 SWAP1 DUP2 MSTORE PUSH1 0x22 PUSH1 0x20 MSTORE PUSH1 0x40 DUP1 DUP3 KECCAK256 SLOAD SWAP3 DUP12 AND DUP3 MSTORE SWAP1 KECCAK256 SLOAD PUSH1 0xFF SWAP2 DUP3 AND SWAP2 AND DUP1 ISZERO DUP1 ISZERO PUSH2 0x3B0D JUMPI POP DUP2 ISZERO JUMPDEST ISZERO PUSH2 0x3C53 JUMPI PUSH1 0x0 PUSH2 0x3B2E PUSH1 0x64 PUSH2 0x110B PUSH1 0x1D SLOAD DUP13 PUSH2 0x3183 SWAP1 SWAP2 SWAP1 PUSH4 0xFFFFFFFF AND JUMP JUMPDEST SWAP1 POP PUSH2 0x3B3A DUP10 DUP3 PUSH2 0x3657 JUMP JUMPDEST SWAP9 POP PUSH2 0x3B47 DUP12 ADDRESS DUP4 PUSH2 0x37BE JUMP JUMPDEST PUSH2 0x3B52 DUP12 DUP12 DUP12 PUSH2 0x37BE JUMP JUMPDEST PUSH1 0xE SLOAD PUSH1 0x1 PUSH1 0x1 PUSH1 0xA0 SHL SUB AND PUSH4 0xE30443BC DUP13 PUSH2 0x3B6D DUP2 PUSH2 0x447A JUMP JUMPDEST PUSH1 0x40 MLOAD PUSH1 0x1 PUSH1 0x1 PUSH1 0xE0 SHL SUB NOT PUSH1 0xE0 DUP6 SWAP1 SHL AND DUP2 MSTORE PUSH1 0x1 PUSH1 0x1 PUSH1 0xA0 SHL SUB SWAP1 SWAP3 AND PUSH1 0x4 DUP4 ADD MSTORE PUSH1 0x24 DUP3 ADD MSTORE PUSH1 0x44 ADD PUSH1 0x0 PUSH1 0x40 MLOAD DUP1 DUP4 SUB DUP2 PUSH1 0x0 DUP8 DUP1 EXTCODESIZE ISZERO DUP1 ISZERO PUSH2 0x3BB3 JUMPI PUSH1 0x0 DUP1 REVERT JUMPDEST POP GAS CALL ISZERO DUP1 ISZERO PUSH2 0x3BC7 JUMPI RETURNDATASIZE PUSH1 0x0 DUP1 RETURNDATACOPY RETURNDATASIZE PUSH1 0x0 REVERT JUMPDEST POP POP PUSH1 0xE SLOAD PUSH1 0x1 PUSH1 0x1 PUSH1 0xA0 SHL SUB AND SWAP2 POP PUSH4 0xE30443BC SWAP1 POP DUP12 PUSH2 0x3BE8 DUP2 PUSH2 0x447A JUMP JUMPDEST PUSH1 0x40 MLOAD PUSH1 0x1 PUSH1 0x1 PUSH1 0xE0 SHL SUB NOT PUSH1 0xE0 DUP6 SWAP1 SHL AND DUP2 MSTORE PUSH1 0x1 PUSH1 0x1 PUSH1 0xA0 SHL SUB SWAP1 SWAP3 AND PUSH1 0x4 DUP4 ADD MSTORE PUSH1 0x24 DUP3 ADD MSTORE PUSH1 0x44 ADD PUSH1 0x0 PUSH1 0x40 MLOAD DUP1 DUP4 SUB DUP2 PUSH1 0x0 DUP8 DUP1 EXTCODESIZE ISZERO DUP1 ISZERO PUSH2 0x3C2E JUMPI PUSH1 0x0 DUP1 REVERT JUMPDEST POP GAS CALL ISZERO DUP1 ISZERO PUSH2 0x3C42 JUMPI RETURNDATASIZE PUSH1 0x0 DUP1 RETURNDATACOPY RETURNDATASIZE PUSH1 0x0 REVERT JUMPDEST POP POP POP POP POP POP POP POP POP POP POP POP POP POP POP JUMP JUMPDEST DUP1 ISZERO DUP1 ISZERO PUSH2 0x3C6A JUMPI POP PUSH1 0x9 SLOAD PUSH1 0x1 PUSH1 0xA8 SHL SWAP1 DIV PUSH1 0xFF AND JUMPDEST ISZERO PUSH2 0x3D21 JUMPI PUSH1 0x1 PUSH1 0x1 PUSH1 0xA0 SHL SUB DUP11 AND PUSH1 0x0 SWAP1 DUP2 MSTORE PUSH1 0x24 PUSH1 0x20 MSTORE PUSH1 0x40 SWAP1 KECCAK256 SLOAD TIMESTAMP LT ISZERO PUSH2 0x3CD7 JUMPI PUSH1 0x40 MLOAD PUSH3 0x461BCD PUSH1 0xE5 SHL DUP2 MSTORE PUSH1 0x20 PUSH1 0x4 DUP3 ADD MSTORE PUSH1 0x1D PUSH1 0x24 DUP3 ADD MSTORE PUSH32 0x546F6B656E7320617265207374616B656420616E64206C6F636B656421000000 PUSH1 0x44 DUP3 ADD MSTORE PUSH1 0x64 ADD PUSH2 0x10B8 JUMP JUMPDEST PUSH1 0x1 PUSH1 0x1 PUSH1 0xA0 SHL SUB DUP11 AND PUSH1 0x0 SWAP1 DUP2 MSTORE PUSH1 0x24 PUSH1 0x20 MSTORE PUSH1 0x40 SWAP1 KECCAK256 SLOAD ISZERO PUSH2 0x3D1C JUMPI PUSH1 0x1 PUSH1 0x1 PUSH1 0xA0 SHL SUB DUP11 AND PUSH1 0x0 SWAP1 DUP2 MSTORE PUSH1 0x24 PUSH1 0x20 SWAP1 DUP2 MSTORE PUSH1 0x40 DUP1 DUP4 KECCAK256 DUP4 SWAP1 SSTORE PUSH1 0x23 SWAP1 SWAP2 MSTORE DUP2 KECCAK256 SSTORE JUMPDEST PUSH2 0x3F7A JUMP JUMPDEST DUP2 ISZERO PUSH2 0x3DCA JUMPI PUSH1 0x13 SLOAD PUSH1 0x14 SLOAD PUSH1 0x15 SLOAD PUSH1 0x16 SLOAD PUSH1 0x1C SLOAD PUSH1 0x27 SLOAD SWAP5 SWAP12 POP SWAP3 SWAP10 POP SWAP1 SWAP8 POP SWAP6 POP SWAP4 POP PUSH1 0xFF AND ISZERO PUSH2 0x3D1C JUMPI PUSH1 0x2C SLOAD ORIGIN PUSH1 0x0 SWAP1 DUP2 MSTORE PUSH1 0x2A PUSH1 0x20 MSTORE PUSH1 0x40 SWAP1 KECCAK256 SLOAD PUSH2 0x3D6B SWAP2 SWAP1 PUSH2 0x4D2F JUMP JUMPDEST TIMESTAMP LT ISZERO PUSH2 0x3DB3 JUMPI PUSH1 0x40 MLOAD PUSH3 0x461BCD PUSH1 0xE5 SHL DUP2 MSTORE PUSH1 0x20 PUSH1 0x4 DUP3 ADD MSTORE PUSH1 0x16 PUSH1 0x24 DUP3 ADD MSTORE PUSH22 0x636F6F6C646F776E20706572696F6420616374697665 PUSH1 0x50 SHL PUSH1 0x44 DUP3 ADD MSTORE PUSH1 0x64 ADD PUSH2 0x10B8 JUMP JUMPDEST ORIGIN PUSH1 0x0 SWAP1 DUP2 MSTORE PUSH1 0x2A PUSH1 0x20 MSTORE PUSH1 0x40 SWAP1 KECCAK256 TIMESTAMP SWAP1 SSTORE PUSH2 0x3F7A JUMP JUMPDEST DUP1 ISZERO PUSH2 0x3F7A JUMPI PUSH1 0x1A SLOAD PUSH1 0x17 SLOAD PUSH1 0x18 SLOAD PUSH1 0x19 SLOAD PUSH1 0x1B SLOAD PUSH1 0x27 SLOAD SWAP5 SWAP12 POP SWAP3 SWAP10 POP SWAP1 SWAP8 POP SWAP6 POP SWAP4 POP PUSH1 0xFF AND ISZERO PUSH2 0x3F03 JUMPI PUSH1 0x2B SLOAD PUSH2 0x3E05 SWAP1 PUSH1 0x2 PUSH2 0x4D2F JUMP JUMPDEST NUMBER GT PUSH2 0x3E48 JUMPI PUSH1 0x40 MLOAD PUSH3 0x461BCD PUSH1 0xE5 SHL DUP2 MSTORE PUSH1 0x20 PUSH1 0x4 DUP3 ADD MSTORE PUSH1 0x12 PUSH1 0x24 DUP3 ADD MSTORE PUSH18 0x796F75207368616C6C206E6F742070617373 PUSH1 0x70 SHL PUSH1 0x44 DUP3 ADD MSTORE PUSH1 0x64 ADD PUSH2 0x10B8 JUMP JUMPDEST PUSH1 0x28 SLOAD GASPRICE GT ISZERO PUSH2 0x3E9A JUMPI PUSH1 0x40 MLOAD PUSH3 0x461BCD PUSH1 0xE5 SHL DUP2 MSTORE PUSH1 0x20 PUSH1 0x4 DUP3 ADD MSTORE PUSH1 0x18 PUSH1 0x24 DUP3 ADD MSTORE PUSH32 0x4761732070726963652065786365656473206C696D69742E0000000000000000 PUSH1 0x44 DUP3 ADD MSTORE PUSH1 0x64 ADD PUSH2 0x10B8 JUMP JUMPDEST ORIGIN PUSH1 0x0 SWAP1 DUP2 MSTORE PUSH1 0x29 PUSH1 0x20 MSTORE PUSH1 0x40 SWAP1 KECCAK256 SLOAD NUMBER SWAP1 SUB PUSH2 0x3EF0 JUMPI PUSH1 0x40 MLOAD PUSH3 0x461BCD PUSH1 0xE5 SHL DUP2 MSTORE PUSH1 0x20 PUSH1 0x4 DUP3 ADD MSTORE PUSH1 0x14 PUSH1 0x24 DUP3 ADD MSTORE PUSH20 0x546F6F206D616E7920545820696E20626C6F636B PUSH1 0x60 SHL PUSH1 0x44 DUP3 ADD MSTORE PUSH1 0x64 ADD PUSH2 0x10B8 JUMP JUMPDEST ORIGIN PUSH1 0x0 SWAP1 DUP2 MSTORE PUSH1 0x29 PUSH1 0x20 MSTORE PUSH1 0x40 SWAP1 KECCAK256 NUMBER SWAP1 SSTORE JUMPDEST PUSH1 0x0 PUSH2 0x3F0E DUP11 PUSH2 0x1BE5 JUMP JUMPDEST PUSH1 0x11 SLOAD SWAP1 SWAP2 POP PUSH2 0x3F1E DUP11 DUP4 PUSH2 0x4D2F JUMP JUMPDEST GT ISZERO PUSH2 0x3F78 JUMPI PUSH1 0x40 MLOAD PUSH3 0x461BCD PUSH1 0xE5 SHL DUP2 MSTORE PUSH1 0x20 PUSH1 0x4 DUP3 ADD MSTORE PUSH1 0x24 DUP1 DUP3 ADD MSTORE PUSH32 0x45786365656473206D6178696D756D2077616C6C657420746F6B656E20616D6F PUSH1 0x44 DUP3 ADD MSTORE PUSH4 0x3AB73A17 PUSH1 0xE1 SHL PUSH1 0x64 DUP3 ADD MSTORE PUSH1 0x84 ADD PUSH2 0x10B8 JUMP JUMPDEST POP JUMPDEST PUSH1 0x0 PUSH2 0x3F9B DUP5 PUSH2 0x3F8A DUP9 DUP9 PUSH2 0x4D2F JUMP JUMPDEST PUSH2 0x3F94 SWAP2 SWAP1 PUSH2 0x4D2F JUMP JUMPDEST DUP10 SWAP1 PUSH2 0x311D JUMP JUMPDEST SWAP1 POP PUSH1 0x0 PUSH2 0x3FA8 ADDRESS PUSH2 0x1BE5 JUMP JUMPDEST PUSH1 0x12 SLOAD SWAP1 SWAP2 POP DUP2 LT DUP1 ISZERO SWAP1 DUP2 SWAP1 PUSH2 0x3FD8 JUMPI POP PUSH1 0x1 PUSH1 0x1 PUSH1 0xA0 SHL SUB DUP14 AND PUSH1 0x0 SWAP1 DUP2 MSTORE PUSH1 0x22 PUSH1 0x20 MSTORE PUSH1 0x40 SWAP1 KECCAK256 SLOAD PUSH1 0xFF AND ISZERO JUMPDEST ISZERO PUSH2 0x40F1 JUMPI PUSH1 0x9 DUP1 SLOAD PUSH1 0xFF PUSH1 0xA0 SHL NOT AND PUSH1 0x1 PUSH1 0xA0 SHL OR SWAP1 SSTORE PUSH1 0x1E SLOAD PUSH1 0xFF AND DUP1 ISZERO PUSH2 0x4002 JUMPI POP PUSH1 0x0 DUP8 GT JUMPDEST DUP1 ISZERO PUSH2 0x4010 JUMPI POP PUSH1 0x0 PUSH1 0xD SLOAD GT JUMPDEST ISZERO PUSH2 0x40C2 JUMPI PUSH1 0x0 PUSH2 0x402E PUSH1 0xA SLOAD PUSH1 0xB SLOAD PUSH2 0x311D SWAP1 SWAP2 SWAP1 PUSH4 0xFFFFFFFF AND JUMP JUMPDEST SWAP1 POP PUSH1 0x0 PUSH2 0x404B DUP3 PUSH2 0x110B PUSH1 0xB SLOAD DUP8 PUSH2 0x3183 SWAP1 SWAP2 SWAP1 PUSH4 0xFFFFFFFF AND JUMP JUMPDEST SWAP1 POP PUSH1 0x0 PUSH2 0x4068 DUP4 PUSH2 0x110B PUSH1 0xA SLOAD DUP9 PUSH2 0x3183 SWAP1 SWAP2 SWAP1 PUSH4 0xFFFFFFFF AND JUMP JUMPDEST SWAP1 POP PUSH1 0x0 PUSH2 0x4085 PUSH1 0xD SLOAD PUSH2 0x110B DUP14 DUP7 PUSH2 0x3183 SWAP1 SWAP2 SWAP1 PUSH4 0xFFFFFFFF AND JUMP JUMPDEST SWAP1 POP PUSH1 0x0 PUSH2 0x40A2 PUSH1 0xC SLOAD PUSH2 0x110B DUP15 DUP7 PUSH2 0x3183 SWAP1 SWAP2 SWAP1 PUSH4 0xFFFFFFFF AND JUMP JUMPDEST SWAP1 POP PUSH1 0x0 PUSH2 0x40B0 DUP3 DUP5 PUSH2 0x311D JUMP JUMPDEST SWAP1 POP PUSH2 0x40BB DUP2 PUSH2 0x4653 JUMP JUMPDEST POP POP POP POP POP POP JUMPDEST PUSH1 0x0 PUSH2 0x40CD ADDRESS PUSH2 0x1BE5 JUMP JUMPDEST SWAP1 POP PUSH2 0x40D8 DUP2 PUSH2 0x3247 JUMP JUMPDEST POP PUSH1 0x0 PUSH1 0xB DUP2 SWAP1 SSTORE PUSH1 0xA SSTORE PUSH1 0x9 DUP1 SLOAD PUSH1 0xFF PUSH1 0xA0 SHL NOT AND SWAP1 SSTORE JUMPDEST PUSH1 0x0 PUSH2 0x4102 PUSH1 0x64 PUSH2 0x110B DUP15 DUP8 PUSH2 0x3183 JUMP JUMPDEST SWAP1 POP PUSH1 0x0 DUP11 ISZERO PUSH2 0x4155 JUMPI PUSH1 0x64 PUSH2 0x4118 DUP15 DUP14 PUSH2 0x3183 JUMP JUMPDEST PUSH2 0x4122 SWAP2 SWAP1 PUSH2 0x4D47 JUMP JUMPDEST SWAP1 POP PUSH2 0x4144 DUP16 PUSH1 0x9 PUSH1 0x0 SWAP1 SLOAD SWAP1 PUSH2 0x100 EXP SWAP1 DIV PUSH1 0x1 PUSH1 0x1 PUSH1 0xA0 SHL SUB AND DUP4 PUSH2 0x37BE JUMP JUMPDEST PUSH1 0x2 SLOAD PUSH2 0x4151 SWAP1 DUP3 PUSH2 0x3657 JUMP JUMPDEST PUSH1 0x2 SSTORE JUMPDEST PUSH2 0x4169 PUSH2 0x4162 DUP3 DUP5 PUSH2 0x4D2F JUMP JUMPDEST DUP15 SWAP1 PUSH2 0x3657 JUMP JUMPDEST SWAP13 POP DUP7 ISZERO PUSH2 0x4186 JUMPI PUSH1 0xA SLOAD PUSH2 0x417E SWAP1 DUP4 PUSH2 0x311D JUMP JUMPDEST PUSH1 0xA SSTORE PUSH2 0x4197 JUMP JUMPDEST PUSH1 0xB SLOAD PUSH2 0x4193 SWAP1 DUP4 PUSH2 0x311D JUMP JUMPDEST PUSH1 0xB SSTORE JUMPDEST PUSH2 0x41A2 DUP16 ADDRESS DUP5 PUSH2 0x37BE JUMP JUMPDEST PUSH1 0x1F SLOAD PUSH1 0xE SLOAD PUSH1 0x40 MLOAD PUSH1 0x1 PUSH3 0x4D3B87 PUSH1 0xE0 SHL SUB NOT DUP2 MSTORE PUSH1 0x4 DUP2 ADD DUP4 SWAP1 MSTORE PUSH1 0x1 PUSH1 0x1 PUSH1 0xA0 SHL SUB SWAP1 SWAP2 AND SWAP1 PUSH4 0xFFB2C479 SWAP1 PUSH1 0x24 ADD PUSH1 0x60 PUSH1 0x40 MLOAD DUP1 DUP4 SUB DUP2 PUSH1 0x0 DUP8 GAS CALL SWAP3 POP POP POP DUP1 ISZERO PUSH2 0x420F JUMPI POP PUSH1 0x40 DUP1 MLOAD PUSH1 0x1F RETURNDATASIZE SWAP1 DUP2 ADD PUSH1 0x1F NOT AND DUP3 ADD SWAP1 SWAP3 MSTORE PUSH2 0x420C SWAP2 DUP2 ADD SWAP1 PUSH2 0x4C8F JUMP JUMPDEST PUSH1 0x1 JUMPDEST ISZERO PUSH2 0x4265 JUMPI PUSH1 0x40 DUP1 MLOAD DUP5 DUP2 MSTORE PUSH1 0x20 DUP2 ADD DUP5 SWAP1 MSTORE SWAP1 DUP2 ADD DUP3 SWAP1 MSTORE PUSH1 0x60 DUP2 ADD DUP6 SWAP1 MSTORE ORIGIN SWAP1 PUSH1 0x1 SWAP1 PUSH32 0xC864333D6121033635AB41B29AE52F10A22CF4438C3E4F1C4C68518FEB2F8A98 SWAP1 PUSH1 0x80 ADD PUSH1 0x40 MLOAD DUP1 SWAP2 SUB SWAP1 LOG3 POP POP POP JUMPDEST POP POP POP POP POP POP POP POP JUMPDEST PUSH2 0x4279 DUP9 DUP9 DUP9 PUSH2 0x37BE JUMP JUMPDEST PUSH1 0xE SLOAD PUSH1 0x1 PUSH1 0x1 PUSH1 0xA0 SHL SUB AND PUSH4 0xE30443BC DUP10 PUSH2 0x4294 DUP2 PUSH2 0x447A JUMP JUMPDEST PUSH1 0x40 MLOAD PUSH1 0x1 PUSH1 0x1 PUSH1 0xE0 SHL SUB NOT PUSH1 0xE0 DUP6 SWAP1 SHL AND DUP2 MSTORE PUSH1 0x1 PUSH1 0x1 PUSH1 0xA0 SHL SUB SWAP1 SWAP3 AND PUSH1 0x4 DUP4 ADD MSTORE PUSH1 0x24 DUP3 ADD MSTORE PUSH1 0x44 ADD PUSH1 0x0 PUSH1 0x40 MLOAD DUP1 DUP4 SUB DUP2 PUSH1 0x0 DUP8 DUP1 EXTCODESIZE ISZERO DUP1 ISZERO PUSH2 0x42DA JUMPI PUSH1 0x0 DUP1 REVERT JUMPDEST POP GAS CALL ISZERO DUP1 ISZERO PUSH2 0x42EE JUMPI RETURNDATASIZE PUSH1 0x0 DUP1 RETURNDATACOPY RETURNDATASIZE PUSH1 0x0 REVERT JUMPDEST POP POP PUSH1 0xE SLOAD PUSH1 0x1 PUSH1 0x1 PUSH1 0xA0 SHL SUB AND SWAP2 POP PUSH4 0xE30443BC SWAP1 POP DUP9 PUSH2 0x430F DUP2 PUSH2 0x447A JUMP JUMPDEST PUSH1 0x40 MLOAD PUSH1 0x1 PUSH1 0x1 PUSH1 0xE0 SHL SUB NOT PUSH1 0xE0 DUP6 SWAP1 SHL AND DUP2 MSTORE PUSH1 0x1 PUSH1 0x1 PUSH1 0xA0 SHL SUB SWAP1 SWAP3 AND PUSH1 0x4 DUP4 ADD MSTORE PUSH1 0x24 DUP3 ADD MSTORE PUSH1 0x44 ADD PUSH1 0x0 PUSH1 0x40 MLOAD DUP1 DUP4 SUB DUP2 PUSH1 0x0 DUP8 DUP1 EXTCODESIZE ISZERO DUP1 ISZERO PUSH2 0x4355 JUMPI PUSH1 0x0 DUP1 REVERT JUMPDEST POP GAS CALL ISZERO DUP1 ISZERO PUSH2 0x4369 JUMPI RETURNDATASIZE PUSH1 0x0 DUP1 RETURNDATACOPY RETURNDATASIZE PUSH1 0x0 REVERT JUMPDEST POP POP POP POP POP POP POP POP POP POP POP POP JUMP JUMPDEST PUSH1 0x0 DUP2 DUP5 DUP5 GT ISZERO PUSH2 0x439B JUMPI PUSH1 0x40 MLOAD PUSH3 0x461BCD PUSH1 0xE5 SHL DUP2 MSTORE PUSH1 0x4 ADD PUSH2 0x10B8 SWAP2 SWAP1 PUSH2 0x47C1 JUMP JUMPDEST POP PUSH1 0x0 PUSH2 0x43A8 DUP5 DUP7 PUSH2 0x4EFB JUMP JUMPDEST SWAP6 SWAP5 POP POP POP POP POP JUMP JUMPDEST PUSH1 0x1 PUSH1 0x1 PUSH1 0xA0 SHL SUB DUP3 AND PUSH1 0x0 SWAP1 DUP2 MSTORE PUSH1 0x22 PUSH1 0x20 MSTORE PUSH1 0x40 SWAP1 KECCAK256 DUP1 SLOAD PUSH1 0xFF NOT AND DUP3 ISZERO DUP1 ISZERO SWAP2 SWAP1 SWAP2 OR SWAP1 SWAP2 SSTORE PUSH2 0x443E JUMPI PUSH1 0xE SLOAD PUSH1 0x40 MLOAD PUSH4 0x31E79DB PUSH1 0xE4 SHL DUP2 MSTORE PUSH1 0x1 PUSH1 0x1 PUSH1 0xA0 SHL SUB DUP5 DUP2 AND PUSH1 0x4 DUP4 ADD MSTORE SWAP1 SWAP2 AND SWAP1 PUSH4 0x31E79DB0 SWAP1 PUSH1 0x24 ADD PUSH1 0x0 PUSH1 0x40 MLOAD DUP1 DUP4 SUB DUP2 PUSH1 0x0 DUP8 DUP1 EXTCODESIZE ISZERO DUP1 ISZERO PUSH2 0x4425 JUMPI PUSH1 0x0 DUP1 REVERT JUMPDEST POP GAS CALL ISZERO DUP1 ISZERO PUSH2 0x4439 JUMPI RETURNDATASIZE PUSH1 0x0 DUP1 RETURNDATACOPY RETURNDATASIZE PUSH1 0x0 REVERT JUMPDEST POP POP POP POP JUMPDEST PUSH1 0x40 MLOAD DUP2 ISZERO ISZERO SWAP1 PUSH1 0x1 PUSH1 0x1 PUSH1 0xA0 SHL SUB DUP5 AND SWAP1 PUSH32 0xFFA9187BF1F18BF477BD0EA1BCBB64E93B6A98132473929EDFCE215CD9B16FAB SWAP1 PUSH1 0x0 SWAP1 LOG3 POP POP JUMP JUMPDEST PUSH1 0x9 SLOAD PUSH1 0x0 SWAP1 PUSH1 0x1 PUSH1 0xA8 SHL SWAP1 DIV PUSH1 0xFF AND PUSH2 0x449C JUMPI PUSH2 0x4497 DUP3 PUSH2 0x1BE5 JUMP JUMPDEST PUSH2 0x1318 JUMP JUMPDEST PUSH1 0x1 PUSH1 0x1 PUSH1 0xA0 SHL SUB DUP3 AND PUSH1 0x0 SWAP1 DUP2 MSTORE PUSH1 0x23 PUSH1 0x20 MSTORE PUSH1 0x40 SWAP1 KECCAK256 SLOAD PUSH2 0x1318 SWAP1 PUSH1 0x64 SWAP1 PUSH2 0x110B SWAP1 PUSH2 0x44CA SWAP1 DUP4 PUSH2 0x311D JUMP JUMPDEST PUSH2 0x32CC DUP7 PUSH2 0x1BE5 JUMP JUMPDEST PUSH1 0x0 DUP2 DUP4 PUSH2 0x44F4 JUMPI PUSH1 0x40 MLOAD PUSH3 0x461BCD PUSH1 0xE5 SHL DUP2 MSTORE PUSH1 0x4 ADD PUSH2 0x10B8 SWAP2 SWAP1 PUSH2 0x47C1 JUMP JUMPDEST POP PUSH1 0x0 PUSH2 0x43A8 DUP5 DUP7 PUSH2 0x4D47 JUMP JUMPDEST PUSH1 0x40 DUP1 MLOAD PUSH1 0x2 DUP1 DUP3 MSTORE PUSH1 0x60 DUP3 ADD DUP4 MSTORE PUSH1 0x0 SWAP3 PUSH1 0x20 DUP4 ADD SWAP1 DUP1 CALLDATASIZE DUP4 CALLDATACOPY ADD SWAP1 POP POP SWAP1 POP ADDRESS DUP2 PUSH1 0x0 DUP2 MLOAD DUP2 LT PUSH2 0x4536 JUMPI PUSH2 0x4536 PUSH2 0x4C0D JUMP JUMPDEST PUSH1 0x1 PUSH1 0x1 PUSH1 0xA0 SHL SUB SWAP3 DUP4 AND PUSH1 0x20 SWAP2 DUP3 MUL SWAP3 SWAP1 SWAP3 ADD DUP2 ADD SWAP2 SWAP1 SWAP2 MSTORE PUSH1 0x6 SLOAD PUSH1 0x40 DUP1 MLOAD PUSH4 0x15AB88C9 PUSH1 0xE3 SHL DUP2 MSTORE SWAP1 MLOAD SWAP2 SWAP1 SWAP4 AND SWAP3 PUSH4 0xAD5C4648 SWAP3 PUSH1 0x4 DUP1 DUP4 ADD SWAP4 SWAP2 SWAP3 DUP3 SWAP1 SUB ADD DUP2 DUP7 GAS STATICCALL ISZERO DUP1 ISZERO PUSH2 0x458F JUMPI RETURNDATASIZE PUSH1 0x0 DUP1 RETURNDATACOPY RETURNDATASIZE PUSH1 0x0 REVERT JUMPDEST POP POP POP POP PUSH1 0x40 MLOAD RETURNDATASIZE PUSH1 0x1F NOT PUSH1 0x1F DUP3 ADD AND DUP3 ADD DUP1 PUSH1 0x40 MSTORE POP DUP2 ADD SWAP1 PUSH2 0x45B3 SWAP2 SWAP1 PUSH2 0x4C3C JUMP JUMPDEST DUP2 PUSH1 0x1 DUP2 MLOAD DUP2 LT PUSH2 0x45C6 JUMPI PUSH2 0x45C6 PUSH2 0x4C0D JUMP JUMPDEST PUSH1 0x1 PUSH1 0x1 PUSH1 0xA0 SHL SUB SWAP3 DUP4 AND PUSH1 0x20 SWAP2 DUP3 MUL SWAP3 SWAP1 SWAP3 ADD ADD MSTORE PUSH1 0x6 SLOAD PUSH2 0x45EC SWAP2 ADDRESS SWAP2 AND DUP5 PUSH2 0x3699 JUMP JUMPDEST PUSH1 0x6 SLOAD PUSH1 0x40 MLOAD PUSH4 0x791AC947 PUSH1 0xE0 SHL DUP2 MSTORE PUSH1 0x1 PUSH1 0x1 PUSH1 0xA0 SHL SUB SWAP1 SWAP2 AND SWAP1 PUSH4 0x791AC947 SWAP1 PUSH2 0x4625 SWAP1 DUP6 SWAP1 PUSH1 0x0 SWAP1 DUP7 SWAP1 ADDRESS SWAP1 TIMESTAMP SWAP1 PUSH1 0x4 ADD PUSH2 0x4F12 JUMP JUMPDEST PUSH1 0x0 PUSH1 0x40 MLOAD DUP1 DUP4 SUB DUP2 PUSH1 0x0 DUP8 DUP1 EXTCODESIZE ISZERO DUP1 ISZERO PUSH2 0x463F JUMPI PUSH1 0x0 DUP1 REVERT JUMPDEST POP GAS CALL ISZERO DUP1 ISZERO PUSH2 0x2C2B JUMPI RETURNDATASIZE PUSH1 0x0 DUP1 RETURNDATACOPY RETURNDATASIZE PUSH1 0x0 REVERT JUMPDEST PUSH1 0x0 PUSH2 0x4660 DUP3 PUSH1 0x2 PUSH2 0x3205 JUMP JUMPDEST SWAP1 POP PUSH1 0x0 PUSH2 0x466E DUP4 DUP4 PUSH2 0x3657 JUMP JUMPDEST SWAP1 POP SELFBALANCE PUSH2 0x467A DUP4 PUSH2 0x4501 JUMP JUMPDEST PUSH1 0x0 PUSH2 0x4686 SELFBALANCE DUP4 PUSH2 0x3657 JUMP JUMPDEST SWAP1 POP PUSH2 0x4692 DUP4 DUP3 PUSH2 0x46DA JUMP JUMPDEST PUSH1 0x40 DUP1 MLOAD DUP6 DUP2 MSTORE PUSH1 0x20 DUP2 ADD DUP4 SWAP1 MSTORE SWAP1 DUP2 ADD DUP5 SWAP1 MSTORE PUSH32 0x17BBFB9A6069321B6DED73BD96327C9E6B7212A5CD51FF219CD61370ACAFB561 SWAP1 PUSH1 0x60 ADD PUSH1 0x40 MLOAD DUP1 SWAP2 SUB SWAP1 LOG1 POP POP POP POP POP JUMP JUMPDEST PUSH1 0x6 SLOAD PUSH2 0x46F2 SWAP1 ADDRESS SWAP1 PUSH1 0x1 PUSH1 0x1 PUSH1 0xA0 SHL SUB AND DUP5 PUSH2 0x3699 JUMP JUMPDEST PUSH1 0x6 SLOAD PUSH1 0x1 PUSH1 0x1 PUSH1 0xA0 SHL SUB AND PUSH4 0xF305D719 DUP3 ADDRESS DUP6 PUSH1 0x0 DUP1 PUSH2 0x471B PUSH1 0x5 SLOAD PUSH1 0x1 PUSH1 0x1 PUSH1 0xA0 SHL SUB AND SWAP1 JUMP JUMPDEST PUSH1 0x40 MLOAD PUSH1 0xE0 DUP9 SWAP1 SHL PUSH1 0x1 PUSH1 0x1 PUSH1 0xE0 SHL SUB NOT AND DUP2 MSTORE PUSH1 0x1 PUSH1 0x1 PUSH1 0xA0 SHL SUB SWAP6 DUP7 AND PUSH1 0x4 DUP3 ADD MSTORE PUSH1 0x24 DUP2 ADD SWAP5 SWAP1 SWAP5 MSTORE PUSH1 0x44 DUP5 ADD SWAP3 SWAP1 SWAP3 MSTORE PUSH1 0x64 DUP4 ADD MSTORE SWAP1 SWAP2 AND PUSH1 0x84 DUP3 ADD MSTORE TIMESTAMP PUSH1 0xA4 DUP3 ADD MSTORE PUSH1 0xC4 ADD PUSH1 0x60 PUSH1 0x40 MLOAD DUP1 DUP4 SUB DUP2 DUP6 DUP9 GAS CALL ISZERO DUP1 ISZERO PUSH2 0x4783 JUMPI RETURNDATASIZE PUSH1 0x0 DUP1 RETURNDATACOPY RETURNDATASIZE PUSH1 0x0 REVERT JUMPDEST POP POP POP POP POP PUSH1 0x40 MLOAD RETURNDATASIZE PUSH1 0x1F NOT PUSH1 0x1F DUP3 ADD AND DUP3 ADD DUP1 PUSH1 0x40 MSTORE POP DUP2 ADD SWAP1 PUSH2 0x17A4 SWAP2 SWAP1 PUSH2 0x4C8F JUMP JUMPDEST PUSH1 0x0 PUSH1 0x20 DUP3 DUP5 SUB SLT ISZERO PUSH2 0x47BA JUMPI PUSH1 0x0 DUP1 REVERT JUMPDEST POP CALLDATALOAD SWAP2 SWAP1 POP JUMP JUMPDEST PUSH1 0x0 PUSH1 0x20 DUP1 DUP4 MSTORE DUP4 MLOAD DUP1 DUP3 DUP6 ADD MSTORE PUSH1 0x0 JUMPDEST DUP2 DUP2 LT ISZERO PUSH2 0x47EE JUMPI DUP6 DUP2 ADD DUP4 ADD MLOAD DUP6 DUP3 ADD PUSH1 0x40 ADD MSTORE DUP3 ADD PUSH2 0x47D2 JUMP JUMPDEST DUP2 DUP2 GT ISZERO PUSH2 0x4800 JUMPI PUSH1 0x0 PUSH1 0x40 DUP4 DUP8 ADD ADD MSTORE JUMPDEST POP PUSH1 0x1F ADD PUSH1 0x1F NOT AND SWAP3 SWAP1 SWAP3 ADD PUSH1 0x40 ADD SWAP4 SWAP3 POP POP POP JUMP JUMPDEST PUSH1 0x1 PUSH1 0x1 PUSH1 0xA0 SHL SUB DUP2 AND DUP2 EQ PUSH2 0x18B1 JUMPI PUSH1 0x0 DUP1 REVERT JUMPDEST DUP1 ISZERO ISZERO DUP2 EQ PUSH2 0x18B1 JUMPI PUSH1 0x0 DUP1 REVERT JUMPDEST PUSH1 0x0 DUP1 PUSH1 0x40 DUP4 DUP6 SUB SLT ISZERO PUSH2 0x484C JUMPI PUSH1 0x0 DUP1 REVERT JUMPDEST DUP3 CALLDATALOAD PUSH2 0x4857 DUP2 PUSH2 0x4816 JUMP JUMPDEST SWAP2 POP PUSH1 0x20 DUP4 ADD CALLDATALOAD PUSH2 0x4867 DUP2 PUSH2 0x482B JUMP JUMPDEST DUP1 SWAP2 POP POP SWAP3 POP SWAP3 SWAP1 POP JUMP JUMPDEST PUSH1 0x0 DUP1 PUSH1 0x40 DUP4 DUP6 SUB SLT ISZERO PUSH2 0x4885 JUMPI PUSH1 0x0 DUP1 REVERT JUMPDEST DUP3 CALLDATALOAD PUSH2 0x4890 DUP2 PUSH2 0x4816 JUMP JUMPDEST SWAP5 PUSH1 0x20 SWAP4 SWAP1 SWAP4 ADD CALLDATALOAD SWAP4 POP POP POP JUMP JUMPDEST PUSH1 0x0 DUP1 PUSH1 0x40 DUP4 DUP6 SUB SLT ISZERO PUSH2 0x48B1 JUMPI PUSH1 0x0 DUP1 REVERT JUMPDEST POP POP DUP1 CALLDATALOAD SWAP3 PUSH1 0x20 SWAP1 SWAP2 ADD CALLDATALOAD SWAP2 POP JUMP JUMPDEST PUSH4 0x4E487B71 PUSH1 0xE0 SHL PUSH1 0x0 MSTORE PUSH1 0x41 PUSH1 0x4 MSTORE PUSH1 0x24 PUSH1 0x0 REVERT JUMPDEST PUSH1 0x40 MLOAD PUSH1 0x1F DUP3 ADD PUSH1 0x1F NOT AND DUP2 ADD PUSH8 0xFFFFFFFFFFFFFFFF DUP2 GT DUP3 DUP3 LT OR ISZERO PUSH2 0x48FF JUMPI PUSH2 0x48FF PUSH2 0x48C0 JUMP JUMPDEST PUSH1 0x40 MSTORE SWAP2 SWAP1 POP JUMP JUMPDEST PUSH1 0x0 PUSH8 0xFFFFFFFFFFFFFFFF DUP3 GT ISZERO PUSH2 0x4921 JUMPI PUSH2 0x4921 PUSH2 0x48C0 JUMP JUMPDEST POP PUSH1 0x5 SHL PUSH1 0x20 ADD SWAP1 JUMP JUMPDEST PUSH1 0x0 DUP3 PUSH1 0x1F DUP4 ADD SLT PUSH2 0x493C JUMPI PUSH1 0x0 DUP1 REVERT JUMPDEST DUP2 CALLDATALOAD PUSH1 0x20 PUSH2 0x4951 PUSH2 0x494C DUP4 PUSH2 0x4907 JUMP JUMPDEST PUSH2 0x48D6 JUMP JUMPDEST DUP3 DUP2 MSTORE PUSH1 0x5 SWAP3 SWAP1 SWAP3 SHL DUP5 ADD DUP2 ADD SWAP2 DUP2 DUP2 ADD SWAP1 DUP7 DUP5 GT ISZERO PUSH2 0x4970 JUMPI PUSH1 0x0 DUP1 REVERT JUMPDEST DUP3 DUP7 ADD JUMPDEST DUP5 DUP2 LT ISZERO PUSH2 0x498B JUMPI DUP1 CALLDATALOAD DUP4 MSTORE SWAP2 DUP4 ADD SWAP2 DUP4 ADD PUSH2 0x4974 JUMP JUMPDEST POP SWAP7 SWAP6 POP POP POP POP POP POP JUMP JUMPDEST PUSH1 0x0 DUP1 PUSH1 0x40 DUP4 DUP6 SUB SLT ISZERO PUSH2 0x49A9 JUMPI PUSH1 0x0 DUP1 REVERT JUMPDEST DUP3 CALLDATALOAD PUSH8 0xFFFFFFFFFFFFFFFF DUP1 DUP3 GT ISZERO PUSH2 0x49C1 JUMPI PUSH1 0x0 DUP1 REVERT JUMPDEST DUP2 DUP6 ADD SWAP2 POP DUP6 PUSH1 0x1F DUP4 ADD SLT PUSH2 0x49D5 JUMPI PUSH1 0x0 DUP1 REVERT JUMPDEST DUP2 CALLDATALOAD PUSH1 0x20 PUSH2 0x49E5 PUSH2 0x494C DUP4 PUSH2 0x4907 JUMP JUMPDEST DUP3 DUP2 MSTORE PUSH1 0x5 SWAP3 SWAP1 SWAP3 SHL DUP5 ADD DUP2 ADD SWAP2 DUP2 DUP2 ADD SWAP1 DUP10 DUP5 GT ISZERO PUSH2 0x4A04 JUMPI PUSH1 0x0 DUP1 REVERT JUMPDEST SWAP5 DUP3 ADD SWAP5 JUMPDEST DUP4 DUP7 LT ISZERO PUSH2 0x4A2B JUMPI DUP6 CALLDATALOAD PUSH2 0x4A1C DUP2 PUSH2 0x4816 JUMP JUMPDEST DUP3 MSTORE SWAP5 DUP3 ADD SWAP5 SWAP1 DUP3 ADD SWAP1 PUSH2 0x4A09 JUMP JUMPDEST SWAP7 POP POP DUP7 ADD CALLDATALOAD SWAP3 POP POP DUP1 DUP3 GT ISZERO PUSH2 0x4A41 JUMPI PUSH1 0x0 DUP1 REVERT JUMPDEST POP PUSH2 0x4A4E DUP6 DUP3 DUP7 ADD PUSH2 0x492B JUMP JUMPDEST SWAP2 POP POP SWAP3 POP SWAP3 SWAP1 POP JUMP JUMPDEST PUSH1 0x0 DUP1 PUSH1 0x0 PUSH1 0x60 DUP5 DUP7 SUB SLT ISZERO PUSH2 0x4A6D JUMPI PUSH1 0x0 DUP1 REVERT JUMPDEST DUP4 CALLDATALOAD PUSH2 0x4A78 DUP2 PUSH2 0x4816 JUMP JUMPDEST SWAP3 POP PUSH1 0x20 DUP5 ADD CALLDATALOAD PUSH2 0x4A88 DUP2 PUSH2 0x4816 JUMP JUMPDEST SWAP3 SWAP6 SWAP3 SWAP5 POP POP POP PUSH1 0x40 SWAP2 SWAP1 SWAP2 ADD CALLDATALOAD SWAP1 JUMP JUMPDEST PUSH1 0x0 PUSH1 0x20 DUP3 DUP5 SUB SLT ISZERO PUSH2 0x4AAB JUMPI PUSH1 0x0 DUP1 REVERT JUMPDEST DUP2 CALLDATALOAD PUSH2 0x317C DUP2 PUSH2 0x482B JUMP JUMPDEST PUSH1 0x0 PUSH1 0x20 DUP3 DUP5 SUB SLT ISZERO PUSH2 0x4AC8 JUMPI PUSH1 0x0 DUP1 REVERT JUMPDEST DUP2 CALLDATALOAD PUSH2 0x317C DUP2 PUSH2 0x4816 JUMP JUMPDEST PUSH1 0x0 DUP1 PUSH1 0x0 DUP1 PUSH1 0x0 DUP1 PUSH1 0x0 DUP1 PUSH1 0x0 DUP1 PUSH2 0x140 DUP12 DUP14 SUB SLT ISZERO PUSH2 0x4AF3 JUMPI PUSH1 0x0 DUP1 REVERT JUMPDEST POP POP DUP9 CALLDATALOAD SWAP11 PUSH1 0x20 DUP11 ADD CALLDATALOAD SWAP11 POP PUSH1 0x40 DUP11 ADD CALLDATALOAD SWAP10 PUSH1 0x60 DUP2 ADD CALLDATALOAD SWAP10 POP PUSH1 0x80 DUP2 ADD CALLDATALOAD SWAP9 POP PUSH1 0xA0 DUP2 ADD CALLDATALOAD SWAP8 POP PUSH1 0xC0 DUP2 ADD CALLDATALOAD SWAP7 POP PUSH1 0xE0 DUP2 ADD CALLDATALOAD SWAP6 POP PUSH2 0x100 DUP2 ADD CALLDATALOAD SWAP5 POP PUSH2 0x120 ADD CALLDATALOAD SWAP3 POP SWAP1 POP JUMP JUMPDEST PUSH1 0x0 DUP1 PUSH1 0x40 DUP4 DUP6 SUB SLT ISZERO PUSH2 0x4B4E JUMPI PUSH1 0x0 DUP1 REVERT JUMPDEST DUP3 CALLDATALOAD PUSH2 0x4B59 DUP2 PUSH2 0x4816 JUMP JUMPDEST SWAP2 POP PUSH1 0x20 DUP4 ADD CALLDATALOAD PUSH2 0x4867 DUP2 PUSH2 0x4816 JUMP JUMPDEST PUSH1 0x20 DUP1 DUP3 MSTORE DUP2 DUP2 ADD MSTORE PUSH32 0x4F776E61626C653A2063616C6C6572206973206E6F7420746865206F776E6572 PUSH1 0x40 DUP3 ADD MSTORE PUSH1 0x60 ADD SWAP1 JUMP JUMPDEST PUSH4 0x4E487B71 PUSH1 0xE0 SHL PUSH1 0x0 MSTORE PUSH1 0x11 PUSH1 0x4 MSTORE PUSH1 0x24 PUSH1 0x0 REVERT JUMPDEST PUSH1 0x0 DUP2 PUSH1 0x0 NOT DIV DUP4 GT DUP3 ISZERO ISZERO AND ISZERO PUSH2 0x4BCE JUMPI PUSH2 0x4BCE PUSH2 0x4B9E JUMP JUMPDEST POP MUL SWAP1 JUMP JUMPDEST PUSH1 0x1 DUP2 DUP2 SHR SWAP1 DUP3 AND DUP1 PUSH2 0x4BE7 JUMPI PUSH1 0x7F DUP3 AND SWAP2 POP JUMPDEST PUSH1 0x20 DUP3 LT DUP2 SUB PUSH2 0x4C07 JUMPI PUSH4 0x4E487B71 PUSH1 0xE0 SHL PUSH1 0x0 MSTORE PUSH1 0x22 PUSH1 0x4 MSTORE PUSH1 0x24 PUSH1 0x0 REVERT JUMPDEST POP SWAP2 SWAP1 POP JUMP JUMPDEST PUSH4 0x4E487B71 PUSH1 0xE0 SHL PUSH1 0x0 MSTORE PUSH1 0x32 PUSH1 0x4 MSTORE PUSH1 0x24 PUSH1 0x0 REVERT JUMPDEST PUSH1 0x0 PUSH1 0x1 DUP3 ADD PUSH2 0x4C35 JUMPI PUSH2 0x4C35 PUSH2 0x4B9E JUMP JUMPDEST POP PUSH1 0x1 ADD SWAP1 JUMP JUMPDEST PUSH1 0x0 PUSH1 0x20 DUP3 DUP5 SUB SLT ISZERO PUSH2 0x4C4E JUMPI PUSH1 0x0 DUP1 REVERT JUMPDEST DUP2 MLOAD PUSH2 0x317C DUP2 PUSH2 0x4816 JUMP JUMPDEST PUSH1 0x0 PUSH1 0x20 DUP3 DUP5 SUB SLT ISZERO PUSH2 0x4C6B JUMPI PUSH1 0x0 DUP1 REVERT JUMPDEST POP MLOAD SWAP2 SWAP1 POP JUMP JUMPDEST PUSH1 0x0 PUSH1 0x20 DUP3 DUP5 SUB SLT ISZERO PUSH2 0x4C84 JUMPI PUSH1 0x0 DUP1 REVERT JUMPDEST DUP2 MLOAD PUSH2 0x317C DUP2 PUSH2 0x482B JUMP JUMPDEST PUSH1 0x0 DUP1 PUSH1 0x0 PUSH1 0x60 DUP5 DUP7 SUB SLT ISZERO PUSH2 0x4CA4 JUMPI PUSH1 0x0 DUP1 REVERT JUMPDEST DUP4 MLOAD SWAP3 POP PUSH1 0x20 DUP5 ADD MLOAD SWAP2 POP PUSH1 0x40 DUP5 ADD MLOAD SWAP1 POP SWAP3 POP SWAP3 POP SWAP3 JUMP JUMPDEST PUSH1 0x0 DUP1 PUSH1 0x0 DUP1 PUSH1 0x0 DUP1 PUSH1 0xC0 DUP8 DUP10 SUB SLT ISZERO PUSH2 0x4CD6 JUMPI PUSH1 0x0 DUP1 REVERT JUMPDEST DUP7 MLOAD PUSH2 0x4CE1 DUP2 PUSH2 0x4816 JUMP JUMPDEST PUSH1 0x20 DUP9 ADD MLOAD PUSH1 0x40 DUP10 ADD MLOAD PUSH1 0x60 DUP11 ADD MLOAD PUSH1 0x80 DUP12 ADD MLOAD PUSH1 0xA0 SWAP1 SWAP12 ADD MLOAD SWAP4 SWAP13 SWAP3 SWAP12 POP SWAP1 SWAP10 SWAP1 SWAP9 POP SWAP7 POP SWAP1 SWAP5 POP SWAP3 POP POP POP JUMP JUMPDEST PUSH1 0x0 PUSH1 0xFF DUP3 AND PUSH1 0xFF DUP2 SUB PUSH2 0x4D26 JUMPI PUSH2 0x4D26 PUSH2 0x4B9E JUMP JUMPDEST PUSH1 0x1 ADD SWAP3 SWAP2 POP POP JUMP JUMPDEST PUSH1 0x0 DUP3 NOT DUP3 GT ISZERO PUSH2 0x4D42 JUMPI PUSH2 0x4D42 PUSH2 0x4B9E JUMP JUMPDEST POP ADD SWAP1 JUMP JUMPDEST PUSH1 0x0 DUP3 PUSH2 0x4D64 JUMPI PUSH4 0x4E487B71 PUSH1 0xE0 SHL PUSH1 0x0 MSTORE PUSH1 0x12 PUSH1 0x4 MSTORE PUSH1 0x24 PUSH1 0x0 REVERT JUMPDEST POP DIV SWAP1 JUMP JUMPDEST PUSH1 0x0 DUP2 MLOAD DUP1 DUP5 MSTORE PUSH1 0x20 DUP1 DUP6 ADD SWAP5 POP DUP1 DUP5 ADD PUSH1 0x0 JUMPDEST DUP4 DUP2 LT ISZERO PUSH2 0x4DA2 JUMPI DUP2 MLOAD PUSH1 0x1 PUSH1 0x1 PUSH1 0xA0 SHL SUB AND DUP8 MSTORE SWAP6 DUP3 ADD SWAP6 SWAP1 DUP3 ADD SWAP1 PUSH1 0x1 ADD PUSH2 0x4D7D JUMP JUMPDEST POP SWAP5 SWAP6 SWAP5 POP POP POP POP POP JUMP JUMPDEST DUP5 DUP2 MSTORE PUSH1 0x80 PUSH1 0x20 DUP3 ADD MSTORE PUSH1 0x0 PUSH2 0x4DC6 PUSH1 0x80 DUP4 ADD DUP7 PUSH2 0x4D69 JUMP JUMPDEST PUSH1 0x1 PUSH1 0x1 PUSH1 0xA0 SHL SUB SWAP5 SWAP1 SWAP5 AND PUSH1 0x40 DUP4 ADD MSTORE POP PUSH1 0x60 ADD MSTORE SWAP3 SWAP2 POP POP JUMP JUMPDEST PUSH1 0x0 PUSH1 0x20 DUP1 DUP4 DUP6 SUB SLT ISZERO PUSH2 0x4DF5 JUMPI PUSH1 0x0 DUP1 REVERT JUMPDEST DUP3 MLOAD PUSH8 0xFFFFFFFFFFFFFFFF DUP2 GT ISZERO PUSH2 0x4E0C JUMPI PUSH1 0x0 DUP1 REVERT JUMPDEST DUP4 ADD PUSH1 0x1F DUP2 ADD DUP6 SGT PUSH2 0x4E1D JUMPI PUSH1 0x0 DUP1 REVERT JUMPDEST DUP1 MLOAD PUSH2 0x4E2B PUSH2 0x494C DUP3 PUSH2 0x4907 JUMP JUMPDEST DUP2 DUP2 MSTORE PUSH1 0x5 SWAP2 SWAP1 SWAP2 SHL DUP3 ADD DUP4 ADD SWAP1 DUP4 DUP2 ADD SWAP1 DUP8 DUP4 GT ISZERO PUSH2 0x4E4A JUMPI PUSH1 0x0 DUP1 REVERT JUMPDEST SWAP3 DUP5 ADD SWAP3 JUMPDEST DUP3 DUP5 LT ISZERO PUSH2 0x4E68 JUMPI DUP4 MLOAD DUP3 MSTORE SWAP3 DUP5 ADD SWAP3 SWAP1 DUP5 ADD SWAP1 PUSH2 0x4E4F JUMP JUMPDEST SWAP8 SWAP7 POP POP POP POP POP POP POP JUMP JUMPDEST PUSH1 0x20 DUP1 DUP3 MSTORE PUSH1 0x25 SWAP1 DUP3 ADD MSTORE PUSH32 0x45524332303A207472616E736665722066726F6D20746865207A65726F206164 PUSH1 0x40 DUP3 ADD MSTORE PUSH5 0x6472657373 PUSH1 0xD8 SHL PUSH1 0x60 DUP3 ADD MSTORE PUSH1 0x80 ADD SWAP1 JUMP JUMPDEST PUSH1 0x20 DUP1 DUP3 MSTORE PUSH1 0x23 SWAP1 DUP3 ADD MSTORE PUSH32 0x45524332303A207472616E7366657220746F20746865207A65726F2061646472 PUSH1 0x40 DUP3 ADD MSTORE PUSH3 0x657373 PUSH1 0xE8 SHL PUSH1 0x60 DUP3 ADD MSTORE PUSH1 0x80 ADD SWAP1 JUMP JUMPDEST PUSH1 0x0 DUP3 DUP3 LT ISZERO PUSH2 0x4F0D JUMPI PUSH2 0x4F0D PUSH2 0x4B9E JUMP JUMPDEST POP SUB SWAP1 JUMP JUMPDEST DUP6 DUP2 MSTORE DUP5 PUSH1 0x20 DUP3 ADD MSTORE PUSH1 0xA0 PUSH1 0x40 DUP3 ADD MSTORE PUSH1 0x0 PUSH2 0x4F31 PUSH1 0xA0 DUP4 ADD DUP7 PUSH2 0x4D69 JUMP JUMPDEST PUSH1 0x1 PUSH1 0x1 PUSH1 0xA0 SHL SUB SWAP5 SWAP1 SWAP5 AND PUSH1 0x60 DUP4 ADD MSTORE POP PUSH1 0x80 ADD MSTORE SWAP4 SWAP3 POP POP POP JUMP INVALID GASLIMIT MSTORE NUMBER ORIGIN ADDRESS GASPRICE KECCAK256 PUSH21 0x72616E7366657220616D6F756E7420657863656564 PUSH20 0x2062616C616E636545524332303A207472616E73 PUSH7 0x657220616D6F75 PUSH15 0x74206578636565647320616C6C6F77 PUSH2 0x6E63 PUSH6 0x45524332303A KECCAK256 PUSH5 0x6563726561 PUSH20 0x656420616C6C6F77616E63652062656C6F77207A PUSH6 0x726FA2646970 PUSH7 0x73582212204A00 0xF8 GT 0x23 0xCD DUP7 SDIV CALLER 0xD9 DUP12 PUSH20 0x2DD3E2C83E3FBC2BF5F81417CDDB1EA151844057 PUSH5 0x736F6C6343 STOP ADDMOD 0xF STOP CALLER PUSH1 0x80 PUSH1 0x40 MSTORE PUSH1 0x12 DUP1 SLOAD PUSH1 0xFF PUSH1 0xB0 SHL NOT AND SWAP1 SSTORE CALLVALUE DUP1 ISZERO PUSH3 0x1E JUMPI PUSH1 0x0 DUP1 REVERT JUMPDEST POP PUSH1 0x40 MLOAD PUSH3 0x30E7 CODESIZE SUB DUP1 PUSH3 0x30E7 DUP4 CODECOPY DUP2 ADD PUSH1 0x40 DUP2 SWAP1 MSTORE PUSH3 0x41 SWAP2 PUSH3 0x241 JUMP JUMPDEST DUP2 DUP2 DUP2 DUP2 PUSH1 0x3 PUSH3 0x53 DUP4 DUP3 PUSH3 0x37B JUMP JUMPDEST POP PUSH1 0x4 PUSH3 0x62 DUP3 DUP3 PUSH3 0x37B JUMP JUMPDEST POP POP POP POP POP PUSH1 0x0 PUSH3 0x79 PUSH3 0x157 PUSH1 0x20 SHL PUSH1 0x20 SHR JUMP JUMPDEST PUSH1 0x9 DUP1 SLOAD PUSH1 0x1 PUSH1 0x1 PUSH1 0xA0 SHL SUB NOT AND PUSH1 0x1 PUSH1 0x1 PUSH1 0xA0 SHL SUB DUP4 AND SWAP1 DUP2 OR SWAP1 SWAP2 SSTORE PUSH1 0x40 MLOAD SWAP2 SWAP3 POP SWAP1 PUSH1 0x0 SWAP1 PUSH32 0x8BE0079C531659141344CD1FD0A4F28419497F9722A3DAAFE3B4186F6B6457E0 SWAP1 DUP3 SWAP1 LOG3 POP PUSH1 0x13 PUSH3 0xD5 DUP4 DUP3 PUSH3 0x37B JUMP JUMPDEST POP PUSH1 0x14 PUSH3 0xE4 DUP3 DUP3 PUSH3 0x37B JUMP JUMPDEST POP POP PUSH1 0x12 DUP1 SLOAD PUSH1 0x16 DUP1 SLOAD PUSH1 0x1 PUSH1 0x1 PUSH1 0xA0 SHL SUB NOT SWAP1 DUP2 AND PUSH1 0x1 PUSH1 0x1 PUSH1 0xA0 SHL SUB SWAP9 DUP10 AND OR SWAP1 SWAP2 SSTORE PUSH9 0x56BC75E2D63100000 PUSH1 0x18 DUP2 SWAP1 SSTORE PUSH1 0x19 SSTORE PUSH1 0x15 DUP1 SLOAD SWAP1 SWAP2 AND SWAP6 DUP8 AND SWAP6 SWAP1 SWAP6 OR SWAP1 SWAP5 SSTORE PUSH1 0x1 PUSH1 0xA0 SHL SWAP3 SWAP1 SWAP5 AND PUSH1 0x1 PUSH1 0x1 PUSH1 0xA8 SHL SUB NOT SWAP1 SWAP4 AND SWAP3 SWAP1 SWAP3 OR OR PUSH1 0xFF PUSH1 0xA8 SHL NOT AND SWAP1 SWAP2 SSTORE POP PUSH3 0x447 JUMP JUMPDEST CALLER SWAP1 JUMP JUMPDEST PUSH1 0x1 PUSH1 0x1 PUSH1 0xA0 SHL SUB DUP2 AND DUP2 EQ PUSH3 0x171 JUMPI PUSH1 0x0 DUP1 REVERT JUMPDEST POP JUMP JUMPDEST PUSH4 0x4E487B71 PUSH1 0xE0 SHL PUSH1 0x0 MSTORE PUSH1 0x41 PUSH1 0x4 MSTORE PUSH1 0x24 PUSH1 0x0 REVERT JUMPDEST PUSH1 0x0 DUP3 PUSH1 0x1F DUP4 ADD SLT PUSH3 0x19C JUMPI PUSH1 0x0 DUP1 REVERT JUMPDEST DUP2 MLOAD PUSH1 0x1 PUSH1 0x1 PUSH1 0x40 SHL SUB DUP1 DUP3 GT ISZERO PUSH3 0x1B9 JUMPI PUSH3 0x1B9 PUSH3 0x174 JUMP JUMPDEST PUSH1 0x40 MLOAD PUSH1 0x1F DUP4 ADD PUSH1 0x1F NOT SWAP1 DUP2 AND PUSH1 0x3F ADD AND DUP2 ADD SWAP1 DUP3 DUP3 GT DUP2 DUP4 LT OR ISZERO PUSH3 0x1E4 JUMPI PUSH3 0x1E4 PUSH3 0x174 JUMP JUMPDEST DUP2 PUSH1 0x40 MSTORE DUP4 DUP2 MSTORE PUSH1 0x20 SWAP3 POP DUP7 DUP4 DUP6 DUP9 ADD ADD GT ISZERO PUSH3 0x201 JUMPI PUSH1 0x0 DUP1 REVERT JUMPDEST PUSH1 0x0 SWAP2 POP JUMPDEST DUP4 DUP3 LT ISZERO PUSH3 0x225 JUMPI DUP6 DUP3 ADD DUP4 ADD MLOAD DUP2 DUP4 ADD DUP5 ADD MSTORE SWAP1 DUP3 ADD SWAP1 PUSH3 0x206 JUMP JUMPDEST DUP4 DUP3 GT ISZERO PUSH3 0x237 JUMPI PUSH1 0x0 DUP4 DUP6 DUP4 ADD ADD MSTORE JUMPDEST SWAP7 SWAP6 POP POP POP POP POP POP JUMP JUMPDEST PUSH1 0x0 DUP1 PUSH1 0x0 DUP1 PUSH1 0x0 PUSH1 0xA0 DUP7 DUP9 SUB SLT ISZERO PUSH3 0x25A JUMPI PUSH1 0x0 DUP1 REVERT JUMPDEST DUP6 MLOAD PUSH3 0x267 DUP2 PUSH3 0x15B JUMP JUMPDEST PUSH1 0x20 DUP8 ADD MLOAD SWAP1 SWAP6 POP PUSH3 0x27A DUP2 PUSH3 0x15B JUMP JUMPDEST PUSH1 0x40 DUP8 ADD MLOAD SWAP1 SWAP5 POP PUSH3 0x28D DUP2 PUSH3 0x15B JUMP JUMPDEST PUSH1 0x60 DUP8 ADD MLOAD SWAP1 SWAP4 POP PUSH1 0x1 PUSH1 0x1 PUSH1 0x40 SHL SUB DUP1 DUP3 GT ISZERO PUSH3 0x2AB JUMPI PUSH1 0x0 DUP1 REVERT JUMPDEST PUSH3 0x2B9 DUP10 DUP4 DUP11 ADD PUSH3 0x18A JUMP JUMPDEST SWAP4 POP PUSH1 0x80 DUP9 ADD MLOAD SWAP2 POP DUP1 DUP3 GT ISZERO PUSH3 0x2D0 JUMPI PUSH1 0x0 DUP1 REVERT JUMPDEST POP PUSH3 0x2DF DUP9 DUP3 DUP10 ADD PUSH3 0x18A JUMP JUMPDEST SWAP2 POP POP SWAP3 SWAP6 POP SWAP3 SWAP6 SWAP1 SWAP4 POP JUMP JUMPDEST PUSH1 0x1 DUP2 DUP2 SHR SWAP1 DUP3 AND DUP1 PUSH3 0x301 JUMPI PUSH1 0x7F DUP3 AND SWAP2 POP JUMPDEST PUSH1 0x20 DUP3 LT DUP2 SUB PUSH3 0x322 JUMPI PUSH4 0x4E487B71 PUSH1 0xE0 SHL PUSH1 0x0 MSTORE PUSH1 0x22 PUSH1 0x4 MSTORE PUSH1 0x24 PUSH1 0x0 REVERT JUMPDEST POP SWAP2 SWAP1 POP JUMP JUMPDEST PUSH1 0x1F DUP3 GT ISZERO PUSH3 0x376 JUMPI PUSH1 0x0 DUP2 DUP2 MSTORE PUSH1 0x20 DUP2 KECCAK256 PUSH1 0x1F DUP6 ADD PUSH1 0x5 SHR DUP2 ADD PUSH1 0x20 DUP7 LT ISZERO PUSH3 0x351 JUMPI POP DUP1 JUMPDEST PUSH1 0x1F DUP6 ADD PUSH1 0x5 SHR DUP3 ADD SWAP2 POP JUMPDEST DUP2 DUP2 LT ISZERO PUSH3 0x372 JUMPI DUP3 DUP2 SSTORE PUSH1 0x1 ADD PUSH3 0x35D JUMP JUMPDEST POP POP POP JUMPDEST POP POP POP JUMP JUMPDEST DUP2 MLOAD PUSH1 0x1 PUSH1 0x1 PUSH1 0x40 SHL SUB DUP2 GT ISZERO PUSH3 0x397 JUMPI PUSH3 0x397 PUSH3 0x174 JUMP JUMPDEST PUSH3 0x3AF DUP2 PUSH3 0x3A8 DUP5 SLOAD PUSH3 0x2EC JUMP JUMPDEST DUP5 PUSH3 0x328 JUMP JUMPDEST PUSH1 0x20 DUP1 PUSH1 0x1F DUP4 GT PUSH1 0x1 DUP2 EQ PUSH3 0x3E7 JUMPI PUSH1 0x0 DUP5 ISZERO PUSH3 0x3CE JUMPI POP DUP6 DUP4 ADD MLOAD JUMPDEST PUSH1 0x0 NOT PUSH1 0x3 DUP7 SWAP1 SHL SHR NOT AND PUSH1 0x1 DUP6 SWAP1 SHL OR DUP6 SSTORE PUSH3 0x372 JUMP JUMPDEST PUSH1 0x0 DUP6 DUP2 MSTORE PUSH1 0x20 DUP2 KECCAK256 PUSH1 0x1F NOT DUP7 AND SWAP2 JUMPDEST DUP3 DUP2 LT ISZERO PUSH3 0x418 JUMPI DUP9 DUP7 ADD MLOAD DUP3 SSTORE SWAP5 DUP5 ADD SWAP5 PUSH1 0x1 SWAP1 SWAP2 ADD SWAP1 DUP5 ADD PUSH3 0x3F7 JUMP JUMPDEST POP DUP6 DUP3 LT ISZERO PUSH3 0x437 JUMPI DUP8 DUP6 ADD MLOAD PUSH1 0x0 NOT PUSH1 0x3 DUP9 SWAP1 SHL PUSH1 0xF8 AND SHR NOT AND DUP2 SSTORE JUMPDEST POP POP POP POP POP PUSH1 0x1 SWAP1 DUP2 SHL ADD SWAP1 SSTORE POP JUMP JUMPDEST PUSH2 0x2C90 DUP1 PUSH3 0x457 PUSH1 0x0 CODECOPY PUSH1 0x0 RETURN INVALID PUSH1 0x80 PUSH1 0x40 MSTORE PUSH1 0x4 CALLDATASIZE LT PUSH2 0x31E JUMPI PUSH1 0x0 CALLDATALOAD PUSH1 0xE0 SHR DUP1 PUSH4 0x6D48467B GT PUSH2 0x1AB JUMPI DUP1 PUSH4 0xA66A9D1C GT PUSH2 0xF7 JUMPI DUP1 PUSH4 0xD8032ED3 GT PUSH2 0x95 JUMPI DUP1 PUSH4 0xE7841EC0 GT PUSH2 0x6F JUMPI DUP1 PUSH4 0xE7841EC0 EQ PUSH2 0x9ED JUMPI DUP1 PUSH4 0xF2FDE38B EQ PUSH2 0xA02 JUMPI DUP1 PUSH4 0xFBCBC0F1 EQ PUSH2 0xA22 JUMPI DUP1 PUSH4 0xFFB2C479 EQ PUSH2 0xA42 JUMPI PUSH1 0x0 DUP1 REVERT JUMPDEST DUP1 PUSH4 0xD8032ED3 EQ PUSH2 0x967 JUMPI DUP1 PUSH4 0xDD62ED3E EQ PUSH2 0x987 JUMPI DUP1 PUSH4 0xE30443BC EQ PUSH2 0x9CD JUMPI PUSH1 0x0 DUP1 REVERT JUMPDEST DUP1 PUSH4 0xAAFD847A GT PUSH2 0xD1 JUMPI DUP1 PUSH4 0xAAFD847A EQ PUSH2 0x8D1 JUMPI DUP1 PUSH4 0xB22F8A04 EQ PUSH2 0x907 JUMPI DUP1 PUSH4 0xBA079D49 EQ PUSH2 0x927 JUMPI DUP1 PUSH4 0xBC4C4B37 EQ PUSH2 0x947 JUMPI PUSH1 0x0 DUP1 REVERT JUMPDEST DUP1 PUSH4 0xA66A9D1C EQ PUSH2 0x871 JUMPI DUP1 PUSH4 0xA8B9D240 EQ PUSH2 0x891 JUMPI DUP1 PUSH4 0xA9059CBB EQ PUSH2 0x8B1 JUMPI PUSH1 0x0 DUP1 REVERT JUMPDEST DUP1 PUSH4 0x8DA5CB5B GT PUSH2 0x164 JUMPI DUP1 PUSH4 0x9C3372EA GT PUSH2 0x13E JUMPI DUP1 PUSH4 0x9C3372EA EQ PUSH2 0x7EF JUMPI DUP1 PUSH4 0x9EEC101E EQ PUSH2 0x80F JUMPI DUP1 PUSH4 0xA4234069 EQ PUSH2 0x830 JUMPI DUP1 PUSH4 0xA457C2D7 EQ PUSH2 0x851 JUMPI PUSH1 0x0 DUP1 REVERT JUMPDEST DUP1 PUSH4 0x8DA5CB5B EQ PUSH2 0x79C JUMPI DUP1 PUSH4 0x91B89FBA EQ PUSH2 0x7BA JUMPI DUP1 PUSH4 0x95D89B41 EQ PUSH2 0x7DA JUMPI PUSH1 0x0 DUP1 REVERT JUMPDEST DUP1 PUSH4 0x6D48467B EQ PUSH2 0x6DB JUMPI DUP1 PUSH4 0x70A08231 EQ PUSH2 0x6FB JUMPI DUP1 PUSH4 0x715018A6 EQ PUSH2 0x731 JUMPI DUP1 PUSH4 0x74C13FDA EQ PUSH2 0x746 JUMPI DUP1 PUSH4 0x85A6B3AE EQ PUSH2 0x766 JUMPI DUP1 PUSH4 0x8BC1D639 EQ PUSH2 0x77C JUMPI PUSH1 0x0 DUP1 REVERT JUMPDEST DUP1 PUSH4 0x313CE567 GT PUSH2 0x26A JUMPI DUP1 PUSH4 0x4E7B827F GT PUSH2 0x223 JUMPI DUP1 PUSH4 0x5EBF4DB9 GT PUSH2 0x1FD JUMPI DUP1 PUSH4 0x5EBF4DB9 EQ PUSH2 0x656 JUMPI DUP1 PUSH4 0x65B8DBC0 EQ PUSH2 0x676 JUMPI DUP1 PUSH4 0x6A474002 EQ PUSH2 0x696 JUMPI DUP1 PUSH4 0x6B69163B EQ PUSH2 0x6AB JUMPI PUSH1 0x0 DUP1 REVERT JUMPDEST DUP1 PUSH4 0x4E7B827F EQ PUSH2 0x5AF JUMPI DUP1 PUSH4 0x5183D6FD EQ PUSH2 0x5DF JUMPI DUP1 PUSH4 0x5A84C5EB EQ PUSH2 0x636 JUMPI PUSH1 0x0 DUP1 REVERT JUMPDEST DUP1 PUSH4 0x313CE567 EQ PUSH2 0x4F2 JUMPI DUP1 PUSH4 0x31E79DB0 EQ PUSH2 0x50E JUMPI DUP1 PUSH4 0x3599BB17 EQ PUSH2 0x52E JUMPI DUP1 PUSH4 0x39509351 EQ PUSH2 0x54E JUMPI DUP1 PUSH4 0x40FFDD80 EQ PUSH2 0x56E JUMPI DUP1 PUSH4 0x41808904 EQ PUSH2 0x58E JUMPI PUSH1 0x0 DUP1 REVERT JUMPDEST DUP1 PUSH4 0x18160DDD GT PUSH2 0x2D7 JUMPI DUP1 PUSH4 0x23B872DD GT PUSH2 0x2B1 JUMPI DUP1 PUSH4 0x23B872DD EQ PUSH2 0x47E JUMPI DUP1 PUSH4 0x25CD3598 EQ PUSH2 0x49E JUMPI DUP1 PUSH4 0x27CE0147 EQ PUSH2 0x4BC JUMPI DUP1 PUSH4 0x3009A609 EQ PUSH2 0x4DC JUMPI PUSH1 0x0 DUP1 REVERT JUMPDEST DUP1 PUSH4 0x18160DDD EQ PUSH2 0x40C JUMPI DUP1 PUSH4 0x1D4FF89A EQ PUSH2 0x421 JUMPI DUP1 PUSH4 0x226CFA3D EQ PUSH2 0x451 JUMPI PUSH1 0x0 DUP1 REVERT JUMPDEST DUP1 PUSH4 0x3C83302 EQ PUSH2 0x332 JUMPI DUP1 PUSH4 0x6FDDE03 EQ PUSH2 0x33A JUMPI DUP1 PUSH4 0x9288471 EQ PUSH2 0x365 JUMPI DUP1 PUSH4 0x95EA7B3 EQ PUSH2 0x385 JUMPI DUP1 PUSH4 0x9BBEDDE EQ PUSH2 0x3B5 JUMPI DUP1 PUSH4 0x1694505E EQ PUSH2 0x3D4 JUMPI PUSH1 0x0 DUP1 REVERT JUMPDEST CALLDATASIZE PUSH2 0x32D JUMPI PUSH2 0x32B PUSH2 0xA7D JUMP JUMPDEST STOP JUMPDEST PUSH1 0x0 DUP1 REVERT JUMPDEST PUSH2 0x32B PUSH2 0xA7D JUMP JUMPDEST CALLVALUE DUP1 ISZERO PUSH2 0x346 JUMPI PUSH1 0x0 DUP1 REVERT JUMPDEST POP PUSH2 0x34F PUSH2 0xB10 JUMP JUMPDEST PUSH1 0x40 MLOAD PUSH2 0x35C SWAP2 SWAP1 PUSH2 0x27C3 JUMP JUMPDEST PUSH1 0x40 MLOAD DUP1 SWAP2 SUB SWAP1 RETURN JUMPDEST CALLVALUE DUP1 ISZERO PUSH2 0x371 JUMPI PUSH1 0x0 DUP1 REVERT JUMPDEST POP PUSH2 0x32B PUSH2 0x380 CALLDATASIZE PUSH1 0x4 PUSH2 0x2830 JUMP JUMPDEST PUSH2 0xBA2 JUMP JUMPDEST CALLVALUE DUP1 ISZERO PUSH2 0x391 JUMPI PUSH1 0x0 DUP1 REVERT JUMPDEST POP PUSH2 0x3A5 PUSH2 0x3A0 CALLDATASIZE PUSH1 0x4 PUSH2 0x284D JUMP JUMPDEST PUSH2 0xBF6 JUMP JUMPDEST PUSH1 0x40 MLOAD SWAP1 ISZERO ISZERO DUP2 MSTORE PUSH1 0x20 ADD PUSH2 0x35C JUMP JUMPDEST CALLVALUE DUP1 ISZERO PUSH2 0x3C1 JUMPI PUSH1 0x0 DUP1 REVERT JUMPDEST POP PUSH1 0xA SLOAD JUMPDEST PUSH1 0x40 MLOAD SWAP1 DUP2 MSTORE PUSH1 0x20 ADD PUSH2 0x35C JUMP JUMPDEST CALLVALUE DUP1 ISZERO PUSH2 0x3E0 JUMPI PUSH1 0x0 DUP1 REVERT JUMPDEST POP PUSH1 0x15 SLOAD PUSH2 0x3F4 SWAP1 PUSH1 0x1 PUSH1 0x1 PUSH1 0xA0 SHL SUB AND DUP2 JUMP JUMPDEST PUSH1 0x40 MLOAD PUSH1 0x1 PUSH1 0x1 PUSH1 0xA0 SHL SUB SWAP1 SWAP2 AND DUP2 MSTORE PUSH1 0x20 ADD PUSH2 0x35C JUMP JUMPDEST CALLVALUE DUP1 ISZERO PUSH2 0x418 JUMPI PUSH1 0x0 DUP1 REVERT JUMPDEST POP PUSH1 0x2 SLOAD PUSH2 0x3C6 JUMP JUMPDEST CALLVALUE DUP1 ISZERO PUSH2 0x42D JUMPI PUSH1 0x0 DUP1 REVERT JUMPDEST POP PUSH2 0x3A5 PUSH2 0x43C CALLDATASIZE PUSH1 0x4 PUSH2 0x2830 JUMP JUMPDEST PUSH1 0x11 PUSH1 0x20 MSTORE PUSH1 0x0 SWAP1 DUP2 MSTORE PUSH1 0x40 SWAP1 KECCAK256 SLOAD PUSH1 0xFF AND DUP2 JUMP JUMPDEST CALLVALUE DUP1 ISZERO PUSH2 0x45D JUMPI PUSH1 0x0 DUP1 REVERT JUMPDEST POP PUSH2 0x3C6 PUSH2 0x46C CALLDATASIZE PUSH1 0x4 PUSH2 0x2830 JUMP JUMPDEST PUSH1 0x17 PUSH1 0x20 MSTORE PUSH1 0x0 SWAP1 DUP2 MSTORE PUSH1 0x40 SWAP1 KECCAK256 SLOAD DUP2 JUMP JUMPDEST CALLVALUE DUP1 ISZERO PUSH2 0x48A JUMPI PUSH1 0x0 DUP1 REVERT JUMPDEST POP PUSH2 0x3A5 PUSH2 0x499 CALLDATASIZE PUSH1 0x4 PUSH2 0x2879 JUMP JUMPDEST PUSH2 0xC0D JUMP JUMPDEST CALLVALUE DUP1 ISZERO PUSH2 0x4AA JUMPI PUSH1 0x0 DUP1 REVERT JUMPDEST POP PUSH1 0x12 SLOAD PUSH1 0x1 PUSH1 0x1 PUSH1 0xA0 SHL SUB AND PUSH2 0x3F4 JUMP JUMPDEST CALLVALUE DUP1 ISZERO PUSH2 0x4C8 JUMPI PUSH1 0x0 DUP1 REVERT JUMPDEST POP PUSH2 0x3C6 PUSH2 0x4D7 CALLDATASIZE PUSH1 0x4 PUSH2 0x2830 JUMP JUMPDEST PUSH2 0xC76 JUMP JUMPDEST CALLVALUE DUP1 ISZERO PUSH2 0x4E8 JUMPI PUSH1 0x0 DUP1 REVERT JUMPDEST POP PUSH2 0x3C6 PUSH1 0xE SLOAD DUP2 JUMP JUMPDEST CALLVALUE DUP1 ISZERO PUSH2 0x4FE JUMPI PUSH1 0x0 DUP1 REVERT JUMPDEST POP PUSH1 0x40 MLOAD PUSH1 0x12 DUP2 MSTORE PUSH1 0x20 ADD PUSH2 0x35C JUMP JUMPDEST CALLVALUE DUP1 ISZERO PUSH2 0x51A JUMPI PUSH1 0x0 DUP1 REVERT JUMPDEST POP PUSH2 0x32B PUSH2 0x529 CALLDATASIZE PUSH1 0x4 PUSH2 0x2830 JUMP JUMPDEST PUSH2 0xCD2 JUMP JUMPDEST CALLVALUE DUP1 ISZERO PUSH2 0x53A JUMPI PUSH1 0x0 DUP1 REVERT JUMPDEST POP PUSH2 0x32B PUSH2 0x549 CALLDATASIZE PUSH1 0x4 PUSH2 0x28C8 JUMP JUMPDEST PUSH2 0xD6C JUMP JUMPDEST CALLVALUE DUP1 ISZERO PUSH2 0x55A JUMPI PUSH1 0x0 DUP1 REVERT JUMPDEST POP PUSH2 0x3A5 PUSH2 0x569 CALLDATASIZE PUSH1 0x4 PUSH2 0x284D JUMP JUMPDEST PUSH2 0xE0D JUMP JUMPDEST CALLVALUE DUP1 ISZERO PUSH2 0x57A JUMPI PUSH1 0x0 DUP1 REVERT JUMPDEST POP PUSH2 0x32B PUSH2 0x589 CALLDATASIZE PUSH1 0x4 PUSH2 0x28C8 JUMP JUMPDEST PUSH2 0xE43 JUMP JUMPDEST CALLVALUE DUP1 ISZERO PUSH2 0x59A JUMPI PUSH1 0x0 DUP1 REVERT JUMPDEST POP PUSH1 0x12 SLOAD PUSH2 0x3A5 SWAP1 PUSH1 0x1 PUSH1 0xA8 SHL SWAP1 DIV PUSH1 0xFF AND DUP2 JUMP JUMPDEST CALLVALUE DUP1 ISZERO PUSH2 0x5BB JUMPI PUSH1 0x0 DUP1 REVERT JUMPDEST POP PUSH2 0x3A5 PUSH2 0x5CA CALLDATASIZE PUSH1 0x4 PUSH2 0x2830 JUMP JUMPDEST PUSH1 0xF PUSH1 0x20 MSTORE PUSH1 0x0 SWAP1 DUP2 MSTORE PUSH1 0x40 SWAP1 KECCAK256 SLOAD PUSH1 0xFF AND DUP2 JUMP JUMPDEST CALLVALUE DUP1 ISZERO PUSH2 0x5EB JUMPI PUSH1 0x0 DUP1 REVERT JUMPDEST POP PUSH2 0x5FF PUSH2 0x5FA CALLDATASIZE PUSH1 0x4 PUSH2 0x28E5 JUMP JUMPDEST PUSH2 0xED9 JUMP JUMPDEST PUSH1 0x40 DUP1 MLOAD PUSH1 0x1 PUSH1 0x1 PUSH1 0xA0 SHL SUB SWAP1 SWAP8 AND DUP8 MSTORE PUSH1 0x20 DUP8 ADD SWAP6 SWAP1 SWAP6 MSTORE SWAP4 DUP6 ADD SWAP3 SWAP1 SWAP3 MSTORE PUSH1 0x60 DUP5 ADD MSTORE PUSH1 0x80 DUP4 ADD MSTORE PUSH1 0xA0 DUP3 ADD MSTORE PUSH1 0xC0 ADD PUSH2 0x35C JUMP JUMPDEST CALLVALUE DUP1 ISZERO PUSH2 0x642 JUMPI PUSH1 0x0 DUP1 REVERT JUMPDEST POP PUSH2 0x32B PUSH2 0x651 CALLDATASIZE PUSH1 0x4 PUSH2 0x28E5 JUMP JUMPDEST PUSH2 0xF39 JUMP JUMPDEST CALLVALUE DUP1 ISZERO PUSH2 0x662 JUMPI PUSH1 0x0 DUP1 REVERT JUMPDEST POP PUSH2 0x32B PUSH2 0x671 CALLDATASIZE PUSH1 0x4 PUSH2 0x28E5 JUMP JUMPDEST PUSH2 0xF7B JUMP JUMPDEST CALLVALUE DUP1 ISZERO PUSH2 0x682 JUMPI PUSH1 0x0 DUP1 REVERT JUMPDEST POP PUSH2 0x32B PUSH2 0x691 CALLDATASIZE PUSH1 0x4 PUSH2 0x2830 JUMP JUMPDEST PUSH2 0xFBD JUMP JUMPDEST CALLVALUE DUP1 ISZERO PUSH2 0x6A2 JUMPI PUSH1 0x0 DUP1 REVERT JUMPDEST POP PUSH2 0x32B PUSH2 0x1009 JUMP JUMPDEST CALLVALUE DUP1 ISZERO PUSH2 0x6B7 JUMPI PUSH1 0x0 DUP1 REVERT JUMPDEST POP PUSH2 0x3A5 PUSH2 0x6C6 CALLDATASIZE PUSH1 0x4 PUSH2 0x2830 JUMP JUMPDEST PUSH1 0x10 PUSH1 0x20 MSTORE PUSH1 0x0 SWAP1 DUP2 MSTORE PUSH1 0x40 SWAP1 KECCAK256 SLOAD PUSH1 0xFF AND DUP2 JUMP JUMPDEST CALLVALUE DUP1 ISZERO PUSH2 0x6E7 JUMPI PUSH1 0x0 DUP1 REVERT JUMPDEST POP PUSH2 0x3A5 PUSH2 0x6F6 CALLDATASIZE PUSH1 0x4 PUSH2 0x2830 JUMP JUMPDEST PUSH2 0x10AF JUMP JUMPDEST CALLVALUE DUP1 ISZERO PUSH2 0x707 JUMPI PUSH1 0x0 DUP1 REVERT JUMPDEST POP PUSH2 0x3C6 PUSH2 0x716 CALLDATASIZE PUSH1 0x4 PUSH2 0x2830 JUMP JUMPDEST PUSH1 0x1 PUSH1 0x1 PUSH1 0xA0 SHL SUB AND PUSH1 0x0 SWAP1 DUP2 MSTORE PUSH1 0x20 DUP2 SWAP1 MSTORE PUSH1 0x40 SWAP1 KECCAK256 SLOAD SWAP1 JUMP JUMPDEST CALLVALUE DUP1 ISZERO PUSH2 0x73D JUMPI PUSH1 0x0 DUP1 REVERT JUMPDEST POP PUSH2 0x32B PUSH2 0x10FB JUMP JUMPDEST CALLVALUE DUP1 ISZERO PUSH2 0x752 JUMPI PUSH1 0x0 DUP1 REVERT JUMPDEST POP PUSH1 0x12 SLOAD PUSH2 0x3F4 SWAP1 PUSH1 0x1 PUSH1 0x1 PUSH1 0xA0 SHL SUB AND DUP2 JUMP JUMPDEST CALLVALUE DUP1 ISZERO PUSH2 0x772 JUMPI PUSH1 0x0 DUP1 REVERT JUMPDEST POP PUSH2 0x3C6 PUSH1 0x8 SLOAD DUP2 JUMP JUMPDEST CALLVALUE DUP1 ISZERO PUSH2 0x788 JUMPI PUSH1 0x0 DUP1 REVERT JUMPDEST POP PUSH2 0x32B PUSH2 0x797 CALLDATASIZE PUSH1 0x4 PUSH2 0x28FE JUMP JUMPDEST PUSH2 0x116F JUMP JUMPDEST CALLVALUE DUP1 ISZERO PUSH2 0x7A8 JUMPI PUSH1 0x0 DUP1 REVERT JUMPDEST POP PUSH1 0x9 SLOAD PUSH1 0x1 PUSH1 0x1 PUSH1 0xA0 SHL SUB AND PUSH2 0x3F4 JUMP JUMPDEST CALLVALUE DUP1 ISZERO PUSH2 0x7C6 JUMPI PUSH1 0x0 DUP1 REVERT JUMPDEST POP PUSH2 0x3C6 PUSH2 0x7D5 CALLDATASIZE PUSH1 0x4 PUSH2 0x2830 JUMP JUMPDEST PUSH2 0x11C4 JUMP JUMPDEST CALLVALUE DUP1 ISZERO PUSH2 0x7E6 JUMPI PUSH1 0x0 DUP1 REVERT JUMPDEST POP PUSH2 0x34F PUSH2 0x11CF JUMP JUMPDEST CALLVALUE DUP1 ISZERO PUSH2 0x7FB JUMPI PUSH1 0x0 DUP1 REVERT JUMPDEST POP PUSH2 0x32B PUSH2 0x80A CALLDATASIZE PUSH1 0x4 PUSH2 0x28C8 JUMP JUMPDEST PUSH2 0x11DE JUMP JUMPDEST CALLVALUE DUP1 ISZERO PUSH2 0x81B JUMPI PUSH1 0x0 DUP1 REVERT JUMPDEST POP PUSH1 0x12 SLOAD PUSH2 0x3A5 SWAP1 PUSH1 0x1 PUSH1 0xA0 SHL SWAP1 DIV PUSH1 0xFF AND DUP2 JUMP JUMPDEST CALLVALUE DUP1 ISZERO PUSH2 0x83C JUMPI PUSH1 0x0 DUP1 REVERT JUMPDEST POP PUSH1 0x12 SLOAD PUSH2 0x3A5 SWAP1 PUSH1 0x1 PUSH1 0xB0 SHL SWAP1 DIV PUSH1 0xFF AND DUP2 JUMP JUMPDEST CALLVALUE DUP1 ISZERO PUSH2 0x85D JUMPI PUSH1 0x0 DUP1 REVERT JUMPDEST POP PUSH2 0x3A5 PUSH2 0x86C CALLDATASIZE PUSH1 0x4 PUSH2 0x284D JUMP JUMPDEST PUSH2 0x1274 JUMP JUMPDEST CALLVALUE DUP1 ISZERO PUSH2 0x87D JUMPI PUSH1 0x0 DUP1 REVERT JUMPDEST POP PUSH1 0x16 SLOAD PUSH2 0x3F4 SWAP1 PUSH1 0x1 PUSH1 0x1 PUSH1 0xA0 SHL SUB AND DUP2 JUMP JUMPDEST CALLVALUE DUP1 ISZERO PUSH2 0x89D JUMPI PUSH1 0x0 DUP1 REVERT JUMPDEST POP PUSH2 0x3C6 PUSH2 0x8AC CALLDATASIZE PUSH1 0x4 PUSH2 0x2830 JUMP JUMPDEST PUSH2 0x12C3 JUMP JUMPDEST CALLVALUE DUP1 ISZERO PUSH2 0x8BD JUMPI PUSH1 0x0 DUP1 REVERT JUMPDEST POP PUSH2 0x3A5 PUSH2 0x8CC CALLDATASIZE PUSH1 0x4 PUSH2 0x284D JUMP JUMPDEST PUSH2 0x12EF JUMP JUMPDEST CALLVALUE DUP1 ISZERO PUSH2 0x8DD JUMPI PUSH1 0x0 DUP1 REVERT JUMPDEST POP PUSH2 0x3C6 PUSH2 0x8EC CALLDATASIZE PUSH1 0x4 PUSH2 0x2830 JUMP JUMPDEST PUSH1 0x1 PUSH1 0x1 PUSH1 0xA0 SHL SUB AND PUSH1 0x0 SWAP1 DUP2 MSTORE PUSH1 0x7 PUSH1 0x20 MSTORE PUSH1 0x40 SWAP1 KECCAK256 SLOAD SWAP1 JUMP JUMPDEST CALLVALUE DUP1 ISZERO PUSH2 0x913 JUMPI PUSH1 0x0 DUP1 REVERT JUMPDEST POP PUSH2 0x32B PUSH2 0x922 CALLDATASIZE PUSH1 0x4 PUSH2 0x28FE JUMP JUMPDEST PUSH2 0x12FC JUMP JUMPDEST CALLVALUE DUP1 ISZERO PUSH2 0x933 JUMPI PUSH1 0x0 DUP1 REVERT JUMPDEST POP PUSH2 0x3A5 PUSH2 0x942 CALLDATASIZE PUSH1 0x4 PUSH2 0x2830 JUMP JUMPDEST PUSH2 0x1351 JUMP JUMPDEST CALLVALUE DUP1 ISZERO PUSH2 0x953 JUMPI PUSH1 0x0 DUP1 REVERT JUMPDEST POP PUSH2 0x3A5 PUSH2 0x962 CALLDATASIZE PUSH1 0x4 PUSH2 0x28FE JUMP JUMPDEST PUSH2 0x139D JUMP JUMPDEST CALLVALUE DUP1 ISZERO PUSH2 0x973 JUMPI PUSH1 0x0 DUP1 REVERT JUMPDEST POP PUSH2 0x32B PUSH2 0x982 CALLDATASIZE PUSH1 0x4 PUSH2 0x2830 JUMP JUMPDEST PUSH2 0x151E JUMP JUMPDEST CALLVALUE DUP1 ISZERO PUSH2 0x993 JUMPI PUSH1 0x0 DUP1 REVERT JUMPDEST POP PUSH2 0x3C6 PUSH2 0x9A2 CALLDATASIZE PUSH1 0x4 PUSH2 0x2937 JUMP JUMPDEST PUSH1 0x1 PUSH1 0x1 PUSH1 0xA0 SHL SUB SWAP2 DUP3 AND PUSH1 0x0 SWAP1 DUP2 MSTORE PUSH1 0x1 PUSH1 0x20 SWAP1 DUP2 MSTORE PUSH1 0x40 DUP1 DUP4 KECCAK256 SWAP4 SWAP1 SWAP5 AND DUP3 MSTORE SWAP2 SWAP1 SWAP2 MSTORE KECCAK256 SLOAD SWAP1 JUMP JUMPDEST CALLVALUE DUP1 ISZERO PUSH2 0x9D9 JUMPI PUSH1 0x0 DUP1 REVERT JUMPDEST POP PUSH2 0x32B PUSH2 0x9E8 CALLDATASIZE PUSH1 0x4 PUSH2 0x284D JUMP JUMPDEST PUSH2 0x156A JUMP JUMPDEST CALLVALUE DUP1 ISZERO PUSH2 0x9F9 JUMPI PUSH1 0x0 DUP1 REVERT JUMPDEST POP PUSH1 0xE SLOAD PUSH2 0x3C6 JUMP JUMPDEST CALLVALUE DUP1 ISZERO PUSH2 0xA0E JUMPI PUSH1 0x0 DUP1 REVERT JUMPDEST POP PUSH2 0x32B PUSH2 0xA1D CALLDATASIZE PUSH1 0x4 PUSH2 0x2830 JUMP JUMPDEST PUSH2 0x1602 JUMP JUMPDEST CALLVALUE DUP1 ISZERO PUSH2 0xA2E JUMPI PUSH1 0x0 DUP1 REVERT JUMPDEST POP PUSH2 0x5FF PUSH2 0xA3D CALLDATASIZE PUSH1 0x4 PUSH2 0x2830 JUMP JUMPDEST PUSH2 0x16ED JUMP JUMPDEST CALLVALUE DUP1 ISZERO PUSH2 0xA4E JUMPI PUSH1 0x0 DUP1 REVERT JUMPDEST POP PUSH2 0xA62 PUSH2 0xA5D CALLDATASIZE PUSH1 0x4 PUSH2 0x28E5 JUMP JUMPDEST PUSH2 0x179C JUMP JUMPDEST PUSH1 0x40 DUP1 MLOAD SWAP4 DUP5 MSTORE PUSH1 0x20 DUP5 ADD SWAP3 SWAP1 SWAP3 MSTORE SWAP1 DUP3 ADD MSTORE PUSH1 0x60 ADD PUSH2 0x35C JUMP JUMPDEST PUSH1 0x0 PUSH2 0xA88 PUSH1 0x2 SLOAD SWAP1 JUMP JUMPDEST GT PUSH2 0xA92 JUMPI PUSH1 0x0 DUP1 REVERT JUMPDEST CALLVALUE ISZERO PUSH2 0xB0E JUMPI PUSH2 0xAC5 PUSH2 0xAA4 PUSH1 0x2 SLOAD SWAP1 JUMP JUMPDEST PUSH2 0xAB2 CALLVALUE PUSH1 0x1 PUSH1 0x80 SHL PUSH2 0x18C2 JUMP JUMPDEST PUSH2 0xABC SWAP2 SWAP1 PUSH2 0x297B JUMP JUMPDEST PUSH1 0x5 SLOAD SWAP1 PUSH2 0x194B JUMP JUMPDEST PUSH1 0x5 SSTORE PUSH1 0x40 MLOAD CALLVALUE DUP2 MSTORE CALLER SWAP1 PUSH32 0xA493A9229478C3FCD73F66D2CDEB7F94FD0F341DA924D1054236D78454116511 SWAP1 PUSH1 0x20 ADD PUSH1 0x40 MLOAD DUP1 SWAP2 SUB SWAP1 LOG2 PUSH1 0x8 SLOAD PUSH2 0xB0A SWAP1 CALLVALUE PUSH2 0x194B JUMP JUMPDEST PUSH1 0x8 SSTORE JUMPDEST JUMP JUMPDEST PUSH1 0x60 PUSH1 0x13 DUP1 SLOAD PUSH2 0xB1F SWAP1 PUSH2 0x299D JUMP JUMPDEST DUP1 PUSH1 0x1F ADD PUSH1 0x20 DUP1 SWAP2 DIV MUL PUSH1 0x20 ADD PUSH1 0x40 MLOAD SWAP1 DUP2 ADD PUSH1 0x40 MSTORE DUP1 SWAP3 SWAP2 SWAP1 DUP2 DUP2 MSTORE PUSH1 0x20 ADD DUP3 DUP1 SLOAD PUSH2 0xB4B SWAP1 PUSH2 0x299D JUMP JUMPDEST DUP1 ISZERO PUSH2 0xB98 JUMPI DUP1 PUSH1 0x1F LT PUSH2 0xB6D JUMPI PUSH2 0x100 DUP1 DUP4 SLOAD DIV MUL DUP4 MSTORE SWAP2 PUSH1 0x20 ADD SWAP2 PUSH2 0xB98 JUMP JUMPDEST DUP3 ADD SWAP2 SWAP1 PUSH1 0x0 MSTORE PUSH1 0x20 PUSH1 0x0 KECCAK256 SWAP1 JUMPDEST DUP2 SLOAD DUP2 MSTORE SWAP1 PUSH1 0x1 ADD SWAP1 PUSH1 0x20 ADD DUP1 DUP4 GT PUSH2 0xB7B JUMPI DUP3 SWAP1 SUB PUSH1 0x1F AND DUP3 ADD SWAP2 JUMPDEST POP POP POP POP POP SWAP1 POP SWAP1 JUMP JUMPDEST PUSH1 0x9 SLOAD PUSH1 0x1 PUSH1 0x1 PUSH1 0xA0 SHL SUB AND CALLER EQ PUSH2 0xBD5 JUMPI PUSH1 0x40 MLOAD PUSH3 0x461BCD PUSH1 0xE5 SHL DUP2 MSTORE PUSH1 0x4 ADD PUSH2 0xBCC SWAP1 PUSH2 0x29D7 JUMP JUMPDEST PUSH1 0x40 MLOAD DUP1 SWAP2 SUB SWAP1 REVERT JUMPDEST PUSH1 0x1 PUSH1 0x1 PUSH1 0xA0 SHL SUB AND PUSH1 0x0 SWAP1 DUP2 MSTORE PUSH1 0xF PUSH1 0x20 MSTORE PUSH1 0x40 SWAP1 KECCAK256 DUP1 SLOAD PUSH1 0xFF NOT AND SWAP1 SSTORE JUMP JUMPDEST PUSH1 0x0 PUSH2 0xC03 CALLER DUP5 DUP5 PUSH2 0x19AA JUMP JUMPDEST POP PUSH1 0x1 JUMPDEST SWAP3 SWAP2 POP POP JUMP JUMPDEST PUSH1 0x0 PUSH2 0xC1A DUP5 DUP5 DUP5 PUSH2 0x1ACE JUMP JUMPDEST PUSH2 0xC6C DUP5 CALLER PUSH2 0xC67 DUP6 PUSH1 0x40 MLOAD DUP1 PUSH1 0x60 ADD PUSH1 0x40 MSTORE DUP1 PUSH1 0x28 DUP2 MSTORE PUSH1 0x20 ADD PUSH2 0x2C0E PUSH1 0x28 SWAP2 CODECOPY PUSH1 0x1 PUSH1 0x1 PUSH1 0xA0 SHL SUB DUP11 AND PUSH1 0x0 SWAP1 DUP2 MSTORE PUSH1 0x1 PUSH1 0x20 SWAP1 DUP2 MSTORE PUSH1 0x40 DUP1 DUP4 KECCAK256 CALLER DUP5 MSTORE SWAP1 SWAP2 MSTORE SWAP1 KECCAK256 SLOAD SWAP2 SWAP1 PUSH2 0x1B31 JUMP JUMPDEST PUSH2 0x19AA JUMP JUMPDEST POP PUSH1 0x1 SWAP4 SWAP3 POP POP POP JUMP JUMPDEST PUSH1 0x1 PUSH1 0x1 PUSH1 0xA0 SHL SUB DUP2 AND PUSH1 0x0 SWAP1 DUP2 MSTORE PUSH1 0x6 PUSH1 0x20 SWAP1 DUP2 MSTORE PUSH1 0x40 DUP1 DUP4 KECCAK256 SLOAD SWAP2 DUP4 SWAP1 MSTORE DUP3 KECCAK256 SLOAD PUSH1 0x5 SLOAD PUSH1 0x1 PUSH1 0x80 SHL SWAP3 PUSH2 0xCC8 SWAP3 PUSH2 0xCC3 SWAP3 PUSH2 0xCBD SWAP2 PUSH2 0xCB8 SWAP2 SWAP1 PUSH2 0x18C2 JUMP JUMPDEST PUSH2 0x1B6B JUMP JUMPDEST SWAP1 PUSH2 0x1B7B JUMP JUMPDEST PUSH2 0x1BB9 JUMP JUMPDEST PUSH2 0xC07 SWAP2 SWAP1 PUSH2 0x297B JUMP JUMPDEST PUSH1 0x9 SLOAD PUSH1 0x1 PUSH1 0x1 PUSH1 0xA0 SHL SUB AND CALLER EQ PUSH2 0xCFC JUMPI PUSH1 0x40 MLOAD PUSH3 0x461BCD PUSH1 0xE5 SHL DUP2 MSTORE PUSH1 0x4 ADD PUSH2 0xBCC SWAP1 PUSH2 0x29D7 JUMP JUMPDEST PUSH1 0x1 PUSH1 0x1 PUSH1 0xA0 SHL SUB DUP2 AND PUSH1 0x0 SWAP1 DUP2 MSTORE PUSH1 0xF PUSH1 0x20 MSTORE PUSH1 0x40 DUP2 KECCAK256 DUP1 SLOAD PUSH1 0xFF NOT AND PUSH1 0x1 OR SWAP1 SSTORE PUSH2 0xD2A SWAP1 DUP3 SWAP1 PUSH2 0x1BCC JUMP JUMPDEST PUSH2 0xD35 PUSH1 0xA DUP3 PUSH2 0x1C2B JUMP JUMPDEST PUSH1 0x40 MLOAD PUSH1 0x1 PUSH1 0x1 PUSH1 0xA0 SHL SUB DUP3 AND SWAP1 PUSH32 0xA878B31040B2E6D0A9A3D3361209DB3908BA62014B0DCA52ADBAEE451D128B25 SWAP1 PUSH1 0x0 SWAP1 LOG2 POP JUMP JUMPDEST PUSH1 0x9 SLOAD PUSH1 0x1 PUSH1 0x1 PUSH1 0xA0 SHL SUB AND CALLER EQ PUSH2 0xD96 JUMPI PUSH1 0x40 MLOAD PUSH3 0x461BCD PUSH1 0xE5 SHL DUP2 MSTORE PUSH1 0x4 ADD PUSH2 0xBCC SWAP1 PUSH2 0x29D7 JUMP JUMPDEST DUP1 ISZERO ISZERO PUSH1 0x12 PUSH1 0x16 SWAP1 SLOAD SWAP1 PUSH2 0x100 EXP SWAP1 DIV PUSH1 0xFF AND ISZERO ISZERO SUB PUSH2 0xDB5 JUMPI PUSH1 0x0 DUP1 REVERT JUMPDEST PUSH1 0x12 DUP1 SLOAD DUP3 ISZERO ISZERO PUSH1 0x1 PUSH1 0xB0 SHL MUL PUSH1 0xFF PUSH1 0xB0 SHL NOT SWAP1 SWAP2 AND OR SWAP1 SSTORE PUSH1 0x40 MLOAD PUSH32 0x3DA2593F2C4724ACFBD754045321E852CAD26F3974834B1890045530F89C21B3 SWAP1 PUSH2 0xE02 SWAP1 DUP4 ISZERO ISZERO DUP2 MSTORE PUSH1 0x20 ADD SWAP1 JUMP JUMPDEST PUSH1 0x40 MLOAD DUP1 SWAP2 SUB SWAP1 LOG1 POP JUMP JUMPDEST CALLER PUSH1 0x0 DUP2 DUP2 MSTORE PUSH1 0x1 PUSH1 0x20 SWAP1 DUP2 MSTORE PUSH1 0x40 DUP1 DUP4 KECCAK256 PUSH1 0x1 PUSH1 0x1 PUSH1 0xA0 SHL SUB DUP8 AND DUP5 MSTORE SWAP1 SWAP2 MSTORE DUP2 KECCAK256 SLOAD SWAP1 SWAP2 PUSH2 0xC03 SWAP2 DUP6 SWAP1 PUSH2 0xC67 SWAP1 DUP7 PUSH2 0x194B JUMP JUMPDEST PUSH1 0x9 SLOAD PUSH1 0x1 PUSH1 0x1 PUSH1 0xA0 SHL SUB AND CALLER EQ PUSH2 0xE6D JUMPI PUSH1 0x40 MLOAD PUSH3 0x461BCD PUSH1 0xE5 SHL DUP2 MSTORE PUSH1 0x4 ADD PUSH2 0xBCC SWAP1 PUSH2 0x29D7 JUMP JUMPDEST DUP1 ISZERO ISZERO PUSH1 0x12 PUSH1 0x15 SWAP1 SLOAD SWAP1 PUSH2 0x100 EXP SWAP1 DIV PUSH1 0xFF AND ISZERO ISZERO SUB PUSH2 0xE8C JUMPI PUSH1 0x0 DUP1 REVERT JUMPDEST PUSH1 0x12 DUP1 SLOAD DUP3 ISZERO ISZERO PUSH1 0x1 PUSH1 0xA8 SHL MUL PUSH1 0xFF PUSH1 0xA8 SHL NOT SWAP1 SWAP2 AND OR SWAP1 SSTORE PUSH1 0x40 MLOAD PUSH32 0xC138A28750B971696F46EA59731C471EF1E08E4015404AFDB139FD2E87DCA1BB SWAP1 PUSH2 0xE02 SWAP1 DUP4 ISZERO ISZERO DUP2 MSTORE PUSH1 0x20 ADD SWAP1 JUMP JUMPDEST PUSH1 0x0 DUP1 PUSH1 0x0 DUP1 PUSH1 0x0 DUP1 PUSH2 0xEEB PUSH1 0xA SLOAD SWAP1 JUMP JUMPDEST DUP8 LT PUSH2 0xF0A JUMPI POP PUSH1 0x0 SWAP5 POP PUSH1 0x0 NOT SWAP4 POP DUP4 SWAP3 POP DUP5 SWAP2 POP DUP2 SWAP1 POP DUP1 PUSH2 0xF30 JUMP JUMPDEST PUSH1 0x0 PUSH2 0xF17 PUSH1 0xA DUP10 PUSH2 0x1D66 JUMP JUMPDEST SWAP1 POP PUSH2 0xF22 DUP2 PUSH2 0x16ED JUMP JUMPDEST SWAP7 POP SWAP7 POP SWAP7 POP SWAP7 POP SWAP7 POP SWAP7 POP POP JUMPDEST SWAP2 SWAP4 SWAP6 POP SWAP2 SWAP4 SWAP6 JUMP JUMPDEST PUSH1 0x9 SLOAD PUSH1 0x1 PUSH1 0x1 PUSH1 0xA0 SHL SUB AND CALLER EQ PUSH2 0xF63 JUMPI PUSH1 0x40 MLOAD PUSH3 0x461BCD PUSH1 0xE5 SHL DUP2 MSTORE PUSH1 0x4 ADD PUSH2 0xBCC SWAP1 PUSH2 0x29D7 JUMP JUMPDEST PUSH2 0xF75 DUP2 PUSH8 0xDE0B6B3A7640000 PUSH2 0x2A0C JUMP JUMPDEST PUSH1 0x18 SSTORE POP JUMP JUMPDEST PUSH1 0x9 SLOAD PUSH1 0x1 PUSH1 0x1 PUSH1 0xA0 SHL SUB AND CALLER EQ PUSH2 0xFA5 JUMPI PUSH1 0x40 MLOAD PUSH3 0x461BCD PUSH1 0xE5 SHL DUP2 MSTORE PUSH1 0x4 ADD PUSH2 0xBCC SWAP1 PUSH2 0x29D7 JUMP JUMPDEST PUSH2 0xFB7 DUP2 PUSH8 0xDE0B6B3A7640000 PUSH2 0x2A0C JUMP JUMPDEST PUSH1 0x19 SSTORE POP JUMP JUMPDEST PUSH1 0x9 SLOAD PUSH1 0x1 PUSH1 0x1 PUSH1 0xA0 SHL SUB AND CALLER EQ PUSH2 0xFE7 JUMPI PUSH1 0x40 MLOAD PUSH3 0x461BCD PUSH1 0xE5 SHL DUP2 MSTORE PUSH1 0x4 ADD PUSH2 0xBCC SWAP1 PUSH2 0x29D7 JUMP JUMPDEST PUSH1 0x15 DUP1 SLOAD PUSH1 0x1 PUSH1 0x1 PUSH1 0xA0 SHL SUB NOT AND PUSH1 0x1 PUSH1 0x1 PUSH1 0xA0 SHL SUB SWAP3 SWAP1 SWAP3 AND SWAP2 SWAP1 SWAP2 OR SWAP1 SSTORE JUMP JUMPDEST PUSH1 0x40 MLOAD PUSH3 0x461BCD PUSH1 0xE5 SHL DUP2 MSTORE PUSH1 0x20 PUSH1 0x4 DUP3 ADD MSTORE PUSH1 0x69 PUSH1 0x24 DUP3 ADD MSTORE PUSH32 0x4652454E4E415F4469766964656E645F547261636B65723A2077697468647261 PUSH1 0x44 DUP3 ADD MSTORE PUSH32 0x774469766964656E642064697361626C65642E20557365207468652027636C61 PUSH1 0x64 DUP3 ADD MSTORE PUSH32 0x696D272066756E6374696F6E206F6E20746865206D61696E204652454E4E4120 PUSH1 0x84 DUP3 ADD MSTORE PUSH9 0x31B7B73A3930B1BA17 PUSH1 0xB9 SHL PUSH1 0xA4 DUP3 ADD MSTORE PUSH1 0xC4 ADD PUSH2 0xBCC JUMP JUMPDEST PUSH1 0x9 SLOAD PUSH1 0x0 SWAP1 PUSH1 0x1 PUSH1 0x1 PUSH1 0xA0 SHL SUB AND CALLER EQ PUSH2 0x10DC JUMPI PUSH1 0x40 MLOAD PUSH3 0x461BCD PUSH1 0xE5 SHL DUP2 MSTORE PUSH1 0x4 ADD PUSH2 0xBCC SWAP1 PUSH2 0x29D7 JUMP JUMPDEST POP PUSH1 0x1 PUSH1 0x1 PUSH1 0xA0 SHL SUB AND PUSH1 0x0 SWAP1 DUP2 MSTORE PUSH1 0x10 PUSH1 0x20 MSTORE PUSH1 0x40 SWAP1 KECCAK256 SLOAD PUSH1 0xFF AND SWAP1 JUMP JUMPDEST PUSH1 0x9 SLOAD PUSH1 0x1 PUSH1 0x1 PUSH1 0xA0 SHL SUB AND CALLER EQ PUSH2 0x1125 JUMPI PUSH1 0x40 MLOAD PUSH3 0x461BCD PUSH1 0xE5 SHL DUP2 MSTORE PUSH1 0x4 ADD PUSH2 0xBCC SWAP1 PUSH2 0x29D7 JUMP JUMPDEST PUSH1 0x9 SLOAD PUSH1 0x40 MLOAD PUSH1 0x0 SWAP2 PUSH1 0x1 PUSH1 0x1 PUSH1 0xA0 SHL SUB AND SWAP1 PUSH32 0x8BE0079C531659141344CD1FD0A4F28419497F9722A3DAAFE3B4186F6B6457E0 SWAP1 DUP4 SWAP1 LOG3 PUSH1 0x9 DUP1 SLOAD PUSH1 0x1 PUSH1 0x1 PUSH1 0xA0 SHL SUB NOT AND SWAP1 SSTORE JUMP JUMPDEST PUSH1 0x9 SLOAD PUSH1 0x1 PUSH1 0x1 PUSH1 0xA0 SHL SUB AND CALLER EQ PUSH2 0x1199 JUMPI PUSH1 0x40 MLOAD PUSH3 0x461BCD PUSH1 0xE5 SHL DUP2 MSTORE PUSH1 0x4 ADD PUSH2 0xBCC SWAP1 PUSH2 0x29D7 JUMP JUMPDEST PUSH1 0x1 PUSH1 0x1 PUSH1 0xA0 SHL SUB SWAP2 SWAP1 SWAP2 AND PUSH1 0x0 SWAP1 DUP2 MSTORE PUSH1 0x10 PUSH1 0x20 MSTORE PUSH1 0x40 SWAP1 KECCAK256 DUP1 SLOAD PUSH1 0xFF NOT AND SWAP2 ISZERO ISZERO SWAP2 SWAP1 SWAP2 OR SWAP1 SSTORE JUMP JUMPDEST PUSH1 0x0 PUSH2 0xC07 DUP3 PUSH2 0x12C3 JUMP JUMPDEST PUSH1 0x60 PUSH1 0x14 DUP1 SLOAD PUSH2 0xB1F SWAP1 PUSH2 0x299D JUMP JUMPDEST PUSH1 0x9 SLOAD PUSH1 0x1 PUSH1 0x1 PUSH1 0xA0 SHL SUB AND CALLER EQ PUSH2 0x1208 JUMPI PUSH1 0x40 MLOAD PUSH3 0x461BCD PUSH1 0xE5 SHL DUP2 MSTORE PUSH1 0x4 ADD PUSH2 0xBCC SWAP1 PUSH2 0x29D7 JUMP JUMPDEST DUP1 ISZERO ISZERO PUSH1 0x12 PUSH1 0x14 SWAP1 SLOAD SWAP1 PUSH2 0x100 EXP SWAP1 DIV PUSH1 0xFF AND ISZERO ISZERO SUB PUSH2 0x1227 JUMPI PUSH1 0x0 DUP1 REVERT JUMPDEST PUSH1 0x12 DUP1 SLOAD DUP3 ISZERO ISZERO PUSH1 0x1 PUSH1 0xA0 SHL MUL PUSH1 0xFF PUSH1 0xA0 SHL NOT SWAP1 SWAP2 AND OR SWAP1 SSTORE PUSH1 0x40 MLOAD PUSH32 0x8D34C313963017194ED726D050E868657D0E2D2C6748D13E358CD4B89D4EE7C8 SWAP1 PUSH2 0xE02 SWAP1 DUP4 ISZERO ISZERO DUP2 MSTORE PUSH1 0x20 ADD SWAP1 JUMP JUMPDEST PUSH1 0x0 PUSH2 0xC03 CALLER DUP5 PUSH2 0xC67 DUP6 PUSH1 0x40 MLOAD DUP1 PUSH1 0x60 ADD PUSH1 0x40 MSTORE DUP1 PUSH1 0x25 DUP2 MSTORE PUSH1 0x20 ADD PUSH2 0x2C36 PUSH1 0x25 SWAP2 CODECOPY CALLER PUSH1 0x0 SWAP1 DUP2 MSTORE PUSH1 0x1 PUSH1 0x20 SWAP1 DUP2 MSTORE PUSH1 0x40 DUP1 DUP4 KECCAK256 PUSH1 0x1 PUSH1 0x1 PUSH1 0xA0 SHL SUB DUP14 AND DUP5 MSTORE SWAP1 SWAP2 MSTORE SWAP1 KECCAK256 SLOAD SWAP2 SWAP1 PUSH2 0x1B31 JUMP JUMPDEST PUSH1 0x1 PUSH1 0x1 PUSH1 0xA0 SHL SUB DUP2 AND PUSH1 0x0 SWAP1 DUP2 MSTORE PUSH1 0x7 PUSH1 0x20 MSTORE PUSH1 0x40 DUP2 KECCAK256 SLOAD PUSH2 0xC07 SWAP1 PUSH2 0x12E9 DUP5 PUSH2 0xC76 JUMP JUMPDEST SWAP1 PUSH2 0x1D99 JUMP JUMPDEST PUSH1 0x0 PUSH2 0xC03 CALLER DUP5 DUP5 PUSH2 0x1ACE JUMP JUMPDEST PUSH1 0x9 SLOAD PUSH1 0x1 PUSH1 0x1 PUSH1 0xA0 SHL SUB AND CALLER EQ PUSH2 0x1326 JUMPI PUSH1 0x40 MLOAD PUSH3 0x461BCD PUSH1 0xE5 SHL DUP2 MSTORE PUSH1 0x4 ADD PUSH2 0xBCC SWAP1 PUSH2 0x29D7 JUMP JUMPDEST PUSH1 0x1 PUSH1 0x1 PUSH1 0xA0 SHL SUB SWAP2 SWAP1 SWAP2 AND PUSH1 0x0 SWAP1 DUP2 MSTORE PUSH1 0x11 PUSH1 0x20 MSTORE PUSH1 0x40 SWAP1 KECCAK256 DUP1 SLOAD PUSH1 0xFF NOT AND SWAP2 ISZERO ISZERO SWAP2 SWAP1 SWAP2 OR SWAP1 SSTORE JUMP JUMPDEST PUSH1 0x9 SLOAD PUSH1 0x0 SWAP1 PUSH1 0x1 PUSH1 0x1 PUSH1 0xA0 SHL SUB AND CALLER EQ PUSH2 0x137E JUMPI PUSH1 0x40 MLOAD PUSH3 0x461BCD PUSH1 0xE5 SHL DUP2 MSTORE PUSH1 0x4 ADD PUSH2 0xBCC SWAP1 PUSH2 0x29D7 JUMP JUMPDEST POP PUSH1 0x1 PUSH1 0x1 PUSH1 0xA0 SHL SUB AND PUSH1 0x0 SWAP1 DUP2 MSTORE PUSH1 0x11 PUSH1 0x20 MSTORE PUSH1 0x40 SWAP1 KECCAK256 SLOAD PUSH1 0xFF AND SWAP1 JUMP JUMPDEST PUSH1 0x9 SLOAD PUSH1 0x0 SWAP1 PUSH1 0x1 PUSH1 0x1 PUSH1 0xA0 SHL SUB AND CALLER EQ PUSH2 0x13CA JUMPI PUSH1 0x40 MLOAD PUSH3 0x461BCD PUSH1 0xE5 SHL DUP2 MSTORE PUSH1 0x4 ADD PUSH2 0xBCC SWAP1 PUSH2 0x29D7 JUMP JUMPDEST PUSH1 0x12 SLOAD PUSH1 0x1 PUSH1 0xB0 SHL SWAP1 DIV PUSH1 0xFF AND ISZERO PUSH2 0x13E4 JUMPI POP PUSH1 0x0 PUSH2 0xC07 JUMP JUMPDEST PUSH1 0x1 PUSH1 0x1 PUSH1 0xA0 SHL SUB DUP4 AND PUSH1 0x0 SWAP1 DUP2 MSTORE PUSH1 0x11 PUSH1 0x20 MSTORE PUSH1 0x40 SWAP1 KECCAK256 SLOAD PUSH1 0xFF AND DUP3 DUP1 ISZERO PUSH2 0x140A JUMPI POP DUP1 JUMPDEST DUP1 ISZERO PUSH2 0x1420 JUMPI POP PUSH1 0x12 SLOAD PUSH1 0x1 PUSH1 0xA8 SHL SWAP1 DIV PUSH1 0xFF AND ISZERO JUMPDEST ISZERO PUSH2 0x142F JUMPI PUSH1 0x0 SWAP2 POP POP PUSH2 0xC07 JUMP JUMPDEST PUSH1 0x0 DUP2 PUSH2 0x1444 JUMPI PUSH2 0x143F DUP6 PUSH2 0x1DDB JUMP JUMPDEST PUSH2 0x144D JUMP JUMPDEST PUSH2 0x144D DUP6 PUSH2 0x2094 JUMP JUMPDEST SWAP1 POP DUP1 ISZERO PUSH2 0x1513 JUMPI PUSH1 0x1 PUSH1 0x1 PUSH1 0xA0 SHL SUB DUP6 AND PUSH1 0x0 SWAP1 DUP2 MSTORE PUSH1 0x17 PUSH1 0x20 MSTORE PUSH1 0x40 SWAP1 KECCAK256 TIMESTAMP SWAP1 SSTORE DUP2 ISZERO PUSH2 0x14C1 JUMPI DUP4 ISZERO ISZERO DUP6 PUSH1 0x1 PUSH1 0x1 PUSH1 0xA0 SHL SUB AND PUSH32 0xFBD928DD3806A2BDF802F3A28A2CC55205F95DBCD2C3ED313ABFCA278366F80C DUP4 PUSH1 0x40 MLOAD PUSH2 0x14B4 SWAP2 DUP2 MSTORE PUSH1 0x20 ADD SWAP1 JUMP JUMPDEST PUSH1 0x40 MLOAD DUP1 SWAP2 SUB SWAP1 LOG3 PUSH2 0x1508 JUMP JUMPDEST DUP4 ISZERO ISZERO DUP6 PUSH1 0x1 PUSH1 0x1 PUSH1 0xA0 SHL SUB AND PUSH32 0xA2C38E2D2FB7E3E1912D937FD1CA11ED6D51864DEE4CFA7A7BF02BECD7ACF092 DUP4 PUSH1 0x40 MLOAD PUSH2 0x14FF SWAP2 DUP2 MSTORE PUSH1 0x20 ADD SWAP1 JUMP JUMPDEST PUSH1 0x40 MLOAD DUP1 SWAP2 SUB SWAP1 LOG3 JUMPDEST PUSH1 0x1 SWAP3 POP POP POP PUSH2 0xC07 JUMP JUMPDEST POP PUSH1 0x0 SWAP5 SWAP4 POP POP POP POP JUMP JUMPDEST PUSH1 0x9 SLOAD PUSH1 0x1 PUSH1 0x1 PUSH1 0xA0 SHL SUB AND CALLER EQ PUSH2 0x1548 JUMPI PUSH1 0x40 MLOAD PUSH3 0x461BCD PUSH1 0xE5 SHL DUP2 MSTORE PUSH1 0x4 ADD PUSH2 0xBCC SWAP1 PUSH2 0x29D7 JUMP JUMPDEST PUSH1 0x12 DUP1 SLOAD PUSH1 0x1 PUSH1 0x1 PUSH1 0xA0 SHL SUB NOT AND PUSH1 0x1 PUSH1 0x1 PUSH1 0xA0 SHL SUB SWAP3 SWAP1 SWAP3 AND SWAP2 SWAP1 SWAP2 OR SWAP1 SSTORE JUMP JUMPDEST PUSH1 0x9 SLOAD PUSH1 0x1 PUSH1 0x1 PUSH1 0xA0 SHL SUB AND CALLER EQ PUSH2 0x1594 JUMPI PUSH1 0x40 MLOAD PUSH3 0x461BCD PUSH1 0xE5 SHL DUP2 MSTORE PUSH1 0x4 ADD PUSH2 0xBCC SWAP1 PUSH2 0x29D7 JUMP JUMPDEST PUSH1 0x1 PUSH1 0x1 PUSH1 0xA0 SHL SUB DUP3 AND PUSH1 0x0 SWAP1 DUP2 MSTORE PUSH1 0xF PUSH1 0x20 MSTORE PUSH1 0x40 SWAP1 KECCAK256 SLOAD PUSH1 0xFF AND PUSH2 0x15D4 JUMPI PUSH1 0x19 SLOAD DUP2 LT ISZERO PUSH2 0x15D8 JUMPI PUSH2 0x15C9 PUSH1 0xA DUP4 PUSH2 0x1C2B JUMP JUMPDEST PUSH2 0x15D4 DUP3 PUSH1 0x0 PUSH2 0x1BCC JUMP JUMPDEST POP POP JUMP JUMPDEST PUSH2 0x15E2 DUP3 DUP3 PUSH2 0x1BCC JUMP JUMPDEST PUSH1 0x18 SLOAD DUP2 LT PUSH2 0x15F7 JUMPI PUSH2 0x15D4 PUSH1 0xA DUP4 DUP4 PUSH2 0x2407 JUMP JUMPDEST PUSH2 0x15D4 PUSH1 0xA DUP4 PUSH2 0x1C2B JUMP JUMPDEST PUSH1 0x9 SLOAD PUSH1 0x1 PUSH1 0x1 PUSH1 0xA0 SHL SUB AND CALLER EQ PUSH2 0x162C JUMPI PUSH1 0x40 MLOAD PUSH3 0x461BCD PUSH1 0xE5 SHL DUP2 MSTORE PUSH1 0x4 ADD PUSH2 0xBCC SWAP1 PUSH2 0x29D7 JUMP JUMPDEST PUSH1 0x1 PUSH1 0x1 PUSH1 0xA0 SHL SUB DUP2 AND PUSH2 0x1691 JUMPI PUSH1 0x40 MLOAD PUSH3 0x461BCD PUSH1 0xE5 SHL DUP2 MSTORE PUSH1 0x20 PUSH1 0x4 DUP3 ADD MSTORE PUSH1 0x26 PUSH1 0x24 DUP3 ADD MSTORE PUSH32 0x4F776E61626C653A206E6577206F776E657220697320746865207A65726F2061 PUSH1 0x44 DUP3 ADD MSTORE PUSH6 0x646472657373 PUSH1 0xD0 SHL PUSH1 0x64 DUP3 ADD MSTORE PUSH1 0x84 ADD PUSH2 0xBCC JUMP JUMPDEST PUSH1 0x9 SLOAD PUSH1 0x40 MLOAD PUSH1 0x1 PUSH1 0x1 PUSH1 0xA0 SHL SUB DUP1 DUP5 AND SWAP3 AND SWAP1 PUSH32 0x8BE0079C531659141344CD1FD0A4F28419497F9722A3DAAFE3B4186F6B6457E0 SWAP1 PUSH1 0x0 SWAP1 LOG3 PUSH1 0x9 DUP1 SLOAD PUSH1 0x1 PUSH1 0x1 PUSH1 0xA0 SHL SUB NOT AND PUSH1 0x1 PUSH1 0x1 PUSH1 0xA0 SHL SUB SWAP3 SWAP1 SWAP3 AND SWAP2 SWAP1 SWAP2 OR SWAP1 SSTORE JUMP JUMPDEST DUP1 PUSH1 0x0 DUP1 DUP1 DUP1 DUP1 PUSH2 0x16FF PUSH1 0xA DUP8 PUSH2 0x24B0 JUMP JUMPDEST SWAP5 POP PUSH1 0x0 NOT SWAP4 POP PUSH1 0x0 DUP6 SLT PUSH2 0x1761 JUMPI PUSH1 0xE SLOAD DUP6 GT ISZERO PUSH2 0x172D JUMPI PUSH1 0xE SLOAD PUSH2 0x1726 SWAP1 DUP7 SWAP1 PUSH2 0x24FB JUMP JUMPDEST SWAP4 POP PUSH2 0x1761 JUMP JUMPDEST PUSH1 0xE SLOAD PUSH1 0xA SLOAD PUSH1 0x0 SWAP2 LT PUSH2 0x1742 JUMPI PUSH1 0x0 PUSH2 0x1751 JUMP JUMPDEST PUSH1 0xE SLOAD PUSH1 0xA SLOAD PUSH2 0x1751 SWAP2 PUSH2 0x1D99 JUMP JUMPDEST SWAP1 POP PUSH2 0x175D DUP7 DUP3 PUSH2 0x1B7B JUMP JUMPDEST SWAP5 POP POP JUMPDEST PUSH2 0x176A DUP7 PUSH2 0x12C3 JUMP JUMPDEST SWAP3 POP PUSH2 0x1775 DUP7 PUSH2 0xC76 JUMP JUMPDEST PUSH1 0x1 PUSH1 0x1 PUSH1 0xA0 SHL SUB DUP8 AND PUSH1 0x0 SWAP1 DUP2 MSTORE PUSH1 0x17 PUSH1 0x20 MSTORE PUSH1 0x40 SWAP1 KECCAK256 SLOAD SWAP7 SWAP9 SWAP6 SWAP8 POP SWAP4 SWAP6 SWAP3 SWAP5 SWAP2 POP POP JUMP JUMPDEST PUSH1 0xA SLOAD PUSH1 0x0 SWAP1 DUP2 SWAP1 DUP2 SWAP1 DUP1 ISZERO DUP1 PUSH2 0x17BC JUMPI POP PUSH1 0x12 SLOAD PUSH1 0x1 PUSH1 0xB0 SHL SWAP1 DIV PUSH1 0xFF AND JUMPDEST ISZERO PUSH2 0x17D2 JUMPI POP POP PUSH1 0xE SLOAD PUSH1 0x0 SWAP3 POP DUP3 SWAP2 POP PUSH2 0x18BB JUMP JUMPDEST PUSH1 0xE SLOAD PUSH1 0x0 DUP1 GAS SWAP1 POP PUSH1 0x0 DUP1 JUMPDEST DUP10 DUP5 LT DUP1 ISZERO PUSH2 0x17ED JUMPI POP DUP6 DUP3 LT JUMPDEST ISZERO PUSH2 0x18AA JUMPI DUP5 PUSH2 0x17FC DUP2 PUSH2 0x2A2B JUMP JUMPDEST SWAP6 POP POP DUP6 DUP6 LT PUSH2 0x180B JUMPI PUSH1 0x0 SWAP5 POP JUMPDEST PUSH1 0x0 PUSH1 0xA PUSH1 0x0 ADD DUP7 DUP2 SLOAD DUP2 LT PUSH2 0x1823 JUMPI PUSH2 0x1823 PUSH2 0x2A44 JUMP JUMPDEST PUSH1 0x0 SWAP2 DUP3 MSTORE PUSH1 0x20 DUP1 DUP4 KECCAK256 SWAP1 SWAP2 ADD SLOAD PUSH1 0x1 PUSH1 0x1 PUSH1 0xA0 SHL SUB AND DUP1 DUP4 MSTORE PUSH1 0x10 SWAP1 SWAP2 MSTORE PUSH1 0x40 SWAP1 SWAP2 KECCAK256 SLOAD SWAP1 SWAP2 POP PUSH1 0xFF AND PUSH2 0x1870 JUMPI PUSH2 0x185D DUP2 PUSH1 0x1 PUSH2 0x139D JUMP JUMPDEST ISZERO PUSH2 0x1870 JUMPI DUP2 PUSH2 0x186C DUP2 PUSH2 0x2A2B JUMP JUMPDEST SWAP3 POP POP JUMPDEST DUP3 PUSH2 0x187A DUP2 PUSH2 0x2A2B JUMP JUMPDEST SWAP4 POP POP PUSH1 0x0 GAS SWAP1 POP DUP1 DUP6 GT ISZERO PUSH2 0x18A1 JUMPI PUSH2 0x189E PUSH2 0x1897 DUP7 DUP4 PUSH2 0x1D99 JUMP JUMPDEST DUP8 SWAP1 PUSH2 0x194B JUMP JUMPDEST SWAP6 POP JUMPDEST SWAP4 POP PUSH2 0x17DF SWAP1 POP JUMP JUMPDEST PUSH1 0xE DUP6 SWAP1 SSTORE SWAP1 SWAP8 POP SWAP6 POP SWAP2 SWAP4 POP POP POP POP JUMPDEST SWAP2 SWAP4 SWAP1 SWAP3 POP JUMP JUMPDEST PUSH1 0x0 DUP3 PUSH1 0x0 SUB PUSH2 0x18D4 JUMPI POP PUSH1 0x0 PUSH2 0xC07 JUMP JUMPDEST PUSH1 0x0 PUSH2 0x18E0 DUP4 DUP6 PUSH2 0x2A0C JUMP JUMPDEST SWAP1 POP DUP3 PUSH2 0x18ED DUP6 DUP4 PUSH2 0x297B JUMP JUMPDEST EQ PUSH2 0x1944 JUMPI PUSH1 0x40 MLOAD PUSH3 0x461BCD PUSH1 0xE5 SHL DUP2 MSTORE PUSH1 0x20 PUSH1 0x4 DUP3 ADD MSTORE PUSH1 0x21 PUSH1 0x24 DUP3 ADD MSTORE PUSH32 0x536166654D6174683A206D756C7469706C69636174696F6E206F766572666C6F PUSH1 0x44 DUP3 ADD MSTORE PUSH1 0x77 PUSH1 0xF8 SHL PUSH1 0x64 DUP3 ADD MSTORE PUSH1 0x84 ADD PUSH2 0xBCC JUMP JUMPDEST SWAP4 SWAP3 POP POP POP JUMP JUMPDEST PUSH1 0x0 DUP1 PUSH2 0x1958 DUP4 DUP6 PUSH2 0x2A5A JUMP JUMPDEST SWAP1 POP DUP4 DUP2 LT ISZERO PUSH2 0x1944 JUMPI PUSH1 0x40 MLOAD PUSH3 0x461BCD PUSH1 0xE5 SHL DUP2 MSTORE PUSH1 0x20 PUSH1 0x4 DUP3 ADD MSTORE PUSH1 0x1B PUSH1 0x24 DUP3 ADD MSTORE PUSH32 0x536166654D6174683A206164646974696F6E206F766572666C6F770000000000 PUSH1 0x44 DUP3 ADD MSTORE PUSH1 0x64 ADD PUSH2 0xBCC JUMP JUMPDEST PUSH1 0x1 PUSH1 0x1 PUSH1 0xA0 SHL SUB DUP4 AND PUSH2 0x1A0C JUMPI PUSH1 0x40 MLOAD PUSH3 0x461BCD PUSH1 0xE5 SHL DUP2 MSTORE PUSH1 0x20 PUSH1 0x4 DUP3 ADD MSTORE PUSH1 0x24 DUP1 DUP3 ADD MSTORE PUSH32 0x45524332303A20617070726F76652066726F6D20746865207A65726F20616464 PUSH1 0x44 DUP3 ADD MSTORE PUSH4 0x72657373 PUSH1 0xE0 SHL PUSH1 0x64 DUP3 ADD MSTORE PUSH1 0x84 ADD PUSH2 0xBCC JUMP JUMPDEST PUSH1 0x1 PUSH1 0x1 PUSH1 0xA0 SHL SUB DUP3 AND PUSH2 0x1A6D JUMPI PUSH1 0x40 MLOAD PUSH3 0x461BCD PUSH1 0xE5 SHL DUP2 MSTORE PUSH1 0x20 PUSH1 0x4 DUP3 ADD MSTORE PUSH1 0x22 PUSH1 0x24 DUP3 ADD MSTORE PUSH32 0x45524332303A20617070726F766520746F20746865207A65726F206164647265 PUSH1 0x44 DUP3 ADD MSTORE PUSH2 0x7373 PUSH1 0xF0 SHL PUSH1 0x64 DUP3 ADD MSTORE PUSH1 0x84 ADD PUSH2 0xBCC JUMP JUMPDEST PUSH1 0x1 PUSH1 0x1 PUSH1 0xA0 SHL SUB DUP4 DUP2 AND PUSH1 0x0 DUP2 DUP2 MSTORE PUSH1 0x1 PUSH1 0x20 SWAP1 DUP2 MSTORE PUSH1 0x40 DUP1 DUP4 KECCAK256 SWAP5 DUP8 AND DUP1 DUP5 MSTORE SWAP5 DUP3 MSTORE SWAP2 DUP3 SWAP1 KECCAK256 DUP6 SWAP1 SSTORE SWAP1 MLOAD DUP5 DUP2 MSTORE PUSH32 0x8C5BE1E5EBEC7D5BD14F71427D1E84F3DD0314C0F7B2291E5B200AC8C7C3B925 SWAP2 ADD PUSH1 0x40 MLOAD DUP1 SWAP2 SUB SWAP1 LOG3 POP POP POP JUMP JUMPDEST PUSH1 0x40 MLOAD PUSH3 0x461BCD PUSH1 0xE5 SHL DUP2 MSTORE PUSH1 0x20 PUSH1 0x4 DUP3 ADD MSTORE PUSH1 0x2D PUSH1 0x24 DUP3 ADD MSTORE PUSH32 0x4652454E4E415F4469766964656E645F547261636B65723A204E6F207472616E PUSH1 0x44 DUP3 ADD MSTORE PUSH13 0x1CD9995C9CC8185B1B1BDDD959 PUSH1 0x9A SHL PUSH1 0x64 DUP3 ADD MSTORE PUSH1 0x84 ADD PUSH2 0xBCC JUMP JUMPDEST POP POP POP JUMP JUMPDEST PUSH1 0x0 DUP2 DUP5 DUP5 GT ISZERO PUSH2 0x1B55 JUMPI PUSH1 0x40 MLOAD PUSH3 0x461BCD PUSH1 0xE5 SHL DUP2 MSTORE PUSH1 0x4 ADD PUSH2 0xBCC SWAP2 SWAP1 PUSH2 0x27C3 JUMP JUMPDEST POP PUSH1 0x0 PUSH2 0x1B62 DUP5 DUP7 PUSH2 0x2A72 JUMP JUMPDEST SWAP6 SWAP5 POP POP POP POP POP JUMP JUMPDEST PUSH1 0x0 DUP2 DUP2 DUP2 SLT ISZERO PUSH2 0xC07 JUMPI PUSH1 0x0 DUP1 REVERT JUMPDEST PUSH1 0x0 DUP1 PUSH2 0x1B88 DUP4 DUP6 PUSH2 0x2A89 JUMP JUMPDEST SWAP1 POP PUSH1 0x0 DUP4 SLT ISZERO DUP1 ISZERO PUSH2 0x1B9B JUMPI POP DUP4 DUP2 SLT ISZERO JUMPDEST DUP1 PUSH2 0x1BB0 JUMPI POP PUSH1 0x0 DUP4 SLT DUP1 ISZERO PUSH2 0x1BB0 JUMPI POP DUP4 DUP2 SLT JUMPDEST PUSH2 0x1944 JUMPI PUSH1 0x0 DUP1 REVERT JUMPDEST PUSH1 0x0 DUP1 DUP3 SLT ISZERO PUSH2 0x1BC8 JUMPI PUSH1 0x0 DUP1 REVERT JUMPDEST POP SWAP1 JUMP JUMPDEST PUSH1 0x1 PUSH1 0x1 PUSH1 0xA0 SHL SUB DUP3 AND PUSH1 0x0 SWAP1 DUP2 MSTORE PUSH1 0x20 DUP2 SWAP1 MSTORE PUSH1 0x40 SWAP1 KECCAK256 SLOAD DUP1 DUP3 GT ISZERO PUSH2 0x1C0B JUMPI PUSH1 0x0 PUSH2 0x1BF9 DUP4 DUP4 PUSH2 0x1D99 JUMP JUMPDEST SWAP1 POP PUSH2 0x1C05 DUP5 DUP3 PUSH2 0x2538 JUMP JUMPDEST POP POP POP POP JUMP JUMPDEST DUP1 DUP3 LT ISZERO PUSH2 0x1B2C JUMPI PUSH1 0x0 PUSH2 0x1C1F DUP3 DUP5 PUSH2 0x1D99 JUMP JUMPDEST SWAP1 POP PUSH2 0x1C05 DUP5 DUP3 PUSH2 0x259C JUMP JUMPDEST PUSH1 0x1 PUSH1 0x1 PUSH1 0xA0 SHL SUB DUP2 AND PUSH1 0x0 SWAP1 DUP2 MSTORE PUSH1 0x3 DUP4 ADD PUSH1 0x20 MSTORE PUSH1 0x40 SWAP1 KECCAK256 SLOAD PUSH1 0xFF AND PUSH2 0x1C51 JUMPI POP POP JUMP JUMPDEST PUSH1 0x1 PUSH1 0x1 PUSH1 0xA0 SHL SUB DUP2 AND PUSH1 0x0 SWAP1 DUP2 MSTORE PUSH1 0x3 DUP4 ADD PUSH1 0x20 SWAP1 DUP2 MSTORE PUSH1 0x40 DUP1 DUP4 KECCAK256 DUP1 SLOAD PUSH1 0xFF NOT AND SWAP1 SSTORE PUSH1 0x1 DUP1 DUP7 ADD DUP4 MSTORE DUP2 DUP5 KECCAK256 DUP5 SWAP1 SSTORE PUSH1 0x2 DUP7 ADD SWAP1 SWAP3 MSTORE DUP3 KECCAK256 SLOAD DUP5 SLOAD SWAP1 SWAP3 SWAP2 PUSH2 0x1C9B SWAP2 PUSH2 0x2A72 JUMP JUMPDEST SWAP1 POP PUSH1 0x0 DUP5 PUSH1 0x0 ADD DUP3 DUP2 SLOAD DUP2 LT PUSH2 0x1CB4 JUMPI PUSH2 0x1CB4 PUSH2 0x2A44 JUMP JUMPDEST PUSH1 0x0 SWAP2 DUP3 MSTORE PUSH1 0x20 DUP1 DUP4 KECCAK256 SWAP1 SWAP2 ADD SLOAD PUSH1 0x1 PUSH1 0x1 PUSH1 0xA0 SHL SUB SWAP1 DUP2 AND DUP1 DUP5 MSTORE PUSH1 0x2 DUP10 ADD SWAP1 SWAP3 MSTORE PUSH1 0x40 DUP1 DUP5 KECCAK256 DUP8 SWAP1 SSTORE SWAP1 DUP8 AND DUP4 MSTORE DUP3 KECCAK256 SWAP2 SWAP1 SWAP2 SSTORE DUP6 SLOAD SWAP1 SWAP2 POP DUP2 SWAP1 DUP7 SWAP1 DUP6 SWAP1 DUP2 LT PUSH2 0x1D03 JUMPI PUSH2 0x1D03 PUSH2 0x2A44 JUMP JUMPDEST PUSH1 0x0 SWAP2 DUP3 MSTORE PUSH1 0x20 SWAP1 SWAP2 KECCAK256 ADD DUP1 SLOAD PUSH1 0x1 PUSH1 0x1 PUSH1 0xA0 SHL SUB NOT AND PUSH1 0x1 PUSH1 0x1 PUSH1 0xA0 SHL SUB SWAP3 SWAP1 SWAP3 AND SWAP2 SWAP1 SWAP2 OR SWAP1 SSTORE DUP5 SLOAD DUP6 SWAP1 DUP1 PUSH2 0x1D3D JUMPI PUSH2 0x1D3D PUSH2 0x2ACA JUMP JUMPDEST PUSH1 0x0 DUP3 DUP2 MSTORE PUSH1 0x20 SWAP1 KECCAK256 DUP2 ADD PUSH1 0x0 NOT SWAP1 DUP2 ADD DUP1 SLOAD PUSH1 0x1 PUSH1 0x1 PUSH1 0xA0 SHL SUB NOT AND SWAP1 SSTORE ADD SWAP1 SSTORE POP POP POP POP POP JUMP JUMPDEST PUSH1 0x0 DUP3 PUSH1 0x0 ADD DUP3 DUP2 SLOAD DUP2 LT PUSH2 0x1D7D JUMPI PUSH2 0x1D7D PUSH2 0x2A44 JUMP JUMPDEST PUSH1 0x0 SWAP2 DUP3 MSTORE PUSH1 0x20 SWAP1 SWAP2 KECCAK256 ADD SLOAD PUSH1 0x1 PUSH1 0x1 PUSH1 0xA0 SHL SUB AND SWAP4 SWAP3 POP POP POP JUMP JUMPDEST PUSH1 0x0 PUSH2 0x1944 DUP4 DUP4 PUSH1 0x40 MLOAD DUP1 PUSH1 0x40 ADD PUSH1 0x40 MSTORE DUP1 PUSH1 0x1E DUP2 MSTORE PUSH1 0x20 ADD PUSH32 0x536166654D6174683A207375627472616374696F6E206F766572666C6F770000 DUP2 MSTORE POP PUSH2 0x1B31 JUMP JUMPDEST PUSH1 0x0 DUP1 PUSH2 0x1DE7 DUP4 PUSH2 0x12C3 JUMP JUMPDEST SWAP1 POP DUP1 ISZERO PUSH2 0x208B JUMPI PUSH1 0x1 PUSH1 0x1 PUSH1 0xA0 SHL SUB DUP4 AND PUSH1 0x0 SWAP1 DUP2 MSTORE PUSH1 0x7 PUSH1 0x20 MSTORE PUSH1 0x40 SWAP1 KECCAK256 SLOAD PUSH2 0x1E12 SWAP1 DUP3 PUSH2 0x194B JUMP JUMPDEST PUSH1 0x1 PUSH1 0x1 PUSH1 0xA0 SHL SUB DUP1 DUP6 AND PUSH1 0x0 SWAP1 DUP2 MSTORE PUSH1 0x7 PUSH1 0x20 MSTORE PUSH1 0x40 DUP2 KECCAK256 SWAP3 SWAP1 SWAP3 SSTORE PUSH1 0x12 SLOAD AND SWAP1 DUP2 PUSH2 0x1E97 JUMPI PUSH1 0x40 MLOAD PUSH1 0x1 PUSH1 0x1 PUSH1 0xA0 SHL SUB DUP7 AND SWAP1 PUSH2 0xBB8 SWAP1 DUP6 SWAP1 PUSH1 0x0 DUP2 DUP2 DUP2 DUP6 DUP9 DUP9 CALL SWAP4 POP POP POP POP RETURNDATASIZE DUP1 PUSH1 0x0 DUP2 EQ PUSH2 0x1E87 JUMPI PUSH1 0x40 MLOAD SWAP2 POP PUSH1 0x1F NOT PUSH1 0x3F RETURNDATASIZE ADD AND DUP3 ADD PUSH1 0x40 MSTORE RETURNDATASIZE DUP3 MSTORE RETURNDATASIZE PUSH1 0x0 PUSH1 0x20 DUP5 ADD RETURNDATACOPY PUSH2 0x1E8C JUMP JUMPDEST PUSH1 0x60 SWAP2 POP JUMPDEST POP POP DUP1 SWAP2 POP POP PUSH2 0x1FF1 JUMP JUMPDEST PUSH1 0x40 DUP1 MLOAD PUSH1 0x2 DUP1 DUP3 MSTORE PUSH1 0x60 DUP3 ADD DUP4 MSTORE PUSH1 0x0 SWAP3 PUSH1 0x20 DUP4 ADD SWAP1 DUP1 CALLDATASIZE DUP4 CALLDATACOPY POP POP PUSH1 0x15 SLOAD PUSH1 0x40 DUP1 MLOAD PUSH4 0x15AB88C9 PUSH1 0xE3 SHL DUP2 MSTORE SWAP1 MLOAD SWAP4 SWAP5 POP PUSH1 0x1 PUSH1 0x1 PUSH1 0xA0 SHL SUB SWAP1 SWAP2 AND SWAP3 PUSH4 0xAD5C4648 SWAP3 POP PUSH1 0x4 DUP1 DUP4 ADD SWAP3 PUSH1 0x20 SWAP3 SWAP2 SWAP1 DUP3 SWAP1 SUB ADD DUP2 DUP7 GAS STATICCALL ISZERO DUP1 ISZERO PUSH2 0x1F01 JUMPI RETURNDATASIZE PUSH1 0x0 DUP1 RETURNDATACOPY RETURNDATASIZE PUSH1 0x0 REVERT JUMPDEST POP POP POP POP PUSH1 0x40 MLOAD RETURNDATASIZE PUSH1 0x1F NOT PUSH1 0x1F DUP3 ADD AND DUP3 ADD DUP1 PUSH1 0x40 MSTORE POP DUP2 ADD SWAP1 PUSH2 0x1F25 SWAP2 SWAP1 PUSH2 0x2AE0 JUMP JUMPDEST DUP2 PUSH1 0x0 DUP2 MLOAD DUP2 LT PUSH2 0x1F38 JUMPI PUSH2 0x1F38 PUSH2 0x2A44 JUMP JUMPDEST PUSH1 0x20 MUL PUSH1 0x20 ADD ADD SWAP1 PUSH1 0x1 PUSH1 0x1 PUSH1 0xA0 SHL SUB AND SWAP1 DUP2 PUSH1 0x1 PUSH1 0x1 PUSH1 0xA0 SHL SUB AND DUP2 MSTORE POP POP DUP3 DUP2 PUSH1 0x1 DUP2 MLOAD DUP2 LT PUSH2 0x1F6C JUMPI PUSH2 0x1F6C PUSH2 0x2A44 JUMP JUMPDEST PUSH1 0x1 PUSH1 0x1 PUSH1 0xA0 SHL SUB SWAP3 DUP4 AND PUSH1 0x20 SWAP2 DUP3 MUL SWAP3 SWAP1 SWAP3 ADD ADD MSTORE PUSH1 0x15 SLOAD PUSH1 0x40 MLOAD PUSH4 0xB6F9DE95 PUSH1 0xE0 SHL DUP2 MSTORE SWAP2 AND SWAP1 PUSH4 0xB6F9DE95 SWAP1 DUP7 SWAP1 PUSH2 0x1FB2 SWAP1 PUSH1 0x0 SWAP1 DUP7 SWAP1 DUP13 SWAP1 TIMESTAMP SWAP1 PUSH1 0x4 ADD PUSH2 0x2B41 JUMP JUMPDEST PUSH1 0x0 PUSH1 0x40 MLOAD DUP1 DUP4 SUB DUP2 DUP6 DUP9 DUP1 EXTCODESIZE ISZERO DUP1 ISZERO PUSH2 0x1FCB JUMPI PUSH1 0x0 DUP1 REVERT JUMPDEST POP GAS CALL SWAP4 POP POP POP POP DUP1 ISZERO PUSH2 0x1FDD JUMPI POP PUSH1 0x1 JUMPDEST PUSH2 0x1FEA JUMPI PUSH1 0x0 SWAP2 POP PUSH2 0x1FEF JUMP JUMPDEST PUSH1 0x1 SWAP2 POP JUMPDEST POP JUMPDEST DUP1 PUSH2 0x203F JUMPI PUSH1 0x1 PUSH1 0x1 PUSH1 0xA0 SHL SUB DUP6 AND PUSH1 0x0 SWAP1 DUP2 MSTORE PUSH1 0x7 PUSH1 0x20 MSTORE PUSH1 0x40 SWAP1 KECCAK256 SLOAD PUSH2 0x2019 SWAP1 DUP5 PUSH2 0x1D99 JUMP JUMPDEST PUSH1 0x1 PUSH1 0x1 PUSH1 0xA0 SHL SUB SWAP1 SWAP6 AND PUSH1 0x0 SWAP1 DUP2 MSTORE PUSH1 0x7 PUSH1 0x20 MSTORE PUSH1 0x40 DUP2 KECCAK256 SWAP6 SWAP1 SWAP6 SSTORE POP SWAP3 SWAP4 SWAP3 POP POP POP JUMP JUMPDEST DUP5 PUSH1 0x1 PUSH1 0x1 PUSH1 0xA0 SHL SUB AND PUSH32 0xEE503BEE2BB6A87E57BC57DB795F98137327401A0E7B7CE42E37926CC1A9CA4D DUP5 PUSH1 0x40 MLOAD PUSH2 0x207A SWAP2 DUP2 MSTORE PUSH1 0x20 ADD SWAP1 JUMP JUMPDEST PUSH1 0x40 MLOAD DUP1 SWAP2 SUB SWAP1 LOG2 POP SWAP1 SWAP4 SWAP3 POP POP POP JUMP JUMPDEST POP PUSH1 0x0 SWAP3 SWAP2 POP POP JUMP JUMPDEST PUSH1 0x0 DUP1 PUSH2 0x20A0 DUP4 PUSH2 0x12C3 JUMP JUMPDEST SWAP1 POP DUP1 ISZERO PUSH2 0x208B JUMPI PUSH1 0x1 PUSH1 0x1 PUSH1 0xA0 SHL SUB DUP4 AND PUSH1 0x0 SWAP1 DUP2 MSTORE PUSH1 0x7 PUSH1 0x20 MSTORE PUSH1 0x40 DUP2 KECCAK256 SLOAD PUSH2 0x20CB SWAP1 DUP4 PUSH2 0x194B JUMP JUMPDEST PUSH1 0x1 PUSH1 0x1 PUSH1 0xA0 SHL SUB DUP6 AND PUSH1 0x0 SWAP1 DUP2 MSTORE PUSH1 0x7 PUSH1 0x20 MSTORE PUSH1 0x40 DUP1 DUP3 KECCAK256 SWAP3 SWAP1 SWAP3 SSTORE DUP2 MLOAD PUSH1 0x2 DUP1 DUP3 MSTORE PUSH1 0x60 DUP3 ADD SWAP1 SWAP4 MSTORE SWAP1 SWAP2 DUP2 PUSH1 0x20 ADD PUSH1 0x20 DUP3 MUL DUP1 CALLDATASIZE DUP4 CALLDATACOPY POP POP PUSH1 0x15 SLOAD PUSH1 0x40 DUP1 MLOAD PUSH4 0x15AB88C9 PUSH1 0xE3 SHL DUP2 MSTORE SWAP1 MLOAD SWAP4 SWAP5 POP PUSH1 0x1 PUSH1 0x1 PUSH1 0xA0 SHL SUB SWAP1 SWAP2 AND SWAP3 PUSH4 0xAD5C4648 SWAP3 POP PUSH1 0x4 DUP1 DUP4 ADD SWAP3 PUSH1 0x20 SWAP3 SWAP2 SWAP1 DUP3 SWAP1 SUB ADD DUP2 DUP7 GAS STATICCALL ISZERO DUP1 ISZERO PUSH2 0x2153 JUMPI RETURNDATASIZE PUSH1 0x0 DUP1 RETURNDATACOPY RETURNDATASIZE PUSH1 0x0 REVERT JUMPDEST POP POP POP POP PUSH1 0x40 MLOAD RETURNDATASIZE PUSH1 0x1F NOT PUSH1 0x1F DUP3 ADD AND DUP3 ADD DUP1 PUSH1 0x40 MSTORE POP DUP2 ADD SWAP1 PUSH2 0x2177 SWAP2 SWAP1 PUSH2 0x2AE0 JUMP JUMPDEST DUP2 PUSH1 0x0 DUP2 MLOAD DUP2 LT PUSH2 0x218A JUMPI PUSH2 0x218A PUSH2 0x2A44 JUMP JUMPDEST PUSH1 0x1 PUSH1 0x1 PUSH1 0xA0 SHL SUB SWAP3 DUP4 AND PUSH1 0x20 SWAP2 DUP3 MUL SWAP3 SWAP1 SWAP3 ADD ADD MSTORE PUSH1 0x16 SLOAD DUP3 MLOAD SWAP2 AND SWAP1 DUP3 SWAP1 PUSH1 0x1 SWAP1 DUP2 LT PUSH2 0x21BB JUMPI PUSH2 0x21BB PUSH2 0x2A44 JUMP JUMPDEST PUSH1 0x1 PUSH1 0x1 PUSH1 0xA0 SHL SUB SWAP3 DUP4 AND PUSH1 0x20 SWAP2 DUP3 MUL SWAP3 SWAP1 SWAP3 ADD ADD MSTORE PUSH1 0x16 SLOAD PUSH1 0x40 MLOAD PUSH4 0x70A08231 PUSH1 0xE0 SHL DUP2 MSTORE ADDRESS PUSH1 0x4 DUP3 ADD MSTORE PUSH1 0x0 SWAP3 SWAP2 SWAP1 SWAP2 AND SWAP1 PUSH4 0x70A08231 SWAP1 PUSH1 0x24 ADD PUSH1 0x20 PUSH1 0x40 MLOAD DUP1 DUP4 SUB DUP2 DUP7 GAS STATICCALL ISZERO DUP1 ISZERO PUSH2 0x2215 JUMPI RETURNDATASIZE PUSH1 0x0 DUP1 RETURNDATACOPY RETURNDATASIZE PUSH1 0x0 REVERT JUMPDEST POP POP POP POP PUSH1 0x40 MLOAD RETURNDATASIZE PUSH1 0x1F NOT PUSH1 0x1F DUP3 ADD AND DUP3 ADD DUP1 PUSH1 0x40 MSTORE POP DUP2 ADD SWAP1 PUSH2 0x2239 SWAP2 SWAP1 PUSH2 0x2B76 JUMP JUMPDEST PUSH1 0x15 SLOAD PUSH1 0x40 MLOAD PUSH4 0xB6F9DE95 PUSH1 0xE0 SHL DUP2 MSTORE SWAP2 SWAP3 POP PUSH1 0x1 PUSH1 0x1 PUSH1 0xA0 SHL SUB AND SWAP1 PUSH4 0xB6F9DE95 SWAP1 DUP7 SWAP1 PUSH2 0x2273 SWAP1 PUSH1 0x0 SWAP1 DUP8 SWAP1 ADDRESS SWAP1 TIMESTAMP SWAP1 PUSH1 0x4 ADD PUSH2 0x2B41 JUMP JUMPDEST PUSH1 0x0 PUSH1 0x40 MLOAD DUP1 DUP4 SUB DUP2 DUP6 DUP9 DUP1 EXTCODESIZE ISZERO DUP1 ISZERO PUSH2 0x228C JUMPI PUSH1 0x0 DUP1 REVERT JUMPDEST POP GAS CALL SWAP4 POP POP POP POP DUP1 ISZERO PUSH2 0x229E JUMPI POP PUSH1 0x1 JUMPDEST PUSH2 0x22AB JUMPI PUSH1 0x0 SWAP3 POP PUSH2 0x23AE JUMP JUMPDEST PUSH1 0x16 SLOAD PUSH1 0x40 MLOAD PUSH4 0x70A08231 PUSH1 0xE0 SHL DUP2 MSTORE ADDRESS PUSH1 0x4 DUP3 ADD MSTORE PUSH1 0x0 SWAP2 PUSH2 0x231E SWAP2 DUP5 SWAP2 PUSH1 0x1 PUSH1 0x1 PUSH1 0xA0 SHL SUB AND SWAP1 PUSH4 0x70A08231 SWAP1 PUSH1 0x24 ADD PUSH1 0x20 PUSH1 0x40 MLOAD DUP1 DUP4 SUB DUP2 DUP7 GAS STATICCALL ISZERO DUP1 ISZERO PUSH2 0x22FA JUMPI RETURNDATASIZE PUSH1 0x0 DUP1 RETURNDATACOPY RETURNDATASIZE PUSH1 0x0 REVERT JUMPDEST POP POP POP POP PUSH1 0x40 MLOAD RETURNDATASIZE PUSH1 0x1F NOT PUSH1 0x1F DUP3 ADD AND DUP3 ADD DUP1 PUSH1 0x40 MSTORE POP DUP2 ADD SWAP1 PUSH2 0x12E9 SWAP2 SWAP1 PUSH2 0x2B76 JUMP JUMPDEST SWAP1 POP DUP1 ISZERO PUSH2 0x23A7 JUMPI PUSH1 0x16 SLOAD PUSH1 0x40 MLOAD PUSH4 0xA9059CBB PUSH1 0xE0 SHL DUP2 MSTORE PUSH1 0x1 PUSH1 0x1 PUSH1 0xA0 SHL SUB DUP10 DUP2 AND PUSH1 0x4 DUP4 ADD MSTORE PUSH1 0x24 DUP3 ADD DUP5 SWAP1 MSTORE PUSH1 0x1 SWAP7 POP SWAP1 SWAP2 AND SWAP1 PUSH4 0xA9059CBB SWAP1 PUSH1 0x44 ADD PUSH1 0x20 PUSH1 0x40 MLOAD DUP1 DUP4 SUB DUP2 PUSH1 0x0 DUP8 GAS CALL ISZERO DUP1 ISZERO PUSH2 0x237D JUMPI RETURNDATASIZE PUSH1 0x0 DUP1 RETURNDATACOPY RETURNDATASIZE PUSH1 0x0 REVERT JUMPDEST POP POP POP POP PUSH1 0x40 MLOAD RETURNDATASIZE PUSH1 0x1F NOT PUSH1 0x1F DUP3 ADD AND DUP3 ADD DUP1 PUSH1 0x40 MSTORE POP DUP2 ADD SWAP1 PUSH2 0x23A1 SWAP2 SWAP1 PUSH2 0x2B8F JUMP JUMPDEST POP PUSH2 0x23AC JUMP JUMPDEST PUSH1 0x0 SWAP4 POP JUMPDEST POP JUMPDEST DUP3 PUSH2 0x23FD JUMPI PUSH1 0x1 PUSH1 0x1 PUSH1 0xA0 SHL SUB DUP7 AND PUSH1 0x0 SWAP1 DUP2 MSTORE PUSH1 0x7 PUSH1 0x20 MSTORE PUSH1 0x40 SWAP1 KECCAK256 SLOAD PUSH2 0x23D6 SWAP1 DUP6 PUSH2 0x1D99 JUMP JUMPDEST PUSH1 0x1 PUSH1 0x1 PUSH1 0xA0 SHL SUB SWAP1 SWAP7 AND PUSH1 0x0 SWAP1 DUP2 MSTORE PUSH1 0x7 PUSH1 0x20 MSTORE PUSH1 0x40 DUP2 KECCAK256 SWAP7 SWAP1 SWAP7 SSTORE POP SWAP4 SWAP5 SWAP4 POP POP POP POP JUMP JUMPDEST POP SWAP2 SWAP5 SWAP4 POP POP POP POP JUMP JUMPDEST PUSH1 0x1 PUSH1 0x1 PUSH1 0xA0 SHL SUB DUP3 AND PUSH1 0x0 SWAP1 DUP2 MSTORE PUSH1 0x3 DUP5 ADD PUSH1 0x20 MSTORE PUSH1 0x40 SWAP1 KECCAK256 SLOAD PUSH1 0xFF AND ISZERO PUSH2 0x244C JUMPI PUSH1 0x1 PUSH1 0x1 PUSH1 0xA0 SHL SUB DUP3 AND PUSH1 0x0 SWAP1 DUP2 MSTORE PUSH1 0x1 DUP5 ADD PUSH1 0x20 MSTORE PUSH1 0x40 SWAP1 KECCAK256 DUP2 SWAP1 SSTORE POP POP POP JUMP JUMPDEST PUSH1 0x1 PUSH1 0x1 PUSH1 0xA0 SHL SUB DUP3 AND PUSH1 0x0 DUP2 DUP2 MSTORE PUSH1 0x3 DUP6 ADD PUSH1 0x20 SWAP1 DUP2 MSTORE PUSH1 0x40 DUP1 DUP4 KECCAK256 DUP1 SLOAD PUSH1 0xFF NOT AND PUSH1 0x1 SWAP1 DUP2 OR SWAP1 SWAP2 SSTORE DUP8 DUP2 ADD DUP4 MSTORE DUP2 DUP5 KECCAK256 DUP7 SWAP1 SSTORE DUP8 SLOAD PUSH1 0x2 DUP10 ADD DUP5 MSTORE SWAP2 DUP5 KECCAK256 DUP3 SWAP1 SSTORE DUP2 ADD DUP8 SSTORE DUP7 DUP4 MSTORE SWAP2 KECCAK256 ADD DUP1 SLOAD PUSH1 0x1 PUSH1 0x1 PUSH1 0xA0 SHL SUB NOT AND SWAP1 SWAP2 OR SWAP1 SSTORE POP POP POP JUMP JUMPDEST PUSH1 0x1 PUSH1 0x1 PUSH1 0xA0 SHL SUB DUP2 AND PUSH1 0x0 SWAP1 DUP2 MSTORE PUSH1 0x3 DUP4 ADD PUSH1 0x20 MSTORE PUSH1 0x40 DUP2 KECCAK256 SLOAD PUSH1 0xFF AND PUSH2 0x24DB JUMPI POP PUSH1 0x0 NOT PUSH2 0xC07 JUMP JUMPDEST POP PUSH1 0x1 PUSH1 0x1 PUSH1 0xA0 SHL SUB AND PUSH1 0x0 SWAP1 DUP2 MSTORE PUSH1 0x2 SWAP2 SWAP1 SWAP2 ADD PUSH1 0x20 MSTORE PUSH1 0x40 SWAP1 KECCAK256 SLOAD SWAP1 JUMP JUMPDEST PUSH1 0x0 DUP1 PUSH2 0x2508 DUP4 DUP6 PUSH2 0x2BAC JUMP JUMPDEST SWAP1 POP PUSH1 0x0 DUP4 SLT ISZERO DUP1 ISZERO PUSH2 0x251B JUMPI POP DUP4 DUP2 SGT ISZERO JUMPDEST DUP1 PUSH2 0x1BB0 JUMPI POP PUSH1 0x0 DUP4 SLT DUP1 ISZERO PUSH2 0x1BB0 JUMPI POP DUP4 DUP2 SGT PUSH2 0x1944 JUMPI PUSH1 0x0 DUP1 REVERT JUMPDEST PUSH2 0x2542 DUP3 DUP3 PUSH2 0x25E0 JUMP JUMPDEST PUSH2 0x257C PUSH2 0x255D PUSH2 0xCB8 DUP4 PUSH1 0x5 SLOAD PUSH2 0x18C2 SWAP1 SWAP2 SWAP1 PUSH4 0xFFFFFFFF AND JUMP JUMPDEST PUSH1 0x1 PUSH1 0x1 PUSH1 0xA0 SHL SUB DUP5 AND PUSH1 0x0 SWAP1 DUP2 MSTORE PUSH1 0x6 PUSH1 0x20 MSTORE PUSH1 0x40 SWAP1 KECCAK256 SLOAD SWAP1 PUSH2 0x24FB JUMP JUMPDEST PUSH1 0x1 PUSH1 0x1 PUSH1 0xA0 SHL SUB SWAP1 SWAP3 AND PUSH1 0x0 SWAP1 DUP2 MSTORE PUSH1 0x6 PUSH1 0x20 MSTORE PUSH1 0x40 SWAP1 KECCAK256 SWAP2 SWAP1 SWAP2 SSTORE POP JUMP JUMPDEST PUSH2 0x25A6 DUP3 DUP3 PUSH2 0x26BF JUMP JUMPDEST PUSH2 0x257C PUSH2 0x25C1 PUSH2 0xCB8 DUP4 PUSH1 0x5 SLOAD PUSH2 0x18C2 SWAP1 SWAP2 SWAP1 PUSH4 0xFFFFFFFF AND JUMP JUMPDEST PUSH1 0x1 PUSH1 0x1 PUSH1 0xA0 SHL SUB DUP5 AND PUSH1 0x0 SWAP1 DUP2 MSTORE PUSH1 0x6 PUSH1 0x20 MSTORE PUSH1 0x40 SWAP1 KECCAK256 SLOAD SWAP1 PUSH2 0x1B7B JUMP JUMPDEST PUSH1 0x1 PUSH1 0x1 PUSH1 0xA0 SHL SUB DUP3 AND PUSH2 0x2636 JUMPI PUSH1 0x40 MLOAD PUSH3 0x461BCD PUSH1 0xE5 SHL DUP2 MSTORE PUSH1 0x20 PUSH1 0x4 DUP3 ADD MSTORE PUSH1 0x1F PUSH1 0x24 DUP3 ADD MSTORE PUSH32 0x45524332303A206D696E7420746F20746865207A65726F206164647265737300 PUSH1 0x44 DUP3 ADD MSTORE PUSH1 0x64 ADD PUSH2 0xBCC JUMP JUMPDEST PUSH1 0x2 SLOAD PUSH2 0x2643 SWAP1 DUP3 PUSH2 0x194B JUMP JUMPDEST PUSH1 0x2 SSTORE PUSH1 0x1 PUSH1 0x1 PUSH1 0xA0 SHL SUB DUP3 AND PUSH1 0x0 SWAP1 DUP2 MSTORE PUSH1 0x20 DUP2 SWAP1 MSTORE PUSH1 0x40 SWAP1 KECCAK256 SLOAD PUSH2 0x2669 SWAP1 DUP3 PUSH2 0x194B JUMP JUMPDEST PUSH1 0x1 PUSH1 0x1 PUSH1 0xA0 SHL SUB DUP4 AND PUSH1 0x0 DUP2 DUP2 MSTORE PUSH1 0x20 DUP2 DUP2 MSTORE PUSH1 0x40 DUP1 DUP4 KECCAK256 SWAP5 SWAP1 SWAP5 SSTORE SWAP3 MLOAD DUP5 DUP2 MSTORE SWAP2 SWAP3 SWAP1 SWAP2 PUSH32 0xDDF252AD1BE2C89B69C2B068FC378DAA952BA7F163C4A11628F55A4DF523B3EF SWAP2 ADD JUMPDEST PUSH1 0x40 MLOAD DUP1 SWAP2 SUB SWAP1 LOG3 POP POP JUMP JUMPDEST PUSH1 0x1 PUSH1 0x1 PUSH1 0xA0 SHL SUB DUP3 AND PUSH2 0x271F JUMPI PUSH1 0x40 MLOAD PUSH3 0x461BCD PUSH1 0xE5 SHL DUP2 MSTORE PUSH1 0x20 PUSH1 0x4 DUP3 ADD MSTORE PUSH1 0x21 PUSH1 0x24 DUP3 ADD MSTORE PUSH32 0x45524332303A206275726E2066726F6D20746865207A65726F20616464726573 PUSH1 0x44 DUP3 ADD MSTORE PUSH1 0x73 PUSH1 0xF8 SHL PUSH1 0x64 DUP3 ADD MSTORE PUSH1 0x84 ADD PUSH2 0xBCC JUMP JUMPDEST PUSH2 0x275C DUP2 PUSH1 0x40 MLOAD DUP1 PUSH1 0x60 ADD PUSH1 0x40 MSTORE DUP1 PUSH1 0x22 DUP2 MSTORE PUSH1 0x20 ADD PUSH2 0x2BEC PUSH1 0x22 SWAP2 CODECOPY PUSH1 0x1 PUSH1 0x1 PUSH1 0xA0 SHL SUB DUP6 AND PUSH1 0x0 SWAP1 DUP2 MSTORE PUSH1 0x20 DUP2 SWAP1 MSTORE PUSH1 0x40 SWAP1 KECCAK256 SLOAD SWAP2 SWAP1 PUSH2 0x1B31 JUMP JUMPDEST PUSH1 0x1 PUSH1 0x1 PUSH1 0xA0 SHL SUB DUP4 AND PUSH1 0x0 SWAP1 DUP2 MSTORE PUSH1 0x20 DUP2 SWAP1 MSTORE PUSH1 0x40 SWAP1 KECCAK256 SSTORE PUSH1 0x2 SLOAD PUSH2 0x2782 SWAP1 DUP3 PUSH2 0x1D99 JUMP JUMPDEST PUSH1 0x2 SSTORE PUSH1 0x40 MLOAD DUP2 DUP2 MSTORE PUSH1 0x0 SWAP1 PUSH1 0x1 PUSH1 0x1 PUSH1 0xA0 SHL SUB DUP5 AND SWAP1 PUSH32 0xDDF252AD1BE2C89B69C2B068FC378DAA952BA7F163C4A11628F55A4DF523B3EF SWAP1 PUSH1 0x20 ADD PUSH2 0x26B3 JUMP JUMPDEST PUSH1 0x0 PUSH1 0x20 DUP1 DUP4 MSTORE DUP4 MLOAD DUP1 DUP3 DUP6 ADD MSTORE PUSH1 0x0 JUMPDEST DUP2 DUP2 LT ISZERO PUSH2 0x27F0 JUMPI DUP6 DUP2 ADD DUP4 ADD MLOAD DUP6 DUP3 ADD PUSH1 0x40 ADD MSTORE DUP3 ADD PUSH2 0x27D4 JUMP JUMPDEST DUP2 DUP2 GT ISZERO PUSH2 0x2802 JUMPI PUSH1 0x0 PUSH1 0x40 DUP4 DUP8 ADD ADD MSTORE JUMPDEST POP PUSH1 0x1F ADD PUSH1 0x1F NOT AND SWAP3 SWAP1 SWAP3 ADD PUSH1 0x40 ADD SWAP4 SWAP3 POP POP POP JUMP JUMPDEST PUSH1 0x1 PUSH1 0x1 PUSH1 0xA0 SHL SUB DUP2 AND DUP2 EQ PUSH2 0x282D JUMPI PUSH1 0x0 DUP1 REVERT JUMPDEST POP JUMP JUMPDEST PUSH1 0x0 PUSH1 0x20 DUP3 DUP5 SUB SLT ISZERO PUSH2 0x2842 JUMPI PUSH1 0x0 DUP1 REVERT JUMPDEST DUP2 CALLDATALOAD PUSH2 0x1944 DUP2 PUSH2 0x2818 JUMP JUMPDEST PUSH1 0x0 DUP1 PUSH1 0x40 DUP4 DUP6 SUB SLT ISZERO PUSH2 0x2860 JUMPI PUSH1 0x0 DUP1 REVERT JUMPDEST DUP3 CALLDATALOAD PUSH2 0x286B DUP2 PUSH2 0x2818 JUMP JUMPDEST SWAP5 PUSH1 0x20 SWAP4 SWAP1 SWAP4 ADD CALLDATALOAD SWAP4 POP POP POP JUMP JUMPDEST PUSH1 0x0 DUP1 PUSH1 0x0 PUSH1 0x60 DUP5 DUP7 SUB SLT ISZERO PUSH2 0x288E JUMPI PUSH1 0x0 DUP1 REVERT JUMPDEST DUP4 CALLDATALOAD PUSH2 0x2899 DUP2 PUSH2 0x2818 JUMP JUMPDEST SWAP3 POP PUSH1 0x20 DUP5 ADD CALLDATALOAD PUSH2 0x28A9 DUP2 PUSH2 0x2818 JUMP JUMPDEST SWAP3 SWAP6 SWAP3 SWAP5 POP POP POP PUSH1 0x40 SWAP2 SWAP1 SWAP2 ADD CALLDATALOAD SWAP1 JUMP JUMPDEST DUP1 ISZERO ISZERO DUP2 EQ PUSH2 0x282D JUMPI PUSH1 0x0 DUP1 REVERT JUMPDEST PUSH1 0x0 PUSH1 0x20 DUP3 DUP5 SUB SLT ISZERO PUSH2 0x28DA JUMPI PUSH1 0x0 DUP1 REVERT JUMPDEST DUP2 CALLDATALOAD PUSH2 0x1944 DUP2 PUSH2 0x28BA JUMP JUMPDEST PUSH1 0x0 PUSH1 0x20 DUP3 DUP5 SUB SLT ISZERO PUSH2 0x28F7 JUMPI PUSH1 0x0 DUP1 REVERT JUMPDEST POP CALLDATALOAD SWAP2 SWAP1 POP JUMP JUMPDEST PUSH1 0x0 DUP1 PUSH1 0x40 DUP4 DUP6 SUB SLT ISZERO PUSH2 0x2911 JUMPI PUSH1 0x0 DUP1 REVERT JUMPDEST DUP3 CALLDATALOAD PUSH2 0x291C DUP2 PUSH2 0x2818 JUMP JUMPDEST SWAP2 POP PUSH1 0x20 DUP4 ADD CALLDATALOAD PUSH2 0x292C DUP2 PUSH2 0x28BA JUMP JUMPDEST DUP1 SWAP2 POP POP SWAP3 POP SWAP3 SWAP1 POP JUMP JUMPDEST PUSH1 0x0 DUP1 PUSH1 0x40 DUP4 DUP6 SUB SLT ISZERO PUSH2 0x294A JUMPI PUSH1 0x0 DUP1 REVERT JUMPDEST DUP3 CALLDATALOAD PUSH2 0x2955 DUP2 PUSH2 0x2818 JUMP JUMPDEST SWAP2 POP PUSH1 0x20 DUP4 ADD CALLDATALOAD PUSH2 0x292C DUP2 PUSH2 0x2818 JUMP JUMPDEST PUSH4 0x4E487B71 PUSH1 0xE0 SHL PUSH1 0x0 MSTORE PUSH1 0x11 PUSH1 0x4 MSTORE PUSH1 0x24 PUSH1 0x0 REVERT JUMPDEST PUSH1 0x0 DUP3 PUSH2 0x2998 JUMPI PUSH4 0x4E487B71 PUSH1 0xE0 SHL PUSH1 0x0 MSTORE PUSH1 0x12 PUSH1 0x4 MSTORE PUSH1 0x24 PUSH1 0x0 REVERT JUMPDEST POP DIV SWAP1 JUMP JUMPDEST PUSH1 0x1 DUP2 DUP2 SHR SWAP1 DUP3 AND DUP1 PUSH2 0x29B1 JUMPI PUSH1 0x7F DUP3 AND SWAP2 POP JUMPDEST PUSH1 0x20 DUP3 LT DUP2 SUB PUSH2 0x29D1 JUMPI PUSH4 0x4E487B71 PUSH1 0xE0 SHL PUSH1 0x0 MSTORE PUSH1 0x22 PUSH1 0x4 MSTORE PUSH1 0x24 PUSH1 0x0 REVERT JUMPDEST POP SWAP2 SWAP1 POP JUMP JUMPDEST PUSH1 0x20 DUP1 DUP3 MSTORE DUP2 DUP2 ADD MSTORE PUSH32 0x4F776E61626C653A2063616C6C6572206973206E6F7420746865206F776E6572 PUSH1 0x40 DUP3 ADD MSTORE PUSH1 0x60 ADD SWAP1 JUMP JUMPDEST PUSH1 0x0 DUP2 PUSH1 0x0 NOT DIV DUP4 GT DUP3 ISZERO ISZERO AND ISZERO PUSH2 0x2A26 JUMPI PUSH2 0x2A26 PUSH2 0x2965 JUMP JUMPDEST POP MUL SWAP1 JUMP JUMPDEST PUSH1 0x0 PUSH1 0x1 DUP3 ADD PUSH2 0x2A3D JUMPI PUSH2 0x2A3D PUSH2 0x2965 JUMP JUMPDEST POP PUSH1 0x1 ADD SWAP1 JUMP JUMPDEST PUSH4 0x4E487B71 PUSH1 0xE0 SHL PUSH1 0x0 MSTORE PUSH1 0x32 PUSH1 0x4 MSTORE PUSH1 0x24 PUSH1 0x0 REVERT JUMPDEST PUSH1 0x0 DUP3 NOT DUP3 GT ISZERO PUSH2 0x2A6D JUMPI PUSH2 0x2A6D PUSH2 0x2965 JUMP JUMPDEST POP ADD SWAP1 JUMP JUMPDEST PUSH1 0x0 DUP3 DUP3 LT ISZERO PUSH2 0x2A84 JUMPI PUSH2 0x2A84 PUSH2 0x2965 JUMP JUMPDEST POP SUB SWAP1 JUMP JUMPDEST PUSH1 0x0 DUP1 DUP3 SLT DUP1 ISZERO PUSH1 0x1 PUSH1 0x1 PUSH1 0xFF SHL SUB DUP5 SWAP1 SUB DUP6 SGT AND ISZERO PUSH2 0x2AAB JUMPI PUSH2 0x2AAB PUSH2 0x2965 JUMP JUMPDEST PUSH1 0x1 PUSH1 0xFF SHL DUP4 SWAP1 SUB DUP5 SLT DUP2 AND ISZERO PUSH2 0x2AC4 JUMPI PUSH2 0x2AC4 PUSH2 0x2965 JUMP JUMPDEST POP POP ADD SWAP1 JUMP JUMPDEST PUSH4 0x4E487B71 PUSH1 0xE0 SHL PUSH1 0x0 MSTORE PUSH1 0x31 PUSH1 0x4 MSTORE PUSH1 0x24 PUSH1 0x0 REVERT JUMPDEST PUSH1 0x0 PUSH1 0x20 DUP3 DUP5 SUB SLT ISZERO PUSH2 0x2AF2 JUMPI PUSH1 0x0 DUP1 REVERT JUMPDEST DUP2 MLOAD PUSH2 0x1944 DUP2 PUSH2 0x2818 JUMP JUMPDEST PUSH1 0x0 DUP2 MLOAD DUP1 DUP5 MSTORE PUSH1 0x20 DUP1 DUP6 ADD SWAP5 POP DUP1 DUP5 ADD PUSH1 0x0 JUMPDEST DUP4 DUP2 LT ISZERO PUSH2 0x2B36 JUMPI DUP2 MLOAD PUSH1 0x1 PUSH1 0x1 PUSH1 0xA0 SHL SUB AND DUP8 MSTORE SWAP6 DUP3 ADD SWAP6 SWAP1 DUP3 ADD SWAP1 PUSH1 0x1 ADD PUSH2 0x2B11 JUMP JUMPDEST POP SWAP5 SWAP6 SWAP5 POP POP POP POP POP JUMP JUMPDEST DUP5 DUP2 MSTORE PUSH1 0x80 PUSH1 0x20 DUP3 ADD MSTORE PUSH1 0x0 PUSH2 0x2B5A PUSH1 0x80 DUP4 ADD DUP7 PUSH2 0x2AFD JUMP JUMPDEST PUSH1 0x1 PUSH1 0x1 PUSH1 0xA0 SHL SUB SWAP5 SWAP1 SWAP5 AND PUSH1 0x40 DUP4 ADD MSTORE POP PUSH1 0x60 ADD MSTORE SWAP3 SWAP2 POP POP JUMP JUMPDEST PUSH1 0x0 PUSH1 0x20 DUP3 DUP5 SUB SLT ISZERO PUSH2 0x2B88 JUMPI PUSH1 0x0 DUP1 REVERT JUMPDEST POP MLOAD SWAP2 SWAP1 POP JUMP JUMPDEST PUSH1 0x0 PUSH1 0x20 DUP3 DUP5 SUB SLT ISZERO PUSH2 0x2BA1 JUMPI PUSH1 0x0 DUP1 REVERT JUMPDEST DUP2 MLOAD PUSH2 0x1944 DUP2 PUSH2 0x28BA JUMP JUMPDEST PUSH1 0x0 DUP1 DUP4 SLT DUP1 ISZERO PUSH1 0x1 PUSH1 0xFF SHL DUP6 ADD DUP5 SLT AND ISZERO PUSH2 0x2BCA JUMPI PUSH2 0x2BCA PUSH2 0x2965 JUMP JUMPDEST PUSH1 0x1 PUSH1 0x1 PUSH1 0xFF SHL SUB DUP5 ADD DUP4 SGT DUP2 AND ISZERO PUSH2 0x2BE5 JUMPI PUSH2 0x2BE5 PUSH2 0x2965 JUMP JUMPDEST POP POP SUB SWAP1 JUMP INVALID GASLIMIT MSTORE NUMBER ORIGIN ADDRESS GASPRICE KECCAK256 PUSH3 0x75726E KECCAK256 PUSH2 0x6D6F PUSH22 0x6E7420657863656564732062616C616E636545524332 ADDRESS GASPRICE KECCAK256 PUSH21 0x72616E7366657220616D6F756E7420657863656564 PUSH20 0x20616C6C6F77616E636545524332303A20646563 PUSH19 0x656173656420616C6C6F77616E63652062656C PUSH16 0x77207A65726FA2646970667358221220 0x23 0xBC RETURN SWAP2 LOG2 PUSH20 0x80CE94855D80B53A597A88C6E3ED9F60749EA899 PUSH17 0x915A4E126064736F6C634300080F003300 "
		},
		"gasEstimates": {
			"creation": {
				"codeDepositCost": "4094200",
				"executionCost": "infinite",
				"totalCost": "infinite"
			},
			"external": {
				"DEAD()": "2396",
				"airdropToWallets(address[],uint256[])": "infinite",
				"allowance(address,address)": "infinite",
				"approve(address,uint256)": "24661",
				"automatedMarketMakerPairs(address)": "2637",
				"balanceOf(address)": "2702",
				"blacklist(address)": "26876",
				"buyAmount()": "2474",
				"buyDeadFees()": "2407",
				"buyDevFee()": "2407",
				"buyLiquidityFee()": "2406",
				"buyMarketingFees()": "2363",
				"buyRewardsFee()": "2428",
				"claim()": "infinite",
				"cooldowntimer()": "2452",
				"decimals()": "356",
				"decreaseAllowance(address,uint256)": "infinite",
				"devWallet()": "2438",
				"dividendTokenBalanceOf(address)": "infinite",
				"dividendTracker()": "2461",
				"enableStaking(bool)": "30118",
				"enableSwapAndLiquify(bool)": "30014",
				"enableTrading()": "51693",
				"forceSwapAndSendDividends(uint256)": "infinite",
				"gasForProcessing()": "2363",
				"getAccountDividendsInfo(address)": "infinite",
				"getAccountDividendsInfoAtIndex(uint256)": "infinite",
				"getLastProcessedIndex()": "infinite",
				"getNumberOfDividendTokenHolders()": "infinite",
				"getPayoutToken()": "infinite",
				"getStakingInfo(address)": "4882",
				"getTotalDividendsDistributed()": "infinite",
				"increaseAllowance(address,uint256)": "27096",
				"isBlacklisted(address)": "2701",
				"isExcludedFromAutoClaim(address)": "infinite",
				"isExcludedFromFees(address)": "2700",
				"isReinvest(address)": "infinite",
				"launchblock()": "2385",
				"limitsInEffect()": "2379",
				"marketingWallet()": "2437",
				"maxWallet()": "2405",
				"multiSend(address[],uint256[])": "infinite",
				"name()": "infinite",
				"owner()": "2410",
				"processDividendTracker(uint256)": "infinite",
				"renounceOwnership()": "30340",
				"sellAmount()": "2407",
				"sellDeadFees()": "2363",
				"sellDevFee()": "2473",
				"sellLiquidityFee()": "2383",
				"sellMarketingFees()": "2429",
				"sellRewardsFee()": "2384",
				"setAllowAutoReinvest(bool)": "infinite",
				"setAllowCustomTokens(bool)": "infinite",
				"setAutoClaim(bool)": "infinite",
				"setAutomatedMarketMakerPair(address,bool)": "infinite",
				"setCanTransferBefore(address,bool)": "infinite",
				"setDividendsPaused(bool)": "infinite",
				"setExcludeDividends(address)": "infinite",
				"setExcludeFees(address,bool)": "infinite",
				"setGasPriceLimit(uint256)": "24742",
				"setIncludeDividends(address)": "infinite",
				"setLimitsInEffect(bool)": "26731",
				"setMinimumTokenBalanceForAutoDividends(uint256)": "infinite",
				"setMinimumTokenBalanceForDividends(uint256)": "infinite",
				"setPresaleWallet(address)": "infinite",
				"setReinvest(bool)": "infinite",
				"setSwapTriggerAmount(uint256)": "24714",
				"setcooldowntimer(uint256)": "24624",
				"setmaxWallet(uint256)": "26904",
				"stake(uint256)": "infinite",
				"stakingAmounts(uint256)": "2594",
				"stakingBonus(address)": "2646",
				"stakingUntilDate(address)": "2668",
				"swapAndLiquifyEnabled()": "2401",
				"swapTokensAtAmount()": "2362",
				"symbol()": "infinite",
				"totalSupply()": "2416",
				"tradingEnabled()": "2440",
				"transfer(address,uint256)": "infinite",
				"transferAdmin(address)": "infinite",
				"transferFee()": "2472",
				"transferFrom(address,address,uint256)": "infinite",
				"transferOwnership(address)": "30571",
				"uniswapV2Pair()": "2504",
				"uniswapV2Router()": "2439",
				"updateFees(uint256,uint256,uint256,uint256,uint256,uint256,uint256,uint256,uint256,uint256)": "infinite",
				"updateGasForProcessing(uint256)": "28286",
				"updatePayoutToken(address)": "infinite",
				"updateStakingAmounts(uint256,uint256)": "28215",
				"updateTransferFee(uint256)": "25647",
				"withdrawableDividendOf(address)": "infinite"
			},
			"internal": {
				"_setAutomatedMarketMakerPair(address,bool)": "infinite",
				"_transfer(address,address,uint256)": "infinite",
				"addLiquidity(uint256,uint256)": "infinite",
				"getStakingBalance(address)": "infinite",
				"swapAndLiquify(uint256)": "infinite",
				"swapAndSendDividends(uint256)": "infinite",
				"swapTokensForEth(uint256)": "infinite"
			}
		},
		"methodIdentifiers": {
			"DEAD()": "03fd2a45",
			"airdropToWallets(address[],uint256[])": "2307b441",
			"allowance(address,address)": "dd62ed3e",
			"approve(address,uint256)": "095ea7b3",
			"automatedMarketMakerPairs(address)": "b62496f5",
			"balanceOf(address)": "70a08231",
			"blacklist(address)": "f9f92be4",
			"buyAmount()": "1fa70531",
			"buyDeadFees()": "5c234bb6",
			"buyDevFee()": "9c3b4fdc",
			"buyLiquidityFee()": "f11a24d3",
			"buyMarketingFees()": "5124f874",
			"buyRewardsFee()": "77a3b609",
			"claim()": "4e71d92d",
			"cooldowntimer()": "1d7b1fb4",
			"decimals()": "313ce567",
			"decreaseAllowance(address,uint256)": "a457c2d7",
			"devWallet()": "8ea5220f",
			"dividendTokenBalanceOf(address)": "6843cd84",
			"dividendTracker()": "2c1f5216",
			"enableStaking(bool)": "9cefc1da",
			"enableSwapAndLiquify(bool)": "d5e37251",
			"enableTrading()": "8a8c523c",
			"forceSwapAndSendDividends(uint256)": "05ca5f08",
			"gasForProcessing()": "9c1b8af5",
			"getAccountDividendsInfo(address)": "ad56c13c",
			"getAccountDividendsInfoAtIndex(uint256)": "f27fd254",
			"getLastProcessedIndex()": "e7841ec0",
			"getNumberOfDividendTokenHolders()": "64b0f653",
			"getPayoutToken()": "25cd3598",
			"getStakingInfo(address)": "aa4704f3",
			"getTotalDividendsDistributed()": "30bb4cff",
			"increaseAllowance(address,uint256)": "39509351",
			"isBlacklisted(address)": "fe575a87",
			"isExcludedFromAutoClaim(address)": "6d48467b",
			"isExcludedFromFees(address)": "4fbee193",
			"isReinvest(address)": "ba079d49",
			"launchblock()": "b4942988",
			"limitsInEffect()": "4a62bb65",
			"marketingWallet()": "75f0a874",
			"maxWallet()": "f8b45b05",
			"multiSend(address[],uint256[])": "bb4c9f0b",
			"name()": "06fdde03",
			"owner()": "8da5cb5b",
			"processDividendTracker(uint256)": "700bb191",
			"renounceOwnership()": "715018a6",
			"sellAmount()": "3f407b84",
			"sellDeadFees()": "8ca2923a",
			"sellDevFee()": "a0d82dc5",
			"sellLiquidityFee()": "f6374342",
			"sellMarketingFees()": "95451c29",
			"sellRewardsFee()": "bb8d5131",
			"setAllowAutoReinvest(bool)": "40ffdd80",
			"setAllowCustomTokens(bool)": "9c3372ea",
			"setAutoClaim(bool)": "868730c7",
			"setAutomatedMarketMakerPair(address,bool)": "9a7a23d6",
			"setCanTransferBefore(address,bool)": "7fdde05c",
			"setDividendsPaused(bool)": "3599bb17",
			"setExcludeDividends(address)": "72d8edf4",
			"setExcludeFees(address,bool)": "08dfe8a5",
			"setGasPriceLimit(uint256)": "09231602",
			"setIncludeDividends(address)": "9ec1037e",
			"setLimitsInEffect(bool)": "679ca6e9",
			"setMinimumTokenBalanceForAutoDividends(uint256)": "5a84c5eb",
			"setMinimumTokenBalanceForDividends(uint256)": "5ebf4db9",
			"setPresaleWallet(address)": "d07a091c",
			"setReinvest(bool)": "f5d3c79a",
			"setSwapTriggerAmount(uint256)": "5eee4bae",
			"setcooldowntimer(uint256)": "b74e3b11",
			"setmaxWallet(uint256)": "fc6b151c",
			"stake(uint256)": "a694fc3a",
			"stakingAmounts(uint256)": "435c89e4",
			"stakingBonus(address)": "f1c0ddff",
			"stakingUntilDate(address)": "7d32f342",
			"swapAndLiquifyEnabled()": "4a74bb02",
			"swapTokensAtAmount()": "e2f45605",
			"symbol()": "95d89b41",
			"totalSupply()": "18160ddd",
			"tradingEnabled()": "4ada218b",
			"transfer(address,uint256)": "a9059cbb",
			"transferAdmin(address)": "75829def",
			"transferFee()": "acb2ad6f",
			"transferFrom(address,address,uint256)": "23b872dd",
			"transferOwnership(address)": "f2fde38b",
			"uniswapV2Pair()": "49bd5a5e",
			"uniswapV2Router()": "1694505e",
			"updateFees(uint256,uint256,uint256,uint256,uint256,uint256,uint256,uint256,uint256,uint256)": "837ae2d0",
			"updateGasForProcessing(uint256)": "871c128d",
			"updatePayoutToken(address)": "d8032ed3",
			"updateStakingAmounts(uint256,uint256)": "0ef35b7e",
			"updateTransferFee(uint256)": "8577a6d5",
			"withdrawableDividendOf(address)": "a8b9d240"
		}
	},
	"abi": [
		{
			"inputs": [],
			"stateMutability": "nonpayable",
			"type": "constructor"
		},
		{
			"anonymous": false,
			"inputs": [
				{
					"indexed": false,
					"internalType": "address",
					"name": "holder",
					"type": "address"
				},
				{
					"indexed": false,
					"internalType": "uint256",
					"name": "amount",
					"type": "uint256"
				}
			],
			"name": "Airdrop",
			"type": "event"
		},
		{
			"anonymous": false,
			"inputs": [
				{
					"indexed": true,
					"internalType": "address",
					"name": "owner",
					"type": "address"
				},
				{
					"indexed": true,
					"internalType": "address",
					"name": "spender",
					"type": "address"
				},
				{
					"indexed": false,
					"internalType": "uint256",
					"name": "value",
					"type": "uint256"
				}
			],
			"name": "Approval",
			"type": "event"
		},
		{
			"anonymous": false,
			"inputs": [
				{
					"indexed": true,
					"internalType": "address",
					"name": "account",
					"type": "address"
				},
				{
					"indexed": false,
					"internalType": "uint256",
					"name": "duration",
					"type": "uint256"
				}
			],
			"name": "EnableAccountStaking",
			"type": "event"
		},
		{
			"anonymous": false,
			"inputs": [
				{
					"indexed": false,
					"internalType": "bool",
					"name": "enabled",
					"type": "bool"
				}
			],
			"name": "EnableStaking",
			"type": "event"
		},
		{
			"anonymous": false,
			"inputs": [
				{
					"indexed": false,
					"internalType": "bool",
					"name": "enabled",
					"type": "bool"
				}
			],
			"name": "EnableSwapAndLiquify",
			"type": "event"
		},
		{
			"anonymous": false,
			"inputs": [
				{
					"indexed": true,
					"internalType": "address",
					"name": "account",
					"type": "address"
				},
				{
					"indexed": false,
					"internalType": "bool",
					"name": "isExcluded",
					"type": "bool"
				}
			],
			"name": "ExcludeFromFees",
			"type": "event"
		},
		{
			"anonymous": false,
			"inputs": [
				{
					"indexed": true,
					"internalType": "uint256",
					"name": "newValue",
					"type": "uint256"
				},
				{
					"indexed": true,
					"internalType": "uint256",
					"name": "oldValue",
					"type": "uint256"
				}
			],
			"name": "GasForProcessingUpdated",
			"type": "event"
		},
		{
			"anonymous": false,
			"inputs": [
				{
					"indexed": true,
					"internalType": "address",
					"name": "previousOwner",
					"type": "address"
				},
				{
					"indexed": true,
					"internalType": "address",
					"name": "newOwner",
					"type": "address"
				}
			],
			"name": "OwnershipTransferred",
			"type": "event"
		},
		{
			"anonymous": false,
			"inputs": [
				{
					"indexed": false,
					"internalType": "uint256",
					"name": "iterations",
					"type": "uint256"
				},
				{
					"indexed": false,
					"internalType": "uint256",
					"name": "claims",
					"type": "uint256"
				},
				{
					"indexed": false,
					"internalType": "uint256",
					"name": "lastProcessedIndex",
					"type": "uint256"
				},
				{
					"indexed": true,
					"internalType": "bool",
					"name": "automatic",
					"type": "bool"
				},
				{
					"indexed": false,
					"internalType": "uint256",
					"name": "gas",
					"type": "uint256"
				},
				{
					"indexed": true,
					"internalType": "address",
					"name": "processor",
					"type": "address"
				}
			],
			"name": "ProcessedDividendTracker",
			"type": "event"
		},
		{
			"anonymous": false,
			"inputs": [
				{
					"indexed": false,
					"internalType": "uint256",
					"name": "amount",
					"type": "uint256"
				},
				{
					"indexed": false,
					"internalType": "uint256",
					"name": "opAmount",
					"type": "uint256"
				},
				{
					"indexed": false,
					"internalType": "bool",
					"name": "success",
					"type": "bool"
				}
			],
			"name": "SendDividends",
			"type": "event"
		},
		{
			"anonymous": false,
			"inputs": [
				{
					"indexed": true,
					"internalType": "address",
					"name": "pair",
					"type": "address"
				},
				{
					"indexed": true,
					"internalType": "bool",
					"name": "value",
					"type": "bool"
				}
			],
			"name": "SetAutomatedMarketMakerPair",
			"type": "event"
		},
		{
			"anonymous": false,
			"inputs": [
				{
					"indexed": false,
					"internalType": "address",
					"name": "wallet",
					"type": "address"
				}
			],
			"name": "SetPreSaleWallet",
			"type": "event"
		},
		{
			"anonymous": false,
			"inputs": [
				{
					"indexed": false,
					"internalType": "uint256",
					"name": "tokensSwapped",
					"type": "uint256"
				},
				{
					"indexed": false,
					"internalType": "uint256",
					"name": "ethReceived",
					"type": "uint256"
				},
				{
					"indexed": false,
					"internalType": "uint256",
					"name": "tokensIntoLiqudity",
					"type": "uint256"
				}
			],
			"name": "SwapAndLiquify",
			"type": "event"
		},
		{
			"anonymous": false,
			"inputs": [],
			"name": "TradingEnabled",
			"type": "event"
		},
		{
			"anonymous": false,
			"inputs": [
				{
					"indexed": true,
					"internalType": "address",
					"name": "from",
					"type": "address"
				},
				{
					"indexed": true,
					"internalType": "address",
					"name": "to",
					"type": "address"
				},
				{
					"indexed": false,
					"internalType": "uint256",
					"name": "value",
					"type": "uint256"
				}
			],
			"name": "Transfer",
			"type": "event"
		},
		{
			"anonymous": false,
			"inputs": [
				{
					"indexed": true,
					"internalType": "address",
					"name": "newAddress",
					"type": "address"
				},
				{
					"indexed": true,
					"internalType": "address",
					"name": "oldAddress",
					"type": "address"
				}
			],
			"name": "UpdateDividendTracker",
			"type": "event"
		},
		{
			"anonymous": false,
			"inputs": [
				{
					"indexed": false,
					"internalType": "uint256",
					"name": "sellDeadFees",
					"type": "uint256"
				},
				{
					"indexed": false,
					"internalType": "uint256",
					"name": "sellMarketingFees",
					"type": "uint256"
				},
				{
					"indexed": false,
					"internalType": "uint256",
					"name": "sellLiquidityFee",
					"type": "uint256"
				},
				{
					"indexed": false,
					"internalType": "uint256",
					"name": "sellRewardsFee",
					"type": "uint256"
				},
				{
					"indexed": false,
					"internalType": "uint256",
					"name": "buyDeadFees",
					"type": "uint256"
				},
				{
					"indexed": false,
					"internalType": "uint256",
					"name": "buyMarketingFees",
					"type": "uint256"
				},
				{
					"indexed": false,
					"internalType": "uint256",
					"name": "buyLiquidityFee",
					"type": "uint256"
				},
				{
					"indexed": false,
					"internalType": "uint256",
					"name": "buyRewardsFee",
					"type": "uint256"
				},
				{
					"indexed": false,
					"internalType": "uint256",
					"name": "buyDevFee",
					"type": "uint256"
				},
				{
					"indexed": false,
					"internalType": "uint256",
					"name": "sellDevFee",
					"type": "uint256"
				}
			],
			"name": "UpdateFees",
			"type": "event"
		},
		{
			"anonymous": false,
			"inputs": [
				{
					"indexed": false,
					"internalType": "address",
					"name": "token",
					"type": "address"
				}
			],
			"name": "UpdatePayoutToken",
			"type": "event"
		},
		{
			"anonymous": false,
			"inputs": [
				{
					"indexed": false,
					"internalType": "uint256",
					"name": "duration",
					"type": "uint256"
				},
				{
					"indexed": false,
					"internalType": "uint256",
					"name": "amount",
					"type": "uint256"
				}
			],
			"name": "UpdateStakingAmounts",
			"type": "event"
		},
		{
			"anonymous": false,
			"inputs": [
				{
					"indexed": false,
					"internalType": "uint256",
					"name": "transferFee",
					"type": "uint256"
				}
			],
			"name": "UpdateTransferFee",
			"type": "event"
		},
		{
			"anonymous": false,
			"inputs": [
				{
					"indexed": true,
					"internalType": "address",
					"name": "newAddress",
					"type": "address"
				},
				{
					"indexed": true,
					"internalType": "address",
					"name": "oldAddress",
					"type": "address"
				}
			],
			"name": "UpdateUniswapV2Router",
			"type": "event"
		},
		{
			"inputs": [],
			"name": "DEAD",
			"outputs": [
				{
					"internalType": "address",
					"name": "",
					"type": "address"
				}
			],
			"stateMutability": "view",
			"type": "function"
		},
		{
			"inputs": [
				{
					"internalType": "address[]",
					"name": "airdropWallets",
					"type": "address[]"
				},
				{
					"internalType": "uint256[]",
					"name": "amount",
					"type": "uint256[]"
				}
			],
			"name": "airdropToWallets",
			"outputs": [],
			"stateMutability": "nonpayable",
			"type": "function"
		},
		{
			"inputs": [
				{
					"internalType": "address",
					"name": "owner",
					"type": "address"
				},
				{
					"internalType": "address",
					"name": "spender",
					"type": "address"
				}
			],
			"name": "allowance",
			"outputs": [
				{
					"internalType": "uint256",
					"name": "",
					"type": "uint256"
				}
			],
			"stateMutability": "view",
			"type": "function"
		},
		{
			"inputs": [
				{
					"internalType": "address",
					"name": "spender",
					"type": "address"
				},
				{
					"internalType": "uint256",
					"name": "amount",
					"type": "uint256"
				}
			],
			"name": "approve",
			"outputs": [
				{
					"internalType": "bool",
					"name": "",
					"type": "bool"
				}
			],
			"stateMutability": "nonpayable",
			"type": "function"
		},
		{
			"inputs": [
				{
					"internalType": "address",
					"name": "",
					"type": "address"
				}
			],
			"name": "automatedMarketMakerPairs",
			"outputs": [
				{
					"internalType": "bool",
					"name": "",
					"type": "bool"
				}
			],
			"stateMutability": "view",
			"type": "function"
		},
		{
			"inputs": [
				{
					"internalType": "address",
					"name": "account",
					"type": "address"
				}
			],
			"name": "balanceOf",
			"outputs": [
				{
					"internalType": "uint256",
					"name": "",
					"type": "uint256"
				}
			],
			"stateMutability": "view",
			"type": "function"
		},
		{
			"inputs": [
				{
					"internalType": "address",
					"name": "account",
					"type": "address"
				}
			],
			"name": "blacklist",
			"outputs": [],
			"stateMutability": "nonpayable",
			"type": "function"
		},
		{
			"inputs": [],
			"name": "buyAmount",
			"outputs": [
				{
					"internalType": "uint256",
					"name": "",
					"type": "uint256"
				}
			],
			"stateMutability": "view",
			"type": "function"
		},
		{
			"inputs": [],
			"name": "buyDeadFees",
			"outputs": [
				{
					"internalType": "uint256",
					"name": "",
					"type": "uint256"
				}
			],
			"stateMutability": "view",
			"type": "function"
		},
		{
			"inputs": [],
			"name": "buyDevFee",
			"outputs": [
				{
					"internalType": "uint256",
					"name": "",
					"type": "uint256"
				}
			],
			"stateMutability": "view",
			"type": "function"
		},
		{
			"inputs": [],
			"name": "buyLiquidityFee",
			"outputs": [
				{
					"internalType": "uint256",
					"name": "",
					"type": "uint256"
				}
			],
			"stateMutability": "view",
			"type": "function"
		},
		{
			"inputs": [],
			"name": "buyMarketingFees",
			"outputs": [
				{
					"internalType": "uint256",
					"name": "",
					"type": "uint256"
				}
			],
			"stateMutability": "view",
			"type": "function"
		},
		{
			"inputs": [],
			"name": "buyRewardsFee",
			"outputs": [
				{
					"internalType": "uint256",
					"name": "",
					"type": "uint256"
				}
			],
			"stateMutability": "view",
			"type": "function"
		},
		{
			"inputs": [],
			"name": "claim",
			"outputs": [],
			"stateMutability": "nonpayable",
			"type": "function"
		},
		{
			"inputs": [],
			"name": "cooldowntimer",
			"outputs": [
				{
					"internalType": "uint256",
					"name": "",
					"type": "uint256"
				}
			],
			"stateMutability": "view",
			"type": "function"
		},
		{
			"inputs": [],
			"name": "decimals",
			"outputs": [
				{
					"internalType": "uint8",
					"name": "",
					"type": "uint8"
				}
			],
			"stateMutability": "view",
			"type": "function"
		},
		{
			"inputs": [
				{
					"internalType": "address",
					"name": "spender",
					"type": "address"
				},
				{
					"internalType": "uint256",
					"name": "subtractedValue",
					"type": "uint256"
				}
			],
			"name": "decreaseAllowance",
			"outputs": [
				{
					"internalType": "bool",
					"name": "",
					"type": "bool"
				}
			],
			"stateMutability": "nonpayable",
			"type": "function"
		},
		{
			"inputs": [],
			"name": "devWallet",
			"outputs": [
				{
					"internalType": "address payable",
					"name": "",
					"type": "address"
				}
			],
			"stateMutability": "view",
			"type": "function"
		},
		{
			"inputs": [
				{
					"internalType": "address",
					"name": "account",
					"type": "address"
				}
			],
			"name": "dividendTokenBalanceOf",
			"outputs": [
				{
					"internalType": "uint256",
					"name": "",
					"type": "uint256"
				}
			],
			"stateMutability": "view",
			"type": "function"
		},
		{
			"inputs": [],
			"name": "dividendTracker",
			"outputs": [
				{
					"internalType": "contract FRENNADividendTracker",
					"name": "",
					"type": "address"
				}
			],
			"stateMutability": "view",
			"type": "function"
		},
		{
			"inputs": [
				{
					"internalType": "bool",
					"name": "enable",
					"type": "bool"
				}
			],
			"name": "enableStaking",
			"outputs": [],
			"stateMutability": "nonpayable",
			"type": "function"
		},
		{
			"inputs": [
				{
					"internalType": "bool",
					"name": "enabled",
					"type": "bool"
				}
			],
			"name": "enableSwapAndLiquify",
			"outputs": [],
			"stateMutability": "nonpayable",
			"type": "function"
		},
		{
			"inputs": [],
			"name": "enableTrading",
			"outputs": [],
			"stateMutability": "nonpayable",
			"type": "function"
		},
		{
			"inputs": [
				{
					"internalType": "uint256",
					"name": "tokens",
					"type": "uint256"
				}
			],
			"name": "forceSwapAndSendDividends",
			"outputs": [],
			"stateMutability": "nonpayable",
			"type": "function"
		},
		{
			"inputs": [],
			"name": "gasForProcessing",
			"outputs": [
				{
					"internalType": "uint256",
					"name": "",
					"type": "uint256"
				}
			],
			"stateMutability": "view",
			"type": "function"
		},
		{
			"inputs": [
				{
					"internalType": "address",
					"name": "account",
					"type": "address"
				}
			],
			"name": "getAccountDividendsInfo",
			"outputs": [
				{
					"internalType": "address",
					"name": "",
					"type": "address"
				},
				{
					"internalType": "int256",
					"name": "",
					"type": "int256"
				},
				{
					"internalType": "int256",
					"name": "",
					"type": "int256"
				},
				{
					"internalType": "uint256",
					"name": "",
					"type": "uint256"
				},
				{
					"internalType": "uint256",
					"name": "",
					"type": "uint256"
				},
				{
					"internalType": "uint256",
					"name": "",
					"type": "uint256"
				}
			],
			"stateMutability": "view",
			"type": "function"
		},
		{
			"inputs": [
				{
					"internalType": "uint256",
					"name": "index",
					"type": "uint256"
				}
			],
			"name": "getAccountDividendsInfoAtIndex",
			"outputs": [
				{
					"internalType": "address",
					"name": "",
					"type": "address"
				},
				{
					"internalType": "int256",
					"name": "",
					"type": "int256"
				},
				{
					"internalType": "int256",
					"name": "",
					"type": "int256"
				},
				{
					"internalType": "uint256",
					"name": "",
					"type": "uint256"
				},
				{
					"internalType": "uint256",
					"name": "",
					"type": "uint256"
				},
				{
					"internalType": "uint256",
					"name": "",
					"type": "uint256"
				}
			],
			"stateMutability": "view",
			"type": "function"
		},
		{
			"inputs": [],
			"name": "getLastProcessedIndex",
			"outputs": [
				{
					"internalType": "uint256",
					"name": "",
					"type": "uint256"
				}
			],
			"stateMutability": "view",
			"type": "function"
		},
		{
			"inputs": [],
			"name": "getNumberOfDividendTokenHolders",
			"outputs": [
				{
					"internalType": "uint256",
					"name": "",
					"type": "uint256"
				}
			],
			"stateMutability": "view",
			"type": "function"
		},
		{
			"inputs": [],
			"name": "getPayoutToken",
			"outputs": [
				{
					"internalType": "address",
					"name": "",
					"type": "address"
				}
			],
			"stateMutability": "view",
			"type": "function"
		},
		{
			"inputs": [
				{
					"internalType": "address",
					"name": "account",
					"type": "address"
				}
			],
			"name": "getStakingInfo",
			"outputs": [
				{
					"internalType": "uint256",
					"name": "",
					"type": "uint256"
				},
				{
					"internalType": "uint256",
					"name": "",
					"type": "uint256"
				}
			],
			"stateMutability": "view",
			"type": "function"
		},
		{
			"inputs": [],
			"name": "getTotalDividendsDistributed",
			"outputs": [
				{
					"internalType": "uint256",
					"name": "",
					"type": "uint256"
				}
			],
			"stateMutability": "view",
			"type": "function"
		},
		{
			"inputs": [
				{
					"internalType": "address",
					"name": "spender",
					"type": "address"
				},
				{
					"internalType": "uint256",
					"name": "addedValue",
					"type": "uint256"
				}
			],
			"name": "increaseAllowance",
			"outputs": [
				{
					"internalType": "bool",
					"name": "",
					"type": "bool"
				}
			],
			"stateMutability": "nonpayable",
			"type": "function"
		},
		{
			"inputs": [
				{
					"internalType": "address",
					"name": "",
					"type": "address"
				}
			],
			"name": "isBlacklisted",
			"outputs": [
				{
					"internalType": "bool",
					"name": "",
					"type": "bool"
				}
			],
			"stateMutability": "view",
			"type": "function"
		},
		{
			"inputs": [
				{
					"internalType": "address",
					"name": "account",
					"type": "address"
				}
			],
			"name": "isExcludedFromAutoClaim",
			"outputs": [
				{
					"internalType": "bool",
					"name": "",
					"type": "bool"
				}
			],
			"stateMutability": "view",
			"type": "function"
		},
		{
			"inputs": [
				{
					"internalType": "address",
					"name": "account",
					"type": "address"
				}
			],
			"name": "isExcludedFromFees",
			"outputs": [
				{
					"internalType": "bool",
					"name": "",
					"type": "bool"
				}
			],
			"stateMutability": "view",
			"type": "function"
		},
		{
			"inputs": [
				{
					"internalType": "address",
					"name": "account",
					"type": "address"
				}
			],
			"name": "isReinvest",
			"outputs": [
				{
					"internalType": "bool",
					"name": "",
					"type": "bool"
				}
			],
			"stateMutability": "view",
			"type": "function"
		},
		{
			"inputs": [],
			"name": "launchblock",
			"outputs": [
				{
					"internalType": "uint256",
					"name": "",
					"type": "uint256"
				}
			],
			"stateMutability": "view",
			"type": "function"
		},
		{
			"inputs": [],
			"name": "limitsInEffect",
			"outputs": [
				{
					"internalType": "bool",
					"name": "",
					"type": "bool"
				}
			],
			"stateMutability": "view",
			"type": "function"
		},
		{
			"inputs": [],
			"name": "marketingWallet",
			"outputs": [
				{
					"internalType": "address payable",
					"name": "",
					"type": "address"
				}
			],
			"stateMutability": "view",
			"type": "function"
		},
		{
			"inputs": [],
			"name": "maxWallet",
			"outputs": [
				{
					"internalType": "uint256",
					"name": "",
					"type": "uint256"
				}
			],
			"stateMutability": "view",
			"type": "function"
		},
		{
			"inputs": [
				{
					"internalType": "address[]",
					"name": "_contributors",
					"type": "address[]"
				},
				{
					"internalType": "uint256[]",
					"name": "_balances",
					"type": "uint256[]"
				}
			],
			"name": "multiSend",
			"outputs": [],
			"stateMutability": "nonpayable",
			"type": "function"
		},
		{
			"inputs": [],
			"name": "name",
			"outputs": [
				{
					"internalType": "string",
					"name": "",
					"type": "string"
				}
			],
			"stateMutability": "view",
			"type": "function"
		},
		{
			"inputs": [],
			"name": "owner",
			"outputs": [
				{
					"internalType": "address",
					"name": "",
					"type": "address"
				}
			],
			"stateMutability": "view",
			"type": "function"
		},
		{
			"inputs": [
				{
					"internalType": "uint256",
					"name": "gas",
					"type": "uint256"
				}
			],
			"name": "processDividendTracker",
			"outputs": [],
			"stateMutability": "nonpayable",
			"type": "function"
		},
		{
			"inputs": [],
			"name": "renounceOwnership",
			"outputs": [],
			"stateMutability": "nonpayable",
			"type": "function"
		},
		{
			"inputs": [],
			"name": "sellAmount",
			"outputs": [
				{
					"internalType": "uint256",
					"name": "",
					"type": "uint256"
				}
			],
			"stateMutability": "view",
			"type": "function"
		},
		{
			"inputs": [],
			"name": "sellDeadFees",
			"outputs": [
				{
					"internalType": "uint256",
					"name": "",
					"type": "uint256"
				}
			],
			"stateMutability": "view",
			"type": "function"
		},
		{
			"inputs": [],
			"name": "sellDevFee",
			"outputs": [
				{
					"internalType": "uint256",
					"name": "",
					"type": "uint256"
				}
			],
			"stateMutability": "view",
			"type": "function"
		},
		{
			"inputs": [],
			"name": "sellLiquidityFee",
			"outputs": [
				{
					"internalType": "uint256",
					"name": "",
					"type": "uint256"
				}
			],
			"stateMutability": "view",
			"type": "function"
		},
		{
			"inputs": [],
			"name": "sellMarketingFees",
			"outputs": [
				{
					"internalType": "uint256",
					"name": "",
					"type": "uint256"
				}
			],
			"stateMutability": "view",
			"type": "function"
		},
		{
			"inputs": [],
			"name": "sellRewardsFee",
			"outputs": [
				{
					"internalType": "uint256",
					"name": "",
					"type": "uint256"
				}
			],
			"stateMutability": "view",
			"type": "function"
		},
		{
			"inputs": [
				{
					"internalType": "bool",
					"name": "allow",
					"type": "bool"
				}
			],
			"name": "setAllowAutoReinvest",
			"outputs": [],
			"stateMutability": "nonpayable",
			"type": "function"
		},
		{
			"inputs": [
				{
					"internalType": "bool",
					"name": "allow",
					"type": "bool"
				}
			],
			"name": "setAllowCustomTokens",
			"outputs": [],
			"stateMutability": "nonpayable",
			"type": "function"
		},
		{
			"inputs": [
				{
					"internalType": "bool",
					"name": "value",
					"type": "bool"
				}
			],
			"name": "setAutoClaim",
			"outputs": [],
			"stateMutability": "nonpayable",
			"type": "function"
		},
		{
			"inputs": [
				{
					"internalType": "address",
					"name": "pair",
					"type": "address"
				},
				{
					"internalType": "bool",
					"name": "value",
					"type": "bool"
				}
			],
			"name": "setAutomatedMarketMakerPair",
			"outputs": [],
			"stateMutability": "nonpayable",
			"type": "function"
		},
		{
			"inputs": [
				{
					"internalType": "address",
					"name": "wallet",
					"type": "address"
				},
				{
					"internalType": "bool",
					"name": "enable",
					"type": "bool"
				}
			],
			"name": "setCanTransferBefore",
			"outputs": [],
			"stateMutability": "nonpayable",
			"type": "function"
		},
		{
			"inputs": [
				{
					"internalType": "bool",
					"name": "value",
					"type": "bool"
				}
			],
			"name": "setDividendsPaused",
			"outputs": [],
			"stateMutability": "nonpayable",
			"type": "function"
		},
		{
			"inputs": [
				{
					"internalType": "address",
					"name": "account",
					"type": "address"
				}
			],
			"name": "setExcludeDividends",
			"outputs": [],
			"stateMutability": "nonpayable",
			"type": "function"
		},
		{
			"inputs": [
				{
					"internalType": "address",
					"name": "account",
					"type": "address"
				},
				{
					"internalType": "bool",
					"name": "excluded",
					"type": "bool"
				}
			],
			"name": "setExcludeFees",
			"outputs": [],
			"stateMutability": "nonpayable",
			"type": "function"
		},
		{
			"inputs": [
				{
					"internalType": "uint256",
					"name": "GWEI",
					"type": "uint256"
				}
			],
			"name": "setGasPriceLimit",
			"outputs": [],
			"stateMutability": "nonpayable",
			"type": "function"
		},
		{
			"inputs": [
				{
					"internalType": "address",
					"name": "account",
					"type": "address"
				}
			],
			"name": "setIncludeDividends",
			"outputs": [],
			"stateMutability": "nonpayable",
			"type": "function"
		},
		{
			"inputs": [
				{
					"internalType": "bool",
					"name": "value",
					"type": "bool"
				}
			],
			"name": "setLimitsInEffect",
			"outputs": [],
			"stateMutability": "nonpayable",
			"type": "function"
		},
		{
			"inputs": [
				{
					"internalType": "uint256",
					"name": "value",
					"type": "uint256"
				}
			],
			"name": "setMinimumTokenBalanceForAutoDividends",
			"outputs": [],
			"stateMutability": "nonpayable",
			"type": "function"
		},
		{
			"inputs": [
				{
					"internalType": "uint256",
					"name": "value",
					"type": "uint256"
				}
			],
			"name": "setMinimumTokenBalanceForDividends",
			"outputs": [],
			"stateMutability": "nonpayable",
			"type": "function"
		},
		{
			"inputs": [
				{
					"internalType": "address",
					"name": "wallet",
					"type": "address"
				}
			],
			"name": "setPresaleWallet",
			"outputs": [],
			"stateMutability": "nonpayable",
			"type": "function"
		},
		{
			"inputs": [
				{
					"internalType": "bool",
					"name": "value",
					"type": "bool"
				}
			],
			"name": "setReinvest",
			"outputs": [],
			"stateMutability": "nonpayable",
			"type": "function"
		},
		{
			"inputs": [
				{
					"internalType": "uint256",
					"name": "amount",
					"type": "uint256"
				}
			],
			"name": "setSwapTriggerAmount",
			"outputs": [],
			"stateMutability": "nonpayable",
			"type": "function"
		},
		{
			"inputs": [
				{
					"internalType": "uint256",
					"name": "value",
					"type": "uint256"
				}
			],
			"name": "setcooldowntimer",
			"outputs": [],
			"stateMutability": "nonpayable",
			"type": "function"
		},
		{
			"inputs": [
				{
					"internalType": "uint256",
					"name": "value",
					"type": "uint256"
				}
			],
			"name": "setmaxWallet",
			"outputs": [],
			"stateMutability": "nonpayable",
			"type": "function"
		},
		{
			"inputs": [
				{
					"internalType": "uint256",
					"name": "duration",
					"type": "uint256"
				}
			],
			"name": "stake",
			"outputs": [],
			"stateMutability": "nonpayable",
			"type": "function"
		},
		{
			"inputs": [
				{
					"internalType": "uint256",
					"name": "",
					"type": "uint256"
				}
			],
			"name": "stakingAmounts",
			"outputs": [
				{
					"internalType": "uint256",
					"name": "",
					"type": "uint256"
				}
			],
			"stateMutability": "view",
			"type": "function"
		},
		{
			"inputs": [
				{
					"internalType": "address",
					"name": "",
					"type": "address"
				}
			],
			"name": "stakingBonus",
			"outputs": [
				{
					"internalType": "uint256",
					"name": "",
					"type": "uint256"
				}
			],
			"stateMutability": "view",
			"type": "function"
		},
		{
			"inputs": [
				{
					"internalType": "address",
					"name": "",
					"type": "address"
				}
			],
			"name": "stakingUntilDate",
			"outputs": [
				{
					"internalType": "uint256",
					"name": "",
					"type": "uint256"
				}
			],
			"stateMutability": "view",
			"type": "function"
		},
		{
			"inputs": [],
			"name": "swapAndLiquifyEnabled",
			"outputs": [
				{
					"internalType": "bool",
					"name": "",
					"type": "bool"
				}
			],
			"stateMutability": "view",
			"type": "function"
		},
		{
			"inputs": [],
			"name": "swapTokensAtAmount",
			"outputs": [
				{
					"internalType": "uint256",
					"name": "",
					"type": "uint256"
				}
			],
			"stateMutability": "view",
			"type": "function"
		},
		{
			"inputs": [],
			"name": "symbol",
			"outputs": [
				{
					"internalType": "string",
					"name": "",
					"type": "string"
				}
			],
			"stateMutability": "view",
			"type": "function"
		},
		{
			"inputs": [],
			"name": "totalSupply",
			"outputs": [
				{
					"internalType": "uint256",
					"name": "",
					"type": "uint256"
				}
			],
			"stateMutability": "view",
			"type": "function"
		},
		{
			"inputs": [],
			"name": "tradingEnabled",
			"outputs": [
				{
					"internalType": "bool",
					"name": "",
					"type": "bool"
				}
			],
			"stateMutability": "view",
			"type": "function"
		},
		{
			"inputs": [
				{
					"internalType": "address",
					"name": "recipient",
					"type": "address"
				},
				{
					"internalType": "uint256",
					"name": "amount",
					"type": "uint256"
				}
			],
			"name": "transfer",
			"outputs": [
				{
					"internalType": "bool",
					"name": "",
					"type": "bool"
				}
			],
			"stateMutability": "nonpayable",
			"type": "function"
		},
		{
			"inputs": [
				{
					"internalType": "address",
					"name": "newOwner",
					"type": "address"
				}
			],
			"name": "transferAdmin",
			"outputs": [],
			"stateMutability": "nonpayable",
			"type": "function"
		},
		{
			"inputs": [],
			"name": "transferFee",
			"outputs": [
				{
					"internalType": "uint256",
					"name": "",
					"type": "uint256"
				}
			],
			"stateMutability": "view",
			"type": "function"
		},
		{
			"inputs": [
				{
					"internalType": "address",
					"name": "sender",
					"type": "address"
				},
				{
					"internalType": "address",
					"name": "recipient",
					"type": "address"
				},
				{
					"internalType": "uint256",
					"name": "amount",
					"type": "uint256"
				}
			],
			"name": "transferFrom",
			"outputs": [
				{
					"internalType": "bool",
					"name": "",
					"type": "bool"
				}
			],
			"stateMutability": "nonpayable",
			"type": "function"
		},
		{
			"inputs": [
				{
					"internalType": "address",
					"name": "newOwner",
					"type": "address"
				}
			],
			"name": "transferOwnership",
			"outputs": [],
			"stateMutability": "nonpayable",
			"type": "function"
		},
		{
			"inputs": [],
			"name": "uniswapV2Pair",
			"outputs": [
				{
					"internalType": "address",
					"name": "",
					"type": "address"
				}
			],
			"stateMutability": "view",
			"type": "function"
		},
		{
			"inputs": [],
			"name": "uniswapV2Router",
			"outputs": [
				{
					"internalType": "contract IUniswapV2Router02",
					"name": "",
					"type": "address"
				}
			],
			"stateMutability": "view",
			"type": "function"
		},
		{
			"inputs": [
				{
					"internalType": "uint256",
					"name": "deadBuy",
					"type": "uint256"
				},
				{
					"internalType": "uint256",
					"name": "deadSell",
					"type": "uint256"
				},
				{
					"internalType": "uint256",
					"name": "marketingBuy",
					"type": "uint256"
				},
				{
					"internalType": "uint256",
					"name": "marketingSell",
					"type": "uint256"
				},
				{
					"internalType": "uint256",
					"name": "liquidityBuy",
					"type": "uint256"
				},
				{
					"internalType": "uint256",
					"name": "liquiditySell",
					"type": "uint256"
				},
				{
					"internalType": "uint256",
					"name": "RewardsBuy",
					"type": "uint256"
				},
				{
					"internalType": "uint256",
					"name": "RewardsSell",
					"type": "uint256"
				},
				{
					"internalType": "uint256",
					"name": "devBuy",
					"type": "uint256"
				},
				{
					"internalType": "uint256",
					"name": "devSell",
					"type": "uint256"
				}
			],
			"name": "updateFees",
			"outputs": [],
			"stateMutability": "nonpayable",
			"type": "function"
		},
		{
			"inputs": [
				{
					"internalType": "uint256",
					"name": "newValue",
					"type": "uint256"
				}
			],
			"name": "updateGasForProcessing",
			"outputs": [],
			"stateMutability": "nonpayable",
			"type": "function"
		},
		{
			"inputs": [
				{
					"internalType": "address",
					"name": "token",
					"type": "address"
				}
			],
			"name": "updatePayoutToken",
			"outputs": [],
			"stateMutability": "nonpayable",
			"type": "function"
		},
		{
			"inputs": [
				{
					"internalType": "uint256",
					"name": "duration",
					"type": "uint256"
				},
				{
					"internalType": "uint256",
					"name": "bonus",
					"type": "uint256"
				}
			],
			"name": "updateStakingAmounts",
			"outputs": [],
			"stateMutability": "nonpayable",
			"type": "function"
		},
		{
			"inputs": [
				{
					"internalType": "uint256",
					"name": "newTransferFee",
					"type": "uint256"
				}
			],
			"name": "updateTransferFee",
			"outputs": [],
			"stateMutability": "nonpayable",
			"type": "function"
		},
		{
			"inputs": [
				{
					"internalType": "address",
					"name": "account",
					"type": "address"
				}
			],
			"name": "withdrawableDividendOf",
			"outputs": [
				{
					"internalType": "uint256",
					"name": "",
					"type": "uint256"
				}
			],
			"stateMutability": "view",
			"type": "function"
		},
		{
			"stateMutability": "payable",
			"type": "receive"
		}
	]
}